:020000040800F2
:1000000078200024E1020008914B0008B94500085F
:10001000894B0008510300086189000800000000B6
:100020000000000000000000000000001164000853
:100030005903000800000000A94B000819640008DB
:10004000FB020008FB020008FB020008FB0200089C
:10005000FB020008FB020008FB020008FB0200088C
:10006000FB020008FB020008FB020008FB0200087C
:10007000FB020008FB020008FB020008FB0200086C
:10008000FB020008FB020008FB020008FB0200085C
:10009000FB020008FB020008FB020008FB0200084C
:1000A000FB020008FB020008FB020008FB0200083C
:1000B000FB020008FB020008FB020008FB0200082C
:1000C000FB020008FB020008FB020008FB0200081C
:1000D000FB020008FB020008FB020008FB0200080C
:1000E000FB020008FB02000800000000FB02000801
:1000F000FB020008FB020008FB020008FB020008EC
:10010000FB020008295A0008FB020008FB02000855
:10011000FB020008FB020008FB020008FB020008CB
:10012000FB020008FB020008FB020008FB020008BB
:10013000FB020008FB020008FB020008FB020008AB
:1001400000000000000000000000000000000000AF
:10015000FB020008FB020008FB020008FB0200088B
:10016000FB020008FB020008FB020008FB0200087B
:10017000FB020008994B0008FB0200080000000089
:10018000FB020008FB020008FB020008FB0200085B
:10019000FB020008FB020008FB020008FB0200084B
:1001A000FB020008FB020008FB0200080000000040
:1001B000FB020008FB020008FB020008FB0200082B
:1001C000FB020008FB020008000000000000000025
:1001D0000000000000000000FB020008000000001A
:1001E000000000000000000000000000000000000F
:1001F0000000000000000000FB020008FB020008F5
:10020000FB020008FB02000800000000FB020008DF
:10021000FB020008FB020008FB020008FB020008CA
:10022000FB02000800000000FB02000800000000C4
:10023000FB020008FB02000800000000FB020008AF
:10024000FB020008FB020008FB020008FB0200089A
:10025000FB020008FB020008FB020008FB0200088A
:10026000FB020008FB020008FB020008FB0200087A
:10027000FB020008FB020008FB020008000000006F
:10028000FB020008FB020008FB020008FB0200085A
:1002900000000000FB020008FB0200080000000054
:1002A00000000000FB020008FB020008FB0200083F
:1002B000FB020008FB020008FB020008FB0200082A
:1002C000FB020008FB020008FB020008DFF80CD06C
:1002D00000F02AF800480047498A000878200024E6
:1002E0000648804706480047FEE7FEE7FEE7FEE7D0
:1002F000FEE7FEE7FEE7FEE7FEE7FEE70165000832
:10030000CD020008D2B201E000F8012B491EFBD259
:1003100070470022F6E710B513460A460446194610
:10032000FFF7F0FF204610BD064C074D06E0E068E1
:1003300040F0010394E8070098471034AC42F6D32C
:10034000FFF7C8FF3C8B00085C8B00080000000032
:10035000FEE7000000000000704700000000000001
:10036000EFF3108072B600BF012008F059FBFBE7E5
:10037000B0B5044600F000F940F200010546C2F2B3
:100380000041621C097818BF0C4400BF00F0F4F86B
:10039000401BA042FAD3B0BD2DE9F04F82B00D68EA
:1003A000002D00F0CB8000F1264242F2004302F122
:1003B000FF72C5F602030A2698424FEAB22444F2BD
:1003C000F44E08BF0926082C40F2040C38BF4FEA4F
:1003D000B226C5F6020EC5F6000C009600220027D4
:1003E000002609E001360D6835FA06F307F1040727
:1003F00002F1020200F0A280012303FA06F415EADA
:100400000408EFD0D1F804A003230AF0030B9340B3
:10041000ABF101056FEA0309012D0FD88368CD68A0
:1004200003EA090395402B438360CAF30015436830
:10043000A34305FA06F42343436005E0BBF1030F31
:1004400002D14FF0030B21E0C3688C6803EA090373
:100450009440BBF1020F43EA0403C36016D16FF06E
:10046000030307F01C0503EA56030F24034404FAB0
:1004700005FBD3F820A00C692AEA0B0AAC4044EA39
:100480000A041C62D1F804A00AF0030B03680BFAFB
:1004900002F403EA09031AF4403F43EA0403036049
:1004A000A0D0DEF8003040F2084A43F00203CEF854
:1004B0000030DEF80030C5F6000A03F002030193B5
:1004C00026F00303019C07F00C040F2553F80A9053
:1004D000A54029EA0509009D05FA04F444EA090447
:1004E00043F80A404FF0B04ADAF800904C6849EA05
:1004F0000805E30258BF29EA0805A302CAF800501C
:10050000DCF8009049EA080558BF29EA0805A3036A
:10051000CCF80050DCF8809049EA080558BF29EA79
:100520000805E403CCF88050DCF87C3043EA080589
:1005300058BF23EA0805CCF87C5053E702B0BDE869
:10054000F08F0000000000000069084018BF012083
:100550007047000000000000426902EA0103914375
:1005600041EA034181617047002A08BF09048161A3
:10057000704700000000000041F67040C2F20040E9
:10058000006870470000000040F2000041F6704132
:10059000C2F20040C2F2004100780A6810440860CC
:1005A000704700000000000080B5032000F0FCF858
:1005B00002F04AFC44F2184148F60833C5F602013D
:1005C000C0F600030A68096801F00F01C2F30322B4
:1005D000595C9A5C01F01F0102F01F02D04040F20A
:1005E0000C02C2F2004220FA01F1116040F208014F
:1005F000C2F2004108600F2000F00AF800281CBF7A
:10060000012080BD00F07CF8002080BD00000000CB
:1006100070B540F20006C2F200463178E1B10446FE
:1006200040F20800C2F200404FF47A72B2FBF1F1DE
:100630000068B0FBF1F003F0A7FF0F2C4FF00105AD
:1006400008D838B94FF0FF3000222146002500F0CD
:100650007BF87460284670BD012070BD000000006A
:10066000B0B502784EF69C5CCEF2000C43784CF8A4
:10067000043CFAB14368CCF80030037BC17A90F8AF
:100680000AE0457B447A42EA0372837B42EA0161D5
:10069000C27B41EACE41007A41EA854141EA4341C9
:1006A00041EA024141EA042141EA4000CCF8040059
:1006B000B0BD00BF0020CCF80000CCF80400B0BDF5
:1006C0004EF62450CEF20000BFF35F8F016821F494
:1006D00080310160002101677047000000000000C8
:1006E0004EF6245140F00100CEF200010867086880
:1006F00040F480300860BFF34F8FBFF36F8F7047B7
:1007000081B044F2F440C5F60200016841F00201F4
:100710000160006800F002000090009801B070478E
:10072000002848BF704781B200F01F00012249092C
:1007300002FA00F04EF20012CEF2000242F821005E
:10074000704700000000000070B54EF60C5C4FF0E2
:10075000FF36CEF2000C00F1604505F56445DCF88B
:100760000030C3F3022E8EF00703042B28BF0423AE
:10077000BEF1030406FA03F321EA030100F00F03BC
:1007800038BF0024043B0028634406FA04F048BF45
:1007900003F10C05A14022EA000008430001287083
:1007A00070BD0000000000004EF60C514FF6FF0334
:1007B000CEF200010A681A4060F30A2242F080601B
:1007C00040F0FD700860704701680122C0F8002504
:1007D000002280F8F424886940F000608861486D48
:1007E00040F08052002042F003024A65704700004A
:1007F000704700000000000002680020516270474E
:100800002DE9F04F81B0D0F80080D8F8240099B1DC
:10081000D8F82830B1F1010E00EB134375D0AEF1DA
:1008200001000EF00307C0B203280DD201214FF0E2
:10083000000A002F50D168E040EA0240C8F82800C2
:10084000002001B0BDE8F08F08F1F4050021009709
:1008500041F0010408F5827C55F8100FE4B241F034
:100860000207FFB203EB104B5CF8244041F0030396
:10087000D8B25CF827600B1D0EF0FC095FFA83FA12
:100880000BEB1444CA4504EB16445CF820001ED060
:10089000194643F00103DBB204EB104A41F00204B5
:1008A00055F8106FE4B241F00307FFB25CF8230083
:1008B0000B1D0AEB16465FFA83FA5CF8244006EB40
:1008C0001046CA455CF8270006EB1444E0D104EB5F
:1008D00010430531009FC7B108EB8A00012FD0F803
:1008E000040103EB104310D0C8B2022F08EB8000C4
:1008F000D0F8040103EB104307D0481CC0B208EB4A
:100900008000D0F8040103EB104308EB8E0043EAAB
:100910000241C0F80411002001B0BDE8F08F0000D2
:10092000D0F8080506F040B901EBC10200EB8202E5
:10093000D0F80805926C06F09BB80000000000009B
:1009400001EBC10200EB8202D0F80805D2F8882240
:1009500006F0EEB800000000D0F8080506F028B94F
:1009600010B54AB2044601F00F00B2F1FF3F00EBB0
:10097000C00104EB81020BDD02F51F71002382F838
:100980007D3294F8BC240870012A0BD1022010BDDE
:1009900002F13C01012382F83D3094F8BC24087038
:1009A000012AF3D0012084F8BC04206807F0A4F8E1
:1009B000002084F8BC0410BDB0B5044601F00F005F
:1009C0006268824202D20120B0BD00BF49B2B1F1DB
:1009D000FF3F09DD00EBC001002304EB810202F5BB
:1009E0001F7182F87D3208E000EBC001012304EBA7
:1009F000810202F13C0182F83D3094F8BC240025CC
:100A00008D70012A087001D10220B0BD012084F848
:100A1000BC04206807F058FB284684F8BC54B0BDDD
:100A200010B5044690F8BC04012801D1022010BD85
:100A300048B20122B0F1FF3F206884F8BC2405DDF4
:100A400007F026FD002084F8BC0410BD01F00F0162
:100A500007F07AFD002084F8BC0410BD00000000FF
:100A600001F00F0101EBC10100EB8100D0F8900211
:100A7000704700000000000070B54CB2064601F05F
:100A80000F00B4F1FF3F00EBC00107DD06EB81046E
:100A9000002504F51F7184F87D5206E006EB810CF9
:100AA00001240CF13C018CF83D404D7808708A60BF
:100AB000002D0B7118BF4883022B01D10020487113
:100AC00096F8BC04012801D1022070BD012086F8EF
:100AD000BC04306806F0B8FE002086F8BC0470BD87
:100AE00080B501F00F0E0EEBCE0100EB810C002162
:100AF000CCE9A331C368CCF888228CF87D12012B95
:100B00008CF87CE20CF51F7108BFCCF89822DAB2A1
:100B1000006807F025FB002080BD000000000000F9
:100B2000B0B5044601F00F054068854202D90120A6
:100B3000B0BD00BF48B2B0F1FF3F09DD01EBC1001D
:100B4000002204EB800000F51F7180F87D2208E090
:100B500005EBC500012204EB800000F13C0180F8A8
:100B60003D2094F8BC2401208870012A0D7001D129
:100B70000220B0BD84F8BC04206807F0D1FA1DB192
:100B8000002084F8BC04B0BD217B206804F2C4427C
:100B900007F06AFA002084F8BC04B0BD0000000031
:100BA00080B501F00F0E0EEBCE0100EB810C61461B
:100BB00001F83CEF4FF0000EC1F814E04FF0010EC9
:100BC00081F801E0D0F80CE0CA60BEF1010F0B61C2
:100BD00008BFCCF858205FFA8EF2006807F0C0FA20
:100BE000002080BD000000002DE9F04F89B00568AD
:100BF0008246284607F014FD10B109B0BDE8F08F19
:100C0000DAF8000007F03CFD0028F6D0D5F8080817
:100C1000C0F30D20CAF8FC04DAF8000007F030FD3C
:100C20008007DAF8000003D5416901F00201416153
:100C300005F50061049107F023FDC006DAF8000015
:100C400005953BD5816921F0100181612C6A04F082
:100C50000F05C4F34340062818D0022827D147F6D1
:100C6000F07014EA000622D005EBC50034090AEB47
:100C7000800705982246D7F8881207F005FDD7F8B7
:100C8000880200EB1610C7F8880207E00AF2C44198
:100C90000822059807F0F8FCC4F30A1405EBC50018
:100CA0000AEB8000D0F890122144C0F89012DAF8D4
:100CB0000000816941F010018161059D07F0E0FCB1
:100CC0000003CDF820A040F10381DAF8000007F01E
:100CD000B3FC002800F0FC8006460AF527784FF4A4
:100CE00030644FF0000B0AF2C440079009E000BFE7
:100CF0000BF1010B760804F1200408F1240800F040
:100D0000E780F007F4D05FFA8BF9DAF80000494683
:100D100007F0AEFC8246C0076DD028190121816022
:100D2000089F38682118036C8A68FF68012F29D151
:100D300017073BD497065BD412F0280F059D5AD1B4
:100D400043F20B07C4F65477BB4202D312F40042BD
:100D50004AD1D8F8002009696FF3DF41BBF1000FD9
:100D6000A2EB0101059D48F80C1C19D1089BD3F892
:100D70008C22002A00F0A680D3F888020844C3F829
:100D800088020DE043F20B07C4F65477FF37BB42ED
:100D90001AD1100428D49006059D01D52020886022
:100DA00008984946FFF7CCFD25E000BF43F20B0051
:100DB000059DC4F6547083421DD312F400401AD02E
:100DC0004FF40040886016E0BBF1000F07D108998E
:100DD000D1F88C1219B90021079A07F045F9089843
:100DE0004946FFF7ADFD05E04FF4004001E000BFCC
:100DF00020208860059D5FEA0A7025D52819082102
:100E0000816043F20B010898C4F654714F1E0068CC
:100E1000056C2044BD42816805D911F400411CBF16
:100E20004FF400418160089800F0E6FCBD42059D4A
:100E30000AD90898C068012806D108980121079AA4
:100E4000006807F011F900BF5FEACA600CD45FEADE
:100E50008A700FD45FEA8A6025D45FEA8A40DDF8A1
:100E600020A07FF545AF27E02819102181605FEAB7
:100E70008A70EFD56869000604D50499486840F483
:100E80008060486018F81D0C012806D1002008F881
:100E90001D0C0898494600F097FB28190221816033
:100EA0005FEA8A60D9D52819202181605FEA8A40EB
:100EB000DDF820A07FF51CAF28194FF400518160A8
:100EC00016E700BF0121079A07F0CEF868E700BFD8
:100ED000DAF80000AB4607F0D3FB400340F1E080B6
:100EE000DAF8000007F0A0FB002800F0D9800646E1
:100EF00000270BF5106003900AF2C440029004E052
:100F0000760807F1010700F0CB80F007F8D0F9B2BE
:100F1000DAF80000079107F097FB0446C007039D2D
:100F20000AD1200734D4E00638D460063CD4A007A8
:100F300040D42006E4D556E0049B07F00F004FF0A4
:100F4000010C05EB47120CFA00F0596B21EA000086
:100F50005863C2F808C0DAF80C00012812D107EB78
:100F6000C7000AEB8000D0E91112114481644FB927
:100F7000DAF84C0030B9DAF800000121029A07F0E3
:100F800073F800BF50460799FFF7CEFC2007CAD57B
:100F900005EB471008218160E006C6D505EB471038
:100FA000102181606006C2D505EB471040218160A9
:100FB000A007BED55846394607F0C6FA07EBC7006A
:100FC0000AEB800010F83F1F012905D100210170B4
:100FD0005046079900F0F4FA05EB471002218160B2
:100FE00020067FF58DAF07EBC7000AEB8002914624
:100FF00059F84C1FC84658F8040F8142FFF480AFDF
:101000009346DAF800400B1A5BF8445FAB4238BFF6
:101010001D4604EB4713069405F1030CD3F8185949
:10102000ADB2B5EB9C0F29D303F5106A02F1480568
:10103000D9F8001081421FD9081A0899DBF800403E
:10104000A0420A7B38BF044629680092A3B2DDE9BA
:10105000060207F049FC2868E11C20442860D8F803
:1010600000002044C8F80000DAF8182092B2B2EB71
:10107000910FDDD2D9F80010DDF820A0DDF814B012
:1010800081423FF63DAF069A07F00F00012101FAB9
:1010900000F0D2F8341821EA0000C2F834082FE733
:1010A000DAF8000007F0ECFA00281DD4DAF80000A6
:1010B00007F0E6FA000536D4DAF8000007F0E0FAA7
:1010C000000141D4DAF8000007F0DAFAC0044DD488
:1010D000DAF80000DDF8108007F0D2FA8004DAF8C0
:1010E000000000F164817DE10499486820F001006E
:1010F00048609AF8F404012808D100208AF8F40422
:1011000000215046FFF774FB03E000BF504600F09B
:1011100057FBDAF80000416901F00041416107F036
:10112000AFFA0005C8D504988068C00702D05046C1
:1011300000F08AFBDAF80000416901F400614161C6
:1011400007F09EFA0001BDD5DAF80000416901F010
:10115000006141619AF8F414F1B1504600F074FB5B
:10116000DAF8000007F08CFAC004B1D50499486899
:1011700020F001004860DAF80000102107F0E4F9DF
:10118000DAF80400002800F0D780411E00F0030CBC
:10119000032915D2002181E001218AF8F414406D61
:1011A0000121C0F38300CAF8F8045046FFF720FB82
:1011B000DAF8000007F064FAC0047FF589AFD5E7DC
:1011C00020F0030E4FF6A0584FF6C0554FF6E054EE
:1011D0004FF600600BF5366300214FF67F37CFF6F0
:1011E000FF78CFF6FF75CFF6FF74CFF6FF7000BF24
:1011F000A3F51872A3F51076043197608E4553F865
:10120000082022F4001243F8082043F8587C53F8D1
:10121000602C22F4001243F8602C53F8602C42F04A
:10122000006243F8602CB760A3F508765A5922F49F
:1012300000125A5143F8387C53F8402C22F4001223
:1012400043F8402C53F8402C42F0006243F8402C05
:10125000B760A3F500761A5922F400121A5143F828
:10126000187C53F8202C22F4001243F8202C53F859
:10127000202C42F0006243F8202CB7601A5822F468
:1012800000121A509F601A6822F400121A601A683D
:1012900042F000621A6003F18003A9D1BCF1000F93
:1012A000059849D000F5106200F5306002EB411757
:1012B0004FF67F334E01BCF1010FBB6000EB4115CF
:1012C000975927F400179751AB60875927F40017F7
:1012D0008751875947F0006787512DD04F1CBCF1CB
:1012E000020F4FEA471502EB471600EB4717B360B2
:1012F000565926F400165651BB60435923F4001387
:101300004351435943F00063435115D002314FF626
:101310007F364F0102EB411300EB41119E60D35920
:1013200023F40013D3518E60C15921F40011C1512F
:10133000C15941F00061C151DDF81080D8F81C009E
:1013400040F00110C8F81C00DAF8300040B1D8F8BD
:10135000840040F00B00C8F8840008F1440008E065
:10136000D8F8140042F22B010843C8F8140008F121
:10137000100001680AF2C44241F00B010160D8F884
:10138000000020F4FE60C8F800009AF80C10DAF8AB
:10139000000006F069FEDAF80000416901F48051AE
:1013A000416107F06DF98004DAF800001AD506F003
:1013B00093FADAF8000007F023F9CAF81000DAF817
:1013C000004001F0E9FC9AF810200146204607F0A1
:1013D000FBF9504600F0DCF9DAF80000416901F44D
:1013E0000051416107F04CF9000707D4DAF800001A
:1013F00007F046F900060ED436E000BF504600F074
:10140000E3F9DAF80000416901F00801416107F0F1
:1014100037F9000628D50599886920F08000886191
:10142000DAF8040002281FD3012440F2A32503E0C8
:1014300001342435844217D21AF805100129F7D156
:1014400004F00F00220600EBC0000AEB800000F160
:101450003C0158BF00F51F71DAF8000006F088FF64
:10146000DAF80400E4E700BFDAF8000007F008F952
:10147000C00251D4DAF8000007F002F98002059D9D
:1014800040F18080DAF8041002292BD305F5326090
:1014900001390AF52972012306E000BF013900F184
:1014A000200002F124021DD007681678012EF5D124
:1014B000B7F1FF3FF2DCDAF8FC6407F4803706F09E
:1014C0000106B742EAD102F8013CAF6947F0800754
:1014D000AF616F693F06E1D4D8F8040040F40070B2
:1014E000C8F80400DAF80000416901F40011416114
:1014F00007F0C6F840004BD55046FFF711FADAF86E
:101500000000416901F08041416107F0B9F84007EE
:1015100045D4FFF772BB00BFDAF80400022825D3D8
:1015200005990AF1640501F512640126012705E019
:1015300001372034874205F1240517D221682A7823
:10154000012AF5D1B1F1FF3FF2DC07F00F0005F8F9
:10155000016C00EBC0000AEB800000F13C01DAF8FE
:10156000000006F005FFDAF80400E1E7DAF8000011
:10157000416901F48011416107F082F88002059D04
:101580003FF580AFDAF8000007F07AF84000B3D4F6
:10159000DAF8000007F074F840077FF52EABDAF8B0
:1015A00000004468610704D55046FFF7D5F9DAF822
:1015B000000041682143416009B0BDE8F08F0000A0
:1015C000D0F8080505F06CBBD0F8080505F07CBB29
:1015D0002DE9F04F8BB0002800F0858004460568A7
:1015E00090F8BD0428B9002084F8BC04204600F01F
:1015F00093F8032084F8BD04E86BC00501D40020F3
:10160000E060206806F028FD20680A9004F1040ECE
:1016100004F11C0AD4E90C509EE80E589AE8C00761
:10162000CDE9085003A88DE8005880E8C0070A9863
:1016300006F062F9002853D120680021002507F048
:101640007BF8616871B301200023002203EBC30320
:1016500004EB8307D3B287F83C200132A7F8563059
:10166000D3B287F83D00994287F840507D64BD644D
:10167000FD64EBD800200023002200BF03EBC3036E
:1016800004EB830787F87C220132D3B287F87D020E
:10169000994287F88002C7F88402C7F88802C7F821
:1016A0008C02EBD804F1140E04F1240A2268A0681D
:1016B0000A90D4E903379EE840589AE80007D4E935
:1016C0000C50CDE9085002A8CDE9007680E800581A
:1016D00005A880E8000710460A9A06F071FA38B1AA
:1016E000022084F8BD0401200BB0BDE8F08F00BFDC
:1016F000002084F83800012084F8BD04606A0128C5
:1017000002D12046FFF760F8206806F049FA002071
:101710000BB0BDE8F08F000010B5B0B002A90446D0
:1017200001F10800B021FEF7F4FD00212068C4F2A9
:101730000401884202D030B010BD00BF00200390E9
:101740004FF4802002904FF44010239002A800F044
:101750009BFC08B1FEF704FE00F0BAF844F2D84052
:101760000022C5F60200016841F0007101600068C6
:10177000002100F00070019001984D20FEF7E4FF79
:101780004D20FEF7CDFF30B010BD0000000000007E
:1017900010B50446006918B1022803D1012104E004
:1017A000002102E0FEF7DCFD0121D4F8080505F078
:1017B00017FBD4F80805BDE8104005F0C1BA0000D9
:1017C000D0F8080505F0F0BAD0F8080505F0F8BA29
:1017D00010B5044690F8BC04012801D1022010BDC8
:1017E000012084F8BC0484F83810206806F0D8FF83
:1017F000002084F8BC0410BDD0F8082500F2C441D4
:10180000104605F005BB000010B5044690F8BC0476
:10181000012801D1022010BD2068012184F8BC14E8
:10182000C16BC90506D4A16A012903D1816B41F4BA
:101830008031816306F024FE206806F0A1F90020C3
:1018400084F8BC0410BD000010B50446D0F80805AB
:1018500005F03AFB2068D0F8001E41F00101C0F805
:10186000001E206A002808BF10BD4EF61050CEF2B0
:101870000000016841F00601016010BD0000000099
:10188000B0B544F60C05C5F6020529684907296874
:1018900006D401F00701081A18BF0120B0BD00BF2F
:1018A00021F0070108432860FEF766FE044600BFEA
:1018B00055F8080C800407D4FEF75EFE001BB0F557
:1018C0007A7FF5D90120B0BD0020B0BD0000000036
:1018D00044F60C00C5F60200016841F08071016019
:1018E000704700000000000080B544F2304EC5F69D
:1018F000020E5EF8083C5EF8081CC1F3051C5EF899
:10190000041CBCF1000FDEF8042019D001F0010125
:1019100003F003034942022B01EAD2016FF35F3166
:1019200000EE101AB8EE400A10D0012B12D01BB9ED
:101930005EF8301C890611D49FED361A1CE000BFFA
:1019400000218160C0E9001180BD00BF9FED301A09
:1019500012E000BF9FED2D1A0EE000BF5EF8301CB4
:1019600049F20002C0F2D032C1F3C10122FA01F102
:1019700001EE101AB8EE411ADEF800109FED263A7B
:101980006FF35F2102EE101ADEF80010C1F346215A
:10199000B8EE422A00EE032A00EE10CAB7EE003A73
:1019A000B8EE400A81EE000A32EE031A02EE101A77
:1019B000B8EE422A20EE010A32EE031A80EE011A36
:1019C000BCEEC11A80ED001ADEF80010C1F306412A
:1019D00001EE101AB8EE411A31EE031A80EE011A28
:1019E000BCEEC11A80ED011ADEF80010C1F30661E9
:1019F00001EE101AB8EE411A31EE031A80EE010A18
:101A0000BCEEC00A10EE101A816080BD0024744A3A
:101A100020BCBE4B0024744C0000003900000000C4
:101A200080B544F2384EC5F6020E5EF8103C5EF802
:101A3000101C5EF80C2CC1F3053CDEF80410BCF160
:101A4000000F15D0C908D20601EAE2716FF35F31C9
:101A500000EE101A03F003010229B8EE400A0DD07F
:101A600081B95EF8381C890610D49FED361A1BE048
:101A700000218160C0E9001180BD00BF9FED301AD8
:101A800012E000BF9FED2D1A0EE000BF5EF8381C7B
:101A900049F20002C0F2D032C1F3C10122FA01F1D1
:101AA00001EE101AB8EE411ADEF800109FED263A4A
:101AB0006FF35F2102EE101ADEF80010C1F3462129
:101AC000B8EE422A00EE032A00EE10CAB7EE003A42
:101AD000B8EE400A81EE000A32EE031A02EE101A46
:101AE000B8EE422A20EE010A32EE031A80EE011A05
:101AF000BCEEC11A80ED001ADEF80010C1F30641F9
:101B000001EE101AB8EE411A31EE031A80EE011AF6
:101B1000BCEEC11A80ED011ADEF80010C1F30661B7
:101B200001EE101AB8EE411A31EE031A80EE010AE6
:101B3000BCEEC00A10EE101A816080BD0024744A09
:101B400020BCBE4B0024744C000000390000000093
:101B500080B544F2404EC5F6020E5EF8183C5EF8C1
:101B6000181C5EF8142CC1F3055CDEF80410BCF1FF
:101B7000000F15D0C908D20501EAE2716FF35F3199
:101B800000EE101A03F003010229B8EE400A0DD04E
:101B900081B95EF8401C890610D49FED361A1BE00F
:101BA00000218160C0E9001180BD00BF9FED301AA7
:101BB00012E000BF9FED2D1A0EE000BF5EF8401C42
:101BC00049F20002C0F2D032C1F3C10122FA01F1A0
:101BD00001EE101AB8EE411ADEF800109FED263A19
:101BE0006FF35F2102EE101ADEF80010C1F34621F8
:101BF000B8EE422A00EE032A00EE10CAB7EE003A11
:101C0000B8EE400A81EE000A32EE031A02EE101A14
:101C1000B8EE422A20EE010A32EE031A80EE011AD3
:101C2000BCEEC11A80ED001ADEF80010C1F30641C7
:101C300001EE101AB8EE411A31EE031A80EE011AC5
:101C4000BCEEC11A80ED011ADEF80010C1F3066186
:101C500001EE101AB8EE411A31EE031A80EE010AB5
:101C6000BCEEC00A10EE101A816080BD0024744AD8
:101C700020BCBE4B0024744C000000390000000062
:101C800010B584B0024641F6FF7300209B1A70EB3A
:101C900001032DDA47F6FF739B1A70EB010380F204
:101CA000918082F400430B4300F0B88082F48033CB
:101CB0000B4300F0018182F40022114340F0478180
:101CC00044F20040C5F60200816D01F44031B1F5E7
:101CD000003F00F04B81B1F5803F00F027810029E3
:101CE00040F03B810068000140F137810BE100BF0B
:101CF00040F2FF739B1A70EB010331DB82F48073B7
:101D00000B4300F09F8082F48062114340F01F81FA
:101D100044F20041C5F60201886DC0F34252042A24
:101D200000F21B8148F20000C0F2BB00DFE812F0B5
:101D3000C200E800F2000F01060000BFC86C0A688C
:101D4000520700F04052086802D5002A00F068816E
:101D5000C00540F12581B2F1805F00F07A811FE17A
:101D600082F400630B4300F0938082F480521143AD
:101D700040F0ED8044F20041C5F60201086DC0F369
:101D80000232042A00F2E98048F20000C0F2BB00EF
:101D9000DFE812F09000B600C000DD00060000BFD2
:101DA000C86C0A68520700F04052086802D5002A41
:101DB00000F03681C00540F1F380B2F1805F00F0A1
:101DC0004881EDE082F400530B4300F0858082F4FB
:101DD0008042114340F0BB8044F20044C5F6020447
:101DE000A06DC0F30270052800F2B780DFE810F0A4
:101DF0000600EA00EC00EE00F400F60000F0CCFF74
:101E0000216A48F60832C0F60002C1F30211515CA3
:101E100001F01F01C84004B010BD00BF44F20040F3
:101E2000C5F60200016D01F04051B1F1005F00F014
:101E30008780B1F1805F00F08D80002940F08D80B7
:101E400072E000BF44F20041C5F60201086D00F0E7
:101E50000702042A00F2818048F20000C0F2BB00B1
:101E6000DFE802F0284E5875040000BFC86C0A680D
:101E7000520700F04052086802D5002A00F0D080D6
:101E8000C00540F18D80B2F1805F00F0E28087E014
:101E900044F20041C5F60201886DC0F30262042AD3
:101EA0005BD848F20000C0F2BB00DFE802F0032973
:101EB00033506B0008684EE044F20040C5F6020063
:101EC000C16C0068C90346D5000146D501A8FFF7DB
:101ED000A7FD039804B010BD44F20040C5F602000F
:101EE000016DC1F30241052937D8DFE801F0038114
:101EF0008B95A31D04B0BDE8104000F075BF00BF76
:101F00000868000129D501A8FFF78AFD019804B0EF
:101F100010BD00BF086880001FD501A8FFF718FE9C
:101F2000019804B010BD00BF006858E00068800050
:101F300013D501A8FFF70CFE039804B010BD00BF35
:101F40000068000109D501A8FFF76AFD029804B0F6
:101F500010BD00BF0068800102D4002004B010BD95
:101F600001A8FFF7C1FC029804B010BDC16C026863
:101F7000520701F04051026866D5002964D1C2F3CE
:101F8000C1004FE0C86C0A68520700F04052086870
:101F900001D5002A44D0C00502D5B2F1805F58D0E7
:101FA0000868B2F1005F00F400314FF0000004BF98
:101FB00047F64000C0F27D10002908BF084604B073
:101FC00010BD00BF206814E020681CE020684007B6
:101FD000C3D5206824E000BF20682CE0206847F6C5
:101FE00040018003C0F27D1101EAE07004B010BD31
:101FF00000680001B1D501A8FFF712FD029804B0F6
:1020000010BD00BF00688000A7D501A8FFF7A0FDA4
:10201000029804B010BD00BF016849079DD5006853
:10202000C0F3C10049F20001C0F2D03121FA00F042
:1020300004B010BD006840F60011C005C0F23D01BB
:1020400001EAE07004B010BDD20509D5B1F1805F9E
:1020500006D140F60010C0F23D0004B010BD00BF34
:102060000068B1F1005F00F400324FF0000004BFDF
:1020700047F64000C0F27D10002A08BF104604B0A9
:1020800010BD0000000000002DE9F0470446C078B4
:1020900044F22C480007C5F6020833D5606E4FEABB
:1020A000305103290CD8DFE801F003111D2600BFD1
:1020B000D8F8001041F40031C8F800101BE000BF50
:1020C00001266078C0070BD020E000BF04F10800B3
:1020D000022102F06DFD064660B16078C00715D19F
:1020E000354646E004F12800022102F0F5FD0646DF
:1020F0000028F2D1606ED8F8241021F44011084372
:10210000C8F8240000266078C007E9D0A06D042834
:102110000ED83546DFE800F00412181E1E0000BF7E
:10212000D8F80000354640F40030C8F8000011E04F
:1021300001250127607840071FD453E004F108000F
:10214000002102F035FD04E004F12800002102F036
:10215000C3FD05462F461DB1607840070DD441E010
:10216000D8F82400A16D20F0070000250843C8F826
:10217000240037466078400734D5D4F8A4004FEAED
:10218000705005280CD8DFE800F00311171D1D1D45
:10219000D8F8000040F40030C8F8000012E000BF9A
:1021A000012501266078000720D455E004F10800DD
:1021B000002102F0FDFC04E004F12800002102F0FF
:1021C0008BFD05462E461DB1607800070ED443E016
:1021D000D8F82C00D4F8A41020F46000002508439F
:1021E000C8F82C003E466078000735D5D4F8A80022
:1021F0004FEA306005280DD8DFE800F00412181E01
:102200001E1E00BFD8F8000040F40030C8F80000DF
:1022100012E000BF01250127E078800720D44EE0BE
:1022200004F10800002102F0C3FC04E004F12800DE
:10223000002102F051FD05462F461DB1E0788007D0
:102240000ED43CE0D8F82C00D4F8A81020F0E060C0
:1022500000250843C8F82C003746E07880072ED5C3
:10226000E06C4FEA301003280ED8DFE800F00903D5
:10227000130900BFD8F8000040F40030C8F800008F
:102280002E467DB912E000BF012501266078C00608
:1022900019D44CE004F10800022102F089FC054643
:1022A0002E461DB16078C0060DD440E0D8F820005D
:1022B000E16C20F0300000250843C8F820003E46BD
:1022C0006078C00633D5E06D4FEA303004280DD871
:1022D000DFE800F00412181E1E0000BFD8F800004E
:1022E00040F40030C8F8000012E000BF01250127CB
:1022F000607880061FD44EE004F10800002102F04F
:1023000057FC04E004F12800002102F0E5FC05463A
:102310002F461DB1607880060DD43CE0D8F824002B
:10232000E16D20F4E04000250843C8F8240037465A
:10233000607880062FD5206E4FEA3040052809D8F6
:10234000DFE800F0040E1404040400BF2E46ADB90B
:1023500018E000BF01250126607840061FD44FE039
:1023600004F10800012102F023FC04E004F128003C
:10237000012102F0B1FC05462E461DB160784006F1
:102380000DD43DE0D8F82400216E20F4E020002593
:102390000843C8F824003E466078400630D5D4F89B
:1023A000AC004FEA3070052808D8DFE800F0030DD4
:1023B000130303032F46ADB918E000BF0125012721
:1023C0006078000620D442E004F10800012102F008
:1023D000EFFB04E004F12800012102F07DFC05463A
:1023E0002F461DB1607800060ED430E0D8F82C00DE
:1023F000D4F8AC1020F0E04000250843C8F82C00C9
:1024000037466078000622D5E06E58B1B0F1005F23
:102410000CD0B0F1805F2FD1D8F8000040F400302C
:10242000C8F800002E469DB908E000BF04F108007E
:10243000012102F0BDFB05462E464DB9D8F8240017
:10244000E16E20F0405000250843C8F824003E46C5
:10245000E078C00733D0A06C032813D8DFE800F081
:1024600008021A08D8F8000040F40030C8F800004C
:10247000A946BDB91AE000BF01250126E078C007D2
:10248000E9D11CE001254FF00109A07840061AD5DA
:102490001CE000BF04F10800022102F089FB0546A0
:1024A000A9461DB1A07840060DD50FE0D8F8200050
:1024B000A16C20F0030000250843C8F82000B146B5
:1024C000A078400602D44F4618E000BFD8F8D403E5
:1024D00040F48070C8F8D403FEF74EF8064600BFFB
:1024E000D8F8D403C00507D4FEF746F8801B64284B
:1024F000F6D90325032701E02F468DB12078C007C8
:1025000061D0A06F4FEAF00005283BD8DFE800F06B
:1025100004404604040400BF002D2E4646D149E085
:10252000D8F84410D4F8B000414011F4407F11D0E5
:10253000D8F84410D8F8442042F48032C8F8442037
:10254000D8F8442021F4407122F48032C8F84420A5
:10255000C8F84410B0F5807F40F0CE82FEF70CF84A
:10256000064641F2883A0325032700BFD8F8440005
:10257000800700F1BF82FDF7FFFF801B5045F5D9B2
:10258000BCE700BF01250126207880071FD44CE05E
:1025900004F10800012102F00BFB04E004F1280023
:1025A000012102F099FB05462E461DB120788007D7
:1025B0000DD43AE0D8F82800A16F20F038000025AB
:1025C0000843C8F828003E46207880072DD5606F64
:1025D000052809D8DFE800F0040E1404040400BF45
:1025E0002F46ADB918E000BF01250127207840072C
:1025F0001FD44DE004F10800012102F0D9FA04E0F3
:1026000004F12800012102F067FB05462F461DB1A9
:10261000207840070DD43BE0D8F82800616F20F007
:10262000070000250843C8F82800374620784007EF
:102630002ED5D4F89000052808D8DFE800F0030D67
:10264000130303032E46ADB918E000BF0126012590
:102650002078800620D451E004F10800012102F026
:10266000A7FA04E004F12800012102F035FB054639
:102670002E461DB1207880060ED43FE0D8F82C00FD
:10268000D4F8901020F0070000250843C8F82C006B
:102690003E462078800631D5D4F88C004FEA307061
:1026A000052809D8DFE800F0040E1404040400BF74
:1026B0002F46ADB918E000BF01270125207840065C
:1026C00020D451E004F10800002102F071FA04E086
:1026D00004F12800022102F0FFFA05462F461DB141
:1026E000207840060ED43FE0D8F82800D4F88C10AB
:1026F00020F0E04000250843C8F82800374620783D
:10270000400631D5D4F898004FEAB020052809D802
:10271000DFE800F0040E1404040400BF2E46ADB937
:1027200018E000BF012601252078000620D454E0DF
:1027300004F10800002102F03BFA04E004F1280053
:10274000022102F0C9FA05462E461DB12078000686
:102750000ED442E0D8F82C00D4F8981020F4E050C1
:1027600000250843C8F82C003E462078000634D5E2
:10277000D4F89C004FEA703005280FD8DFE800F04D
:1027800004141A04040400BF2F46E5B120680107B1
:1027900027D4C1063ED4000355D475E00127012596
:1027A00020680107F5D51CE004F10800002102F0C3
:1027B000FFF904E004F12800022102F08DFA054639
:1027C000002D2F46E2D1D8F82C00D4F89C1020F42C
:1027D000604000250843C8F82C00374620680107F0
:1027E000D7D5D4F88000B0F5805F09D104F1280076
:1027F000022102F071FA002818BF0127D4F88000E6
:10280000D8F8281021F440510843C8F8280020685F
:10281000C106C0D5D4F89400B0F5807F09D104F189
:102820002800022102F058FA002818BF0127D4F826
:102830009400D8F82C1021F440710843C8F82C00FB
:102840002068000320D5D4F8A000B0F5003F0FD0D9
:10285000B0F5803F06D078BB04F10800002102F0FB
:10286000A7F904E004F12800022102F035FA054638
:102870002E4655B9D8F82C00D4F8A01020F44030DA
:1028800000250843C8F82C003E46A07840072BD509
:10289000D4F88400B0F5401F0BD0B0F5001F11D064
:1028A000B0F5801F2AD1D8F8000040F40030C8F8F5
:1028B00000002F46CDB90DE001260125A078400784
:1028C000E6D411E004F12800012102F005FA0546E2
:1028D0002F4655B9D8F82800D4F8841020F44010B9
:1028E00000250843C8F828003746A078C0070AD159
:1028F0003E462168880016D533E000BF0127012538
:10290000A078C007F4D0206DB0F5803F10D018BB80
:10291000D8F8000040F40030C8F800002E4685B119
:10292000216888001DD460688A0326D465E000BF52
:1029300004F10800022102F03BF90546002D2E4665
:10294000EED1D8F82000216D20F480300025084316
:10295000C8F82000CCE700BF0126012521688800C7
:10296000E1D504F12800022102F0B6F9002818BFD1
:102970000126D4E900108A033FD5E26F6FF001030E
:1029800003EB3223022B0BD34FEA322343B1012B4B
:1029900040F0AA80D8F8003043F40033C8F8003083
:1029A00025B3CA022CD48A0234D44A003CD4CA0FBC
:1029B00049D1090251D4C1075AD1810763D44107D3
:1029C0006CD4010776D4C10600F18080800607D55B
:1029D00004F12800022102F07FF9002818BF012528
:1029E000002D18BF01252846BDE8F087D8F828300B
:1029F00023F440731A43C8F828203546CA02D2D5BA
:102A0000D8F82420236F22F000421A43C8F824206B
:102A10008A02CAD5D8F82420A36E22F080721A4305
:102A2000C8F824204A00C2D558F81C2C22F40042D1
:102A300048F81C2CD4F8B42058F81C3C1A4348F829
:102A40001C2CCA0FB5D0D8F82020636D22F040525C
:102A50001A43C8F820200902ADD5D8F82810D4F8B8
:102A6000882021F440011143C8F82810C107A4D0E0
:102A700004F10800002102F09BF8002818BF054669
:102A8000606881079BD504F10800012102F090F8ED
:102A9000002818BF05466068410792D504F1080078
:102AA000022102F085F8002818BF0546606801077A
:102AB0007FF589AF04F12800002102F00DF900280C
:102AC00018BF05466068C1067FF580AF04F1280095
:102AD000012102F001F9002818BF05466068800650
:102AE0007FF57EAF74E700BF0125CA027FF55BAFBB
:102AF00086E700BFD4F8B0004FF6CF7358F81C2C0F
:102B0000C0F2FF0300F4407122F47C5203EA101378
:102B10006FF31F30B1F5407F08BF1A43002548F816
:102B20001C2CD8F844100843C8F84400FFF7CBBC6D
:102B30002DE9F04381B0002800F02A8142F200081C
:102B40000446C5F200288946D8F8000000F00F00BE
:102B500088420ED2D8F8000020F00F0040EA0900A9
:102B6000C8F80000D8F8000000F00F00484540F019
:102B70000F81206844F218474107C5F602070AD5BD
:102B800021693A6802F07002914204D93A6822F051
:102B900070021143396001070AD561697A6802F051
:102BA0007002914204D97A6822F070021143796070
:102BB000C1060AD5A1697A6802F4E062914204D99B
:102BC0007A6822F4E0621143796081060AD5E169EE
:102BD000BA6802F07002914204D9BA6822F0700219
:102BE0001143B96010F002010AD0E2683B6803F0BB
:102BF0000F039A4204D93B6823F00F031A433A604B
:102C0000C20746D0386820F47061D4E90102012877
:102C100041EA0201396009D003280DD0022811D100
:102C200057F8181C890340F1B38010E057F8181CBE
:102C3000C90540F1AD800AE057F8181C890140F140
:102C4000A78004E057F8181C490740F1A18057F805
:102C5000081C21F00701084347F8080CFDF78CFC1D
:102C6000064641F2883500BF57F8080C616800F04D
:102C70003800B0EBC10F09D0FDF77EFC801BA842E5
:102C8000F2D9032001B0BDE8F08300BF206800F056
:102C9000020151B1E1683A6802F00F02914204D298
:102CA0003A6822F00F0211433960D8F8001001F0A1
:102CB0000F0149450DD9D8F8001021F00F0141EA64
:102CC0000901C8F80010D8F8001001F00F014945BB
:102CD0005ED141070AD521693A6802F0700291423B
:102CE00004D23A6822F070021143396001070AD514
:102CF00061697A6802F07002914204D27A6822F027
:102D0000700211437960C1060AD5A1697A6802F49C
:102D1000E062914204D27A6822F4E0621143796061
:102D200080060AD5E069B96801F07001884204D2D2
:102D3000B96821F070010843B86000F085F839687F
:102D400048F608333A68C0F60003C1F3032102F0E5
:102D50000F02595C9A5C01F01F0120FA01F102F0A8
:102D60001F0040F20C0221FA00F0C2F20042106093
:102D700040F2040040F20802C2F20040C2F20042F7
:102D80000068116001B0BDE8F043FDF741BC00BF31
:102D9000012001B0BDE8F08380B500F055F844F2A1
:102DA000184148F60833C5F60201C0F600030A6868
:102DB000096801F00F01C2F30322595C9A5C02F02A
:102DC0001F0220FA02F201F01F0040F20C0122FA69
:102DD00000F0C2F20041086040F20801C2F2004176
:102DE0000A6080BD0000000080B500F02DF844F2BC
:102DF000184C48F60831C5F6020CC0F60001DCF8A4
:102E00000020DCF8003003F00F03C2F30322CB5C98
:102E10008A5C02F01F02D04003F01F0240F20C0354
:102E200020FA02F2C2F200431A6040F20803C2F232
:102E300000431860DCF80400C0F30210085C00F0E6
:102E40001F0022FA00F080BD44F20041C5F60201E5
:102E50000869C0F3C200032810D002282ED098BB06
:102E60000868800649F20000C0F2D03058BF7047B1
:102E70000968C1F3C101C840704700BF8A6A886A07
:102E8000C0F3051CC86ABCF1000F4B6B22D000F0E8
:102E9000010002F003024042022A00EAD3006FF36D
:102EA0005F3000EE100AB8EE400A15D0C2B90868CB
:102EB000800619D49FED281A23E000BF47F6400092
:102EC000C0F27D10704700BF40F60010C0F23D0018
:102ED000704700BF002070479FED1E1A11E000BF31
:102EE0009FED1B1A0DE000BF086849F20002C0F216
:102EF000D032C0F3C10022FA00F001EE100AB8EEA1
:102F0000411A086B9FED153A6FF35F2002EE100A2D
:102F1000086BC0F34620B8EE422A013000EE032AC7
:102F200000EE10CAB7EE003AB8EE400A81EE000A91
:102F300032EE031A20EE010A01EE100AB8EE411A31
:102F400080EE010ABCEEC00A10EE100A704700BF06
:102F50000024744A20BCBE4B0024744C000000398D
:102F6000F0B581B0002800F0D5800446007844F226
:102F70000046C007C5F6020622D12078800768D532
:102F8000306910F03801B06A42D0182908BF5FEAF2
:102F900080703DD0E0683168002800F0258121F084
:102FA000190108433060FDF7E7FA0546306840072D
:102FB00048D4FDF7E1FA401B0228F7D977E100BFBA
:102FC000306900F03801B06A102905D018290BD1FA
:102FD00000F00300022807D130688003CDD5606877
:102FE0000028CAD196E000BF6068002800F0328156
:102FF000B0F5A02F00F04681B0F5803F00F046818B
:10300000306820F480303060306820F4802040E167
:1030100030684007E06801D500287BD0316821F096
:10302000190108433060FDF7A7FA054630684007EC
:1030300008D4FDF7A1FA401B02284FF00300F5D990
:1030400001B0F0BD7068216920F0FE4040EA0160E7
:1030500070602078C00619D5306900F03801B06A78
:10306000082906D0182940F0818000F003000128CB
:103070007CD13068C00502D5E06980284AD1F0686B
:10308000216A20F07C5040EA0160F060207800075F
:1030900044D42078800655D42078400700F17E8003
:1030A000656A9DB3306900F03800182840F014813B
:1030B000012DB16A306B2DD001F00302A36A9A4250
:1030C00028D1C1F30511E26A914223D10146226B56
:1030D0006FF35F21013A91421CD1C0F34622616B2C
:1030E00001398A4216D1C0F30642A16B01398A42E6
:1030F00010D1C0F30660E16B013988420AD1706BD0
:10310000A16CC0F3CC00814240F09C81002001B052
:10311000F0BD00BF012001B0F0BD00BF6069002814
:10312000706F4FD040F001007067FDF725FA05463B
:10313000706F8007ADD4FDF71FFA401B0228F7D946
:10314000B5E000BFA0690028306871D040F480501D
:103150003060FDF711FA0546306880049CD4FDF715
:103160000BFA401B0228F7D9A1E000BFE069002854
:10317000306800F09F8040F080003060FDF7FCF97F
:10318000054600BF3068C0053FF579AFFDF7F4F99B
:10319000401B02284FF00300F4D951E7D6F8000491
:1031A00040F48070C6F80004FDF7E6F9054600BF5C
:1031B000D6F80004C00529D4FDF7DEF9401B6428C9
:1031C000F6D974E020F001007067FDF7D5F90546E7
:1031D000706F80077FF55DAFFDF7CEF9401B0228C9
:1031E0004FF00300F4D92BE721F001003060FDF728
:1031F000C3F90546306840077FF52BAFFDF7BCF9F2
:10320000401B02284FF00300F4D919E7A0680028FA
:1032100000F08480052800F09B80012800F09C804D
:10322000306F20F001003067306F20F0040096E02E
:1032300020F480503060FDF79FF905463068800427
:103240007FF52AAFFDF798F9401B02284FF00300E5
:10325000F4D9F5E6306820F480303060306820F42E
:1032600080203060FDF788F9054600BF3068800394
:103270007FF583AEFDF780F9401B64284FF0030013
:10328000F4D9DDE6306840F480203060306840F4E6
:1032900080303060FDF770F9054600BF306880036C
:1032A0003FF56BAEFDF768F9401B6428F6D90320A3
:1032B00001B0F0BD20F080003060FDF75DF90546FB
:1032C0003068C0057FF5E2AEFDF756F9401B0228D5
:1032D0004FF00300F4D9B3E6306820F0807030601E
:1032E000FDF74AF9022D05460CD100BF3068800178
:1032F00048D5FDF741F9401B02284FF00300F5D9EE
:103300009EE600BF306880017FF500AFFDF734F91D
:10331000401B02284FF00300F4D991E6306F20F0F3
:1033200001003067306F20F004003067FDF724F9AA
:10333000054641F28837306F80077FF5B1AEFDF763
:103340001BF9401BB8424FF00300F4D978E600BFE8
:10335000306F40F004003067306F40F0010030679C
:10336000FDF70AF9054641F2883700BF306F800744
:103370003FF596AEFDF700F9401BB8424FF0030051
:10338000F4D95DE604F12807B06A40F2F3318843CE
:103390008ECF0843591E40EA02104FF47E426FF36D
:1033A0005F21B06202EB47204FF4FE0280B2E36B74
:1033B0000844A16B02EB01414FF0FE4201F4FE0113
:1033C00002EB0362084402F0FE4108443063F06AF5
:1033D0004FF6F87120F00100F062706BA26C884328
:1033E00040EAC2007063F06A216C20F00C000843D0
:1033F000F062F06A616C20F002000843F062F06A4B
:1034000040F48030F062F06A40F40030F062F06A1C
:1034100040F48020F062F06A40F00100F062306811
:1034200040F080703060FDF7A7F8044630688001F6
:103430003FF56CAEFDF7A0F8001B02284FF003002B
:10344000F4D9FDE5F06A20F00100F062FDF794F890
:103450000546FDF791F8A842FBD0706B4FF6F87166
:10346000A26C884340EAC2007063F06A40F0010039
:10347000F062002001B0F0BD7047000000000000C5
:1034800070470000000000007047000000000000CE
:1034900070470000000000002DE9F04184B00446B0
:1034A00003200D4684F83000A06B032810D14FF0A4
:1034B0008050616B40F6FF7808436063606BC1F633
:1034C000E07868B32068C0F8388001258EE000BF3E
:1034D000002D53D0B5F5004FE9D0B5F5804F65D13B
:1034E00000200021CDE90200206802F085FE800165
:1034F00060D402A9204602F0ABFE0028D9D19DF885
:103500000E0040074ED5616C2068090402F094FA61
:103510000028CED12068022102F002FBC9E700BFDB
:103520004FF480300021FEF7ABFB08B343F689313E
:103530006369C5F2E651A268A0FB01166168D4F880
:1035400010C0B3EB166F4AD2A76DB7F5007F46D017
:10355000B7F5807F32D1002B3ED05F00B0FBF7F093
:103560004FF28007C0F2FA27B84288BF730E36E0E8
:10357000606B40F000606063A7E700BF002000219F
:10358000CDE90200206802F037FE800112D402A9C2
:10359000204602F05DFE00287FF48BAF9DF80E0000
:1035A000C00737D14FF0806083E700BF4FF0006065
:1035B0007FE700BF4FF400607BE700BF4FEA16666D
:1035C00063B15F00B0FBF7F047F64007C0F27D172C
:1035D000B84288BF334602E0730E00E033462068ED
:1035E000CDE900C32B4602F00BFE002520684FF406
:1035F000007102F081FA30B121680125C1F83880EC
:10360000616B08436063012084F83000284604B0F1
:10361000BDE8F081616C2068090402F00DFA002811
:103620007FF447AF2068002102F07AFA41E70000FA
:103630007047000000000000D0E91B2C130E0B7037
:10364000130A4B80120642EA1C224A60D0E91C236E
:103650000A721A0E4A7290F87B2042EA0322CA606C
:10366000806FC0F303520A74C0F30B224A82C0B2C7
:1036700001224008087500204A75704700000000CC
:1036800080B5D0F838C0D0E9173EBCF1010F4FEA41
:1036900093720A70C3F383624A70C3F301628A7043
:1036A0004FEA1342CA704FEA13220A714B714FEA74
:1036B0001E52CA80CEF303420A72CEF3C0324A725F
:1036C000CEF380328A72CEF34032CA72CEF3003229
:1036D0000A734FF000024A7338D0BCF1000F40F07B
:1036E000898040F6FC72436E02EA8E0242EA9372CF
:1036F0000A61426EC2F3C2630B75C2F302634B757B
:10370000C2F342538B75C2F38243CB75C2F3C2330B
:103710000B76D1F810C00B7E0CF1010C03F00703FF
:1037200002330CFA03FCC0F848C00B7A03F00F0E0A
:10373000012303FA0EF3C3644FEA532E0EFB0CF37E
:1037400003654FF40073436513E000BF0EF03F02C2
:10375000B0F8663043EA02420A610A694FF48063B6
:1037600003EB822282644FF400734365C0E9133295
:10377000426EC2F380334B76C2F3C6138B7602F0EF
:103780007F02CA76806EC20F0A77C0F341724A7711
:10379000C0F382628A77C0F38352CA77C0F3405283
:1037A00081F82020C0F30043002281F8212081F815
:1037B0002230C0F3C03381F82330C0F3803381F866
:1037C0002430C0F3403381F82530C0F3003381F852
:1037D0002630C0F3812381F82730C0F3012381F81C
:1037E0002830C0B2400881F82900012081F82A0061
:1037F000104680BD016840F6FF72C1F6E0728A6330
:103800000122416B41F08051416380F83020104625
:1038100080BD0000000000000246806B0860D36B92
:10382000106C4B60536CC1E90203906C0861D06C62
:103830004861106D88610020526DCA6170470000B8
:1038400010B5416C04460068090402F009FB28B178
:10385000616B08436063002010BD00BF2068002139
:1038600002F0CAFCC0F3432010BD000000000000BD
:103870002DE9F04196B0044690F83000032805D1B8
:103880000125284616B0BDE8F08100BF40F6FF785C
:103890000D46C1F6E078FCF76FFE06462068002171
:1038A00002F0AAFC800125D42068402102F024F90E
:1038B0000146E0B9616C2068090402F0BDF80146D8
:1038C000A8B94FF0FF301090402011906020129066
:1038D000022013900020149001201590206810A958
:1038E00002F0A6FB206802F03FFB0146F0B1606BDE
:1038F000606301E04FF4006120680125C0F8388062
:10390000626B1143616384F830504FF4007102F030
:10391000F3F80028B5D021680125C1F8388060632C
:1039200084F83050284616B0BDE8F0816F4606E0B6
:10393000FCF722FE801B4FF000410130DCD02068F4
:10394000416B11F4957F416B22D10904F0D502F04F
:1039500073FC3860206802F06FFC7860206802F029
:103960006BFCB860206802F067FCF860206802F029
:1039700063FC3861206802F05FFC7861206802F027
:103980005BFCB861206802F057FCF8612037CFE794
:10399000090715D4416B890714D4406B800613D4F2
:1039A0002068416BC90411D502F046FC47F8040BAE
:1039B000FCF7E2FD801B4FF000410130F0D19BE7A6
:1039C000082199E7022197E7202195E740F63A710F
:1039D0006FF0FF0CC1F6000181639DE88E00CEB24E
:1039E000B6092E70C1F340166E700CEA112646EA35
:1039F0001161698011BA69602B72190AFAB2697291
:103A0000C3F30351A9720CEA13411144A981C7F30E
:103A10008521A973C7F30121E9731109297407F0FE
:103A20000F0169749DF81310A97400254FF40071FB
:103A300002F062F800287FF46EAF22E70000000079
:103A400070B582B004460068E56A416B090405F070
:103A500008062BD556B3A16A202925D3656A02F042
:103A6000EBFB2860206802F0E7FB6860206802F04A
:103A7000E3FBA860206802F0DFFBE860206802F04A
:103A8000DBFB2861206802F0D7FB6861206802F048
:103A9000D3FBA861206802F0CFFBE86105F12000AC
:103AA0006062A06A2038A06202B070BD416BC90597
:103AB00040D4416B49046FD5002E6DD0216A202976
:103AC000F2D3E66901AD31680191294602F0B8FBF5
:103AD000706801902068294602F0B2FBB06801903E
:103AE0002068294602F0ACFBF06801902068294666
:103AF00002F0A6FB306901902068294602F0A0FB85
:103B0000706901902068294602F09AFBB069019023
:103B10002068294602F094FBF0690190206829464C
:103B2000203602F08DFB206AE6612038206202B068
:103B300070BD00BF4FF480718163C16B4CF23A12CB
:103B40009143C163C16B002E21F08051C163C168F4
:103B500021F04001C1606BD12906A5D5002615F0E2
:103B6000220F8662C662066508D002F011FA28B1FB
:103B7000616B084360632046FFF75AFD15F0300F74
:103B80004FF0010084F83000E66202D0204600F0D9
:103B9000D3FBA80766D187E7416B11F03A0F416B61
:103BA00066D089077CD4416B090700F18180416BA5
:103BB000890600F18580416BC90603D5616B41F030
:103BC0001001616340F63A71C1F600018163C16B77
:103BD00021F49D71C163C16821F04001C160C16AD7
:103BE00041F40051C162C16841F08001C16002F03E
:103BF000CFF92168626B10436063C868002E20F023
:103C00008000C8604FF40060886363D128067FF5A8
:103C10004BAF606B00283FF447AFC86B20F080507B
:103C2000C86300200865012084F8300057E000BF19
:103C300015F0220F08D002F0ABF928B1616B0843F0
:103C400060632046FFF7F4FC206840F63A71C1F645
:103C500000018163012084F83000A8074FF00000C4
:103C6000E06217D0204602B0BDE8704000F060BBB3
:103C7000C9007FF519AF4FF080518163006D400797
:103C800005F0200032D4C8BB204602B0BDE8704029
:103C9000FFF7F6BB204602B0BDE8704000F04CBB19
:103CA000616B41F002016163416B09077FF57FAFF2
:103CB000616B41F008016163416B89067FF57BAF61
:103CC000616B41F020016163416BC9063FF576AF3E
:103CD00078E700BF012084F830000020E062204631
:103CE00002B0BDE87040FFF7A3BC00BF60B920463A
:103CF00002B0BDE87040FFF7BFBB00BF204602B076
:103D0000BDE87040FFF7C4BB204602B0BDE870407C
:103D1000FFF7BABB00000000B0B586B050B3044650
:103D200090F8300020B900202076204600F084F979
:103D3000042084F83000204600F04AF8D0B901A9E8
:103D40002046FFF795FDA8B99DF814009DF81510C1
:103D5000A26B012A04D1084304D04FF4007003E0A1
:103D6000002001E04FF48070A065E1682046FFF775
:103D700093FB18B1012006B0B0BD00BFFCF7FCFBFF
:103D8000054607E0616B08436063FCF7F5FB401BE9
:103D9000013013D0616C2068090402F061F800283A
:103DA000F0D12068002102F027FA00F4F050B0F5BD
:103DB000006FEAD100206063E06203E04FF0004052
:103DC00060630320012184F8301006B0B0BD00000C
:103DD000F0B58FB004464FF4803000210027FDF786
:103DE0004FFFA8B348F659310546000AC0F24F11FB
:103DF000A0FB01012068002200230E09002100978A
:103E0000019602F0FDF9206802F00EFA43F200502C
:103E1000C0F20C00854202D37000B5FBF0F542F20F
:103E20001010C0F20100B0FBF5F00130FCF7A0FA71
:103E300000200490206801F087FE98B1012184F8E9
:103E40003010626B1043606308460FB0F0BD00BFD6
:103E5000012184F830104FF00060606308460FB015
:103E6000F0BD00BF206801F0A7FEB0F1004F0BD1FC
:103E70000020E063206801F067FE0028DED1E06BDF
:103E8000012803D00AE000BF0120E0632068002180
:103E900001F0D2FD10B14FF08050CFE704984FF6FB
:103EA000FE76B0421ED80025CCF210152068002105
:103EB00001F0C2FD0028C1D12068294601F0D0FDE3
:103EC000C0BB2068002102F097F9049901310491E8
:103ED0000499B14202D8B0F1FF3FE7DCC0F3807033
:103EE00001E000BF002004994FF6FF72914203D316
:103EF0004FF08070A2E700BFA0630020ADF80E0075
:103F0000FCF73AFB0546206802F072F9B0B1A06BED
:103F1000032817D12068042102F06EF9000D2064F7
:103F200004A92046FFF7ACFB00285DD04FF080507D
:103F300084E700BF4FF0805080E700BF4FF0806003
:103F40007CE700BF206801F0CFFE00287FF476AF49
:103F50002068002102F050F9E0662068042102F098
:103F60004BF920672068082102F046F96067206855
:103F70000C2102F041F9A16BA0670329CAD00DF111
:103F80000E0641F287372068314601F07DFF002898
:103F90007FF454AFFCF7F0FA401BB84246D8BDF8A6
:103FA0000E100029EFD0A06B0328B3D06164206805
:103FB000090401F0EDFE00287FF440AF20680021E5
:103FC00002F01AF9E0652068042102F015F9206674
:103FD0002068082102F010F9606620680C2102F0C8
:103FE0000BF9A06696E700BF616C2068090401F038
:103FF00067FE00287FF422AF20684FF4007101F0C3
:104000007BFD78B1216840F6FF72C1F6E0728A63E9
:10401000616B08430121606384F8301008460FB0DB
:10402000F0BD00BF002108460FB0F0BD4FF00040CA
:1040300004E70000000000002DE9F043B3B069463A
:10404000044601F10800B021FCF763F947F20001D2
:104050002068C5F20021884202D033B0BDE8F08369
:104060004FF48030009068464FF00008CDF804808F
:10407000FEF70AF808B1FCF773F944F2E04040F6A5
:104080000004C5F60200C5F602042EAD4FF0020989
:1040900050F80C1C032641F4803140F80C1C50F8F9
:1040A0000C1C0C2701F480312E912E99016841F0EF
:1040B00004010160016801F004012E912E9901684C
:1040C00041F0080101600068294600F008002E90C8
:1040D0002E984FF4F8502E902046CDE92F98319627
:1040E0003297FCF759F904202946CDE92E0904F549
:1040F00080603297CDE93086FCF74EF931200021FF
:104100000022FCF721FB3120FCF70AFB33B0BDE8AD
:10411000F0830000000000002DE9F04387B09846CE
:1041200015460E460446FCF727FA9EB1074694F85A
:104130003000012816D10021616308EB0500226DD3
:10414000904217D9606B40F000706063012007B0A7
:10415000BDE8F083606B40F000606063012007B051
:10416000BDE8F083606B40F000506063012007B051
:10417000BDE8F083032084F8300020684FF0FF335F
:10418000A26B4FF00209C162012A01934FEA482352
:1041900002934FF090030393CDF81090059118BF50
:1041A0006D02069101A901F043FF2068B8F1020FEA
:1041B000C16841F04001C16016D32946C4F82C9073
:1041C00001F056FDB8B1216840F6FF72C1F6E07209
:1041D0008A63616B08436063012084F8300000212A
:1041E000E16207B0BDE8F0830121E162294601F0F8
:1041F00053FD0028E7D1DDF83890029D05E000BFAF
:10420000FCF7BAF9C01B484548D22068416B11F44D
:10421000957F27D1416B0904F2D5202DF0D302F010
:104220000BF83060206802F007F87060206802F038
:1042300003F8B060206801F0FFFFF060206801F033
:10424000FBFF3061206801F0F7FF7061206801F02A
:10425000F3FFB061206801F0EFFFF0612036203DF0
:10426000CEE700BFC168B8F1020F21F04001C16084
:10427000416B27D311F4807124D0A16B032921D085
:1042800001F086FE0146002820681BD040F6FF7230
:10429000C1F6E0728263606B08439CE7206840F6D9
:1042A000FF71C1F6E0718163606B40F000406063B4
:1042B000012084F830000020E062032007B0BDE850
:1042C000F08300BF416B090712D4416B890719D4F1
:1042D000416B890620D440F63A71C1F60001816332
:1042E000012084F83000002007B0BDE8F08300BF53
:1042F00040F6FF71C1F6E0718163606B40F0080029
:1043000069E700BF40F6FF71C1F6E0718163606B41
:1043100040F002005FE700BF40F6FF71C1F6E071B8
:104320008163606B40F0200055E700000000000052
:10433000704700000000000070470000000000000F
:104340002DE9F04788B0984615460E460446FCF71E
:1043500013F99EB1824694F83000012816D100214D
:10436000616308EB0500226D904217D9606B40F045
:1043700000706063012008B0BDE8F087606B40F01A
:1043800000606063012008B0BDE8F087606B40F01A
:1043900000506063012008B0BDE8F087032084F876
:1043A000300020684FF0FF33A26BC162012A0293F4
:1043B0004FEA482303934FF09003CDE9043106916F
:1043C00018BF6D02079102A901F032FE2068B8F112
:1043D000020FC16841F04001C16017D32021E162A2
:1043E000294601F0FDFDC0B1216840F6FF72C1F61B
:1043F000E0728A63616B08436063012084F83000D7
:104400000021E16208B0BDE8F08700BF1021E16241
:10441000294601F0F9FD0028E6D1DDF84090039F20
:1044200001AD05E0FCF7A8F8A0EB0A00484563D20F
:104430002068416B11F48D7F42D1416B4904F1D565
:10444000202FEFD331780191727841EA0221019156
:10445000B27841EA02410191F27841EA02610191A8
:10446000294601F0EDFE706801902068294601F0B0
:10447000E7FEB06801902068294601F0E1FEF0688F
:1044800001902068294601F0DBFE30690190206828
:10449000294601F0D5FE706901902068294601F097
:1044A000CFFEB06901902068294601F0C9FEF0698D
:1044B000019020682946203601F0C2FE203FB1E776
:1044C000C168B8F1020F21F04001C160416B25D3F2
:1044D00011F4807122D0A16B03291FD001F058FD87
:1044E00001460028206819D040F6FF72C1F6E0723C
:1044F0008263606B08437FE7206840F6FF71C1F676
:10450000E0718163606B6063012084F830000020FB
:10451000E062032008B0BDE8F08700BF416B0907E7
:1045200012D4416B890719D4416BC90620D440F6D7
:104530003A71C1F600018163012084F83000002047
:1045400008B0BDE8F08700BF40F6FF71C1F6E0712A
:104550008163606B40F008004EE700BF40F6FF71DA
:10456000C1F6E0718163606B40F0020044E700BF78
:1045700040F6FF71C1F6E0718163606B40F010009E
:104580003AE7000000000000411E0020B0EB116F70
:1045900002D00120704700BF4EF21002F023CEF28D
:1045A000000251604EF62351CEF200010B7007213C
:1045B0009060116070470000FEE7000000000000FE
:1045C00070B50446D0F8D40204EB8000D0F8C05295
:1045D000002D08BF70BD41F2180028440179D9B1FF
:1045E00040F210062046C2F20046317802F044FC48
:1045F000687A02280ED13178204602F03DFC40F264
:104600001100C2F2004001782046BDE8704002F07F
:1046100033BC00BF70BD00BF00680028E0D0687ADE
:104620000028DDD140F21100C2F20040017820469E
:1046300002F022FCD4E70000B0B50446D0F8D40262
:1046400004EB8000D0F8C052002D08BFB0BD687ADE
:10465000022811D140F21000C2F200400178204639
:1046600002F00AFC40F21100C2F20040017820463C
:10467000BDE8B04002F000BC49B2B1F1FF3F25DC1B
:10468000012823D041F230000D232A1845F255307D
:10469000C5F2423010600120107340F21000C2F2E7
:1046A0000040017800202872204602F01DFC40F2F4
:1046B00011001F23C2F20040017841F210002A18B5
:1046C0002046BDE8B04002F027BB00BFB0BD0000EF
:1046D000B0B50446D0F8D40204EB8000D0F8C05244
:1046E000ADB3287AC11E022922D241F230002A1825
:1046F00045F25530C5F2423010600020107340F290
:1047000010000D23C2F200400178002028722046DC
:1047100002F0EAFB40F211001F23C2F200400178D0
:1047200041F210002A182046BDE8B04002F0F4BA69
:1047300002280CD141F21D002844017841F21F00EB
:104740002A18204600F088FBB0F1FF3F00DDB0BD25
:10475000D4F8D40204EB8000D0F8C052002D08BF7A
:10476000B0BD41F230002A1845F25530C5F2423052
:10477000106001201073C2E7F0B581B00446D0F894
:10478000D40204EB8000D0F8C052002D5AD0287A11
:1047900041F210016F1801284AD0002852D140F28E
:1047A0001106C2F20046D7E90101C7E909013178D3
:1047B000204602F021FA1F280ED145F25531386803
:1047C000C4F24231884207D1797B012904D8B87BF1
:1047D000113810F1110F71D8797B05222023204662
:1047E00001F0FEF8D4F8D40204EB8000D0F8C072D7
:1047F0000220687237B341F2180038440179002969
:1048000050D040F210052046C2F20045297802F04F
:1048100033FB787A022815D12978204602F02CFB48
:104820003178204601B0BDE8F04002F025BB00BF62
:10483000797B41F21F002A18204600F00DFBB0F1F1
:10484000FF3F01DD01B0F0BDD4F8D40204EB8000DD
:10485000D0F8C052002DF5D041F230000D232A18B7
:1048600045F25530C4F2423000F180501060012012
:10487000107340F21000C2F200400178002028724C
:10488000204602F031FB40F211001F23C2F200402B
:10489000017841F210002A18204601B0BDE8F0402E
:1048A00002F03ABA00680028ABD0787A0028A8D184
:1048B0003178204602F0E0FAA3E700BF41F21F0082
:1048C0002A18204600F0C8FA297AB0F1FF3F0DDD22
:1048D000481E0328B6D3EA6892B105F110012046BC
:1048E00001B0BDE8F04000F0A7B800BF052901D134
:1048F000012106E0204601B0BDE8F040FFF760BEB0
:104900000021204601B0BDE8F04000F065B800008D
:10491000D0F8D41200EB8100D0F8C00200281CBFF0
:10492000002101727047000070B50446D0F8D4022F
:1049300004EB8000D0F8C052002D08BF70BD05F513
:10494000835100222A810A80D0F8C4028A7001684B
:104950000020884740F211062046C2F20046317816
:1049600002F036F940F21000C2F200400178204611
:1049700002F02EF9317841F210002A181F23204648
:10498000BDE8704002F0C8B970B50446D0F8D40252
:1049900004EB8000D0F8C052002D08BF70BD40F27B
:1049A0001000C2F2004001784FF480702881204648
:1049B00002F036F840F211062046C2F20046317885
:1049C00002F02EF8317841F210002A181F232046F9
:1049D000BDE8704002F0A0B9B0B50446D0F8D402EA
:1049E00004EB8000D0F8C052002D08BFB0BD41F2EA
:1049F00030000D232A1845F25530C5F242301060C0
:104A000040F21000C2F200401173017800202872B9
:104A1000204602F069FA40F211001F23C2F2004062
:104A2000017841F210002A182046BDE8B04002F09B
:104A300073B900000000000010B5D0F8D43200EBCC
:104A40008303D3F8C0E2BEF1000F08BF10BD8C464F
:104A500041F2180171440C6A0B68A41A0C6200241C
:104A600081F8244040F21001C2F20041934228BF75
:104A70001346097804228EF808206246BDE81040EB
:104A800002F032BA0000000081B044F2E040C5F606
:104A90000200016841F004010160016801F00401B5
:104AA00000910099016841F080010160016801F006
:104AB000800100910099016841F0010101600168E5
:104AC00001F0010100910099016841F008010160C5
:104AD000006800F008000090009801B070470000E6
:104AE00080B541F6F43047F20001C2F20040C5F251
:104AF00000214FF4804201600021C0E90111C0E9AA
:104B0000032105214161FFF707F9002808BF80BD97
:104B1000BDE88040FBF724BC80B541F20C4040F278
:104B20001401C2F20040C2F20041012201F064FF10
:104B300008B1FBF715FC41F20C4040F28801C2F2CB
:104B40000040C2F2004102F077FB08B1FBF708FC1D
:104B500041F20C4040F2EC01C2F20040C2F20041CE
:104B600002F0D2FA08B1FBF7FBFB41F20C40C2F2B3
:104B7000004002F08DFB08B1FBF7F2FBBDE880407E
:104B8000FCF7A6BE00000000FEE7000000000000E9
:104B9000FEE700000000000041F2E860C2F20040C1
:104BA000FCF722B800000000704700000000000081
:104BB000F0B581B044F22C47C5F6020757F8042C33
:104BC00002F00302032A03D1012001B0F0BD00BFAF
:104BD000054657F82C0C0C4620F0806047F82C0C4A
:104BE000FBF7CAFC064600BF57F82C0C000105D5A0
:104BF000FBF7C2FC801B0228F6D964E057F8040CCE
:104C0000EE6895E80E0020F47C30012C40EA01307B
:104C1000A2F101016FF35F214FF47E4202EB4322C8
:104C200047F8040C92B24FF0FE4302EB01004FF440
:104C3000FE012A6901EB064101F4FE0103EB026269
:104C4000084402F0FE410844F8603868696920F0C1
:104C5000C00040EA010038603868A96920F02000EF
:104C600040EA0100386038684FF6F87120F0100013
:104C700038603869EA6920EA01004FF4001140EA1F
:104C8000C2003861386808BF4FF4801140F010004E
:104C9000002C386008BF4FF40021386808433860A2
:104CA00057F82C0C40F0806047F82C0CFBF764FCA4
:104CB000044600BF57F82C0C000107D4FBF75CFC3E
:104CC000001B0328F6D3032001B0F0BD002001B083
:104CD000F0BD000000000000F0B581B044F22C47A8
:104CE000C5F6020757F8042C02F00302032A03D189
:104CF000012001B0F0BD00BF054657F82C0C0C4652
:104D000020F0805047F82C0CFBF736FC064600BF1D
:104D100057F82C0C800005D5FBF72EFC801B0228D1
:104D2000F6D964E057F8040CEE6895E80E0020F020
:104D30007C70012C40EA0150A2F101016FF35F2168
:104D40004FF47E4202EB432247F8040C92B24FF03C
:104D5000FE4302EB01004FF4FE012A6901EB06411C
:104D600001F4FE0103EB0262084402F0FE41084434
:104D700078613868696920F4406040EA0100386071
:104D80003868A96920F4007040EA0100386038688A
:104D90004FF6F87120F480703860B869EA6920EA4B
:104DA00001004FF0807140EAC200B861386808BF66
:104DB0004FF4000140F48070002C386008BF4FF4BD
:104DC000800138680843386057F82C0C40F0805058
:104DD00047F82C0CFBF7D0FB044600BF57F82C0C0F
:104DE000800007D4FBF7C8FB001B0328F6D3032081
:104DF00001B0F0BD002001B0F0BD000000000000D7
:104E000080B5D0F8D41200EB8100D0F8C012D1B137
:104E100041F261001A440844D0F807309A4215D98B
:104E200002784FF4825C052301EBC20101F5825E3A
:104E300001F80C30511CCAB22123043AAEF80430F8
:104E400018BF0A460270FF2040B280BD002040B269
:104E500080BD0000000000002DE9F04782B004464C
:104E6000D0F8D40204EB8000D0F8C072002F00F01C
:104E7000CD840E461178154641F218029D2907EBA4
:104E8000020A00F37B805A2900F27E82DFE811F0EB
:104E90005C007C027C02B4007C027C027C027C020E
:104EA0007C027C027C027C027C027C027C027C0212
:104EB0007C027C02E8007C027C027C027C027C0298
:104EC0007C027C02200146017C027C025A017C02A9
:104ED0007C027C027C0266017C0292017C027C02E4
:104EE000BC017C02F0017C027C027C027C02FC01A1
:104EF0007C027C027C027C027C027C027C027C02C2
:104F00007C027C027C027C027C027C027C027C02B1
:104F10007C027C027C027C027C027C027C027C02A1
:104F20007C027C027C027C027C027C027C027C0291
:104F30007C027C027C027C027C027C027C027C0281
:104F40007C027C02160200BFDAF80010002900F093
:104F500035829AF849004FF4825207EBC0010130C4
:104F600001F5825305278F542022C1B29A8004395B
:104F700018BF0146FF208AF8491083E39E2900F0FC
:104F8000C381A82900F0F281AA2940F0FD81397A75
:104F9000002940F07181DAF80010002900F0478202
:104FA0009AF90410B1F1FF3F40F34182D0F8C402F6
:104FB0008168304688470028D4F8D40200F08C83FA
:104FC00004EB8000D0F8C002002800F0A88341F272
:104FD00061014FF482560224425C00EBC2030132AD
:104FE00003F582559C553A26D3B2AE80043B18BFD8
:104FF0001346435493E300BFDAF80000002800F0A2
:1050000016829AF8480000219AF84920C7F815102E
:1050100087F821109042C7F81D10C7F81910C7F87B
:1050200011104FF0700139744FF00C01F97510D068
:1050300007EBC0014FF4825201F582530130895CC5
:10504000B9749A88C1B2BA83043918BF01468AF884
:1050500048101220F8602879122800F2F6826DE2DA
:10506000DAF80010002900F0E2816978C90740F001
:10507000EB81D0F8C40206EBC6022D79C06900EBC3
:10508000820319790531A94238BF0D46002DFD6014
:1050900000F0DB8215F0030CA5F1010600F0D282CE
:1050A000B9199C5DBCF1010F0C74314600F0CB8244
:1050B000A91EBCF1020F07EB010E5C5C8EF81040DC
:1050C00000F0C182E91E7D185B5C2B74BBE200BF5F
:1050D0002B79172B28BF1723002BFB6000F0B5821C
:1050E00040F24B0013F00306A3F10102C2F20040AC
:1050F00000F0D881B918855C012E0D74114600F0BE
:10510000D281991E022E07EB0105445C2C7400F03D
:10511000CA81D91E7B18465C1E74C4E19AF84A10F5
:10512000287900F00300012902D1022800F09C81B7
:105130000021012818BF032840F0AE818AF84A10E8
:1051400006E000BF2879002818BF01208AF84A002D
:105150000020F86040B202B0BDE8F087D0F8C40289
:1051600069460DF1060243683046984720B99AF81F
:105170004A00022840F0CE81D4F8D40204EB80002B
:10518000D0F8C002002800F0418341F261014FF4E1
:1051900082570225425C00EBC203013203F58256BE
:1051A000DD553A27D3B2B780043B18BF13464354AA
:1051B0002CE300BFD0F8C4020AF150050AF14C08F4
:1051C00029464368304642469847002840F0AD8063
:1051D0009AF84A00022800F0A88028680138F8747C
:1051E000010E3974010C7974010AB974B8F8001011
:1051F0000020B88209BA090CF9820821F96040B28E
:1052000002B0BDE8F08700BF397A002940F0B180D4
:105210009AF90410002940F10A819AF84A100229EB
:1052200000F0F281D0F8C402816830468847002837
:105230007BD1D5F80200314602BACAF85420B5F83D
:10524000070043BA2046CAF85830FFF7D9FD0028B6
:1052500000F1DC82DAF85800BAF84C104843DAF86A
:105260000010814240F0BC820220387281E000BF11
:10527000397A002900F0BC802046314602B0BDE8F2
:10528000F04700F03DBB00BF6878800700F1EC807C
:10529000DAF85810DAE91420084490427FF658AF43
:1052A0009AF849004FF4825207EBC001013001F532
:1052B000825305278F542122E2E000BF2B7A1B2B5B
:1052C00028BF1B23002BFB6000F0BF8140F23000A1
:1052D00013F00306A3F10102C2F2004000F0FE80C9
:1052E000B918855C012E0D74114600F0F880991EE6
:1052F000022E07EB0105445C2C7400F0F080D91EEF
:105300007B18465C1E74EAE0D0F8C4020AF150092A
:105310000AF14C084946436830464246984720B94E
:105320009AF84A00022840F03581D4F8D40204EB00
:105330008000D0F8C002002800F0688241F26101CC
:105340004FF482570225425C00EBC203013203F5A1
:105350008256DD553A27D3B2B780043B18BF1346B7
:105360004354FF2040B202B0BDE8F087397A0029EB
:1053700058D04FF48050F8602046314602B0BDE866
:10538000F04700F049BA00BF9AF849004FF4825242
:10539000052607EBC001013001F582538E5420220F
:1053A000C1B29A80043918BF0146022078728AF887
:1053B0004910FF2040B202B0BDE8F0879AF84A10C9
:1053C000022940F0C1809AF849004FF48252022627
:1053D00007EBC001013001F582538E543A22C1B26D
:1053E0009A80043918BF014605203872DFE700BFF4
:1053F000DAF80010D9B19AF90410B1F1FF3F16DDC7
:10540000D0F8C4028168304688470028D4F8D40216
:1054100000F08C8104EB8000D0F8C00200288DD110
:10542000F4E100BF9AF90410002900F1E9809AF82C
:1054300049004FF4825207EBC001013001F582535D
:1054400005278F5420221BE0A878802800F0EA80EE
:1054500050B940F262010620C2F20041F86088882B
:10546000B8820868E7E000BF9AF849004FF482521A
:1054700007EBC001013001F5825305278F54242228
:10548000C1B29A80043918BF0146FF208AF849103A
:1054900040B202B0BDE8F08702287FF459AE022185
:1054A0004CE600BF1946032AC0F0CF80821E0023BD
:1054B00050187E180433043F45789942F573555CC3
:1054C000A2F10402B57310F8015C757310F8020CB8
:1054D00030734FF00000EBD1D4E000BF1946032A2F
:1054E000C0F0B380821E002350187E180433043F9E
:1054F00045789942F573555CA2F10402B57310F832
:10550000015C757310F8020C30734FF00000EBD1A2
:10551000B8E000BF4FF00060386100980138F875BE
:10552000010E3975010C7975BDF80610020ABA75BD
:105530000220388309BA080C78830C20F860002018
:1055400040B202B0BDE8F087D0F8C40281683046AE
:10555000884700283FF4FCADD4F8D40204EB800067
:10556000D0F8C002002800F0DA8041F261014FF467
:1055700082560224425C00EBC203013203F58255DD
:105580009C553A26D3B2AE80043B18BF1346435411
:10559000C5E000BFD5F80A0000BAF860B0B100203D
:1055A00000217A184B1C1074FE68B3420ED250745E
:1055B0008B1CFE68B3423FBF9074CB1CFE68B342A5
:1055C00004D2D0740431FA689142EAD3D9F80000C9
:1055D0000138F875010E3975010C7975010AB97534
:1055E000B8F800100020388309BA090C7983D5F87F
:1055F0000A1009BAF96040B202B0BDE8F08700BFF6
:105600009AF84A10022941D19AF849004FF482527F
:1056100007EBC001013001F5825302278F543A2273
:105620002EE700BF40F268010820C2F20041F86096
:105630000868496879613861002040B202B0BDE86D
:10564000F08700BF2946032E04D2002040B202B0EA
:10565000BDE8F087920000231044821E50187E1887
:105660000433043F45789942F573555CA2F1040276
:10567000B57310F8015C757310F8020C30734FF0BD
:105680000000EBD140B202B0BDE8F087D0F8C40210
:1056900081683046884700287FF447AED5F802007D
:1056A000314602BACAF85420D5F8060003BA20469B
:1056B000CAF85830FFF7A4FB002800F1A780DAF8F9
:1056C0005800BAF84C104843DAF80010814240F014
:1056D0008780022038724CE604EB8000D0F8C402C8
:1056E000C1683046884700283ED0D4F8D40204EB85
:1056F0008000D0F8C00290B141F261014FF48256AF
:105700000224425C00EBC203013203F582559C5532
:105710002726D3B2AE80043B18BF1346435405205E
:105720003872FF2040B202B0BDE8F08704EB800081
:10573000D0F8C402C16830468847F8B1D4F8D40222
:1057400004EB8000D0F8C00200285FD041F2610174
:105750004FF482570225425C00EBC203013203F58D
:105760008256DD552727F6E5D5F80200314602BA04
:10577000CAF85420D5F8060003BA08E0D5F80200AC
:10578000314602BACAF85420B5F8070043BA204699
:10579000CAF85830FFF734FB002837D4DAF858003D
:1057A000BAF84C1000FB01F3DAF80000984217D168
:1057B00040F21100B3F5805FC2F200404FF00102E9
:1057C00028BF4FF4805301783A7207F11002204647
:1057D00001F0A2FA002040B202B0BDE8F08700BF9D
:1057E000D4F8D40204EB8000D0F8C00270B141F2CA
:1057F00061014FF482570525425C00EBC203013280
:1058000003F58256DD552027A5E500BFFF2040B2F5
:1058100002B0BDE8F08700002DE9F04381B00446F6
:10582000D0F8D40204EB8000D0F8C072002F5BD017
:1058300041F2380207F11008BE18B26BB38D02FBBB
:1058400003F5B5F5805F28BF4FF48055D0F8C4024A
:10585000726BB5FBF3F3D0F810C008464146E04741
:10586000B0F1FF3F20DD40F210004246C2F200409E
:105870002B461FFA85F90178204601F035FBB08DE3
:105880003168D6E90D23B9FBF0F00244181A7263AF
:10589000B063A1EB050030602CD1032038720020EA
:1058A00040B201B0BDE8F083D4F8D40204EB80002C
:1058B000D0F8C002C0B141F261014FF48257042513
:1058C000425C00EBC203013203F58256DD5511271D
:1058D000D3B2B780043B18BF13464354FF2040B2F5
:1058E00001B0BDE8F08300BFFF2040B201B0BDE8C9
:1058F000F08300BF002040B201B0BDE8F08300009B
:105900002DE9F0410446D0F8D40204EB8002D2F82D
:10591000C00200284AD041F2380300F11008C6182E
:1059200008464146B36BB58D03FB05F7B7F5805FBD
:1059300028BF4FF48057B7FBF5F3D2F8C452726B0F
:105940006D69A847B0F1FF3F16DDB9B2B08DD6E959
:105950000D35B1FBF0F132680B44691A7363B16322
:10596000A2EB0702326025D1002120460025FFF777
:1059700033F868B2BDE8F081D4F8D40204EB8000BB
:10598000D0F8C00290B141F261014FF48257042572
:10599000425C00EBC203013203F58256DD5503275A
:1059A000D3B2B780043B18BF13464354FF2568B2F7
:1059B000BDE8F08101FB00F340F21100C2F20040AB
:1059C0004246B3F5805F0178204628BF4FF48053EC
:1059D00001F0A2F9002568B2BDE8F08100000000E6
:1059E000B0B5D0F8D41200EB8100D0F8C002002886
:1059F00008BFB0BD41F2610C4FF4825410F80CE0C6
:105A000000EBCE0101F582550A550EF10101CAB233
:105A10002B71043A4FF000036B7118BF0A4600F86F
:105A20000C20B0BD0000000041F6F430C2F200408E
:105A3000FEF706B80000000081604EF2C002C168A7
:105A4000CFF6FE7201EA020341F2371C372141F220
:105A5000883243EA0C03C36000F002BB0000000080
:105A600081604EF2C002C168CFF6FE72114041F271
:105A700029121143C16040F2080144F6D352C2F228
:105A80000041C1F262020968A1FB0212510A41F20F
:105A9000883251436FF00302514000BF043127D0D8
:105AA000426B12F0450F02D012F4005214D0426B38
:105AB00012F0450F02D012F400520DD0426B12F0DA
:105AC000450F02D012F4005206D0426B12F0450F7F
:105AD000E4D012F40052E1D1416B042211F0040130
