:020000040800F2
:1000000020A20024E1020008DB4C00082142000885
:10001000D94C0008EF030008356800080000000014
:10002000000000000000000000000000576300080E
:10003000A90A000800000000C35400085963000822
:10004000FB020008FB020008FB020008FB0200089C
:10005000FB020008FB020008FB020008FB0200088C
:10006000FB020008FB020008FB0200087106000802
:10007000FB020008FB020008FB020008FB0200086C
:10008000FB020008FB020008FB020008FB0200085C
:10009000FB020008FB020008FB020008FB0200084C
:1000A000FB020008FB020008FB020008FB0200083C
:1000B000FB020008FB020008FB020008FB0200082C
:1000C000FB020008FB020008FB020008FB0200081C
:1000D000FB020008FB020008FB020008FB0200080C
:1000E000FB020008FB02000800000000FB02000801
:1000F000FB020008FB020008FB020008FB020008EC
:10010000FB020008FB020008FB020008FB020008DB
:10011000FB020008FB020008FB020008FB020008CB
:10012000FB020008FB020008FB020008FB020008BB
:10013000FB020008FB020008FB020008FB020008AB
:1001400000000000000000000000000000000000AF
:10015000FB020008FB020008FB020008FB0200088B
:10016000FB020008FB020008FB020008FB0200087B
:10017000FB020008FB020008650600080000000002
:10018000FB020008FB020008FB020008FB0200085B
:10019000FB020008FB020008FB020008FB0200084B
:1001A000FB020008FB020008FB0200080000000040
:1001B000FB020008FB020008FB020008FB0200082B
:1001C000FB020008FB020008000000000000000025
:1001D00000000000000000007D0600080000000094
:1001E000000000000000000000000000000000000F
:1001F0000000000000000000FB020008FB020008F5
:10020000FB020008FB02000800000000FB020008DF
:10021000FB020008FB020008FB020008FB020008CA
:10022000FB02000800000000FB02000800000000C4
:10023000FB020008FB02000800000000FB020008AF
:10024000FB020008FB020008FB020008FB0200089A
:10025000FB020008FB020008FB020008FB0200088A
:10026000FB020008FB020008FB020008FB0200087A
:10027000FB020008FB020008FB020008000000006F
:10028000FB020008FB020008FB020008FB0200085A
:1002900000000000FB020008FB0200080000000054
:1002A00000000000FB020008FB020008FB0200083F
:1002B000FB020008FB020008FB020008FB0200082A
:1002C000FB020008FB020008FB020008DFF80CD06C
:1002D00000F05CF800480047496A000820A20024AA
:1002E0000648804706480047FEE7FEE7FEE7FEE7D0
:1002F000FEE7FEE7FEE7FEE7FEE7FEE72D64000807
:10030000CD020008D2B201E000F8012B491EFBD259
:1003100070470022F6E710B513460A460446194610
:10032000FFF7F0FF204610BD2DE9F05F05460020E5
:1003300092469B4688460646814640241BE0284656
:1003400041464746224600F042F853465A46C01AF4
:10035000914110D311461846224600F029F82D1A73
:1003600067EB01084F4622460120002100F020F8EB
:1003700017EB00094E41201EA4F10104DFDC4846C2
:1003800031462A464346BDE8F09F0000064C074D23
:1003900006E0E06840F0010394E807009847103455
:1003A000AC42F6D3FFF796FFE4EF000804F0000834
:1003B000202A04DB203A00FA02F100207047914025
:1003C000C2F1200320FA03F3194390407047202A1A
:1003D00004DB203A21FA02F00021704721FA02F3EF
:1003E000D040C2F120029140084319467047FEE711
:1003F00070B5744D0C46642128602846A9604221DE
:10040000297100F09DF8A88947F6A276B04208D17C
:10041000E88947F27361884203D1BDE8704004F077
:100420009DBF602004F0A5FCA889B04209D1E889ED
:1004300042F24361884204D82046BDE8704006F08D
:1004400063BC422004F095FCA88947F6A27188425B
:1004500009D1E88947F22371884204D82046BDE8D3
:10046000704006F015BF782004F083FCE88945F25F
:100470004061884204D12046BDE8704006F0E2BCED
:100480000020E881287170BDBCB505468DF80710C5
:100490001446006801232979AA6800920DF1070229
:1004A000013101F0E5FE2979AA682868009201234C
:1004B0002246013101F07AFE002818BF0120BCBDA0
:1004C000BFB50B460179046880680125CDE9002598
:1004D00002901A4620460223013101F02BFF00282A
:1004E00018BF012004B0B0BDE0B58DF8061011783A
:1004F00003680DF106028DF80710017980680090FD
:100500001846022301F0B4FE002818BF01208CBD5C
:10051000BFB50B4601798DF80F2002688068029004
:1005200001240DF10F05CDE9005410461A460223AF
:10053000013101F08FFF002818BF012004B0B0BDC9
:10054000F8B5044601208DF802002079782811D1F1
:100550001C4D0DF1020643F20A0128463246FFF710
:10056000AFFF721C284643F20B01FFF7A9FF0020E2
:10057000A0811DE00DF102052046FF212A46FFF76C
:10058000B3FF0F4F20461C212A46B8476E1C204659
:100590001D213246B847BDF802000A212A4600BA9A
:1005A000000CA0812046B84720460B213246B847B0
:1005B000BDF8020000BA000CE0810020F8BD00BFC9
:1005C00089040008F0050024806B816C496D0229C4
:1005D00006D0012180F83510C16C41F04001C164A2
:1005E00000F067BA10B5846BA36BA06C01680A6851
:1005F00002F400224BB1A36BDB0712D18AB1C968A8
:10060000E26B01EBC201002213E0C2B908680003EB
:1006100017D4E06BD4E9102303EB80000861A263D8
:100620000FE00A6812030CD40969E26B01EBC20106
:10063000012200F0EBFBA06B0138A06301E0606CCD
:10064000C860A06B216C88420AD12068C16841F063
:100650000101C1600068800702D5012084F83500DF
:1006600010BD0000014800F03FBA00BF040600249E
:10067000014800F0B7BE00BF5406002470470000D8
:1006800010B50168234A914223D0234A91421CBFEE
:10069000224A91421DD0224A91421CBF214A9142D6
:1006A00017D0214A91421CBF204A914211D0204AC2
:1006B00091421CBF1F4A91420BD01F4A91421CBF5E
:1006C0001E4A914205D01E4A91421CBF1D4A9142CA
:1006D00013D101F0F80218231EA4103AB2FBF3F371
:1006E00003F00703E35CC36540F2FF3399435F2ADD
:1006F00088BF04318165084610BD134A9142E8D095
:10070000124A9142E5D0124A9142E2D021F0FF0113
:10071000F0E700BF10000240280002404000024005
:10072000580002407000024088000240A0000240D1
:10073000B800024010040240280402404004024075
:10074000580402407004024088040240B804024089
:10075000A0040240000610160006101610B501682D
:10076000C94A91420BD0C94A91421CBFC84A914222
:1007700005D0C84A91421CBFC74A914213D101F02B
:10078000FC011422154B0839B1FBF2F203F1800190
:1007900003EB820302F01F020124C0E9183104FABE
:1007A00002F2826610BDBD4A9142E8D0BC4A914235
:1007B000E5D0BC4A9142E2D001F0F8021823084C7F
:1007C000103AB2FBF3F3A1421A4688BF0832AA34AA
:1007D000A14228BF1A46034BD8E700BF0058025871
:1007E0000F0402400008024070B501794A1E072A32
:1007F0001AD8144B0568A44E03F14404B5420BD03B
:10080000A24EB5421CBFA24EB54205D0A14EB54284
:100810001CBFA14EB54208D1012503EB8101C0E9FF
:100820001B1405FA02F2426770BD9C4EB542F3D02C
:100830009C4EB542F0D09A4EB5421CBF024B03F11C
:100840004404E9E7FC580258FC080240B0B50468CB
:100850007D4DAC4223D07D4DAC421CBF7C4DAC42A3
:100860001DD07C4DAC421CBF7B4DAC4217D07B4DA4
:10087000AC421CBF7A4DAC4211D07A4DAC421CBF89
:10088000794DAC420BD0794DAC421CBF784DAC4297
:1008900005D0784DAC421CBF774DAC4208D16360A7
:1008A0008068402819BFA160E260A260E160B0BD2D
:1008B000724DAC42F3D0734DAC42F0D0704DAC42AF
:1008C000EDE700BFF0B5964604685F4AD0F858C01F
:1008D00094423BD05D4FBC421CBF5D4FBC4235D003
:1008E0005C4FBC421CBF5C4FBC422FD05B4FBC4234
:1008F0001CBF5B4FBC4229D05A4FBC421CBF5A4F51
:10090000BC4223D0594FBC421CBF594FBC421DD0E2
:10091000584FBC421CBF584FBC4217D0574FBC4227
:100920001CBF574FBC4211D0564FBC421CBF564F44
:10093000BC420BD0554FBC421CBF554FBC4205D0EA
:10094000544FBC421CBF544FBC4267D1C66ED0E965
:1009500019757D6016B1D0E91C566E60944229D09D
:100960003A4A94421CBF3A4A944223D0394A9442AC
:100970001CBF394A94421DD0384A94421CBF384AA1
:10098000944217D0374A94421CBF374A944211D040
:10099000364A94421CBF364A94420BD0354A9442A0
:1009A0001CBF354A944205D0344A94421CBF344A95
:1009B000944217D18268C06D3F2500F01F0005FAF0
:1009C00000F0CCF80800206820F480202060402A45
:1009D000636003D1C4F808E0E160F0BDA160C4F831
:1009E0000CE0F0BD2E4A94421CBF274A94420BD023
:1009F000264A94421CBF264A944205D0254A944276
:100A00001CBF254A944214D18268C06D012500F0B4
:100A10001F0005FA00F0CCF80400D8E71F4FBC42D5
:100A200094D01F4FBC4291D01E4FBC423FF48EAFBA
:100A3000D7E71A4A9442E7D01A4A9442E4D0114ABE
:100A40009442B7D0CDE700BF10000240280002401A
:100A500040000240580002407000024088000240FE
:100A6000A0000240B80002401004024028040240E6
:100A700040040240580402407004024088040240CE
:100A8000A0040240B8040240085402581C54025802
:100A90003054025844540258585402586C54025866
:100AA00094540258805402587047EFF3108072B685
:100AB000FEE7704710B501F0E9FA0A4CE168401A08
:100AC000C0087C2806D901F0E1FAE060A068606007
:100AD000012001E0A0680130A060206801302060A2
:100AE00010BD00BF88000024B0B504460068056949
:100AF00069070CD504214161C14AE06C40F0020055
:100B0000E064A06C026584F8351000F081FBA80752
:100B10000ED52168A06C02224A61E16C41F001010E
:100B2000E164B7490165042184F8351000F070FBD9
:100B3000E80605D5206810214161204600F064F8E0
:100B4000280705D5206808214161204600F05CF99E
:100B5000E80708BFB0BD20680168890703D5C168F0
:100B600021F01E01C160C16821F00101C1600121B5
:100B700041612046BDE8B040FFF79CBF00283ED051
:100B8000F8B5044690F8350010B9204600F03EF85C
:100B9000022084F835001B4FD4F818C0BCF1000FB8
:100BA0001CBF00206062D4E9000ED4E9023506685B
:100BB0003E40066004F120076669D4E90B12354314
:100BC000266935432B43E0CF2B4333433B43194343
:100BD00011430268114341EA0C01BEF1100F41EAD2
:100BE0000E01016001D1E1698161C16841F01E011E
:100BF000C1600020E064012184F83510F8BD0120B7
:100C0000704700BF07F0E0FF704700002DE9F04F8C
:100C100085B0044600684849884240F089804748CA
:100C20008A466E46474D4FF00D0800274FF00209E7
:100C300050F8041C41F0010140F8041C50F8041C59
:100C400001F0010104F09CF841F01001016001681D
:100C500001F0100104F094F841F001010160016815
:100C600001F0010104F08CF841F004010160016819
:100C700001F0040104F084F841F00801016001680A
:100C800001F0080104F07CF841F002010160006805
:100C90002B4900F0020000908B460098CDF81080A0
:100CA000CDE90277CDF804907320009001F5406003
:100CB0003146A847502004F015F80AF18050A847A3
:100CC000C02004F00FF80BF58060A847082004F05E
:100CD00009F80BF50060A847802004F003F8584697
:100CE000A847194D4FF480304B264FF4807C4FF4C9
:100CF00080634FF480414FF48052C5E908075F4894
:100D0000C5E90373C5E90521C5F81CC085E8C10024
:100D1000284600F017FE08B1FFF7C7FE4E2000215D
:100D20000022AC63A56401F017FD4E2001F004FD24
:100D300005B0BDE8F08F00BF00000248E044025853
:100D400000040258D11E000854060024F8B590F89B
:100D5000345004460220012D50D084F8350000277D
:100D60002568A06C2E6846F480462E602E6826F01A
:100D700002062E602E6831432960214EA763C0E928
:100D80001367C4E9107701211E4E84F83410C6633E
:100D9000E763B7EB134F04D105F1280100F070FFB2
:100DA0001CE0A16346646264E363E16BB1F5803FDC
:100DB00006D3E16B4908E163A16B4900A163F4E745
:100DC000A16B0239A163A16B2164E16BE36B00931A
:100DD00002EB810305F1280100F052F828B1402010
:100DE000E064012084F8350005E02068016841F0E6
:100DF000010101600020002184F83410F8BD00BF1B
:100E0000C9050008E5050008704700000068EB4BC5
:100E1000984223D0EA4B98421CBFEA4B98421DD01F
:100E2000E94B98421CBFE94B984217D0E84B9842D7
:100E30001CBFE84B984211D0E74B98421CBFE74BD0
:100E400098420BD0E64B98421CBFE64B984205D027
:100E5000E54B98421CBFE54B984206D10AB11030D1
:100E600000E00C30016000207047E14B9842F5D063
:100E7000E04B9842F2D0E04B9842EFE7100002407E
:100E8000F8B504468068802802D14FF4807042E1B2
:100E900094F83400012804BF0220F8BD03F087FF56
:100EA00040F03781022084F83500C44EDDF818C0C8
:100EB0000020606535462068B04224D0C04EB04264
:100EC0001CBFC04EB0421ED0BF4EB0421CBFBF4E72
:100ED000B04218D0BE4EB0421CBFBE4EB04212D07F
:100EE000BD4EB0421CBFBD4EB0420CD0BC4EB04255
:100EF0001CBFBC4EB04206D0BB4EB0421CBFBB4E66
:100F0000B04240F00B8106683F2746F48026066019
:100F100008260361D4E9160303F01F0307FA03F35D
:100F2000835120466346FFF791FC2068A8423CD0DD
:100F3000A34988421CBFA349884236D0A2498842AF
:100F40001CBFA249884230D0A14988421CBFA14998
:100F500088422AD0A04988421CBFA049884224D098
:100F60009F4988421CBF9F4988421ED09E498842A3
:100F70001CBF9E49884218D09D4988421CBF9E498B
:100F8000884212D09B4988421CBF9C4988420CD0A1
:100F90009B4988421CBF9B49884206D09A49884297
:100FA0001CBF9A49884240F0EF8004F164030ECBE5
:100FB0004A6013B1D4E91C124A60A84224D0F24915
:100FC00088421CBFF14988421ED0F14988421CBFAB
:100FD000F049884218D0F04988421CBFEF49884246
:100FE00012D0EF4988421CBFEE4988420CD0EE492E
:100FF00088421CBFED49884206D0ED4988421CBF9B
:10100000EC49884240F09E8001680B2262F3440163
:101010000160416941F080014161216C09B9A16C15
:1010200019B10821026811430160A8423BD0D6499A
:1010300088421CBFD549884235D0D54988421CBF5B
:10104000D44988422FD0D44988421CBFD349884212
:1010500029D0D34988421CBFD249884223D0D249E3
:1010600088421CBFD14988421DD0D14988421CBF4B
:10107000D049884217D0D04988421CBFD049884205
:1010800011D0CE4988421CBFCE4988420BD0CE49F0
:1010900088421CBFCD49884205D0CD4988421CBF3B
:1010A000CC4988427DD1216E0A68D20303D50A68F3
:1010B00042F480720A60E16E19B10A6842F48072EB
:1010C0000A60A84223D0B04988421CBFAF49884279
:1010D0001DD0AF4988421CBFAE49884217D0AE49E7
:1010E00088421CBFAD49884211D0AD4988421CBF1F
:1010F000AC4988420BD0AC4988421CBFAB498842FE
:1011000005D0AB4988421CBFAA49884233D103F0BD
:1011100000BE4FF4006060650120F8BDA64EB042ED
:101120003FF4F1AEA54EB0423FF4EDAEA44EB04256
:101130003FF4E9AE066848F220073E430660012707
:101140000426E6E69C4988423FF45EAF9B4988420C
:101150003FF45AAF9A4988423FF456AF01680522DE
:1011600062F343010160216C19B9A16C00293FF4BD
:101170005CAF042156E790498842C8D08F49884225
:10118000C5D08F498842C2E7934988423FF40DAFEA
:10119000924988423FF409AF914988423FF405AF34
:1011A000DCE78D4988423FF47EAF8C4988423FF4AA
:1011B0007AAF8B4988423FF476AFA8E7100002402F
:1011C00028000240400002405800024070000240E7
:1011D00088000240A0000240B80002401004024013
:1011E00028040240400402405804024070040240B7
:1011F00088040240B8040240A00402400854025887
:101200001C5402583054025844540258585402583E
:10121000B0B500285CD090F83510022956D101688D
:10122000584A914223D0584B99421CBF574B994280
:101230001DD0574B99421CBF564B994217D0564B65
:1012400099421CBF554B994211D0554B99421CBF36
:10125000544B99420BD0544B99421CBF534B99426B
:1012600005D0534B99421CBF524B994233D10423B2
:1012700080F83530914223D0434881421CBF434817
:1012800081421DD0424881421CBF4248814217D052
:10129000414881421CBF4148814211D040488142AF
:1012A0001CBF404881420BD03F4881421CBF3F4891
:1012B000814205D03E4881421CBF3E4881424DD10B
:1012C000086820F001000860002102E080214165EB
:1012D00001210846B0BD384B9942C8D0374B9942DE
:1012E000C5D0374B9942C2D00A6822F00E020A607C
:1012F0000A6822F001020A60324A91420BD0324A57
:1013000091421CBF314A914205D0314A91421CBFE3
:10131000304A91422BD100F158041ECC1D6825F4AF
:1013200080751D6002F01F02012303FA02F24A6079
:10133000816E6160C16E31B10A6822F480720A6008
:10134000D0E91C124A60002180F83410012280F894
:101350003520026D002ABCD09047B5E7164881427F
:10136000AED016488142ABD015488142A8E71A4A50
:101370009142D0D0194A9142CDD0194A9142CAD057
:10138000E1E700BF10000240280002404000024098
:10139000580002407000024088000240A000024055
:1013A000B8000240100402402804024040040240F9
:1013B000580402407004024088040240B80402400D
:1013C000A0040240085402581C54025830540258D9
:1013D00044540258585402586C54025894540258B9
:1013E000805402582DE9F843044600200090C34F72
:1013F000DFF8F804D4F85890D0F800802068D9F8C5
:101400000060D9F80010B8422AD0BD4A90421CBFF3
:10141000BC4A904224D0BC4A90421CBFBB4A904276
:101420001ED0BB4A90421CBFBA4A904218D0BA4A5A
:1014300090421CBFB94A904212D0B94A90421CBF98
:10144000B84A90420CD0B84A90421CBFB74A90426A
:1014500006D0B74A90421CBFB64A904240F09A81EB
:10146000E16D082201F01F018A40324236D0042388
:101470003D46B84224D0A24FB8421CBFA14FB8424B
:101480001ED0A14FB8421CBFA04FB84218D0A04FE9
:10149000B8421CBF9F4FB84212D09F4FB8421CBFEA
:1014A0009E4FB8420CD09E4FB8421CBF9D4FB842D1
:1014B00006D09D4FB8421CBF9C4FB84240F095816A
:1014C00007681F422F4609D0036823F00403036016
:1014D000C9F80820626D42F00102626501228A406B
:1014E00032422FD0B84224D0854B98421CBF854B46
:1014F00098421ED0844B98421CBF844B984218D00F
:10150000834B98421CBF834B984212D0824B984227
:101510001CBF824B98420CD0814B98421CBF814B20
:10152000984206D0804B98421CBF804B984240F0B6
:10153000698143691B0605D5C9F80820626D42F030
:101540000202626504228A4032422FD0B84224D07F
:101550006B4B98421CBF6B4B98421ED06A4B984213
:101560001CBF6A4B984218D0694B98421CBF694B0C
:10157000984212D0684B98421CBF684B98420CD0DE
:10158000674B98421CBF674B984206D0664B984207
:101590001CBF664B984240F0438103689B0705D50A
:1015A000C9F80820626D42F004026265102202FA56
:1015B00001F131423FD00822B84224D0CC4B9842AE
:1015C0001CBFCC4B98421ED0CB4B98421CBFCB4B80
:1015D000984218D0CA4B98421CBFCA4B984212D0AE
:1015E000C94B98421CBFC94B98420CD0C84B98427B
:1015F0001CBFC84B984206D0C74B98421CBFC74B74
:10160000984240F01B810368134214D0C9F80810B7
:1016100002680168520306D4C90506D4016821F0A6
:101620000801016001E0080301D4216C00E0A16C15
:1016300009B120468847E06D00F01F01202000FA24
:1016400001F232427CD020681023B84224D0A84E48
:10165000B0421CBFA74EB0421ED0A74EB0421CBF26
:10166000A64EB04218D0A64EB0421CBFA54EB04206
:1016700012D0A54EB0421CBFA44EB0420CD0A44E16
:10168000B0421CBFA34EB04206D0A34EB0421CBF16
:10169000A24EB04240F0DF8006681E4250D0C9F82A
:1016A000082094F835300268042B16D122F0160277
:1016B0000260426922F080024261226C0AB9A26C87
:1016C0001AB1026822F0080202603F208840C9F87F
:1016D000080003F065FB216D57E00168520308D450
:1016E000C90529D4016821F01001016003F058FBFD
:1016F00022E0080320D4616C1FE000BF100002400C
:1017000028000240400002405800024070000240A1
:1017100088000240A0000240B800024010040240CD
:101720002804024040040240580402407004024071
:1017300088040240A0040240E16B09B120468847BA
:10174000606D00284FD0606DC0071DD04FF416505B
:10175000B8FBF0F1042084F835002068026822F01C
:1017600001020260009A013200928A4202D80268A5
:10177000D207F7D103F0F4FB0068C0074FF0030075
:1017800008BF012084F83500E16C61B32046BDE854
:10179000F8430847644A90421CBF644A90420CD008
:1017A000634A90421CBF634A904206D0624A90420C
:1017B0001CBF624A904240F08C80E26D02F01F0331
:1017C000042202FA03F602680E4201D057074FD4F2
:1017D00002269E400E4201D0970754D4D9400907F3
:1017E00001D5110762D4BDE8F8834D4FB8423FF4EC
:1017F00067AE4C4FB8423FF463AE514FB84218BF8A
:1018000008235DE6464B98423FF493AE454B984221
:101810003FF48FAE4A4B98423FF48BAE026891E69C
:101820003F4B98423FF4B9AE3E4B98423FF4B5AEC1
:10183000434B98423FF4B1AE0268B7E6384B98424A
:101840003FF4E1AE374B98423FF4DDAE3C4B98425B
:1018500018BF0422D7E6324EB0423FF41DAF314EDE
:10186000B0423FF419AF364EB04218BF022313E71F
:101870001104C9F8046013D4910615D4016821F04D
:101880000401016010E01104C9F804601BD4910642
:101890001DD4016821F00A01016003F081FA16E00D
:1018A000D00301D4A16C70E7216C6EE7016821F0D0
:1018B0000E010160012000FA03F1C9F8041060650F
:1018C00003F04EFB5EE7D00301D4616C5DE7E16B92
:1018D0005BE7E74A90423FF470AFE64A90423FF43C
:1018E0006CAFE54988423FF4BBAD7CE708000024BB
:1018F00028000240400002405800024070000240B0
:1019000088000240A0000240B800024010040240DB
:10191000280402404004024058040240700402407F
:1019200088040240A004024094540258085402580B
:101930001C54025830540258445402585854025807
:10194000B80402402DE9F843044600F09FFB002C48
:1019500046D005462068B74FB8422AD0B6498842DB
:101960001CBFB649884224D0B54988421CBFB5493E
:1019700088421ED0B44988421CBFB449884218D05E
:10198000B34988421CBFB349884212D0B249884249
:101990001CBFB24988420CD0B14988421CBFB14932
:1019A000884206D0B04988421CBFB049884240F006
:1019B000E880022184F8351003F0D2FA016821F0A2
:1019C0000101016020680168C9070CD000F05EFBCE
:1019D000401B0628F6D320206065032084F83500DC
:1019E0000120BDE8F8830168A44AB946D4E902574A
:1019F000D4E906C301EA0208D4E90462D4E9081E66
:101A000045EA08053D4335432A431A43114341EA59
:101A10000C01BEF1040F03D1D4E90B231A43114387
:101A20006568A5F12902062A0FD3A5F13F02042A11
:101A30000BD3A5F14702022A07D3A5F14F02042ACE
:101A400003D325F00302742A01D141F4801101600F
:101A50004F46BEF1040F416921F0070141EA0E0132
:101A600028D1D4E90A53294323B3BCF5005F08D039
:101A7000BCF1000F11D1022D12D0012D07D07DB184
:101A800018E0032D16D8DFE805F00E0B0E02A3F1C7
:101A9000C072B2FA82F2520904E0032D03D309D1D5
:101AA000C3F3006232B140206065012084F8350044
:101AB000BDE8F883416103F093FB03F00AFB206863
:101AC000B8423BD0E24988421CBFE249884235D047
:101AD000E14988421CBFE14988422FD0E049884251
:101AE0001CBFE049884229D0DF4988421CBFDF493A
:101AF000884223D0DE4988421CBFDE4988421DD07F
:101B0000DD4988421CBFDD49884217D0DC49884244
:101B10001CBFDD49884211D0DA4988421CBFDB492D
:101B200088420BD0DA4988421CBFDA49884205D086
:101B3000D94988421CBFD94988426FD12046FEF757
:101B40000DFEA06804F16003802806BF00206060DD
:101B50006068C5B20ECB013807280D60536005D808
:101B60002046FEF741FE03F0C2FB03E00020C4E97B
:101B70001B00606700206065012184F83510BDE816
:101B8000F883C84988421CBFC04988420BD0C0496D
:101B900088421CBFBF49884205D0BF4988421CBF4C
:101BA000BE4988422ED1022104F1080584F835107F
:101BB00003F0D6F92ECD06686FF3101646EAD2026E
:101BC000A1F18006B6FA86F67609B603402908BF69
:101BD000102642EA0601D4E9066232432A431A4338
:101BE00041EAD201226A41EA121140F80819C0B252
:101BF0001421B0FBF1F08000E06503F0F1FA03F08E
:101C000002FA5CE7A6498842CDD0A7498842CAD0EB
:101C10009C4988423FF4CDAE4020DDE6A049884291
:101C20008CD0A04988423FF489AF9F4988423FF455
:101C300085AF9FE7100002402800024040000240AC
:101C4000580002407000024088000240A00002409C
:101C5000B800024010040240280402404004024040
:101C6000580402407004024088040240A00402406C
:101C70006C54025880540258B80402403F8010FE51
:101C8000B0B5002800F0B58003F0EDF804BF0220E5
:101C9000B0BD03F0E6FA40F0AA8003F02DF820680A
:101CA0006A49884224D06A4A90421CBF694A9042DD
:101CB0001ED0694A90421CBF684A904218D0684AB8
:101CC00090421CBF674A904212D0674A90421CBFA4
:101CD000664A90420CD0664A90421CBF654A9042C8
:101CE00006D0654A90421CBF644A904240F083800F
:101CF00002680B2363F344020260226C1AB10822CB
:101D000003681A43026088423BD0514A90421CBF8C
:101D1000504A904235D0504A90421CBF4F4A9042A0
:101D20002FD04F4A90421CBF4E4A904229D04E4A73
:101D300090421CBF4D4A904223D04D4A90421CBF56
:101D40004C4A90421DD04C4A90421CBF4B4A904294
:101D500017D04B4A90421CBF4B4A904211D0494A7F
:101D600090421CBF494A90420BD0494A90421CBF46
:101D7000484A904205D0484A90421CBF474A904288
:101D800059D1226E1368DB0303D5136843F48073C3
:101D90001360E26E1AB1136843F4807313608842D3
:101DA00023D02B4988421CBF2A4988421DD02A498A
:101DB00088421CBF2949884217D0294988421CBF44
:101DC0002849884211D0284988421CBF27498842A7
:101DD0000BD0274988421CBF2649884205D0264996
:101DE00088421CBF254988421CD103F0A7B903F0E3
:101DF00060FA0120B0BD224A90423FF479AF214AF7
:101E000090423FF475AF204A90423FF471AF0268B0
:101E1000052363F343020260226C002A3FF473AF90
:101E200004226DE716498842DFD016498842DCD08B
:101E300015498842D9E71A4A9042A2D0194A9042DD
:101E40009FD0194A90429CD0CFE700BF10000240BB
:101E5000280002404000024058000240700002404A
:101E600088000240A0000240B80002401004024076
:101E7000280402404004024058040240700402401A
:101E800088040240B8040240A004024008540258EA
:101E90001C540258305402584454025858540258A2
:101EA0006C5402589454025880540258B0B50446F9
:101EB00000F0ECF805460548611C007818BF0444A2
:101EC00000F0E4F8401BA042FAD3B0BD00000024AB
:101ED0002DE9FC4F5B4A0A244FF0000A4FF0000B3B
:101EE0009042594A08BF092402444FEAB223082B02
:101EF00038BF4FEAB2240094012700220E6836FA58
:101F000002F500F09C8007FA02F916EA090E00F0CB
:101F100090800323D1F804C003FA0BF50CF00308FA
:101F2000EE43A8F10105012D12D885685346D1F87A
:101F30000CA00AFA0BF435409A462C438460CCF38B
:101F400000144568944025EA09052C43446005E0E7
:101F5000B8F1030F02D14FF0030820E0C4688D6888
:101F6000344005FA0BF52C43C460B8F1020F16D1CA
:101F70000AF01C040F2303FA04FC6FF0030303EAC6
:101F8000520303441D6A25EA0C0C0D6905FA04F49A
:101F900044EA0C041C62D1F804C00CF00308046885
:101FA00008FA0BF33440234303601CF4403F40D055
:101FB000274C284E236843F00203236023680F2434
:101FC00003F002030193019D0AF00C0322F00305C4
:101FD0009C40AF5927EA0404009F07FA03F3234308
:101FE000AB514FF0B04633684D6843EA0E04EF0240
:101FF00058BF23EA0E043460144EAF02336843EA3C
:102000000E0458BF23EA0E043460AF03D6F88030C4
:102010004FF0010743EA0E0458BF23EA0E04C6F846
:102020008040ED03F36F43EA0E0458BF23EA0E0429
:10203000F4670AF1040A0BF1020B01325EE7BDE816
:10204000FC8F00BF002402580000FEA704000058C7
:10205000F4440258080400580069084018BF0120E1
:102060007047426902EA0103914341EA03418161F9
:102070007047002A08BF0904816170470248006860
:102080006FF31F30704700BF0010005C014800680C
:10209000704700BF189E002490F84120202A03D1E9
:1020A00090F84020012A01D1022111E0242280F879
:1020B00041200268136823F001031360136823F4BE
:1020C0008053136013681943734602F02CFE9E463A
:1020D0000846704790F84120202A03D190F840200C
:1020E000012A01D1022110E0242280F84120026857
:1020F000136823F001031360136823F4706343EA49
:102100000121734602F00FFE9E460846704700000C
:1021100000B3B0B5044690F8410018B903F003F9D4
:1021200000F024FA242084F84100D4E90003D4E923
:10213000021223F07063012A056825F0010505608D
:102140000361836823F40043836005D141F40041B7
:10215000816009E001207047022A41F40441816056
:1021600002D14FF40061416041680F4A04F110054B
:1021700011434160C16821F40041C1602ECD11437B
:1021800041EA0321C160216A29430160016841F0ED
:102190000101016000206064202184F84110206367
:1021A00084F84200B0BD00BF008000022DE9F84372
:1021B00002F007FE02D102F094FF03D10227384655
:1021C000BDE8F88302F09FFF02F025FF0028F6D15A
:1021D000222002F03EFF9E48B1F5807F06D3FF210A
:1021E00021850090204602F0C9FF01E003F021F8AC
:1021F000414602F09DF8089F0025FF26608D48B3F8
:10220000204639464A4602F0CFF840BB02F03EFE77
:10221000F4D00004F2D12046802100223B4602F097
:10222000CAFEE0B902F0D2FE21BF26850095204605
:10223000414627BFFF224FF08073608D20853FBF4E
:102240000095C2B22046414638BF4FF0007302F0FD
:102250006FF8D3E72046394603F01EF808B101278E
:10226000ADE7206820210027BF4B02F018FFA6E74A
:102270002DE9F84302F0A5FD02D102F032FF03D1AF
:1022800002273846BDE8F88302F03DFF02F0C3FEA6
:102290000028F6D1212002F0DCFEB248B1F5807FA3
:1022A00006D3FF2121850090204602F067FF01E060
:1022B00002F0BFFF414602F03BF8089F0025FF26D1
:1022C000608D48B3204639464A4602F0CDF840BBFF
:1022D00002F015FEF4D00004F2D120468021002245
:1022E0003B4602F068FEE0B902F070FE21BF268591
:1022F00000952046414627BFFF224FF08073608D36
:1023000020853FBF0095C2B22046414638BF4FF0FE
:10231000007302F00DF8D3E72046394602F0BCFF07
:1023200008B10127ADE72068202100278E4B02F07D
:10233000B6FEA6E72DE9F84F02F043FD0CD1DDF81B
:1023400028B0BBF1000F09D0DDF82C80B8F1000FE8
:1023500004D002F0C6FE07D1022502E002F071FFB0
:1023600001252846BDE8F88F02F0C5FE02F053FEB5
:102370000028F6D1222084F841000C990025F2B201
:10238000002302F072FE32488346A0F58060009080
:1023900002F06EFF02F0C4FE60B92068012E03D087
:1023A00002F0F9FE30B9206802F04FFF402101F041
:1023B000D7FF10B184F84050D2E702F007FE07D3F0
:1023C000FF202085CDF800B0514602F0D7FE07E08F
:1023D000608D51464FF000732085CDF800B0C2B239
:1023E00002F046FF0025FF26204604210022434636
:1023F00002F0E1FD0028B3D102F048FD17D000043F
:1024000015D1204680210022434602F0D4FD002849
:10241000A6D102F0DBFD06D3268500952046514665
:1024200002F0ACFE01E002F080FE01F081FF608D61
:102430000028D9D12046414602F02EFF00287FF423
:102440008FAF206820210025474B02F033FE88E73C
:10245000002400802DE9F84F02F0B3FC0CD1DDF828
:1024600028B0BBF1000F09D0DDF82C80B8F1000FC7
:1024700004D002F036FE07D1022502E002F0E1FEB0
:1024800001252846BDE8F88F02F035FE02F0C3FDB5
:102490000028F6D1212084F841000C990025F2B2E1
:1024A0004FF0807302F0E1FD2E48009002F0E0FE54
:1024B00002F036FE60B92068012E03D002F06BFEF8
:1024C00030B9206802F0C1FE802101F049FF10B14F
:1024D00084F84050D4E702F079FD08D3FF2020852E
:1024E0005146FF224FF080730020009007E0608D7E
:1024F00000214FF00073208500915146C2B202F0D6
:10250000B7FE0025FF2602F00BFE0028B8D102F02E
:10251000F6FC17D0000415D1204680210022434646
:1025200002F049FD0028ABD102F050FD06D326850C
:1025300000952046514602F021FE01E002F0F5FD33
:1025400001F0F6FE608D0028DDD12046414602F004
:10255000A3FE002894D1206820210025024B02F020
:10256000A9FD8EE70020008000E800FEB0B5B6B0FF
:10257000044602A8B0210830FDF7CBFE20681749B9
:10258000884229D1082000240394029002A800F078
:1025900043F908B1FEF789FA114D286840F00200AE
:1025A0002860286800F002000190CDE9334404203F
:1025B0003590122032904FF440703190019831A93B
:1025C0000848FFF785FCA86840F40010A860A868D8
:1025D00000F400100190019836B0B0BD00540040E6
:1025E000E0440258000402582948034900780A6868
:1025F00010440860704700BF189E002480B5032077
:1026000000F0D0F800F0C8FD0E490F4B0A680968C9
:1026100001F00F01C2F30322595C9A5C01F01F0123
:1026200002F01F02D0401B4A1060C84007490860F2
:102630000F2000F00DF808B1012080BD00F06CF80B
:10264000002080BD18440258447900080C00002482
:1026500070B50F4E04463078B0B14FF47A71B1FBCB
:10266000F0F00C490968B1FBF0F001F02DFC0125F8
:102670000F2C0AD848B94FF0FF3021460022002520
:1026800000F06AF8746000E00125284670BD00BFC4
:1026900000000024080000240278114943780B60F0
:1026A000D2B143684B60037B42EA0372C37A42EAC9
:1026B0000362837A42EAC342437B42EA8342837BDA
:1026C00042EA4342C37B42EA0342437A007A42EA47
:1026D000032242EA400001E0002048608860704721
:1026E00098ED00E00B48BFF35F8F016821F4803163
:1026F0000160002101677047064940F0010008674A
:10270000086840F480300860BFF34F8FBFF36F8FCD
:10271000704700BF24ED00E081B00648016841F039
:1027200002010160006800F002000090009801B012
:10273000704700BFF4440258002809D400F01F017C
:1027400080B2012202FA01F14009024A42F8201047
:10275000704700BF00E100E0F0B5184B4FF0FF36C6
:102760001C68C4F30224E51E84F0070438BF00256A
:1027700006FA05F7BA43042C28BF042406FA04F429
:10278000A14300F00F04A940043C1143044A234430
:1027900009010244002848BF03F10C021170F0BD8A
:1027A00000E400E005494FF6FF030A681A4060F3B1
:1027B0000A22034810430860704700BF0CED00E098
:1027C0000000FA05B0B50F4D2A682968520705D4F4
:1027D00001F00701081A18BF0120B0BD21F0070160
:1027E000084302F0EBFA044655F8080C800406D4BE
:1027F000FFF74CFC02F093FAF6D90120B0BD00209F
:10280000B0BD00BF0C4802580248016841F4807115
:1028100001607047004802582DE9F0470446C0782F
:10282000A74F00071CD5606E4FEA3051032908D826
:10283000DFE801F002090C11F96941F40031F96196
:1028400009E001260DE002F009FB01E002F083FB44
:10285000064630B9606E396C21F440110843386483
:1028600000266078BA46C00701D1354621E0A06D48
:1028700004280BD83546DFE800F0030C0F121200D5
:10288000F869354640F40030F86108E00125012779
:1028900010E002F0B3FB01E002F0CEFA05462F464D
:1028A00045B9A06D02F026FB21F007010843CAF8E4
:1028B000400037466078400720D5D4F8A4004FEA9E
:1028C0007050052807D8DFE800F003090C0F0F0F40
:1028D00002F05EFA08E00125012610E002F08EFB0E
:1028E00001E002F0A9FA05462E4645B9D4F8A40045
:1028F00002F0C7FA21F4600102F0E6FA3E46607881
:10290000000720D5D4F8A8004FEA3060052807D882
:10291000DFE800F003090C0F0F0F02F039FA08E0AE
:102920000125012710E002F069FB01E002F084FAC2
:1029300005462F4645B9D4F8A80002F0A2FA21F0C6
:10294000E06102F0C1FA3746E07880071DD5E06CFF
:102950004FEA3010032806D8DFE800F00B02080B1E
:1029600002F016FA05E0012501260FE002F076FAE2
:1029700005462E4655B9E06CDAF83C100025524663
:1029800021F030010843CAF83C003E466078C0069A
:102990001FD5E06D4FEA3030042807D8DFE800F09B
:1029A00003090C0F0F0002F0F3F908E001250127DD
:1029B00010E002F023FB01E002F03EFA05462F464C
:1029C00045B9E06D02F096FA21F4E0410843CAF8F7
:1029D00040003746607880061CD5206E4FEA3040B4
:1029E000052807D8DFE800F00C03090C0C0C02F0F6
:1029F00079FC04E0012501260DE002F055FC0546B6
:102A00002E4645B9206E02F075FA21F4E021084304
:102A1000CAF840003E46607840061DD5D4F8AC00A8
:102A20004FEA3070052807D8DFE800F00C03090CE6
:102A30000C0C02F057FC04E0012501270DE002F028
:102A400033FC05462F4645B9D4F8AC0002F019FA1C
:102A500021F0E04102F038FA37466078000617D5D9
:102A6000E06E58B1B0F1005F05D0B0F1805F23D1C6
:102A700002F08EF902E002F035FC05462E4645B91B
:102A8000E06E02F037FA21F040510843CAF84000E6
:102A90003E46E078C00702D1B046574623E0A06C1E
:102AA000574603280ED8DFE800F014021114F86925
:102AB00040F40030F8610CE001250126E9E700BF91
:102AC0001044025801254FF001080CE002F0C6F94D
:102AD0000546A8463DB9A06CF96B0025B04621F02B
:102AE00003010843F863A078400601D4474616E086
:102AF000D7F8F00340F48070C7F8F003FFF7C6FA88
:102B00000646D7F8F003C00507D4FFF7BFFA801BCD
:102B10006428F6D90325032701E02F467DB12078EC
:102B2000C00746D0A06F4FEAF000052832D8DFE892
:102B300000F037033437373702F0D4FB2FE0DAF8F0
:102B40006010D4F8B0005546414011F4407F0BD0DE
:102B5000296E2A6E42F480322A6621F440712A6E70
:102B600022F480322A662966B0F5807F40F0EF813A
:102B7000FFF78CFA064641F288390327DAF860003D
:102B8000800700F1E181FFF781FA801B03254845AA
:102B9000F4D9C4E7012501260CE002F085FB0546C7
:102BA0002E463DB9A06F02F0BEF921F0380102F0C7
:102BB000C6F93E462078800719D5606F052807D8EA
:102BC000DFE800F00C03090C0C0C02F08BFB04E0B6
:102BD000012501270CE002F067FB05462F463DB9B1
:102BE000606F02F0A0F921F0070102F0A8F9374662
:102BF000207840071BD5D4F89000052807D8DFE8D7
:102C000000F00C03090C0C0C02F06CFB04E0012535
:102C100001260DE002F048FB05462E4645B9D4F8E2
:102C2000900002F02EF921F0070102F04DF93E4626
:102C3000207880061DD5D4F88C004FEA3070052826
:102C400007D8DFE800F00C03090C0C0C02F0D6F9F1
:102C500004E0012501270DE002F07DF905462F462D
:102C600045B9D4F88C0002F05EF921F0E04102F0A1
:102C700066F93746207840061DD5D4F898004FEA0B
:102C8000B020052807D8DFE800F00C03090C0C0C75
:102C900002F0B4F904E0012501260DE002F05BF931
:102CA00005462E4645B9D4F8980002F0EAF821F41A
:102CB000E05102F009F93E46207800061DD5D4F80F
:102CC0009C004FEA7030052807D8DFE800F00C03BD
:102CD000090C0C0C02F092F904E0012501270DE02B
:102CE00002F039F905462F4645B9D4F89C0002F0A8
:102CF000C8F821F4604102F0E7F837462068010780
:102D000013D5D4F88000B0F5805F06D102F023F926
:102D1000002818BF0127D4F88000DAF84410524682
:102D200021F4405102F00BF92068C10613D5D4F804
:102D30009400B0F5807F06D102F00DF9002818BF8D
:102D40000127D4F89400DAF84810524621F4407173
:102D500002F0BAF82068000318D5D4F8A000B0F546
:102D6000003F09D0B0F5803F03D010BB02F046F918
:102D700001E002F0F0F805462E4645B9D4F8A0006F
:102D800002F07FF821F4403102F09EF83E46A07830
:102D900040071ED5D4F88400B0F5401F0FD0B0F521
:102DA000001F09D0B0F5801F40F0C98001F0F0FF8E
:102DB00005E001250126EAE702F076FA05462F46EE
:102DC00045B9D4F8840002F0AEF821F4401102F0C5
:102DD000B6F83746A078C00701D13E4619E0206D0D
:102DE000B0F5803F03D090B901F0D2FF02E002F0CD
:102DF00035F805462E4665B9206DDAF83C100025F9
:102E0000524621F480310843CAF83C00E5E7012529
:102E100001262168880001D4606806E002F09BF872
:102E2000002818BF0126D4E900108A0319D5E26FE3
:102E30006FF0010303EB3223022B0AD34FEA322354
:102E40003BB1012B7ED1DAF81C3043F40033CAF8D1
:102E50001C303DB9DAF8443023F440731A43CAF801
:102E600044203546CA0207D5226FDAF8403023F0F5
:102E700000431A43CAF840208A0207D5A26EDAF846
:102E8000403023F080731A43CAF840204A000CD522
:102E9000DAF8002022F40042CAF80020D4F8B42066
:102EA000DAF800301A43CAF80020CA0F07D0626D62
:102EB000DAF83C3023F040531A43CAF83C200902A8
:102EC00008D5D4F88810DAF8442022F440021143DF
:102ED000CAF84410C10705D002F090F8002818BFC6
:102EE00005466068810705D502F0FCF9002818BF87
:102EF00005466068410705D501F0B0FF002818BFFE
:102F000005466068010705D501F096FF002818BF47
:102F100005466068C10605D502F0C6F9002818BF4D
:102F200005466068800604D502F015F8002818BF31
:102F30000125002D18BF01252846BDE8F087012591
:102F4000012747E701258DE75546D4F8B0002A68E8
:102F5000094900F4407322F47C5201EA1011B3F5E0
:102F6000407F6FF31F3008BF0A432A60296E084371
:102F700028660025BAE500BFCFFFFF002DE9F84322
:102F8000002800F0FB807F4D04468846286800F04A
:102F90000F0088420BD2286820F00F0040EA08009A
:102FA0002860286800F00F00404540F0E780206866
:102FB000AF4F410709D52169BA6902F086F804D9F3
:102FC000BA6922F070021143B961010709D561693C
:102FD000FA6902F07AF804D9FA6922F07002114312
:102FE000F961C1060AD5A169FA6902F4E062914269
:102FF00004D9FA6922F4E0621143F961810609D526
:10300000E1693A6A02F061F804D93A6A22F0700282
:103010001143396210F002010AD0E268BB6903F083
:103020000F039A4204D9BB6923F00F031A43BA6114
:10303000C2073AD0D4E90101BA6922F4706211439F
:10304000B961012807D0032809D002280BD13968BB
:1030500089030CD492E03968C90508D48EE0396838
:10306000890104D48AE03968490740F187803969C9
:10307000A94621F0070108433861FFF707F8064623
:1030800041F288356068396901F03801B1EBC00F51
:1030900007D0FEF7FBFF801BA842F3D90320BDE851
:1030A000F88320684D4600F0020151B1E168BA6929
:1030B00002F00F02914204D2BA6922F00F021143CA
:1030C000B961296801F00F0141450AD9296821F049
:1030D0000F0141EA08012960296801F00F0141450B
:1030E0004CD1410709D52169BA6901F0EEFF04D23C
:1030F000BA6922F070021143B961010709D561690B
:10310000FA6901F0E2FF04D2FA6922F07002114379
:10311000F961C1060AD5A169FA6902F4E062914237
:1031200004D2FA6922F4E0621143F96180060AD5FB
:10313000E069396A01F07001884204D2396A21F0ED
:1031400070010843386200F027F8B9690E4A0F4B46
:10315000C1F30321515C01F01F01C840B969186037
:1031600001F00F01515C01F01F01C84008490860DF
:1031700008480068BDE8F843FFF76ABA0120BDE8D7
:10318000F88300BF002000524479000808000024A2
:103190000C0000240400002410B535490869C0F370
:1031A000C20003280FD0022804BF334810BD40B925
:1031B0000868800634485AD50968C1F3C101C8407F
:1031C00010BD2C4810BD8A6A886ACC6A4B6BC0F36C
:1031D000051000B304F0010402F00302644204EAA3
:1031E000D303022A6FF35F3300EE103AB8EE400AC1
:1031F00013D0AAB90A68920651BF9FED221A0A6835
:10320000C2F3C102204B42BF23FA02F201EE102AA0
:10321000B8EE411A06E0002010BD9FED191A01E03A
:103220009FED161A0A6B9FED193A6FF35F2202EEBB
:10323000102AB8EE422A00EE032AB7EE000A32EE58
:10324000000A02EE100A086BC0F34620B8EE422ACC
:10325000013081EE021A21EE000A01EE100AB8EEEA
:10326000411A80EE010ABCEEC00A10EE100A10BD31
:103270000044025800093D0040787D010024744A52
:1032800020BCBE4B0024744C0090D00300000039D9
:1032900070B586B00D46014614462348234E09B347
:1032A000D6F8D01000F5006041F00401C6F8D01047
:1032B000D6F8D01001F004010091032104910221FD
:1032C00002914FF400710191002105910391009941
:1032D00001A9FEF7FDFD306820F07E4040EAC410F1
:1032E00028431DE0D6F8D01041F00101C6F8D010F7
:1032F000D6F8D01001F001010091032104910221C0
:1033000002914FF480710191002105910391009980
:1033100001A9FEF7DDFD306820F0FE702843204350
:10332000306006B070BD00BF000002581044025863
:10333000F8B5002800F0DC8004460078D74EC007BE
:103340001FD1207880075CD5306910F03801B06A51
:1033500039D0182901D1800735D03068E1680029BB
:1033600000F0248120F01900084301F0C2FC05465A
:10337000306840073ED4FEF789FE401B0228F7D98B
:103380005FE1306900F03801B06A102905D01829D2
:103390000AD100F00300022806D130688003D0D59E
:1033A00060680028CDD1A3E06068002800F0268185
:1033B000B0F5A02F00F03281B0F5803F00F03281EF
:1033C00001F0C1FD31E1E0683168490702D500280C
:1033D00000F08E80316821F01901084301F089FC6A
:1033E00005463068400705D4FEF750FE01F0CCFCDE
:1033F000F7D9F8BD2069716821F0FE4141EA00600B
:1034000070602078C0061AD5306900F03801B06AC3
:10341000082907D0182940F0938000F00300012804
:1034200040F08E803068C00502D5E06980285FD109
:10343000206AF16821F07C5141EA0060F060207858
:10344000000757D42078800667D42078400700F121
:103450008A80676A002F49D0306900F03800182848
:1034600040F00081B16A306B012F41D0A26A01F0B7
:10347000030393423CD1E26AC1F30511914237D173
:103480000146226B6FF35F21013A914230D1626BAA
:10349000C0F34621013A91422AD1A26BC0F3064102
:1034A000013A914224D1E16BC0F3066001398842B0
:1034B0001ED1A06C716BC1F3CC01884216D0F06AAA
:1034C00020F00100F062FEF7E1FD0546FEF7DEFDAB
:1034D000A842FBD0706B4FF6F8718843A16C40EAAC
:1034E000C1007063F06A40F00100F0620020F8BD96
:1034F0000120F8BD706F6169002947D040F00100DC
:103500007067FEF7C3FD0546706F80079AD4FEF71B
:10351000BDFD401B0228F7D993E03068A16900295E
:103520005DD040F4805001F0E4FB05463068800433
:103530003FF58BAFFEF7AAFD401B0228F6D980E0CD
:103540003068E16900297ED040F0800001F0D1FBB5
:1035500005463068C0053FF56BAFFEF797FD01F0FB
:1035600013FCF6D945E7D6F8000440F48070C6F89D
:103570000004FEF78BFD0546D6F80004C00524D4F0
:10358000FEF784FD401B6428F6D95AE020F00100C4
:103590007067FEF77BFD0546706F80077FF552AFC1
:1035A000FEF774FD01F0F0FBF6D922E720F00100F0
:1035B00001F09FFB0546306840077FF522AFFEF71C
:1035C00065FD01F0E1FBF6D913E7A068002867D09C
:1035D000052878D001287AD001F008FD7AE020F49F
:1035E000805001F086FB0546306880047FF52DAFE2
:1035F000FEF74CFD01F0C8FBF6D9FAE601F0A3FC9A
:1036000001F077FB0546306880037FF59AAEFEF740
:103610003DFD411B03206429F5D9EAE6306840F4FA
:1036200080203060306840F4803001F062FB054655
:10363000306880033FF585AEFEF728FD401B642807
:10364000F6D90320F8BD20F0800001F052FB0546BA
:103650003068C0057FF5F3AEFEF718FD01F094FB6E
:10366000F6D9C6E6306820F0807001F042FB0546CE
:10367000022F08D1306880013DD5FEF707FD01F02B
:1036800083FBF7D9B5E6306880017FF52FAFFEF7F1
:10369000FDFC01F079FBF6D9ABE600BF004402580F
:1036A00001F0A4FC3067FEF7F1FC054641F28837D3
:1036B000306F80077FF5CDAEFEF7E8FC411B03209D
:1036C000B942F5D995E6306F40F004003067306FAD
:1036D00040F001003067FEF7D9FC054641F288371B
:1036E000306F80073FF5B5AEFEF7D0FC411B0320DD
:1036F000B942F5D97DE604F12805B06A40F2F3310C
:1037000088432ECD0843591E40EA0210B0626FF381
:103710005F214FF4FE024FF47E4000EB452080B263
:103720000844A16B02EB01414FF0FE4201F4FE019F
:103730000844E16B02EB016101F0FE410844306393
:103740004FF6F871F06A20F00100F062706B884368
:10375000A16C40EAC1007063206CF16A21F00C0199
:103760000843F062F06A616C20F002000843F062E6
:10377000F06A40F48030F062F06A40F40030F062A9
:10378000F06A40F48020F062F06A40F00100F062DC
:10379000306840F0807001F0ACFA04463068800177
:1037A0003FF5A4AEFEF772FC011B03200229F5D9F8
:1037B0001FE6000070B560B3044690F8210028B9F8
:1037C000002084F82000204600F038F8022084F819
:1037D00021002068C168C9062AD4CA21416201F0CB
:1037E000C3FB90B994E80F00134E8568354085609F
:1037F00025692943A569294385682943816043EAEE
:103800000241016101F058FB28B12168FF224A62A0
:1038100070BD012070BD20686169E2691143C36C0D
:1038200023F00303C364C26C1143C164FF214162EE
:1038300001F04EFB70BD00BFBFFF8FFF10B5AEB0F3
:1038400004466846B0210830FCF763FD20680C4947
:10385000884212D1002001904FF4800000904FF474
:1038600080702C906846FEF7D7FF08B1FDF71DF970
:103870000448016841F4004101602EB010BD00BF52
:1038800000400058704402582DE9F04101F09EFAC2
:1038900041D084F82100012084F820004AB16978E1
:1038A000EB782878AA780902460341EA03418D188B
:1038B00016E06E78F00604D506F0EF0000F10A0677
:1038C0006E70E878DFF8FC80C04707463046C04796
:1038D000000240EA0746A878C04706442878450316
:1038E0002068CA21416201F03FFB18B12168FF2224
:1038F0004A620DE045EA0600216820F0C0004860F9
:1039000001F0DAFAFF2221684A6208B901F0E0FA10
:10391000002184F82010BDE8F08100BF2DE9F041BE
:1039200001F054FA4BD084F82100CA2116462068D1
:103930004162012184F8201001F016FB18B12168C2
:10394000FF224A6238E02768B86800F040001EB1E4
:1039500098B90020E87012E008B90020E8702878D3
:10396000DFF86080C04706466878C04701F0C6FCB3
:10397000E978304440EA815009E0E87880056A78C7
:103980002978AB78120242EA0141194408430E49F2
:1039900008403860B86820F48020B860D5E9030199
:1039A0000843B9680843B86001F086FAFF2221682D
:1039B0004A6208B901F08CFA002184F82010BDE8B1
:1039C000F08100BF495600087F7F7F00B0B50446F4
:1039D00000680949C160FEF759FB05462068C068C8
:1039E000800606D4FEF752FB01F0FDFBF6D903205A
:1039F000B0BD0020B0BD00BF5FFF03002DE9F8435C
:103A000048B3044600205D4AA0622068904208D076
:103A10005B49884205D05B49884202D0E1680F29A2
:103A200019D8E168E36B0125083105EB5313C90888
:103A3000594390420DD0534A90420AD0504A904286
:103A400018BF082907D802F57443984218BF90425E
:103A500004D1102902D90120BDE8F88394F881002F
:103A600020B901F065FA204600F08EF8022084F8B3
:103A70008100D4E90009D4F81880B8F1806F036898
:103A800023F001030360836803F4F81E12D1B9F137
:103A9000000F07D0B9F5800F0CD1A56B35B14FF4ED
:103AA00080090DE0A56BB5F1805F64D1056845F430
:103AB000805505605FEA492502D44FF0010C0DE006
:103AC000E668072E08D3256D07684FF0000C27F431
:103AD00080773D43056006E04FF0000C066826F451
:103AE00080760660E668E269A16AA768D4E90453B3
:103AF00042EA0E021143E26B114331438160616A75
:103B0000626B1143A26B1143226A2943194311438B
:103B1000D4E91223194339431143A26D114341EAF9
:103B20000801B9F1000F41EA0901C1600DD0016D32
:103B3000BCF1000F21F00101016514D1616DC26873
:103B400022F000421143C1600DE08168012262F35E
:103B5000CC2181600222816862F34A218160016D7B
:103B600021F0010101650020C4F88400012184F8DE
:103B70008110BDE8F8834FF000099EE7003800404F
:103B8000003C00400030014010B5B6B0044602A829
:103B9000B0210830FCF7BDFB2068184988422BD1C2
:103BA0004FF4005000240394029002A8FEF734FE64
:103BB00008B1FCF77AFF1248016941F40051016134
:103BC000016901F4005131913199016841F010010E
:103BD0000160006800F01000019005203590012080
:103BE000CDE93340022032904FF4A040319001984B
:103BF00031A90448FEF76CF936B010BD003401401D
:103C0000E0440258001002582DE9F84301F0A9FAE7
:103C100025D001201D4617460E4601F012F901F08D
:103C200013FA1AD1F6B1EFB1042001F021F9A4F88A
:103C30006A70A4F868706666A4F86000E065C4E97C
:103C40001C00A4F86200A1682068B1F5C02F0DD156
:103C5000016821F4006101600DE001F069F90220C2
:103C6000BDE8F88301F09AF9BDE8F883C168022243
:103C700062F35241C16001F0BAFA01D101F020FBB8
:103C8000E06810281ED348F208066F1CB4F86A00DA
:103C9000002847D020684169314206D0006B616E30
:103CA00001C1616601F065F9F0E7FEF7EFF9002F59
:103CB000ECD001F078F9E9D301F00FF901F03FF809
:103CC000BDE8F8836E1C072817D9B4F86A0048B31A
:103CD00020684069C00707D1FEF7D8F9002EF4D05C
:103CE00001F061F9F1D3E7E7B9F83000616E21F82E
:103CF000020B616601F03DF9E7E7B4F86A0088B1AC
:103D000020684169C90707D1FEF7C0F9002EF4D039
:103D100001F049F9F1D3CFE701F051F9606601F004
:103D200028F9EAE701F0D9F801F07EF918BF01207F
:103D3000BDE8F8832DE9F04701F013FA25D0012002
:103D40001D4617460E4601F07CF801F07DF91AD1A8
:103D5000F6B1EFB1032001F08BF8A4F86270A4F87B
:103D60006070E665A4F868006066C4E91C00A4F809
:103D70006A00A1682068B1F5C02F0DD1016841F437
:103D8000006101600DE001F0D3F80220BDE8F0878A
:103D900001F004F9BDE8F087C168012262F35241E5
:103DA000C16001F024FA01D101F08AFAE06810281C
:103DB00019D36E1CB4F8620000286FD001F0F7F838
:103DC00007D4FEF763F9002EF4D001F0ECF8F1D33C
:103DD00074E0E16D04C90262E165B4F86200013883
:103DE000A4F86200E6E7072824D901F04AF9B4F8FC
:103DF0006200002852D001F0DAF807D4FEF746F945
:103E0000002EF4D001F0CFF8F1D357E0B4F86210EF
:103E1000022906D3E16B21B1E16D04C9026250466B
:103E200005E0E16D31F8020BA9F82000384601F0F9
:103E30002FF9DCE701F025F9B4F8620070B301F066
:103E4000B6F807D4FEF722F9002EF5D001F0ABF852
:103E5000F2D333E0B4F86210042908D3E16B4129AE
:103E600005D3E16D04C902624FF6FC7013E0B4F8AB
:103E70006210022908D3E16B31B1E16D31F8020B18
:103E8000A9F82000504606E0E16D097880F820107E
:103E9000E06D411C384601F0FBF8CDE7204629468D
:103EA000424601F083FC08B101F099F801F015F8E1
:103EB00001F0BAF818BF0120BDE8F08701F00DF855
:103EC00000F03DFFBDE8F087411E0020B0EB116F10
:103ED00001D001207047044AF023516003490B7060
:103EE000906007211160704710E000E023ED00E0D2
:103EF000F0B590F83C20012A01D1022140E091E880
:103F00003C00204E25F47C5524F47054334022F4B8
:103F100077222C43704D23431A430B6923F47623F5
:103F20001A434B691A430B6B22F4742223F4702357
:103F30001A438B6942EA0343026842F48064AC424C
:103F400002BF23F08053CE693343AC4214D1AE4656
:103F50008D6A0D4FD1E9086C23F07C7307EA055593
:103F60002B4326F000752B4343EA0C03744502BF34
:103F700023F00053C96A0B43002180F83C105364BE
:103F80000846F0BDFF87F0FF0000F0FC70B590F828
:103F90003C300222012B32D080F83D204E4C02688A
:103FA00042F4806655689368A64202BF25F4700506
:103FB0004E6835430E6825F0700535435560B2F103
:103FC000804F11D03D4DAA421CBF3D4DAA420BD09F
:103FD0003C4DAA421CBF3C4DAA4205D03B4DAA42D3
:103FE0001CBF3B4DAA420CD123F0800389681943C2
:103FF0009160002280F83C20012180F83D1010469D
:1040000070BD854DAA42EFD0324DAA4218BFA242E0
:10401000EAD0EEE710B5044641B108290ED00429D4
:1040200014BF04F1470004F1450009E094F844008E
:10403000012812D1022084F8440012E004F1460065
:104040000078012809D10220082908D0042914BFCA
:1040500084F8470084F8450003E0012010BD84F88F
:1040600046002068042202F093FA00F0D1FE11D03D
:10407000124881421CBF124881420BD01148814234
:104080001CBF1148814205D0104881421CBF104816
:10409000814208D18868114A00F07CFF18BFB2F550
:1040A000803F09D110BD5C488142F3D0094881426C
:1040B000F0D009488142EDD001F0DDB800040040A5
:1040C00000080040000C00400018004000E00040E4
:1040D00000E40040004001400004014007000100EE
:1040E000FEB500684C49884217D10D48016841F07F
:1040F00010010160006800F01000009001200590A0
:104100000020CDE90300022002904FF4806001906E
:10411000009801A90348FDF7DBFE06B080BD00BF93
:10412000E044025800100258B0B501F0B8F804BFDE
:104130000220B0BD01F0A9F8052948D8DFE801F058
:10414000030B131B23332068294602F031FA206841
:1041500050F8181F1EE02068294602F069FA20680E
:1041600050F8181F26E02068294602F099FA2068C6
:1041700050F81C1F0EE02068294602F0CDFA206896
:1041800050F81C1F16E02068294602F0F5FA206856
:1041900050F8541F41F008010160016821F004014A
:1041A000016029690FE02068294602F00FFB2068B2
:1041B00050F8541F41F400610160016821F48061EE
:1041C0000160296909020268114301600020002191
:1041D00084F83C10B0BD58B110B500F0E3FF03D136
:1041E00000F0F8FE00F006F801F08DF800F0F5BDE3
:1041F0000120704781B000680749884209D107480B
:10420000016841F001010160006800F001000090C8
:10421000009801B0704700BF00000140F044025810
:10422000FEE700688169890701D500218162816903
:10423000C90703D1816941F0010181617047000024
:104240002DE9F041044600680D468169C90602D493
:104250000025002139E01021C16116464FF0000809
:104260006F1C0021826902F020020A4327D12FB17E
:10427000FDF70CFF801BA84203D815B10021206870
:10428000F0E72068426894F8421083691B0409D55E
:1042900012F4804206D1202904D001F01EF8FDF767
:1042A000F5FE0646206880698006E7D4FDF7EEFE3D
:1042B000801B1A28F6D348F020080121DFE709B94E
:1042C0002021C16148F0040501218269D30505D58B
:1042D0004FF48071C16145F001050121530505D4FA
:1042E00092050AD471B90020BDE8F0814FF48061D5
:1042F000C16145F00805910504D545F002054FF46C
:104300000071C1612046FFF78CFF2068474A416871
:1043100011404160606C28436064202084F84100B3
:10432000002084F8400084F842000120BDE8F081BC
:1043300070B56FF39F21049C4FF480650068074EB1
:1043400041EA024105EA5455194375404668214344
:10435000354021F000412943416070BD009C00FCC4
:104360002DE9F8431D4616460F460446DDF8208029
:1043700003F1010900F006FF12D1B9F1000FF9D0E5
:10438000FDF784FEA0EB0800A84201D8002DF1D172
:1043900000F0F8FEEED100F0D7FE0120BDE8F88372
:1043A0000020BDE8F883000070B515460E460446AF
:1043B0002068806940071ED400F0ADFE98BB2068DD
:1043C0008169890612D4FDF761FE401BB04201D815
:1043D000002EEDD1206880694007E9D4606C40F080
:1043E00020006064202084F841001AE081694907B8
:1043F00003D5218D09B1002070BD81690022C90655
:104400004FF0000102D51022C26104226264202212
:10441000C261064D43682B40436084F8412084F814
:10442000421000F01AFF012070BD00BF00E800FE3E
:1044300070B515460E46044620688069800611D482
:1044400000F069FE60B9FDF721FE401BB04201D8C3
:10445000002EF1D1206880698006EDD400F074FE52
:10446000012070BD002070BDF8B515460E4604460B
:104470004F1C20688069800713D400F04CFE70B98F
:10448000002FF6D0FDF702FE401BB04201D8002EEF
:10449000EFD1206880698007EBD400F055FE012041
:1044A000F8BD0020F8BD000070B52DED048B194E4D
:1044B0000C463168896B814228D03CB300EE101A5B
:1044C00001EE104AB8EE408A00EE100AB8EE411A2A
:1044D000B8EE400A30EE480A80EE019AFDF7D6FDAC
:1044E00005460120FDF7E2FCFDF7D0FD401BB0EED4
:1044F000481A316800EE100AA042B8EE400AA0EE59
:10450000091ABCEEC10A81ED0E0AEAD3BDEC048B98
:1045100070BD00BFCC0700242DE9F04F03AF8FB072
:10452000814608208A468F4C1D4616460C2B08BF34
:10453000062047F81C0C47F838DC5843072101EBEC
:104540004000218820F0070047F8201CADEB000058
:1045500047F8280C8546DFF82484A7F1180108F1F4
:10456000080B584601F0FEFAA7F11401584647F827
:1045700044BC01F0FDFAA6F1200047F8409CC1B20E
:10458000B86947F82C1C002867D02088C84600224C
:1045900057F8146C4FF0000C54464FF0000900BA65
:1045A000000C47F8240C57F8180C47F83C0C6E48E0
:1045B00000EB011047F8300CAC4500F0BA8057F81A
:1045C000300C01EB4101694B0C2D4FF0000E6044A3
:1045D00003EB810108BF01EB0C0057F8283C2CF0DD
:1045E000010100780B4404F1080147F8341CBEF1C6
:1045F000070F2BD841B2B1F1FF3F09DC1FFA89F157
:1046000057F81C2C514357F8242C23F81120002272
:104610000134A1B28E4240F2998009F10109A1EB67
:104620000A010EF1010E1FFA89FBAB4528BF914626
:104630004000A942DBD1404657F83C1C544608F1E3
:104640000100804680B2814202D87FE057F8344CA6
:104650000CF1010C57F82C1CAEE7B8F8000057F825
:10466000148C00265446002347F83C9C00BA4FEABD
:10467000104C57F8180C47F8480C3B4800EB011059
:1046800047F8300CAE4254D057F8300C01EB4101E2
:10469000364A0C2D4FF0000E304402EB810108BF6A
:1046A000881957F8282C47F8246C26F00101007867
:1046B00002EB010904F108012A4A47F8341CBEF153
:1046C000070F2DD841B257F8202C0029614648BF6A
:1046D00051BA9AB257F81C6C013472431FFA84FB2A
:1046E00029F81210D84531D901330EF1010E9AB2D2
:1046F000AA424FF0000228BF1346ABEB0A0240006B
:10470000AA42184ADBD157F83C0C118057F8481CD4
:104710005446013047F83C0C80B2814203D815E082
:1047200057F8344C118057F8246C57F82C1C01367C
:10473000A8E782B057F81C0CCDE90005524657F89F
:10474000283C57E9110101F061F902B0054857F81A
:10475000201C018057F838DCA7F10C04A546BDE801
:10476000F08F00BF140000249DE2000829DE00083D
:104770002DE9FE4F83465818DDF830A00C460D9FFA
:1047800000264FEA5A091FFA80F85D4602EB0B013A
:1047900002913A78A2F12000C0B25E2814D80298A3
:1047A000ABB280B2834228BF5444A1B241450BD280
:1047B0008342009628BF5FFA8BF5A8B25346FFF7F5
:1047C000ABFE4D440137E4E7BDE8FE8F2DE9F04F25
:1047D00087B0694C4FF48070684D694905F1080B4A
:1047E000A0810320A060584601F00AFC654E58469F
:1047F0000521224633689847B268291D58469047DC
:10480000DFF884A10021614B0022DAF80000816307
:1048100058460021B46AA047FDF738FC05465C48BD
:104820005C4E6427A0EB050900F0A9FB012858D0D5
:104830000A20FDF73BFBFDF729FC0446FDF726FCAB
:10484000A0EB0508601BB0F57A7F09D808FB07F0DC
:104850004FF47A71B0FBF1F0DAF800108863E3E707
:10486000FDF714FC40F6B831884531D848440A2198
:1048700002ACB0FBF1F2204647A102F003FEDFF8E4
:10488000F880102001211023B8F80020CDE90004A1
:10489000A2F11E0080B2FFF76BFF3A483746D8F806
:1048A0000460846BFDF7F2FBD8F800104844032243
:1048B000009248434FF6FF724FF4FA610192F21EE4
:1048C0003E466427B0FBF1F358460021A047ABE712
:1048D000401B40F6B9318842A6D302E00A20FDF71A
:1048E000E5FA00F04CFB0128F8D000204FF4967157
:1048F0000024FFF7D9FD23481F4E00210022856BBD
:10490000D6E90030CDE900045846A8472448029073
:10491000274C1023102522A0D0E90112CDE9031263
:10492000007B32888DF8140004200421009502AF2A
:104930000197A047FDF7A2FB02461EA1384602F0F0
:10494000A1FD3288042016211023CDE90057A0478D
:104950000A481CA14268384602F094FD32880420BF
:1049600028211023CDE90057A0476420C82107B0B3
:10497000BDE8F04FFFF798BDE00000249800002448
:104980006400002418000024CC070024E07900080B
:1049900018FCFFFF000802582530336400000000B7
:1049A00057654163742053747564696F000000009B
:1049B0007147000853544D333248377878203078A7
:1049C000255800004C43442049443A30782558008B
:1049D00010B50C4C002020210B4AC4E90210C4E998
:1049E0000020C4E90400A06104F120001421FBF7B9
:1049F00090FC2046FCF7C2F818B1BDE81040FCF767
:104A000054B810BD0406002400000248E0B50E486A
:104A10000022016841F0010101600068002100F0FE
:104A20000100019001980B20FDF796FE0B20FDF789
:104A300083FE662000210022FDF78EFE6620BDE881
:104A40008C40FDF779BE00BFD844025870B586B0DF
:104A50002A48002605962A4C00224FF4205501686A
:104A600041F010010160016801F0100100F036F919
:104A700041F004010160016801F0040100F02EF929
:104A800041F080010160016801F0800100F026F929
:104A900041F001010160016801F0010100F01EF91F
:104AA00041F008010160016801F0080100F016F909
:104AB00041F00201016000684FF4205100F0020053
:104AC000009000982046FDF7D4FA0120CDE903605C
:104AD000CDE9015001AD20462946FDF7F9F9022044
:104AE000029029460596CDE903664FF48070019047
:104AF000A4F58050FDF7ECF906B070BDE044025813
:104B00000010025810B5124C01200021114A124B1E
:104B1000C4E9021004F110001421C4E90032FBF7CB
:104B2000F8FB2046FDF7F4FA08B1FBF7BEFF084892
:104B30000021FDF7B1FA08B1FBF7B7FF04480021E7
:104B4000FDF7C8FA18B1BDE81040FBF7AEBF10BDC5
:104B5000CC060024724E40600054004010B586B070
:104B600017480024174BFF217F22CDE90244CDE9ED
:104B70000044C0E90034C0E90221C0E90444C0E9AE
:104B80000644FEF717FE08B1FBF78FFFCDE904449A
:104B90008DF80640ADF80440094801A90122FEF74E
:104BA000BDFE08B1FBF781FF07480090694601226E
:104BB0000348FEF769FE08B1FBF777FF06B010BDAA
:104BC000200700240040005801010100F8B5144CF2
:104BD00000204FF000514FF0806207234FF4C025B2
:104BE0004FF480060F4F2062C4E90400C4E90900B5
:104BF000E0624FF08040C4E9062160632421C4E9EB
:104C00000076C4E9025304F13800FBF782FB20462A
:104C1000FEF7F4FE18B1BDE8F840FBF746BFF8BD5B
:104C20004407002400340140B0B598B00EA81C2100
:104C3000FBF76FFB01A83421FBF76BFB2448002432
:104C400040F2E7310D22234BC0E90032C0E90241B6
:104C5000C0E904448461FFF7BEFA08B1FBF725FF01
:104C60001794CDE915441A4815A9FFF78FF908B133
:104C7000FBF71BFF0820119000251495CDE9125574
:104C8000CDE90F55042260200E900EA91048FFF7C1
:104C90004BFA08B1FBF709FF01AC14212046FBF7E2
:104CA00038FB4FF00070CDE9095021460D950B956A
:104CB00007954FF4005006900548FFF719F908B121
:104CC000FBF7F3FE0248FFF70BFA18B0B0BD00BFC8
:104CD000CC07002400000140FEE7FEE700910099A8
:104CE0000168704700903146CDE90378CDE901971E
:104CF00070473060FDF7CAB9022084F83500002003
:104D000060652068056825F0010505602046FBF711
:104D1000D9BD016841F0010101600020F8BD001B10
:104D2000B0F57A7F70471160116841F001011160A0
:104D30002022002180F8401080F841207047D4F8EC
:104D4000840040F48070C4F88400002084F880005F
:104D5000012084F881000320704720464FF4006151
:104D60000122FDF786B98DF8EF0039460122304661
:104D7000584728712846FBF7E3BBFF200121304745
:104D80000091009901687047411B03200229704778
:104D9000DAF81C00514640F40030CAF81C00704795
:104DA000002084F83400012084F835007047012089
:104DB00084F8340094F83500012870472860FDF726
:104DC00065B9044690F84100202870470D4690F8D8
:104DD00020100446022001297047012084F8480071
:104DE00084F83E0084F83F0084F8400084F84100D5
:104DF00084F8420084F8430084F8440084F84500B5
:104E000084F8460084F8470084F83D00002010BD77
:104E10002168B1F1804F486C40F40040486470470D
:104E20000D4606464FF4006100222046FDF721B9E9
:104E3000304639460122704704F12800002100F075
:104E4000A1BBD4F8009084F88000FDF71FB91321AE
:104E5000002307F120044A462046284704F10800B1
:104E6000022100F02FBB044690F83400012870475F
:104E700084F881000020C4F8840070470846114679
:104E80001847DAF848100025524670472068616AD2
:104E9000406A0870608D01386085606A0130606228
:104EA000208D01382085618D0029704738462946BC
:104EB00001228DF813604047204600F0F9BB2046E0
:104EC00036214A46002328470843CAF8480070475D
:104ED000012084F8210000207047204600F010BC1B
:104EE0003A4601238DF8EF9020473A4601238DF88A
:104EF000EF502047DAF84010002552467047616AAB
:104F0000206811F8012B8262608D01386085616232
:104F1000208D01382085618D002970478DF8EF00C4
:104F2000394601227047DAF844100025524670478E
:104F3000002084F8800070473860FDF7A7B8084368
:104F4000CAF844007047306820F480303060306820
:104F500020F48020704704F12800022100F012BBE9
:104F6000002184F83410704753214162204600F03C
:104F70007DBBB4F86A000138A4F86A007047304677
:104F80004FF40051FDF768B83046394601228DF8DC
:104F9000EF90584702400020062A7047002084F80E
:104FA000800001207047A0EB0800A84270472068ED
:104FB000416989077047CDF80090FFF7D1B990F8A3
:104FC0003000616E0870606E01307047608DB0F522
:104FD000807F7047002084F83C0020467047D4F85A
:104FE000840040F02000C4F884007047306F20F047
:104FF00001003067306F20F00400704704F10800B2
:10500000002100F05FBAE16D012201F01F0102FAF8
:1050100001F1416070478146009020464FF4004105
:1050200001221923FFF79CB9012084F88100002098
:1050300084F88000D4F88400002870473046394650
:1050400001228DF8EF505847804694F881000128DE
:10505000704784F84100102084F84200002060640A
:10506000668560636562618D7047402084F8420008
:105070006564C4F824B06563A4F82A808846514664
:1050800070474FF6FC706E1C00F1020AC71C704797
:10509000E165B4F862100844A4F862007047C16189
:1050A00042681A40426084F8411084F8407084F8E5
:1050B00042707047C16142681A40426084F84110F2
:1050C00084F8405084F84250704702F070029142D8
:1050D0007047E16D3F2201F01F0102FA01F181608A
:1050E000704794F840000128704730463946012245
:1050F0008DF8EF80584701251E4617468A4684F8EA
:105100004050FCF7C3BF01271E461546884684F869
:105110004070FCF7BBBF204631462A46FFF790B8E7
:10512000204641464A46FFF79FB9608D51464FF0F1
:10513000007320850095C2B220467047016841F097
:10514000010101600020B0BD606C40F0200060648F
:10515000202084F84100002084F8400084F84200B8
:105160007047044690F88000012870470D188DF8AC
:10517000032020464946012202F06CB9FF224FF07D
:1051800080737047206880693840C01BB0FA80F097
:105190004009B0427047390A816220464A4641467A
:1051A000FFF762B9044690F83D0000287047B862E6
:1051B0006FF35F214FF47E4000EB42204FF0FE4240
:1051C00080B208444FF4FE0101EB034101F4FE01FB
:1051D0000844296902EB016101F0FE41084470476F
:1051E0002046FBF74DBA401BB0F57A7F7047416807
:1051F0004FF6FF72914339444160016841F001016B
:1052000001606168B1F5800F704738460A2100F0EF
:10521000B7BC0262B842026A46680C688B68456D8A
:1052200070470262B042D1F800C08B68046A4568DA
:105230007047618D4FF00073218500902046CAB2FF
:1052400070474FF4007060647047F9B28162204685
:1052500000224346CDF800907047002084F84000BB
:105260007047012084F8340094F835000128704715
:105270002046FFF75DB8086840F001000860002094
:1052800010BD3A460123304620470D4601204FEA23
:10529000B20184F83C0070474A46FFF7C9B804469B
:1052A00090F83C000128704704F12800012100F02B
:1052B00069B9002084F834004FF4006060657047DD
:1052C000016841F40071016070473046394601229F
:1052D0008DF8EF804FF02D085847416841F4804128
:1052E0004160704704F10800012100F0EBB804F1BF
:1052F0006C02002307CA03604A607047000240EA5C
:105300000646A8784047022084F83D00211D206809
:1053100001F0D8B88A68097B03EBC202002906EBCA
:10532000080152687047002084F84000204670470A
:10533000E0B5014659480DF10702FBF7A5F89DF8C5
:1053400007008CBDE0B503468DF8071053480DF1FA
:1053500007021946FBF7C8F88CBD00BF1CB500F06A
:1053600075F80446C8B9284800F09AF80446A0B970
:1053700004208DF807000DF107010C2000F07AF8E9
:1053800008B1012409E0214800F08AF8044620B958
:105390001F4800F085F8044608B120461CBD0020D7
:1053A0008DF806000DF10601112000F033F80028F9
:1053B000E7D19DF806000DF1060100F080000130F4
:1053C0008DF80600112000F055F80028D9D10020F2
:1053D0008DF805000DF105016B2000F01BF801248C
:1053E0000028DAD19DF805000DF1050164F39F1046
:1053F0008DF805006B2000F03DF80028CDD1642029
:10540000FCF754FD0024C8E7FBED0008A5EF0008F9
:10541000B9EF0008BCB5214D0C468DF807000123FB
:105420002979AA68009228680DF107020131FCF77A
:105430001FFF2979AA6800922868012322460131BA
:10544000FCF7B4FE002818BF0120BCBDE0B5642005
:10545000FCF72CFD80208DF807000DF107011220CC
:1054600000F008F808B101208CBD6420FCF71EFD97
:1054700000208CBDE0B5094A8DF8060008780223AB
:105480008DF8070010681179926800920DF10602FC
:10549000FCF7EEFE002818BF01208CBDF0050024AB
:1054A00010B504462078FF281CBF6178FF2906D07C
:1054B000611CFFF7DFFF02340028F3D010BD00208D
:1054C00010BD7047F8B55F4F0546B86A00F003009D
:1054D000032804BF0120F8BD38680C4620F0806026
:1054E000FFF72AFD06463868000105D5FCF7CEFD1A
:1054F000801B0228F7D941E095E80F00BE6A26F428
:105500007C36013946EA0030FFF751FEB86368691E
:10551000F96A21F0C0010843F862A869F96A21F02C
:1055200020010843F8624FF6F871F86A20F0100085
:10553000F862F86B8843E969012C40EAC100F8631E
:10554000F86A40F01000F8624FF4001008BF4FF402
:105550008010002C08BF4FF40020F96A0843F8625D
:10556000386840F08060FFF7E7FC044638680001C7
:1055700006D4FCF78BFD001B0328F7D30320F8BDEE
:105580000020F8BDF8B52F4F0546B86A00F00300BB
:10559000032804BF0120F8BD38680C4620F0805075
:1055A000FFF7CAFC06463868800005D5FCF76EFD9B
:1055B000801B0228F7D941E095E80F00BE6A26F06B
:1055C0007C76013946EA0050FFF7F1FD38646869DE
:1055D000F96A21F440610843F862A869F96A21F484
:1055E00000710843F8624FF6F871F86A20F4807091
:1055F000F862786C8843E969012C40EAC10078645C
:10560000F86A40F48070F8624FF0807008BF4FF481
:105610000000002C08BF4FF48000F96A0843F862CC
:10562000386840F08050FFF787FC044638688000F7
:1056300006D4FCF72BFD001B0328F7D30320F8BD8D
:105640000020F8BD004402580928014698BF0921EE
:10565000CAB20A23B2FBF3F202EB8203A1EB4303CB
:10566000591A084440EA0210C0B27047F8B504461F
:105670000068C168490618D44FF0FF31C1600026A8
:105680000127FCF703FD05462168F843C96840EA95
:105690009110C0070AD1FCF7F9FCFFF7A4FDF3D97C
:1056A000032684F821600027EEE70026F0B2F8BD5B
:1056B000B0B5124D0446686820F040006860286864
:1056C000800607D42046FEF781F978B1032084F8DC
:1056D0002100B0BD286820F0200028602046FEF799
:1056E00075F928B1032084F8210002E00020B0BD44
:1056F0000020296841F020012960B0BD0840005811
:1057000010B5016840F26F344A698B6943F00803B1
:105710008B618B6943F010038B610B6823F00103ED
:105720000B600B69A3430B618B6823F440438B60D0
:1057300090F88130042B0BD0930609D5D0F8843033
:1057400043F08003C0F884308B6943F020038B6101
:1057500090F88130032B0BD0530609D5D0F8843054
:1057600043F00403C0F884308B6943F040038B613D
:10577000930509D5D0F8843043F00103C0F8843094
:105780008B6943F400738B61D20509D5D0F884206E
:1057900042F00802C0F884208A6942F480728A616B
:1057A0000021A0F86210A0F86A1010BDF8B51446E8
:1057B0000D4606464F1C30684069000708D4FCF7C8
:1057C00065FC002FF7D0001BA842F4D30320F8BDDE
:1057D0000020F8BD002070472DE9F843074600205F
:1057E0000DF103098DF80300234DFFF730FB8046D0
:1057F000FFF70BFD204628214A460023A84706460E
:10580000FFF703FDFFF75BFBDC495A4BFFF782FD17
:1058100008BF42F00802FFF7A9FC4042281A18BF4F
:105820004FF0FF30BDE8F8832DE9F843074600202C
:105830000DF103098DF803000F4DFFF708FB8046BB
:10584000FFF7E3FC204629214A460023A8470646E5
:10585000FFF7DBFCFFF733FBC849464BFFF75AFD68
:1058600008BF42F00802FFF781FC4042281A18BF27
:105870004FF0FF30BDE8F8835B7400082DE9FE4F60
:105880001E46DFF8BC9A0F460446D3F802B0D3F8A0
:105890000AA0D3F81230D6F816100091D9F80400F7
:1058A0001144451A204639462A4600F04DFCE0B91D
:1058B000D9F808002F4904F120080DF1090251F828
:1058C000300099F80C10002908BF40F008008DF84E
:1058D000090040463621012301F0BFFD28B92046CA
:1058E00039462A4600F0BCFB20B14FF0FF35284670
:1058F000BDE8FE8F5644ABEB0A0700250DF10A0AFE
:10590000705D514602228DF80B00701940788DF8B9
:105910000A00404601F09EFD20B90235BD42EFD39A
:10592000002601E04FF0FF361249D9F808000DF1CA
:10593000090201EBC00099F80C104068002908BF6B
:1059400040F008008DF8090036210123404601F09F
:1059500084FD4FF0FF350028C9D1D9E9003000900F
:1059600000210022204600F0EFFB002808BF35464A
:10597000BDE700BF90E8000870B505461C46581802
:105980007E4B1B68984203D8284600F069FB10B193
:105990004FF0FF3070BD049800220B4B010A944277
:1059A00006D003EB420603F8121001327070F6E7DE
:1059B00005F120006200044901F04CFD002818BFE9
:1059C0004FF0FF3070BD00BFF00000242DE9F04122
:1059D0000E466A4907469818496888420ED81C4600
:1059E0001546DDF818806CB1384631462A464346E4
:1059F00000F082FC0135013C0028F4D04FF0FF306C
:105A0000BDE8F0810020BDE8F08100BF2DE9FE4F28
:105A100083465A48DDF8309015460E4649440268E0
:105A2000914202D94FF0FF3806E00D9940684FF0DF
:105A3000FF382944814202D94046BDE8FE8F4FEA33
:105A400049001C464FF00008164F4FF0000A029024
:105A50000BF1200001900D988245EDD00AEB050274
:105A60005846314600F0FCFA10B14FF0FF3816E00E
:105A70000020814509D0217807F8101007EB40017C
:105A80000130627802344A70F3E701983946029A8D
:105A900001F0E0FC00284FF0FF3018BF80460AF10B
:105AA000010AD8E7700300242DE9F843994615460A
:105AB0000E460746DDE908485CB1384631462A46BD
:105AC0004B46CDF80080FFF757FF28B9013C013560
:105AD000F2E70020BDE8F8834FF0FF30BDE8F8831F
