:020000040800F2
:10000000D00A0024E1020008213E0008B1300008B7
:10001000193E0008F10300085155000800000000D7
:100020000000000000000000000000003152000845
:10003000F903000800000000293E000839520008BA
:10004000FB020008FB020008FB020008FB0200089C
:10005000FB020008FB020008FB020008FB0200088C
:10006000FB020008FB020008FB020008FB0200087C
:10007000FB020008FB020008FB020008FB0200086C
:10008000FB020008FB020008FB020008FB0200085C
:10009000FB020008FB020008FB020008FB0200084C
:1000A000FB020008FB020008FB020008FB0200083C
:1000B000FB020008FB020008FB020008FB0200082C
:1000C000FB020008FB020008FB020008FB0200081C
:1000D000FB020008FB020008FB020008FB0200080C
:1000E000FB020008FB02000800000000FB02000801
:1000F000FB020008FB020008FB020008FB020008EC
:10010000FB020008FB020008FB020008FB020008DB
:10011000FB020008FB020008FB020008FB020008CB
:10012000FB020008FB020008FB020008FB020008BB
:10013000FB020008FB020008FB020008FB020008AB
:1001400000000000000000000000000000000000AF
:10015000FB020008FB020008FB020008FB0200088B
:10016000FB020008FB020008FB020008FB0200087B
:10017000FB020008FB020008FB0200080000000070
:10018000FB020008FB020008FB020008FB0200085B
:10019000FB020008FB020008FB020008FB0200084B
:1001A000FB020008FB020008FB0200080000000040
:1001B000FB020008FB020008FB020008FB0200082B
:1001C000FB020008FB020008000000000000000025
:1001D0000000000000000000FB020008000000001A
:1001E000000000000000000000000000000000000F
:1001F0000000000000000000FB020008FB020008F5
:10020000FB020008FB02000800000000FB020008DF
:10021000FB020008FB020008FB020008FB020008CA
:10022000FB02000800000000FB02000800000000C4
:10023000FB020008FB02000800000000FB020008AF
:10024000FB020008FB020008FB020008FB0200089A
:10025000FB020008FB020008FB020008FB0200088A
:10026000FB020008FB020008FB020008FB0200087A
:10027000FB020008FB020008FB020008000000006F
:10028000FB020008FB020008FB020008FB0200085A
:1002900000000000FB020008FB0200080000000054
:1002A00000000000FB020008FB020008FB0200083F
:1002B000FB020008FB020008FB020008FB0200082A
:1002C000FB020008FB020008FB020008DFF80CD06C
:1002D00000F05CF800480047B1570008D00A00243D
:1002E0000648804706480047FEE7FEE7FEE7FEE7D0
:1002F000FEE7FEE7FEE7FEE7FEE7FEE7295300081C
:10030000CD020008D2B201E000F8012B491EFBD259
:1003100070470022F6E710B513460A460446194610
:10032000FFF7F0FF204610BD2DE9F05F05460020E5
:1003300092469B4688460646814640241BE0284656
:1003400041464746224600F042F853465A46C01AF4
:10035000914110D311461846224600F029F82D1A73
:1003600067EB01084F4622460120002100F020F8EB
:1003700017EB00094E41201EA4F10104DFDC4846C2
:1003800031462A464346BDE8F09F0000064C074D23
:1003900006E0E06840F0010394E807009847103455
:1003A000AC42F6D3FFF796FF78CC000898CC000853
:1003B000202A04DB203A00FA02F100207047914025
:1003C000C2F1200320FA03F3194390407047202A1A
:1003D00004DB203A21FA02F00021704721FA02F3EF
:1003E000D040C2F1200291400843194670470000F6
:1003F000FEE7000000000000704700000000000061
:10040000EFF3108072B600BFFEE7000000000000AE
:10041000B0B5044600F000F940F200010546C2F212
:100420000041621C097818BF0C4400BF00F0F4F8CA
:10043000401BA042FAD3B0BD2DE9F04F82B00D6849
:10044000002D00F0CB8000F1264242F2004302F181
:10045000FF72C5F602030A2698424FEAB22444F21C
:10046000F44E08BF0926082C40F2040C38BF4FEAAE
:10047000B226C5F6020EC5F6000C00960022002733
:10048000002609E001360D6835FA06F307F1040786
:1004900002F1020200F0A280012303FA06F415EA39
:1004A0000408EFD0D1F804A003230AF0030B934013
:1004B000ABF101056FEA0309012D0FD88368CD6800
:1004C00003EA090395402B438360CAF30015436890
:1004D000A34305FA06F42343436005E0BBF1030F91
:1004E00002D14FF0030B21E0C3688C6803EA0903D3
:1004F0009440BBF1020F43EA0403C36016D16FF0CE
:10050000030307F01C0503EA56030F24034404FA0F
:1005100005FBD3F820A00C692AEA0B0AAC4044EA98
:100520000A041C62D1F804A00AF0030B03680BFA5A
:1005300002F403EA09031AF4403F43EA04030360A8
:10054000A0D0DEF8003040F2084A43F00203CEF8B3
:100550000030DEF80030C5F6000A03F00203019314
:1005600026F00303019C07F00C040F2553F80A90B2
:10057000A54029EA0509009D05FA04F444EA0904A6
:1005800043F80A404FF0B04ADAF800904C6849EA64
:100590000805E30258BF29EA0805A302CAF800507B
:1005A000DCF8009049EA080558BF29EA0805A303CA
:1005B000CCF80050DCF8809049EA080558BF29EAD9
:1005C0000805E403CCF88050DCF87C3043EA0805E9
:1005D00058BF23EA0805CCF87C5053E702B0BDE8C9
:1005E000F08F0000000000000069084018BF0120E3
:1005F0007047000000000000002A08BF0904816164
:10060000704700000000000041F20000C5F6004005
:1006100000686FF31F30704740F2C860C2F20040BC
:10062000006870470000000040F2000040F2C8611E
:10063000C2F20040C2F2004100780A68104408602B
:10064000704700000000000080B5032000F0E8F8CB
:1006500000F0B2FF44F2184145F69853C5F6020186
:10066000C0F600030A68096801F00F01C2F3032213
:10067000595C9A5C01F01F0102F01F02D04040F269
:100680000C02C2F2004220FA01F1116040F20801AE
:10069000C2F2004108600F2000F00AF800281CBFD9
:1006A000012080BD00F07CF8002080BD000000002B
:1006B00070B540F20006C2F200463178E1B104465E
:1006C00040F20800C2F200404FF47A72B2FBF1F13E
:1006D0000068B0FBF1F002F0BBF80F2C4FF0010501
:1006E00008D838B94FF0FF3000222146002500F02D
:1006F00067F87460284670BD012070BD00000000DE
:10070000B0B502784EF69C5CCEF2000C43784CF803
:10071000043CFAB14368CCF80030037BC17A90F80E
:100720000AE0457B447A42EA0372837B42EA016134
:10073000C27B41EACE41007A41EA854141EA434128
:1007400041EA024141EA042141EA4000CCF80400B8
:10075000B0BD00BF0020CCF80000CCF80400B0BD54
:100760004EF62450CEF20000BFF35F8F016821F4F3
:100770008031016000210167704700000000000027
:100780004EF6245140F00100CEF2000108670868DF
:1007900040F480300860BFF34F8FBFF36F8F704716
:1007A00081B044F2F440C5F60200016841F0020154
:1007B0000160006800F002000090009801B07047EE
:1007C00070B54EF60C5C4FF0FF36CEF2000C00F127
:1007D000604505F56445DCF80030C3F3022E8EF069
:1007E0000703042B28BF0423BEF1030406FA03F316
:1007F00021EA030100F00F0338BF0024043B002866
:10080000634406FA04F048BF03F10C05A14022EA54
:10081000000008430001287070BD000000000000C7
:100820004EF60C514FF6FF03CEF200010A681A4053
:1008300060F30A2242F0806040F0FD70086070476B
:10084000B0B544F60C05C5F60205296849072968C4
:1008500006D401F00701081A18BF0120B0BD00BF7F
:1008600021F0070108432860FFF7D6FE044600BFC9
:1008700055F8080C800407D4FFF7CEFE001BB0F536
:100880007A7FF5D90120B0BD0020B0BD0000000086
:1008900044F60000C5F60200016841F48071016071
:1008A00070470000000000002DE9F0470446C078C2
:1008B00044F22C480007C5F6020833D5606E4FEAB3
:1008C000305103290CD8DFE801F003111D2600BFC9
:1008D000D8F8001041F40031C8F800101BE000BF48
:1008E00001266078C0070BD020E000BF04F10800AB
:1008F000022103F09DFA064660B16078C00715D169
:10090000354646E004F12800022103F025FB0646A7
:100910000028F2D1606ED8F8241021F44011084369
:10092000C8F8240000266078C007E9D0A06D04282C
:100930000ED83546DFE800F00412181E1E0000BF76
:10094000D8F80000354640F40030C8F8000011E047
:1009500001250127607840071FD453E004F1080007
:10096000002103F065FA04E004F12800002103F0FF
:10097000F3FA05462F461DB1607840070DD441E0DB
:10098000D8F82400A16D20F0070000250843C8F81E
:10099000240037466078400734D5D4F8A4004FEAE5
:1009A000705005280CD8DFE800F00311171D1D1D3D
:1009B000D8F8000040F40030C8F8000012E000BF92
:1009C000012501266078000720D455E004F10800D5
:1009D000002103F02DFA04E004F12800002103F0C7
:1009E000BBFA05462E461DB1607800070ED443E0E1
:1009F000D8F82C00D4F8A41020F460000025084397
:100A0000C8F82C003E466078000735D5D4F8A80019
:100A10004FEA306005280DD8DFE800F00412181EF8
:100A20001E1E00BFD8F8000040F40030C8F80000D7
:100A300012E000BF01250127E078800720D44EE0B6
:100A400004F10800002103F0F3F904E004F12800A8
:100A5000002103F081FA05462F461DB1E07880079A
:100A60000ED43CE0D8F82C00D4F8A81020F0E060B8
:100A700000250843C8F82C003746E07880072ED5BB
:100A8000E06C4FEA301003280ED8DFE800F00903CD
:100A9000130900BFD8F8000040F40030C8F8000087
:100AA0002E467DB912E000BF012501266078C00600
:100AB00019D44CE004F10800022103F0B9F905460D
:100AC0002E461DB16078C0060DD440E0D8F8200055
:100AD000E16C20F0300000250843C8F820003E46B5
:100AE0006078C00633D5E06D4FEA303004280DD869
:100AF000DFE800F00412181E1E0000BFD8F8000046
:100B000040F40030C8F8000012E000BF01250127C2
:100B1000607880061FD44EE004F10800002103F045
:100B200087F904E004F12800002103F015FA0546D6
:100B30002F461DB1607880060DD43CE0D8F8240023
:100B4000E16D20F4E04000250843C8F82400374652
:100B5000607880062FD5206E4FEA3040052809D8EE
:100B6000DFE800F0040E1404040400BF2E46ADB903
:100B700018E000BF01250126607840061FD44FE031
:100B800004F10800012103F053F904E004F1280006
:100B9000012103F0E1F905462E461DB160784006BB
:100BA0000DD43DE0D8F82400216E20F4E02000258B
:100BB0000843C8F824003E466078400630D5D4F893
:100BC000AC004FEA3070052808D8DFE800F0030DCC
:100BD000130303032F46ADB918E000BF0125012719
:100BE0006078000620D442E004F10800012103F0FF
:100BF0001FF904E004F12800012103F0ADF90546D6
:100C00002F461DB1607800060ED430E0D8F82C00D5
:100C1000D4F8AC1020F0E04000250843C8F82C00C0
:100C200037466078000622D5E06E58B1B0F1005F1B
:100C30000CD0B0F1805F2FD1D8F8000040F4003024
:100C4000C8F800002E469DB908E000BF04F1080076
:100C5000012103F0EDF805462E464DB9D8F82400E1
:100C6000E16E20F0405000250843C8F824003E46BD
:100C7000E078C00733D0A06C032813D8DFE800F079
:100C800008021A08D8F8000040F40030C8F8000044
:100C9000A946BDB91AE000BF01250126E078C007CA
:100CA000E9D11CE001254FF00109A07840061AD5D2
:100CB0001CE000BF04F10800022103F0B9F805466A
:100CC000A9461DB1A07840060DD50FE0D8F8200048
:100CD000A16C20F0030000250843C8F82000B146AD
:100CE000A078400602D44F4618E000BFD8F8D403DD
:100CF00040F48070C8F8D403FFF78EFC064600BFAE
:100D0000D8F8D403C00507D4FFF786FC801B6428FD
:100D1000F6D90325032701E02F468DB12078C007BF
:100D200061D0A06F4FEAF00005283BD8DFE800F063
:100D300004404604040400BF002D2E4646D149E07D
:100D4000D8F84410D4F8B000414011F4407F11D0DD
:100D5000D8F84410D8F8442042F48032C8F844202F
:100D6000D8F8442021F4407122F48032C8F844209D
:100D7000C8F84410B0F5807F40F0CE82FFF74CFCFD
:100D8000064641F2883A0325032700BFD8F84400FD
:100D9000800700F1BF82FFF73FFC801B5045F5D96B
:100DA000BCE700BF01250126207880071FD44CE056
:100DB00004F10800012103F03BF804E004F12800ED
:100DC000012103F0C9F805462E461DB120788007A1
:100DD0000DD43AE0D8F82800A16F20F038000025A3
:100DE0000843C8F828003E46207880072DD5606F5C
:100DF000052809D8DFE800F0040E1404040400BF3D
:100E00002F46ADB918E000BF012501272078400723
:100E10001FD44DE004F10800012103F009F804E0BB
:100E200004F12800012103F097F805462F461DB173
:100E3000207840070DD43BE0D8F82800616F20F0FF
:100E4000070000250843C8F82800374620784007E7
:100E50002ED5D4F89000052808D8DFE800F0030D5F
:100E6000130303032E46ADB918E000BF0126012588
:100E70002078800620D451E004F10800012102F01E
:100E8000D7FF04E004F12800012103F065F80546CE
:100E90002E461DB1207880060ED43FE0D8F82C00F5
:100EA000D4F8901020F0070000250843C8F82C0063
:100EB0003E462078800631D5D4F88C004FEA307059
:100EC000052809D8DFE800F0040E1404040400BF6C
:100ED0002F46ADB918E000BF012701252078400654
:100EE00020D451E004F10800002102F0A1FF04E049
:100EF00004F12800022103F02FF805462F461DB10A
:100F0000207840060ED43FE0D8F82800D4F88C10A2
:100F100020F0E04000250843C8F828003746207834
:100F2000400631D5D4F898004FEAB020052809D8FA
:100F3000DFE800F0040E1404040400BF2E46ADB92F
:100F400018E000BF012601252078000620D454E0D7
:100F500004F10800002102F06BFF04E004F1280016
:100F6000022102F0F9FF05462E461DB12078000649
:100F70000ED442E0D8F82C00D4F8981020F4E050B9
:100F800000250843C8F82C003E462078000634D5DA
:100F9000D4F89C004FEA703005280FD8DFE800F045
:100FA00004141A04040400BF2F46E5B120680107A9
:100FB00027D4C1063ED4000355D475E0012701258E
:100FC00020680107F5D51CE004F10800002102F0BB
:100FD0002FFF04E004F12800022102F0BDFF0546C6
:100FE000002D2F46E2D1D8F82C00D4F89C1020F424
:100FF000604000250843C8F82C00374620680107E8
:10100000D7D5D4F88000B0F5805F09D104F128006D
:10101000022102F0A1FF002818BF0127D4F88000A8
:10102000D8F8281021F440510843C8F82800206857
:10103000C106C0D5D4F89400B0F5807F09D104F181
:101040002800022102F088FF002818BF0127D4F8E9
:101050009400D8F82C1021F440710843C8F82C00F3
:101060002068000320D5D4F8A000B0F5003F0FD0D1
:10107000B0F5803F06D078BB04F10800002102F0F3
:10108000D7FE04E004F12800022102F065FF0546C6
:101090002E4655B9D8F82C00D4F8A01020F44030D2
:1010A00000250843C8F82C003E46A07840072BD501
:1010B000D4F88400B0F5401F0BD0B0F5001F11D05C
:1010C000B0F5801F2AD1D8F8000040F40030C8F8ED
:1010D00000002F46CDB90DE001260125A07840077C
:1010E000E6D411E004F12800012102F035FF0546A5
:1010F0002F4655B9D8F82800D4F8841020F44010B1
:1011000000250843C8F828003746A078C0070AD150
:101110003E462168880016D533E000BF012701252F
:10112000A078C007F4D0206DB0F5803F10D018BB78
:10113000D8F8000040F40030C8F800002E4685B111
:10114000216888001DD460688A0326D465E000BF4A
:1011500004F10800022102F06BFE0546002D2E4628
:10116000EED1D8F82000216D20F48030002508430E
:10117000C8F82000CCE700BF0126012521688800BF
:10118000E1D504F12800022102F0E6FE002818BF94
:101190000126D4E900108A033FD5E26F6FF0010306
:1011A00003EB3223022B0BD34FEA322343B1012B43
:1011B00040F0AA80D8F8003043F40033C8F800307B
:1011C00025B3CA022CD48A0234D44A003CD4CA0FB4
:1011D00049D1090251D4C1075AD1810763D44107CB
:1011E0006CD4010776D4C10600F18080800607D553
:1011F00004F12800022102F0AFFE002818BF0125EB
:10120000002D18BF01252846BDE8F087D8F8283002
:1012100023F440731A43C8F828203546CA02D2D5B1
:10122000D8F82420236F22F000421A43C8F8242063
:101230008A02CAD5D8F82420A36E22F080721A43FD
:10124000C8F824204A00C2D558F81C2C22F40042C9
:1012500048F81C2CD4F8B42058F81C3C1A4348F821
:101260001C2CCA0FB5D0D8F82020636D22F0405254
:101270001A43C8F820200902ADD5D8F82810D4F8B0
:10128000882021F440011143C8F82810C107A4D0D8
:1012900004F10800002102F0CBFD002818BF05462C
:1012A000606881079BD504F10800012102F0C0FDB0
:1012B000002818BF05466068410792D504F1080070
:1012C000022102F0B5FD002818BF0546606801073D
:1012D0007FF589AF04F12800002102F03DFE0028CF
:1012E00018BF05466068C1067FF580AF04F128008D
:1012F000012102F031FE002818BF05466068800613
:101300007FF57EAF74E700BF0125CA027FF55BAFB2
:1013100086E700BFD4F8B0004FF6CF7358F81C2C06
:10132000C0F2FF0300F4407122F47C5203EA101370
:101330006FF31F30B1F5407F08BF1A43002548F80E
:101340001C2CD8F844100843C8F84400FFF7CBBC65
:101350002DE9F04381B0002800F02A8142F2000814
:101360000446C5F200288946D8F8000000F00F00B6
:1013700088420ED2D8F8000020F00F0040EA0900A1
:10138000C8F80000D8F8000000F00F00484540F011
:101390000F81206844F218474107C5F602070AD5B5
:1013A00021693A6802F07002914204D93A6822F049
:1013B00070021143396001070AD561697A6802F049
:1013C0007002914204D97A6822F070021143796068
:1013D000C1060AD5A1697A6802F4E062914204D993
:1013E0007A6822F4E0621143796081060AD5E169E6
:1013F000BA6802F07002914204D9BA6822F0700211
:101400001143B96010F002010AD0E2683B6803F0B2
:101410000F039A4204D93B6823F00F031A433A6042
:10142000C20746D0386820F47061D4E9010201286F
:1014300041EA0201396009D003280DD0022811D1F8
:1014400057F8181C890340F1B38010E057F8181CB6
:10145000C90540F1AD800AE057F8181C890140F138
:10146000A78004E057F8181C490740F1A18057F8FD
:10147000081C21F00701084347F8080CFFF7CCF8D7
:10148000064641F2883500BF57F8080C616800F045
:101490003800B0EBC10F09D0FFF7BEF8801BA8429F
:1014A000F2D9032001B0BDE8F08300BF206800F04E
:1014B000020151B1E1683A6802F00F02914204D290
:1014C0003A6822F00F0211433960D8F8001001F099
:1014D0000F0149450DD9D8F8001021F00F0141EA5C
:1014E0000901C8F80010D8F8001001F00F014945B3
:1014F0005ED141070AD521693A6802F07002914233
:1015000004D23A6822F070021143396001070AD50B
:1015100061697A6802F07002914204D27A6822F01E
:10152000700211437960C1060AD5A1697A6802F494
:10153000E062914204D27A6822F4E0621143796059
:1015400080060AD5E069B96801F07001884204D2CA
:10155000B96821F070010843B86000F02DF83968CF
:1015600045F698533A68C0F60003C1F3032102F030
:101570000F02595C9A5C01F01F0120FA01F102F0A0
:101580001F0040F20C0221FA00F0C2F2004210608B
:1015900040F2040040F20802C2F20040C2F20042EF
:1015A0000068116001B0BDE8F043FFF781B800BFEB
:1015B000012001B0BDE8F08344F20041C5F602010C
:1015C0000869C0F3C200032810D002282ED098BBAF
:1015D0000868800649F20000C0F2D03058BF70475A
:1015E0000968C1F3C101C840704700BF8A6A886AB0
:1015F000C0F3051CC86ABCF1000F4B6B22D000F091
:10160000010002F003024042022A00EAD3006FF315
:101610005F3000EE100AB8EE400A15D0C2B9086873
:10162000800619D49FED281A23E000BF47F640003A
:10163000C0F27D10704700BF40F60010C0F23D00C0
:10164000704700BF002070479FED1E1A11E000BFD9
:101650009FED1B1A0DE000BF086849F20002C0F2BE
:10166000D032C0F3C10022FA00F001EE100AB8EE49
:10167000411A086B9FED153A6FF35F2002EE100AD6
:10168000086BC0F34620B8EE422A013000EE032A70
:1016900000EE10CAB7EE003AB8EE400A81EE000A3A
:1016A00032EE031A20EE010A01EE100AB8EE411ADA
:1016B00080EE010ABCEEC00A10EE100A704700BFAF
:1016C0000024744A20BCBE4B0024744C0000003936
:1016D000F0B581B0002800F0D5800446007844F2CF
:1016E0000046C007C5F6020622D12078800768D5DB
:1016F000306910F03801B06A42D0182908BF5FEA9B
:1017000080703DD0E0683168002800F0258121F02C
:10171000190108433060FEF77FFF05463068400737
:1017200048D4FEF779FF401B0228F7D977E100BFC4
:10173000306900F03801B06A102905D018290BD1A2
:1017400000F00300022807D130688003CDD560681F
:101750000028CAD196E000BF6068002800F03281FE
:10176000B0F5A02F00F04681B0F5803F00F0468133
:10177000306820F480303060306820F4802040E110
:1017800030684007E06801D500287BD0316821F03F
:10179000190108433060FEF73FFF054630684007F7
:1017A00008D4FEF739FF401B02284FF00300F5D99B
:1017B00001B0F0BD7068216920F0FE4040EA016090
:1017C00070602078C00619D5306900F03801B06A21
:1017D000082906D0182940F0818000F00300012874
:1017E0007CD13068C00502D5E06980284AD1F06814
:1017F000216A20F07C5040EA0160F0602078000708
:1018000044D42078800655D42078400700F17E80AB
:10181000656A9DB3306900F03800182840F01481E3
:10182000012DB16A306B2DD001F00302A36A9A42F8
:1018300028D1C1F30511E26A914223D10146226BFE
:101840006FF35F21013A91421CD1C0F34622616BD4
:1018500001398A4216D1C0F30642A16B01398A428E
:1018600010D1C0F30660E16B013988420AD1706B78
:10187000A16CC0F3CC00814240F09C81002001B0FB
:10188000F0BD00BF012001B0F0BD00BF60690028BD
:10189000706F4FD040F001007067FEF7BDFE054647
:1018A000706F8007ADD4FEF7B7FE401B0228F7D952
:1018B000B5E000BFA0690028306871D040F48050C6
:1018C0003060FEF7A9FE0546306880049CD4FEF720
:1018D000A3FE401B0228F7D9A1E000BFE069002861
:1018E000306800F09F8040F080003060FEF794FE8A
:1018F000054600BF3068C0053FF579AFFEF78CFEA6
:10190000401B02284FF00300F4D951E7D6F8000439
:1019100040F48070C6F80004FEF77EFE054600BF66
:10192000D6F80004C00529D4FEF776FE401B6428D3
:10193000F6D974E020F001007067FEF76DFE0546F1
:10194000706F80077FF55DAFFEF766FE401B0228D3
:101950004FF00300F4D92BE721F001003060FEF7CF
:101960005BFE0546306840077FF52BAFFEF754FE5F
:10197000401B02284FF00300F4D919E7A0680028A3
:1019800000F08480052800F09B80012800F09C80F6
:10199000306F20F001003067306F20F0040096E0D7
:1019A00020F480503060FEF737FE05463068800432
:1019B0007FF52AAFFEF730FE401B02284FF00300F0
:1019C000F4D9F5E6306820F480303060306820F4D7
:1019D00080203060FEF720FE054600BF306880039F
:1019E0007FF583AEFEF718FE401B64284FF003001E
:1019F000F4D9DDE6306840F480203060306840F48F
:101A000080303060FEF708FE054600BF3068800376
:101A10003FF56BAEFEF700FE401B6428F6D90320AD
:101A200001B0F0BD20F080003060FEF7F5FD054606
:101A30003068C0057FF5E2AEFEF7EEFD401B0228E0
:101A40004FF00300F4D9B3E6306820F080703060C6
:101A5000FEF7E2FD022D05460CD100BF3068800183
:101A600048D5FEF7D9FD401B02284FF00300F5D9F9
:101A70009EE600BF306880017FF500AFFEF7CCFD29
:101A8000401B02284FF00300F4D991E6306F20F09C
:101A900001003067306F20F004003067FEF7BCFDB6
:101AA000054641F28837306F80077FF5B1AEFEF70B
:101AB000B3FD401BB8424FF00300F4D978E600BFF5
:101AC000306F40F004003067306F40F00100306745
:101AD000FEF7A2FD054641F2883700BF306F800750
:101AE0003FF596AEFEF798FD401BB8424FF003005D
:101AF000F4D95DE604F12807B06A40F2F331884377
:101B00008ECF0843591E40EA02104FF47E426FF315
:101B10005F21B06202EB47204FF4FE0280B2E36B1C
:101B20000844A16B02EB01414FF0FE4201F4FE01BB
:101B300002EB0362084402F0FE4108443063F06A9D
:101B40004FF6F87120F00100F062706BA26C8843D0
:101B500040EAC2007063F06A216C20F00C00084378
:101B6000F062F06A616C20F002000843F062F06AF3
:101B700040F48030F062F06A40F40030F062F06AC5
:101B800040F48020F062F06A40F00100F0623068BA
:101B900040F080703060FEF73FFD04463068800101
:101BA0003FF56CAEFEF738FD001B02284FF0030036
:101BB000F4D9FDE5F06A20F00100F062FEF72CFD9B
:101BC0000546FEF729FDA842FBD0706B4FF6F87171
:101BD000A26C884340EAC2007063F06A40F00100E2
:101BE000F062002001B0F0BDB0B50068002A406886
:101BF0004FEA104300F03F0CC0F3042ECB70C0F34B
:101C0000423281F801E081F802C00A7002D000205F
:101C1000B0BD00BFDAB24FEA1E14120903F00F0381
:101C2000050A00F00F0002EB820205F00F0503EB3E
:101C30004202CA7044EA84034FEA1C1405EB4303D2
:101C40004B7044EA840200EB420088700020B0BD73
:101C5000B0B50068002A836A4B6003696FF3DF3315
:101C60008B60006800F07F0C81F802C0C0F3054370
:101C70000B70C0F3062E81F801E0C0F38052CA70E9
:101C800002D00020B0BD00BF1B09020C43EA830351
:101C900002F00F024FEA1E1402EB43020A7004EB3B
:101CA00084034FEA1C14050A00F00F0004EB8402C1
:101CB00005F00F0505EB43034B7000EB4200887005
:101CC0000020B0BD00000000B0B5002846D004469A
:101CD00090F8210028B9002084F82000204600F068
:101CE0005BF8022084F821002168C868C00643D44C
:101CF000CA20486253204862C868400614D44FF096
:101D0000FF30C860FEF788FC2168CA6852060BD411
:101D1000054600BFFEF780FC401BB0F57A7F31D846
:101D20002168C8684006F5D54FF6BF728868CFF6BF
:101D30008F72251D104088602DCD2843A56928434A
:101D40008D682843886043EA02400861204602F01B
:101D500097F9216820B1FF224A62B0BD0120B0BDD1
:101D6000C86C20F00300C8646069E2691043CA6C63
:101D70001043C864FF204862012084F8210000203D
:101D8000B0BD00BF032084F821002168CA68FF228B
:101D90004A62B0BD0000000010B5AEB0694604460E
:101DA00001F10800B021FEF7B4FA44F20001206806
:101DB000C5F60001884201D02EB010BD0020019070
:101DC0004FF4800000904FF480702C906846FEF72E
:101DD0006BFD08B1FEF714FB44F27040C5F602003B
:101DE000016841F4004101602EB010BD0000000008
:101DF0002DE9F041044690F8200001284FF0020040
:101E000008BFBDE8F0814FF0010384F8203084F86A
:101E100021003AB14878CA788E78000240EA024838
:101E200045E000BF4878C20603D500F0EF000A3055
:101E30004870CA784FF0CD0CA0F10A054FF0010EA2
:101E4000A2F10A03092ADFB207FB0CF74FEAD726F3
:101E500006EB8606A3EB4608EEB206FB0CF30EEB90
:101E6000D72688BF48EA0612DF0A8E780EEBD32306
:101E70000928D2B207EB8707A5EB470588BF45EADB
:101E80000310A6F10A03092EDDB2C0B205FB0CF760
:101E90004FEA00204FEAD72540EA024805EB8500CB
:101EA0000EEBD722A3EB400088BF40EA021622685F
:101EB0000F78CA20506253205062D068400613D475
:101EC0004FF0FF30D060FEF7A7FB2268D1684906CB
:101ED0000AD40546FEF7A0FB401BB0F57A7F23D855
:101EE0002268D0684006F5D5F0B2790340EA0800D0
:101EF00020F0C00008435060204602F0C1F821687D
:101F00004FF0FF024A6228B1002184F82010BDE89A
:101F1000F08100BF012084F821000020002184F816
:101F20002010BDE8F08100BF032084F82100216863
:101F3000CA68FF224A62002184F82010BDE8F081BF
:101F40002DE9F047044690F8200001284FF00200E8
:101F500008BFBDE8F0870D46012184F82010164621
:101F600084F82100CA202168486253204862C8686A
:101F7000400614D44FF0FF30C860FEF74DFB2168D7
:101F8000CA6852060BD40746FEF746FBC01BB0F5E5
:101F90007A7F00F28D802168C8684006F4D5886891
:101FA00000F0400036B158B94FF0000E85F803E05C
:101FB00009E000BF70B94FF0000E85F803E00CE0B7
:101FC000E8784FEA805E28786B78AA781B0243EAAB
:101FD000004341E0E8784FEA805E2B784FF0CD0C6B
:101FE00068784FF00109A3F10A02092BD7B207FB69
:101FF0000CFA4FEADA2609EBDA2A06EB8606A2EBA0
:102000004608A0F10A06F2B202FB0CF788BF48EAC4
:102010000A13FA0A0928DBB209EBD72702EB820878
:10202000AA78A6EB480688BF46EA0710A2F10A067E
:10203000092AF7B2C0B207FB0CF74FEA00204FEABB
:10204000D72C40EA03430CEB8C0009EBD727A6EB17
:10205000400088BF40EA0712D0B247F67F721843AB
:10206000C0F27F0240EA0E0010400860886820F449
:1020700080208860D5E9030210438A681043886095
:10208000204601F0FDFF21684FF0FF024A6228B1AF
:10209000002184F82010BDE8F08700BF012084F8FB
:1020A00021000020002184F82010BDE8F08700BF47
:1020B000032084F821002168CA68FF224A620021B7
:1020C00084F82010BDE8F0872DE9F04381B00028A6
:1020D0005BD043F6000104460068C4F2000143F2FD
:1020E000000E43F6004C8842C4F2010EC4F2000C0C
:1020F0004FF00002A26203D0604518BF704541D185
:10210000E36B0125E268884202F1080205EB5313F4
:102110004FEAD20202FB03F318BF704526D1102B01
:1021200033D894F8810028B9002084F88000204634
:1021300000F0AAF8022084F88100D4E90009D4F85C
:1021400018800368B8F1806F23F00103036083688F
:1021500003F4F81E26D1B9F1000F1BD0B9F5800F9A
:1021600020D1A36BD3B14FF4800921E0604518BFA3
:10217000082B0AD80CF57441884218BF6045CED0B0
:10218000CFE700BFE3680F2BBAD9012001B0BDE84B
:10219000F08300BFA36BB3F1805F71D1036843F498
:1021A000805303605FEA492302D44FF0010C0FE033
:1021B000E368072B0AD3056825F4807C256D45EA82
:1021C0000C0505604FF0000C07E000BF4FF0000C5D
:1021D000036823F480730360E368E769A26A47EA4F
:1021E0000E07E16B3A43A5681143266967691943F5
:1021F0008160B9F1000F626AD4E90D1341EA02016E
:10220000226A41EA0301E36C41EA060141EA07015F
:1022100041EA0201A26C41EA0301A36D41EA050112
:1022200041EA020141EA030141EA080141EA0901E8
:10223000C1600DD0016DBCF1000F21F001010165FD
:1022400014D1C168626D21F000411143C1600DE0FD
:102250008168012262F3CC2181608168022262F3ED
:102260004A218160016D21F0010101650020C4F85F
:102270008400012184F8811001B0BDE8F08300BF23
:102280004FF0000991E7000010B5B4B0694604466C
:1022900001F10800B021FEF73CF843F2004120684C
:1022A000C4F20101884201D034B010BD4FF4005097
:1022B0000090684600240194FEF7F6FA08B1FEF794
:1022C0009FF844F2E040C5F60200016941F4005174
:1022D0000161016901F400512F912F99016841F0CA
:1022E0001001016000682FA900F010002F902F98B6
:1022F0004FF4A0402F900220CDE930040520339008
:1023000041F200003294C5F60200FEF795F834B0B1
:1023100010BD0000000000002DE9F04381B004462C
:1023200090F8800001281CD01D4617460E46D4F8B0
:102330000090012084F88000FEF76EF994F8811077
:1023400001290BD1002E18BF002F0FD1002084F8D7
:102350008000012001B0BDE8F08300BF002084F8B8
:102360008000022001B0BDE8F08300BF8046042059
:1023700084F881000020C4F884006666A4F86870C0
:10238000A4F86A70E065A4F86000A4F86200A1688F
:102390002067B1F5C02F6067206805D1016821F47E
:1023A0000061016005E000BFC168022262F3524192
:1023B000C16041684FF6FF72914339444160016842
:1023C00041F0010101606168B1F5800F03D101683E
:1023D00041F400710160E168102925D3B4F86A0066
:1023E000002800F0CA80681C00F0AC8048F20806A3
:1023F0000FE000BF006B616E41F8040B6166B4F83A
:102400006A000138A4F86A00B4F86A00002800F0F5
:10241000B480206841693142ECD1FEF7FDF8A0EBB1
:102420000800A842F0D35FE0B4F86A0007293BD95E
:10243000002800F0A280681C10D121E0B9F830001B
:10244000616E21F8020B6166B4F86A000138A4F8E5
:102450006A00B4F86A00002800F08F8020684069A4
:10246000C007EBD1FEF7D8F8A0EB0800A842F0D3E4
:102470003AE000BFFEF7D0F8B4F86A0000287CD03C
:1024800020684069C007F5D0B9F83000616E21F8C6
:10249000020B6166B4F86A000138A4F86A00B4F867
:1024A0006A000028ECD168E0002866D0681C11D1D1
:1024B00033E000BF90F83000616E0870606E01304C
:1024C0006066B4F86A000138A4F86A00B4F86A00DB
:1024D000002852D020684169C907EBD1FEF79CF86B
:1024E000A0EB0800A842F1D3204601F011FE002025
:1024F00084F88000D4F8840040F48070C4F884002C
:10250000012084F88100032001B0BDE8F08300BF02
:10251000FEF782F8B4F86A0078B320684169C90709
:10252000F6D090F83000616E0870606E0130606621
:10253000B4F86A000138A4F86A00B4F86A00002808
:10254000EBD11AE048F2080505E000BFFEF764F899
:10255000B4F86A0088B1206841692942F6D0006B5E
:10256000616E41F8040B6166B4F86A000138A4F8A2
:102570006A00B4F86A000028EDD1204601F0C8FDD9
:10258000002084F88000012084F88100D4F88400C1
:10259000002818BF012001B0BDE8F0830000000052
:1025A0002DE9F047044690F88000012802D102206E
:1025B000BDE8F0871D4617460E46D4F8009001206E
:1025C00084F88000FEF728F894F88110012909D1D9
:1025D000002E18BF002F0BD1002084F880000120AE
:1025E000BDE8F087002084F880000220BDE8F08775
:1025F0008046032084F881000020C4F88400E6654A
:10260000A4F86070A4F862706066A4F86800A4F88A
:102610006A00A1682067B1F5C02F6067206805D106
:10262000016841F40061016005E000BFC16801225A
:1026300062F35241C16041684FF6FF7291433944E1
:102640004160016841F0010101606168B1F5800FEE
:1026500003D1016841F400710160E16810294DD394
:10266000B4F86200002800F0C780681C0FD132E087
:10267000E16D51F8042B0262E165B4F862000138A3
:10268000A4F86200B4F86200002800F0B580206869
:1026900041698907ECD4FDF7BFFFA0EB0800A84211
:1026A000F0D3204601F034FD002084F88000D4F8F7
:1026B000840040F48070C4F88400012084F8810014
:1026C0000320BDE8F08700BFFDF7A6FFB4F8620065
:1026D000002800F09180206841698907F4D5E16DF8
:1026E00051F8042B0262E165B4F862000138A4F8E5
:1026F0006200B4F862000028EDD17DE0B4F8620019
:10270000072933D9002877D04FF6FE706E1C471C7E
:1027100010E000BFE16D31F8020BA9F82000384647
:10272000E165B4F862100844A4F86200B4F86200ED
:10273000002861D020684169890709D4FDF76CFF42
:10274000002EF3D0A0EB0800A842EFD3A9E700BF0A
:10275000B4F862100229DDD3E16B0029DAD0E16D13
:1027600051F8042B02624FF6FE70D9E7002843D0DF
:102770004FF6FE706E1CA0F1020A471C10E000BF6D
:10278000E16D097880F82010E06D411C3846E16564
:10279000B4F862100844A4F86200B4F8620058B3B8
:1027A00020684169890709D4FDF736FF002EF4D06F
:1027B000A0EB0800A842F0D373E700BFB4F86210A2
:1027C000042909D3E16B412906D3E16D51F8042BAB
:1027D00002625046DBE700BFB4F862100229CFD393
:1027E000E16B0029CCD0E16D31F8020BA9F8200093
:1027F0004FF6FE70CBE700BF681C13D0206840691D
:10280000000713D4FDF708FFA0EB0800A842F5D39A
:10281000D4F8840040F02000C4F8840006E000BF33
:10282000FDF7FAFE206840690007F9D5204601F05F
:102830006FFC002084F88000012084F88100D4F827
:102840008400002818BF0120BDE8F08700000000C8
:10285000411E0020B0EB116F02D00120704700BF75
:102860004EF21002F023CEF2000251604EF62351D8
:10287000CEF200010B7007219060116070470000DC
:10288000F0B590F83C20012A02D10220F0BD00BF33
:10289000CB6848F2FF7ED1E901C223F47C5322F4D5
:1028A0007052CFF6F07E1A430CEA0E03D1F800C046
:1028B00042EA030E2CF477230A6943EA0E0322F45A
:1028C00076228D691A434B691A430B6B22F47422EA
:1028D00023F47024D0F800C040F2004E22434CF4A0
:1028E0008063C4F2010E42EA0542734502BF22F042
:1028F0008052CC692243734514D100268D6ACFF6ED
:10290000F04622F07C720C6A06EA05552A4324F050
:1029100000744F6A22433A43734502BF22F00052CB
:10292000C96A0A430021CCF8442080F83C100846CC
:10293000F0BD000000000000B0B590F83C20012A76
:102940004FF0020263D080F83D2040F2004C026854
:10295000C4F2010C42F4806363455368D2F808E086
:1029600002BF23F470034C6823434DF6FF740D68D7
:10297000C4F2000423F07003A24243EA050353604B
:1029800014DC40F2FF73C4F200039A4222DD40F6E9
:102990000003C4F200039A422ED040F60043C4F272
:1029A00000039A4228D041F6000321E04FF6FF735E
:1029B000C4F200039A4213DD0023C4F201039A42D9
:1029C0001AD044F20003C4F201039A4214D06245C3
:1029D00012D016E0B2F1804F0ED040F2004307E073
:1029E0004EF20003C4F200039A4205D04EF20043B7
:1029F000C4F200039A4204D12EF08003896819437F
:102A000091600022012180F83D1080F83C201046A2
:102A1000B0BD00000000000051B1082910D0042909
:102A200016D100F145021278012A0ED115E000BF3F
:102A300090F84420012A08D1022280F844201BE0AB
:102A400000F146021278012A07D00120704700BF2A
:102A500000F147021278012AF7D10222082905D095
:102A6000042907D180F8452006E000BF80F8462001
:102A700002E000BF80F84720026801F01F00042137
:102A800001FA00F0116A81431162116A0843106271
:102A90004DF6FF70516CC4F20000824241F40040D8
:102AA000506419DC40F2FF70C4F2000082422BDD5A
:102AB00040F60000C4F2000082423BD040F60040E5
:102AC000C4F20000824235D041F60000C4F200009A
:102AD00082422FD03AE000BF4FF6FF70C4F20000F0
:102AE00082421BDD0020C4F20100824222D044F267
:102AF0000000C4F2010082421CD040F20040C4F247
:102B00000100824216D021E0B2F1804F12D040F293
:102B10000040C4F2000082420CD017E04EF20000E8
:102B2000C4F20000824205D04EF20040C4F2000020
:102B300082420BD107219068C0F2010101400020C0
:102B4000062918BFB1F5803F00D17047106840F0EA
:102B500001001060002070472DE9F04190F83C30F2
:102B6000012B03D10220BDE8F08100BF4FEAB20281
:102B7000052A31D8DFE812F0060038007600B400EC
:102B8000DA000001036843F6FF76C4F201061A6A10
:102B9000B34222F001021A621A461C6AD3F804E01A
:102BA00024F0020452F818CF8D6844EA0504D1F8E5
:102BB000008040F3078144F20007C4F20107BB42E2
:102BC00000F00B8144F60007C4F20107BB4200F09D
:102BD000048144F20047FCE00121002280F83C20FF
:102BE0000846BDE8F08100BF036840F2004E43F4A0
:102BF0008067C4F2010E1A6A774522F010021A6249
:102C00001A461C6A5D6824F0200452F818CF8E68BA
:102C100044EA061407D1CE686FF0400724F0C004E0
:102C200007EA0616344343F6FF76D1F80080C4F273
:102C30000106B34240F3EC8044F20007C4F20107FE
:102C4000BB4200F0EC8044F60007C4F20107BB422F
:102C500000F0E58044F20047C4F20107BB4200F0F7
:102C6000DE80E3E0036840F2004E43F48067C4F284
:102C7000010E1A6A774522F480721A621A461C6A9B
:102C80005D6824F4007452F81CCF8E6844EA062470
:102C900007D1CE6840F2FF47360224F44064BE43B9
:102CA000344343F6FF76D1F80080C4F20106B34204
:102CB00040F3D48044F20007C4F20107BB4200F0A5
:102CC000D48044F60007C4F20107BB4200F0CD8077
:102CD00044F20047C4F20107BB4200F0C680CBE0DB
:102CE000036843F6FF77C4F201071A6ABB4222F475
:102CF00080521A621A46D3F820C05C6852F81C6FE2
:102D00000D68D1F808E040F3CF8044F20007C4F228
:102D10000107BB4200F0D38044F60007C4F201076C
:102D2000BB4200F0CC8044F20047C4E0036843F6A5
:102D3000FF77C4F201071A6ABB4222F480321A629A
:102D40001A46D3F820C05C6852F8546F0D68D1F869
:102D500008E040F3D38044F20007C4F20107BB420D
:102D600000F0D78044F60007C4F20107BB4200F030
:102D7000D08044F20047C8E0036843F6FF77C4F20E
:102D800001071A6ABB4222F480121A621A46D3F86B
:102D900020C05C6852F8546F0D68D1F808E040F329
:102DA000D98044F20007C4F20107BB4200F0DD8085
:102DB00044F60007C4F20107BB4200F0D68044F29B
:102DC0000047CEE00027C4F20107BB4205D040F225
:102DD0000047C4F20107BB4205D1CF6824F00C04C0
:102DE00027F004073C43B34240F3E28044F200067C
:102DF000C4F20106B34200F0E68044F60006C4F2D5
:102E00000106B34200F0DF8044F20046D7E000BF85
:102E10000027C4F20107BB4201D0734506D1D1E9B6
:102E20000576374325F4406646EA870548F6FF47AE
:102E30005D60CFF6FF6707EA0C0747EA08279F6146
:102E40004F6809699F631C629F6947F400679F612F
:102E50009F6927F480679F61A7E000BF0027C4F245
:102E60000107BB4201D0734506D1D1E9057637434E
:102E700025F4405646EA07154FF68C775D60CFF68D
:102E8000FE7707EA0C0747EA0807DF614F68096920
:102E9000DF631C62DF6947F00807DF61DF6927F045
:102EA0000407DF61ADE000BF0027C4F20107BB42A9
:102EB00005D040F20047C4F20107BB4204D14F697C
:102EC00024F4804444EA871448F6FF475C60CFF658
:102ED000FF673E402CF4005746EA0524DC614E684B
:102EE00009691E6447EA0E371F62DF6947F400670D
:102EF000DF61DF6927F48067DF6156E00027C4F2F5
:102F00000107BB4205D040F20047C4F20107BB42B3
:102F100004D14F6924F4803444EA07244FF68C77B7
:102F20005C60CFF6FE7703373E402CF4003746EA6C
:102F300005045C654E6809699E6547EA0E471F6295
:102F40005F6D47F008075F655F6D27F004075F65F9
:102F500057E000BF0027C4F20107BB4205D040F292
:102F60000047C4F20107BB4204D14F6924F4802416
:102F700044EA872448F6FF475C60CFF6FF6707F511
:102F800040773E402CF4001746EA05245C654E6805
:102F90000969DE6547EA0E571F625F6D47F40067F7
:102FA0005F655F6D27F480675F65090229E000BFF8
:102FB0000026C4F20106B34205D040F20046C4F236
:102FC0000106B34206D12EF44077D1E905653743B7
:102FD00047EA050E4FF68C75C3F804E0CFF6FE7590
:102FE0000CEA050747EA08079F614F6809695F63B4
:102FF0001C629F6947F008079F619F6927F00407DB
:103000009F611368194311600021002280F83C2061
:103010000846BDE8F081000060B310B5044690F8A2
:103020003D0028B9002084F83C00204600F024F838
:10303000022084F83D002068211D02F0CDF9012016
:1030400084F8480084F83E0084F83F0084F840008B
:1030500084F8410084F8420084F8430084F8440076
:1030600084F8450084F8460084F8470084F83D0061
:10307000002010BD0120704781B000210068C4F21B
:103080000101884202D001B0704700BF44F2F04015
:10309000C5F60200016841F001010160006800F01E
:1030A00001000090009801B070470000000000008F
:1030B000FEE70000000000002DE9F04F03AF8FB0E5
:1030C0004FF008080C2B08BF4FF006081C468A4634
:1030D00008FB03F347F8380C40F210010720C2F256
:1030E0000041164600EB430047F840DC20F00700A3
:1030F0000988ADEB000047F8301CD7F8189047F866
:103100001C0C854640F2800BA7F11801C2F2004B5F
:103110000BF10805284601F0FBFBA7F11401284636
:1031200047F8445C01F0FCFBB9F1000FA6F1200365
:1031300000F03881002C00F0AF82D9B240F21000CC
:10314000C2F2004057F814BC57F838CC55460088F6
:1031500002BA100C47F82C0C4A0057F8180C47F824
:10316000280C52FA83F04CF26562C0F6000247F870
:10317000200C02EB01100021002247F8240C00BFB4
:103180004CF2F1160C2C57E90930C0F600064FEA54
:10319000510E08BF06EB80035B56B3F1FF3F0ADC1C
:1031A00096B257F81C0C08FB06F600EB460657F8DB
:1031B0002C0C26F81E000132002096B2A64205F122
:1031C0000106B6B228BF0246B34540F27182A6EBB3
:1031D0000A06A64200F0D6805FFA83F95FEA4963E7
:1031E0000AD593B257F81C0C08FB03F300EB43031A
:1031F00057F82C0C23F81E000132002093B2A34292
:1032000005F102039BB228BF02469B4540F2508263
:10321000A3EB0A03A34200F0B5805FEA89630AD5F5
:1032200093B257F81C0C08FB03F300EB430357F869
:103230002C0C23F81E000132002093B2A34205F1AA
:1032400003039BB228BF02469B4540F23182A3EBA9
:103250000A03A34200F096805FEAC9630AD593B2DD
:1032600057F81C0C08FB03F300EB430357F82C0C36
:1032700023F81E000132002093B2A34205F104039B
:103280009BB228BF02469B4540F21282A3EB0A0381
:10329000A34277D05FEA09730AD593B257F81C0CA2
:1032A00008FB03F300EB430357F82C0C23F81E0034
:1032B0000132002093B2A34205F105039BB228BF5F
:1032C00002469B4540F2F481A3EB0A03A34259D086
:1032D0005FEA49730AD593B257F81C0C08FB03F355
:1032E00000EB430357F82C0C23F81E00013200209A
:1032F00093B2A34205F106039BB228BF02469B4549
:1033000040F2D681A3EB0A03A3423BD05FEA897364
:103310000AD593B257F81C0C08FB03F300EB4303E8
:1033200057F82C0C23F81E000132002093B2A34260
:1033300005F107039BB228BF02469B4540F2B881C6
:10334000A3EB0A03A3421DD05FEAC9730AD093B26C
:1033500057F81C0C08FB03F300EB430357F82C0C45
:1033600023F81E000835ABB29B4540F2A181013223
:10337000A3EB0A0396B20020A64228BF0246A3424E
:103380000AD100BF0CF1010C57F8280C1FFA8CF37E
:103390005546984240F28C8101318C427FF4F0AE68
:1033A0007AE100BF002C00F07781DAB2BBF80000B0
:1033B0004FF0000B4FF0000957F838CC554600BAD3
:1033C000000C47F8200C57F8300C40BA47F8240C92
:1033D00057F8140C47F8280C57F8180C47F83C0C11
:1033E000500050FA83F047F82C0C4CF26560C0F6A0
:1033F000000000EB021047F8340C00BF4CF2F11251
:1034000057F8340C57F82C1CC0F600020C2C2BF08B
:10341000010E08BF02EB81001FFA89F209F10109D0
:1034200010F90B3008FB02F257E909101FFA89F670
:10343000002B48BF084657F81C1CA64205F10106A0
:10344000B6B201EB42024FF0000128BF894657F89F
:10345000281C22F80E00B14240F22A81A6EB0A0194
:10346000A14200F0FB801FFA89F009F10109DBB2EB
:1034700008FB00F258064FF0000657E9091048BF54
:10348000084657F81C1C4FEA5B0E01EB42011FFA7D
:1034900089F2A24205F1020292B228BFB14657F862
:1034A000286C21F81E00964240F20281A2EB0A012C
:1034B000A14200F0D3801FFA89F009F1010908FB4D
:1034C00000F1980657E9092048BF104657F81C2C10
:1034D000002602EB41011FFA89F2A24205F1030224
:1034E00092B228BFB14657F8286C21F81E009642C8
:1034F00040F2DE80A2EB0A01A14200F0AF801FFA89
:1035000089F009F1010908FB00F1D80657E9092003
:1035100048BF104657F81C2C002602EB41011FFA49
:1035200089F2A24205F1040292B228BFB14657F8CF
:10353000286C21F81E00964240F2BA80A2EB0A01E4
:10354000A14200F08B801FFA89F009F1010908FB04
:1035500000F1180757E9092048BF104657F81C2CFE
:10356000002602EB41011FFA89F2A24205F1050291
:1035700092B228BFB14657F8286C21F81E00964237
:1035800040F29680A2EB0A01A14267D01FFA89F0AF
:1035900009F1010908FB00F1580757E9092048BF64
:1035A000104657F81C2C002602EB41011FFA89F245
:1035B000A24205F1060292B228BFB14657F8286C24
:1035C00021F81E00964273D9A2EB0A01A14245D010
:1035D0001FFA89F009F1010908FB00F1980757E982
:1035E000092048BF104657F81C2C002602EB410169
:1035F0001FFA89F2A24205F1070292B228BFB14632
:1036000057F8286C21F81E00964251D9A2EB0A0106
:10361000A14223D01FFA89F1D80757F8240C08FBE0
:1036200001F157F8202C09F1010908BF10461FFAD3
:1036300089F257F81C3C0835A2424FF0000203EB18
:103640004101ABB228BF914657F8282C21F81E0043
:103650009A422DD9A3EB0A01A14213D10CF1010C1E
:1036600057F83C2C1FFA8CF155468A4240F2100163
:10367000C2F2004108801BD90BF1010B5C457FF4BD
:10368000BDAE09E040F21001C2F2004108800BF12A
:10369000010B5C457FF4B2AE6DE9028457F8440C2F
:1036A00057F8381C524657F81C3C00F081FF02B016
:1036B00040F2100057F8301CC2F20040018057F869
:1036C00040DCA7F10C04A546BDE8F08F0000000027
:1036D0002DE9F04F83B00D9F3E78A6F12005EDB2A5
:1036E0005E2D2AD80C468046104419440C9D0137A3
:1036F0001FFA80F9C2461FFA81FB6A08029200BFD6
:103700001FFA8AF0484528BF2C44A1B2594514D26B
:10371000F2B2484528BF5FFA88FA002300931FFAE7
:103720008AF02B46FFF7C8FC17F8016BA6F12000C2
:10373000C0B25F2802988244E2D303B0BDE8F08FA4
:103740002DE9F04F81B02DED048B8AB040F2C0041A
:1037500040F28008C2F20044C2F2004808F10806B4
:1037600040F2600140F600050320A0604FF4807035
:10377000A081C2F200413046C5F6020501F088FB87
:1037800040F214070521C2F20047304622463B684A
:103790009847BA6808F104013046904740F27C6BC4
:1037A0004FF00008C2F2004B45F6A853C0F60003E4
:1037B0000021DBF800000022C0F838803046BF6AE4
:1037C0000496B847FCF728FF07464FF400512846F7
:1037D000FCF70AFF012800F0AA804FF6184044F6D3
:1037E000D356CFF6FF7005A9A0EB070A4FF0640986
:1037F000C1F26206481C0290CDF80CA010E000BF98
:1038000004FB09F0A0FB0601DBF8000089098163D5
:103810004FF400512846FCF7E7FE012800F08780AE
:103820000A20FCF7F5FDFCF7F7FEC41BFCF7F4FEDD
:10383000B4F57A7FA0EB0704E2D9FCF7EDFE40F681
:10384000B8318C426AD84CF6CD415044CCF6CC41CC
:10385000A0FB010105A8CA08C1A102F03DF89DF82E
:103860001420A2F12000C0B25E2829D840F2C00086
:103870000125C2F20040DDF808900088A0F11E0B7F
:103880000BEB000A5C4600BF1FFA8AF0A3B283422A
:1038900028BF1035A9B2102912D8D2B2834228BF4E
:1038A0005FFA8BF41023CDF80080A0B2FFF704FC80
:1038B00019F8012B0834A2F12000C0B25F28E3D32D
:1038C00040F2C00640F21401C2F20046C2F20041CA
:1038D00070688D6BC41EFCF79FFE3168DDF80CA08C
:1038E000504444F6D3564843C1F262062246A0FB38
:1038F0000601032000904FF6FF70CB0900210190D4
:103900000498A84740F27C6B40F60005C2F2004BD9
:10391000C5F602054FF064097AE700BFC01B884274
:103920007FF676AF03E000BF0A20FCF771FD4FF48D
:1039300000512846FCF758FE0128F5D0DBF80000BE
:10394000806B10B300EE100AB8EE408A9FED860A35
:1039500088EE009AFCF760FE064600BF0120FCF7E7
:1039600057FDFCF759FE801BB0EE481A00EE100A16
:10397000DBF80010B0F5967FB8EE400AA0EE091A09
:10398000BCEEC10A81ED0E0AE8D340F2140040F209
:10399000C004C2F20040C2F2004400210022876B42
:1039A0004FF00008D4E9003000900498CDF804806E
:1039B000B84746F257504FF00409C6F2413005901F
:1039C00042F274005722C7F25340069046F2754007
:1039D0000127C6F66970079020880DF1140A0426A5
:1039E000042404308DF8208085B200BFB0B2A84214
:1039F00028BF1034A1B2132912D8D2B2A84228BFCE
:103A00004E461023CDF80080B0B2FFF755FB1AF8F0
:103A1000072008360137A2F12000C0B25F28E5D3A5
:103A2000FCF7F2FD05AC024650A1204601F054FF20
:103A30009DF81420A2F12000C0B25E2827D840F2E1
:103A4000C0000134C2F2004016264FF004084FF0C7
:103A5000000900880427043085B200BFB8B2A8422C
:103A600028BF1036B1B2252911D8D2B2A84228BF3A
:103A700047461023CDF80090B8B2FFF71DFB14F8AD
:103A8000012B0837A2F12000C0B25F28E6D340F234
:103A9000800005ACC2F2004038A14268204601F027
:103AA0001BFF9DF81420A2F12000C0B25E2826D88A
:103AB00040F2C0000134C2F2004028264FF0040852
:103AC0004FF0000900880427043085B2B8B2A8423C
:103AD00028BF1036B1B2372911D8D2B2A84228BFB8
:103AE00047461023CDF80090B8B2FFF7E5FA14F876
:103AF000012B0837A2F12000C0B25F28E6D3DBF823
:103B00000000806B642825D000EE100A9FED1F1A7C
:103B1000B8EE408A9FED1C0A38EE000A80EE019A4A
:103B2000FCF77AFD044600BF0120FCF771FCFCF7AE
:103B300073FD001BB0EE481A00EE100ADBF800100F
:103B4000C828B8EE400AA0EE091ABCEEC10A81ED01
:103B50000E0AE9D30AB0BDEC048B01B0BDE8F08FCA
:103B60002530336400000000000096C353544D33E9
:103B70003248377878203078255800004C4344206C
:103B800049443A30782558000000C8C2000048C3B4
:103B900070B586B044F2E0400025C5F602000595F8
:103BA00041F2000400220168C5F6020441F004015C
:103BB000016001684FF4205601F004010091009962
:103BC000016841F080010160016801F0800100910D
:103BD0000099016841F010010160016801F01001D5
:103BE00000910099016841F00101016000684FF403
:103BF000205100F00100009000982046FCF7FCFCEA
:103C0000012001A9CDE90205204601960495FCF7A3
:103C100013FC06B070BD000010B586B040F2D05065
:103C200044F20001C2F200400024CDE90244CDE993
:103C30000044C5F60001C461C0E900147F21816021
:103C4000FF21C0E90314C0E90544FEF73DF808B1BF
:103C5000FCF7D6FB1220ADF8040040F2D05001A9C9
:103C6000C2F2004001228DF80640CDE90444FEF77F
:103C700067F908B1FCF7C4FB40F201106946C2F2D3
:103C80000130009040F2D0500122C2F20040FEF715
:103C9000AFF808B1FCF7B4FB06B010BD000000009F
:103CA00010B540F2F45443F20040C2F20044C4F2B2
:103CB00001004FF0806120604FF4800060604FF49D
:103CC000C020A0600720E0600020C4E90400A161DA
:103CD0004FF00051C4E90710C4E90900E0624FF059
:103CE0008040606304F138002421FCF712FB204679
:103CF000FEF7EAF9002808BF10BDBDE81040FCF748
:103D00007FBB000000000000B0B59CB000256846F5
:103D100034210024CDE91244CDE91044CDE90E440C
:103D2000C4F201050D94FCF7F4FA40F27C601A210C
:103D3000C2F200400560C0E9011440F2E731C0E979
:103D40000314C0E90544FFF767F908B1FCF758FB15
:103D500040F27C6014A9C2F200401694CDE91444EC
:103D6000FEF7EAFD08B1FCF74BFB60200D90002444
:103D70000820CDE9100440F27C600DA9C2F2004099
:103D80000422CDE90E44CDE91244FEF7E5FE08B168
:103D9000FCF736FB04944FF40050CDE90244CDE922
:103DA0000044CDE9050408944FF00070CDE9090402
:103DB0000C9440F27C64C2F2004469462046FEF74F
:103DC0005FFD08B1FCF71CFB2068A84202D01CB0C4
:103DD000B0BD00BF44F2E040C5F60200016841F00A
:103DE00010010160006817A900F0100017901798E3
:103DF0004FF480601790022018900020CDE9190040
:103E000001201B9041F20000C5F60200FCF714FBF4
:103E10001CB0B0BD00000000FEE700000000000084
:103E2000FEE70000000000007047000000000000F6
:103E3000F0B581B044F22C47C5F6020757F8042CC0
:103E400002F00302032A03D1012001B0F0BD00BF3C
:103E5000054657F82C0C0C4620F0806047F82C0CD7
:103E6000FCF7DAFB064600BF57F82C0C000105D51D
:103E7000FCF7D2FB801B0228F6D964E057F8040C4B
:103E8000EE6895E80E0020F47C30012C40EA013009
:103E9000A2F101016FF35F214FF47E4202EB432256
:103EA00047F8040C92B24FF0FE4302EB01004FF4CE
:103EB000FE012A6901EB064101F4FE0103EB0262F7
:103EC000084402F0FE410844F8603868696920F04F
:103ED000C00040EA010038603868A96920F020007D
:103EE00040EA0100386038684FF6F87120F01000A1
:103EF00038603869EA6920EA01004FF4001140EAAD
:103F0000C2003861386808BF4FF4801140F01000DB
:103F1000002C386008BF4FF400213868084338602F
:103F200057F82C0C40F0806047F82C0CFCF774FB21
:103F3000044600BF57F82C0C000107D4FCF76CFBBB
:103F4000001B0328F6D3032001B0F0BD002001B010
:103F5000F0BD000000000000F0B581B044F22C4735
:103F6000C5F6020757F8042C02F00302032A03D116
:103F7000012001B0F0BD00BF054657F82C0C0C46DF
:103F800020F0805047F82C0CFCF746FB064600BF9B
:103F900057F82C0C800005D5FCF73EFB801B02284F
:103FA000F6D964E057F8040CEE6895E80E0020F0AE
:103FB0007C70012C40EA0150A2F101016FF35F21F6
:103FC0004FF47E4202EB432247F8040C92B24FF0CA
:103FD000FE4302EB01004FF4FE012A6901EB0641AA
:103FE00001F4FE0103EB0262084402F0FE410844C2
:103FF00078613868696920F4406040EA01003860FF
:104000003868A96920F4007040EA01003860386817
:104010004FF6F87120F480703860B869EA6920EAD8
:1040200001004FF0807140EAC200B861386808BFF3
:104030004FF4000140F48070002C386008BF4FF44A
:10404000800138680843386057F82C0C40F08050E5
:1040500047F82C0CFCF7E0FA044600BF57F82C0C8C
:10406000800007D4FCF7D8FA001B0328F6D30320FE
:1040700001B0F0BD002001B0F0BD00000000000064
:1040800070B544F208060446C5F600064FF65F70A8
:10409000C0F20300716821F0400171603168890647
:1040A00012D42168C860FCF7B7FA05462068C068DA
:1040B000800625D4FCF7B0FA401BB0F57A7FF5D91D
:1040C000032084F8210070BD316821F020013160A7
:1040D0002168C860FCF7A0FA054600BF2068C068E8
:1040E00080060FD4FCF798FA401BB0F57A7FF5D91B
:1040F000032084F82100316841F02001316070BD57
:10410000002070BD0020316841F02001316070BD99
:10411000016840F26F32D1F814C08B6943F0080394
:104120008B618B6943F010038B610B6823F00103F3
:104130000B600B6923EA02020A618A6822F440429A
:104140008A6090F88120042A18BF1CF0200209D050
:10415000D0F8842042F08002C0F884208A6942F0BE
:1041600020028A6190F88120032A18BF1CF04002C7
:104170000CD15FEA8C5216D45FEACC5220D40021D5
:10418000A0F86210A0F86A10704700BFD0F8842031
:1041900042F00402C0F884208A6942F040028A6139
:1041A0005FEA8C52E8D5D0F8842042F00102C0F8D2
:1041B00084208A6942F400728A615FEACC52DED5BB
:1041C000D0F8842042F00802C0F884208A6942F4C2
:1041D00080728A610021A0F86210A0F86A1070470E
:1041E00000207047000000002DE9F04182B0064633
:1041F000002006F120048DF807000DF107021321BD
:104200000023204601F064FB8046F06980470746A2
:10421000F0698047C01B0A28FAD30DF10702282154
:104220000023204601F054FB0746F069804705460D
:10423000F0698047401B0A28FAD30DF107053621A3
:10424000002320462A4601F043FB40F2C0014CF611
:104250005843C2F20041C0F600038A68097B03EBB1
:10426000C202002907EB0801526801EB000608BFF3
:1042700042F00802204629468DF80720012201F06D
:1042800023FB4042301A18BF4FF0FF3002B0BDE8A8
:10429000F0810000000000002DE9F04182B00646E8
:1042A000002006F120048DF807000DF1070213210C
:1042B0000023204601F00CFB8046F069804707464A
:1042C000F0698047C01B0A28FAD30DF107022921A3
:1042D0000023204601F0FCFA0746F06980470546B6
:1042E000F0698047401B0A28FAD30DF107053621F3
:1042F000002320462A4601F0EBFA40F2C0014CF6BA
:104300005843C2F20041C0F600038A68097B03EB00
:10431000C202002907EB0801526801EB000608BF42
:1043200042F00802204629468DF80720012201F0BC
:10433000CBFA4042301A18BF4FF0FF3002B0BDE850
:10434000F0810000000000002DE9F04F83B040F242
:10435000C0090446C2F20049D3F816000F460244D1
:10436000D9F804101E468D1AD3F802B0D3F80AA06B
:104370003946D3F81230009020462A4600F03CFE21
:1043800030B14FF0FF35284603B0BDE8F08F00BFD5
:10439000D9F808004CF65842C0F6000299F80C1003
:1043A00004F12008012352F83000002908BF40F032
:1043B00008000DF1090236218DF80900404601F090
:1043C00087FA28B14FF0FF35284603B0BDE8F08FDB
:1043D000204639462A4600F093FD28B14FF0FF35BC
:1043E000284603B0BDE8F08FABEB0A075644002522
:1043F0000DF10A0A70190222514640788DF80A0020
:10440000705D8DF80B00404601F05EFA20B9023570
:10441000BD42EFD3002601E04FF0FF364CF6584284
:10442000D9F80800C0F6000299F80C1002EBC000A1
:104430000DF1090200294FF0360140684FF00103E9
:1044400008BF40F008008DF80900404601F040FA2E
:1044500000284FF0FF3596D1D9E900300021002225
:104460000090204600F0C8FD002808BF35462846C9
:1044700003B0BDE8F08F0000F0B581B01C4640F2FB
:10448000C003C2F2004366181B689E4203D8074669
:1044900000F036FD20B14FF0FF3001B0F0BD00BF9D
:1044A000B4B3621E0698032A40F2D0024FEA1021EC
:1044B00004F0030CC2F2004202D2002311E000BF5C
:1044C00024F00305002300BFD618D154043D03F1A6
:1044D00008037070B170F07031717071B171F0716A
:1044E000F2D1BCF1000F13D043F00106BCF1010F73
:1044F000D15490550CD09E1CBCF1020F46F0010522
:104500009155505504D0043343F00106D1549055D1
:1045100040F2D00107F120006200C2F2004101F038
:10452000D3F9002818BF4FF0FF3001B0F0BD0000F4
:104530002DE9F04F81B040F2C00A1C46C2F2004A99
:1045400015461A44DAF804309A4205D94FF0FF3084
:1045500001B0BDE8F08F00BF2CB307460A980E46A5
:10456000010241EA102B07F120080DF10209DAF8E7
:104570000000ADF802B0B04284BFDAF80400A842EF
:10458000E4D9384631462A4600F0BAFC0028DDD18D
:1045900002224046494601F097F90028D6D1013C55
:1045A00005F10105E3D1002001B0BDE8F08F000066
:1045B0002DE9F04F87B040F2C007109CC2F20047CF
:1045C000661802913D680390AE4207D8DDF844803A
:1045D000934608EB02007A68904205D94FF0FF300D
:1045E00007B0BDE8F08F00BFB8F1000F7CD0002C01
:1045F000039F07F1200005904FEA4400049077D014
:10460000601E04F0030124F0030940F250341E46FA
:1046100001904FF0000AC2F200440020029D009178
:104620000FE000BF023605982146049A01F04CF9CC
:104630000028069818BF4FF0FF300AF1010AC24562
:104640007CD006900AEB0B023846294600F058FC55
:1046500030B14FF0FF300AF1010AC245F1D16DE0EF
:104660000198032804D20020009B2BBBDBE700BF8E
:104670000021002006EB400216F8103004F810303C
:104680006318577804EB40055F70043097788145D4
:10469000AF7001F10801D778DF7017792F71577962
:1046A0005F719779AF71D279DA71E3D10E44DDE9A8
:1046B0000257009B002BB6D0327804EB400104F87F
:1046C0001020012B70784870ACD0B078022B887025
:1046D000F078C87002D10436A5E700BF30790871C0
:1046E0007079063648719EE7002007B0BDE8F08F6C
:1046F00040F250340020C2F20044029D0FE000BF9F
:1047000005982146049A01F0DFF80028304618BFCA
:104710004FF0FF30B8F101080BF1010B0ED0064647
:10472000384629465A4600F0EBFB0028E8D04FF007
:10473000FF30B8F101080BF1010BF0D107B0BDE873
:10474000F08F0000000000002DE9F04F87B0109DB1
:10475000002D00F0908014460F460646002B03EB18
:104760000100069006F1200005904FEA43000490F6
:1047700064D0CDE90267DDF8448040F2D0074FEA0B
:10478000182903F0030B23F0030A0026C2F20047A6
:10479000581E019040F2C0000699C2F20040006825
:1047A00081426DD8DDE90201224600F0A9FB002814
:1047B00066D10198032801D200201BE000206FF091
:1047C000040100BF7A1807EB400307F8109004308B
:1047D000824501F1080182F8068083F8029082F890
:1047E000088083F8049082F80A8083F8069082F8A3
:1047F0000C80E7D1BBF1000F14D007EB4001BBF1F7
:10480000010F07F8109081F801800BD0BBF1020F67
:1048100081F8029081F8038004D081F8049081F837
:10482000058000BF05983946049A01F04DF838BB61
:1048300001360134AE42ADD11DE000BF40F2C009E7
:1048400040F2D008C2F20049C2F20048D9F8000094
:104850000699814214D830463946224600F050FB72
:1048600070B905984146049A01F02EF840B9013D0F
:1048700004F10104EAD1002007B0BDE8F08F00BFC9
:104880004FF0FF3007B0BDE8F08F000000000000DF
:104890004FF0FF307047000040F2C0020020C2F22B
:1048A000004292680A607047F0B581B01C46054628
:1048B00000F026FB20350DF1010706462E21284683
:1048C0003A4600F0F9FF064401222846394600F036
:1048D000F7FF06440DF103010122284600F0F0FF26
:1048E00006440DF102010122284600F0E9FF9DF87F
:1048F000021040429DF80320301A18BF4FF0FF30DD
:1049000042EA0121216001B0F0BD0000000000007A
:1049100040F2C0020020C2F2004212680A607047F2
:1049200040F2C0020020C2F2004252680A607047A2
:104930002DE9F04F83B00028029100F06D8204460B
:10494000914604F1200600208DF807000DF10702C2
:1049500001210023304600F0BBFFE0698047054697
:10496000E0698047401B7828FAD300208DF80700C3
:104970000DF1070201210023304600F0A9FF054692
:10498000E0698047074600BFE0698047C01B782880
:10499000FAD30DF1070700208DF80700112101233C
:1049A00030463A464FF0010B00F092FF0544B1212A
:1049B000002330463A4600F08BFF05440122304682
:1049C00039468DF807B000F07FFF05442C208DF8A4
:1049D00007000122304639464FF02C0800F074FFE2
:1049E00005440122304639464FF02D0A8DF807A0C4
:1049F00000F06AFF0544B221012330463A468DF8A3
:104A000007B000F065FF05440122304639468DF8B5
:104A100007804FF02C0800F057FF05440122304674
:104A200039468DF807A000F04FFF0544B32101235C
:104A300030463A468DF807B000F04AFF054401229F
:104A4000304639468DF807804FF02C0800F03CFFC7
:104A500005440122304639468DF807A000F034FFA6
:104A600005440122304639468DF807B000F02CFF8E
:104A700005440122304639468DF8078000F024FFB6
:104A800005440122304639468DF807A000F01CFF8E
:104A9000054407208DF80700B421012330463A462B
:104AA00000F016FF0544A2208DF80700C021012365
:104AB00030463A4600F00CFF054402208DF807000E
:104AC00001223046394600F0FFFE054484208DF86F
:104AD000070001223046394600F0F6FE0544C520A5
:104AE0008DF80700C121012330463A4600F0F0FE60
:104AF00005440A208DF80700C221012330463A46BA
:104B000000F0E6FE054400208DF807000122304643
:104B1000394600F0D9FE0544C321012330463A4608
:104B20004FF08A088DF8078000F0D2FE05442A2055
:104B30008DF8070001223046394600F0C5FE0544D5
:104B4000C421012330463A468DF8078000F0C0FEAC
:104B50000544EE208DF8070001223046394600F06A
:104B6000B3FE05440E208DF80700C5210123304611
:104B70003A4600F0ADFE99F80C20202105440023B0
:104B8000002A30463A4608BF212100F0A1FE054424
:104B900002AA3A210123304600F09AFE0544022081
:104BA0008DF80700E021012330463A4600F090FEE0
:104BB00005441C208DF8070001223046394600F0DC
:104BC00083FE054407208DF8070001223046394650
:104BD00000F07AFE054412208DF8070001223046CD
:104BE000394600F071FE054437208DF80700012298
:104BF0003046394600F068FE054432208DF8070043
:104C000001223046394600F05FFE0544012230465D
:104C10003946CDF800904FF029098DF8079000F043
:104C200053FE05440122304639468DF807A000F0B6
:104C30004BFE05440122304639468DF8079000F0BE
:104C400043FE054425208DF80700012230463946F1
:104C500000F03AFE05442B208DF807000122304673
:104C6000394600F031FE054439208DF80700012255
:104C70003046394600F028FE054400208DF8070034
:104C800001223046394600F01FFE0544012230461D
:104C900039468DF807B000F017FE05440122304672
:104CA00039464FF003088DF8078000F00DFE0544EB
:104CB0000122304639464FF0100B8DF807B000F056
:104CC00003FE0544E121012330463A468DF8078072
:104CD00000F0FEFD05441D208DF80700012230463E
:104CE000394600F0F1FD054407208DF80700012248
:104CF0003046394600F0E8FD054406208DF80700EF
:104D000001223046394600F0DFFD054401223046DD
:104D100039464FF02E088DF8078000F0D5FD054488
:104D20002C208DF8070001223046394600F0CCFDDA
:104D300005440122304639468DF8079000F0C4FD45
:104D400005440122304639468DF807A000F0BCFD2D
:104D500005440122304639468DF8078000F0B4FD45
:104D600005440122304639468DF8078000F0ACFD3D
:104D7000054437208DF8070001223046394600F0FF
:104D8000A3FD05443F208DF8070001223046394637
:104D900000F09AFD05440122304639464FF00008E4
:104DA0008DF8078000F090FD054401223046394619
:104DB0008DF807804FF0000800F086FD05440220C2
:104DC0008DF8070001223046394600F07DFD05448C
:104DD0000122304639468DF807B000F075FD0544D4
:104DE0001321012330463A468DF8078000F070FD0C
:104DF00005442921012330463A4600F069FD054467
:104E00002046009900F094F92844B0FA80F0400957
:104E1000013803B0BDE8F08F4FF0FF3003B0BDE8BC
:104E2000F08F00000000000070B582B000F1200596
:104E30000DF105060C46DA212846324600F03CFD0D
:104E400058B9721CDB21284600F036FD28B9B21C87
:104E5000DC21284600F030FD20B14FF0FF3002B0D9
:104E600070BD00BFBDF806009DF8051040BA40EACD
:104E700001402060002002B070BD00000000000072
:104E800003690846114618478369084611461847C2
:104E900040B3D1E900C3C0E900C30B89CA680381EC
:104EA0000B69C0E903234A6942618A69C969C16122
:104EB00044F68161C0F60001416245F22121BCF156
:104EC000000FC0F60001016244F6F1618261C0F694
:104ED0000001816244F689610063C0F60001C1628D
:104EE00000D060474FF0FF30704700000000000026
:104EF00043690846114618474FF0FF3070470000DD
:104F00002DE9F04182B040F2C0039046C2F2004366
:104F10000D469E685F7B012E06D8012F0CD1197BB0
:104F2000F1B1183523E000BF012F0FD1197BD9B1A2
:104F300008F118081BE000BF022F18D1197B0129C6
:104F400004BF023508F1010811E000BF022F0ED1A5
:104F5000197B012904BF013508F1020807E000BFF1
:104F60001A3508F1010802E0013508F11A0800F1CC
:104F700020060DF107072A21002330463A4600F0AB
:104F8000A7FC0446280A8DF807000122304639465E
:104F900000F09AFC04440122304639468DF807504F
:104FA00000F092FC04442B21002330463A4600F0E6
:104FB0008FFC04444FEA18208DF807000122304688
:104FC000394600F081FC04440122304639468DF810
:104FD000078000F079FC04442C21002330463A4637
:104FE00000F076FC4042201A18BF4FF0FF3002B0AC
:104FF000BDE8F081000000002DE9F04782B040F2EA
:10500000C0079846C2F200479146DDF828A0BE6866
:105010007D7B012E0E4605D8012D0BD1397BE9B1E0
:10502000183621E0012D0FD1397B0136D1B109F1BC
:10503000180919E0022D17D1397B012904BF023666
:1050400009F1010910E000BF022D0DD1397B0129C2
:1050500004BF013609F1020906E000BF1A3609F162
:10506000010901E009F11A0900F120070DF1070516
:105070002A21002338462A4600F02AFC0446300A3A
:105080008DF8070001223846294600F01DFC044433
:105090000122384629468DF8076000F015FC08EB20
:1050A000060104444E1E0122300A8DF807003846DE
:1050B000294600F009FC04440122384629468DF8AF
:1050C000076000F001FC04442B21002338462A46E7
:1050D00000F0FEFB04444FEA19208DF8070001227E
:1050E0003846294600F0F0FB0444012238462946A0
:1050F0008DF8079000F0E8FB0AEB090104444E1E0E
:105100000122300A8DF807003846294600F0DCFB02
:1051100004440122384629468DF8076000F0D4FB8C
:105120004042201A18BF4FF0FF3002B0BDE8F087B0
:10513000B0B582B08B684A7B40F2C005012B0446B3
:10514000C2F200450AD8032A13D245F68C504FF01C
:10515000A00CC0F6000050F8220008E0032A08D294
:1051600045F68C50C0F6000050F822C0A020C5E9DA
:10517000000C087BAB60287300216A730022D5E91C
:10518000003000902046FFF737FFA9684CF65842E0
:10519000C0F600022B7B02EBC1010546002B04F197
:1051A000200049680DF1070208BF41F00801012302
:1051B0008DF80710362100F08BFB4042281A18BFEB
:1051C0004FF0FF3002B0B0BD70B582B040F2C00405
:1051D0000646C2F20044180240EA1320ADF8060069
:1051E00025684FF0FF308D4215D96368934212D97C
:1051F0003046FFF785FE18B14FF0FF3002B070BDAA
:1052000006F120000DF10601022200F05DFB0028EE
:1052100018BF4FF0FF3002B070BD0000000000006A
:10522000D0F80CC0084611461A466047000000003E
:105230007047000000000000FBF7F6B90000000016
:10524000B0B59CB044F61804022000250895CDE9BD
:105250001055CDE90E55CDE90C55CDE90655CDE9F2
:105260000455CDE90255C5F602040195FBF7E8FAAD
:105270000095206820F440402060206800F4404001
:10528000009000982068800409D4206880045CBFE6
:1052900020685FEA804002D420688004F2D5FBF7E2
:1052A000F7FA4FF658402C22CFF6FF70215821F024
:1052B00018012150052009904FF480300A900120F8
:1052C0000B90CDE915200C20199009A80221CDE9F9
:1052D000121114910024CDE91711CDE91A44FCF7FD
:1052E000F7F928B1EFF3108072B600BFFEE700BFF8
:1052F0003F20019003204FF48061CDE90204082093
:1053000004904020CDE90500CDE9071001A8032154
:10531000FCF71EF820B1EFF3108072B6FEE700BF75
:105320001CB0B0BD000000004EF6885042F2000CE8
:10533000CEF20000C5F2002C026842F47002026056
:10534000DCF8000000F00F00062806D8DCF80000AA
:10535000072262F30300CCF8000044F200404EF64E
:105360007F51C5F60200CEF6F621026842F0010236
:10537000026000220261036819400160DCF800103D
:10538000090706D5DCF80010072363F30301CCF806
:10539000001040F200218261C261C0F2022102626B
:1053A00081620021C0F2FF11C16240F28021C0F28F
:1053B0000111016342638163C26301644264016855
:1053C00021F480210160026644F20000C5F2002051
:1053D00043F2D2010160704710B540F6FF32C4F2CB
:1053E0000002904202680FDCB0F1804F1DD040F205
:1053F0000043C4F20003984217D040F60003C4F201
:105400000003984211D014E040F60043C4F20003B8
:1054100098420AD040F20043C4F20103984204D0FB
:105420000023C4F20103984203D122F070024B68BA
:105430001A434EF2FF3343F6FF7CC4F20003C4F27A
:10544000010C984214DD60452CDC4EF20043C4F29E
:105450000003984243D00023C4F2010398423ED097
:1054600040F20043C4F20103984238D03BE000BF51
:1054700040F2FF73C4F20003984227DD40F60003B8
:10548000C4F2000398422AD040F60043C4F200035D
:10549000984224D04EF20003C4F2000398421ED07A
:1054A00021E000BF44F20003C4F20103984216D089
:1054B00044F60003C4F20103984210D044F20043C2
:1054C000C4F2010398420AD00DE000BFB0F1804F52
:1054D00005D040F20043C4F20003984203D122F405
:1054E0004072CB681A4322F080024C696045D1F8C3
:1054F00000E08B6842EA04020260C362C0F828E060
:1055000014DD44F20002C4F20102904219D044F6C4
:105510000002C4F20102904213D044F20042C4F2ED
:10552000010290420DD00121416110BD0022C4F260
:105530000102904205D040F20042C4F201029042C2
:10554000F1D1096901630121416110BD0000000032
:10555000FEE700000000000080B586B044F2E041A4
:105560000020C5F60201CDE904000A6842F00402F9
:105570000A60096801F00401009100994FF400519C
:10558000CDE901100220039040F6000001A9C5F604
:105590000200FAF751FF06B080BD000000000000D5
:1055A00070B586B044F2E0400025C5F602000595CE
:1055B00041F2000400220168C5F6020441F0100126
:1055C00001600068082100F010000090009820465B
:1055D0000826FBF711F8012001A9CDE902052046B4
:1055E00001960495FAF728FF06B070BD0000000090
:1055F0000246002841F200004FF00801C5F6020003
:1056000018BF0122FAF7F8BFFBF706B80000000048
:1056100080B540F27C600421C2F20040FDF7FCF945
:10562000002080BD00000000F0B581B041F2000410
:105630000D46C5F602048DF803004FF40061002208
:105640002046FAF7D9FF4FF4005100222046FAF71E
:10565000D3FF40F2F4560DF10301C2F200460122DD
:1056600064233046FCF79CFF07464FF400510122AB
:105670002046FAF7C1FF01224FF4FA73304629465B
:10568000FCF74AFE05464FF4006101222046FAF776
:10569000B3FF6842381A18BF4FF0FF3001B0F0BDB9
:1056A00070B541F200060C46C5F6020605464FF4F9
:1056B000006100223046FAF79FFFA2B240F2F45098
:1056C000C2F200404FF4FA732946FCF725FE044667
:1056D0004FF4006101223046FAF78EFF002C18BF0C
:1056E0004FF0FF34204670BD70B541F200060C4605
:1056F000C5F6020605464FF4006100223046FAF76F
:105700007BFFA2B240F2F450C2F20040642329466B
:10571000FCF746FF04464FF4006101223046FAF7D9
:105720006BFF002C18BF4FF0FF34204670BD000007
:10573000F0B581B041F200041646C5F602040D46EC
:105740008DF803004FF4006100222046FAF754FF61
:105750004FF4005100222046FAF74EFF40F2F45079
:105760000DF10301C2F2004001226423FCF718FF8F
:1057700007464FF4005101222046FAF73DFF56B18B
:10578000B2B240F2F450C2F200404FF4FA7329462C
:10579000FCF706FF07444FF4006101222046FAF7A8
:1057A0002BFF002F18BF4FF0FF37384601B0F0BD78
:1057B0008EB001200990FAF7D3FF09AC00200A90BF
:1057C00048F21F700B9040F201100C902046FAF73F
:1057D00097FF0420FAF7D4FFFAF736FFFFF730FD02
:1057E000FEF7D6F9FEF718FAFEF75AFAFEF78CFA2A
:1057F000FFF7B2FEFFF7D4FEFDF7A2FF40F2D0554F
:105800000DF1200AC2F200450FF27C090FF2880B5D
:10581000102725A6FAF700FF4045FBD900F5FA78D6
:105820000120FFF7E5FE0022284603A9FCF710FA45
:10583000002228465146FCF7D7F904989DF80C2021
:105840009DF80D3080285946204688BF494600F013
:1058500043F804203A21A022102300970194FDF779
:1058600037FFFAF7D9FE02462046314600F034F8F9
:1058700004204A21A022102300970194FDF728FF5D
:105880000020FFF7B5FEC5E754696D653A20253065
:1058900032643A253032640054696D653A2025300F
:1058A00032642025303264005469636B3A202564E9
:1058B000206D730000000000436800691847000075
:1058C000D0E90330184700008368006918470000DA
:1058D000D0F800C0006960470FB4084B10B504A9A8
:1058E00002AA039800F01CF8044602A9002000F068
:1058F00048FA204610BC5DF814FB0000835D0008E8
:1059000002E008C8121F08C1002AFAD17047704788
:10591000002001E001C1121F002AFBD170470000E6
:105920002DE9FF4F8DB00F460546002606E02528DD
:105930000BD0DDE90F1290476D1C761C28780028EB
:10594000F5D111B03046BDE8F08F0024A246A14643
:105950000122EC4900E0044315F8013F203B02FA24
:1059600003F00842F7D128782A2810D06FF02F02D0
:105970002878A0F13001092914D80AEB8A0102EB3A
:10598000410144F0020400EB010A6D1CF0E701CF75
:105990005FEA000A03D544F40054CAF1000A44F057
:1059A00002046D1C28782E2817D115F8010F44F039
:1059B00004042A280ED06FF02F022878A0F13001BD
:1059C00009290AD809EB890102EB410100EB010921
:1059D0006D1CF2E757F8049B6D1C28786C280FD0DB
:1059E00006DC4C2817D068280DD06A2814D104E0B2
:1059F000742810D07A280FD10DE044F400140AE086
:105A000044F4801401E044F440146978814202D1E6
:105A100004F580146D1C6D1C2A786E2A1FD00CDCD6
:105A2000632A31D004DC002A8BD0582A11D1A3E09C
:105A3000642A68D0692A0CD165E0732A2ED004DC70
:105A40006F2A73D0702A04D19BE0752A6FD0782A10
:105A50006ED01046DDE90F129047761C50E1C4F37A
:105A60000250022806D0032809D0042801CF09D00B
:105A7000066045E101CFF117C0E9006140E101CFC7
:105A800006803DE106703BE117F8040B8DF800003D
:105A900000208DF80100EB46012003E057F804BB1D
:105AA0004FF0FF3061074FF0000102D40DE008F124
:105AB0000101884649450FDA8045F8DB1BF80810DC
:105AC0000029F4D108E008F1010188468142FADB9F
:105AD0001BF808100029F6D1DDE90F23AAEB080016
