:020000040800F2
:1000000018040024E102000813100008AD0F0008D6
:10001000111000084D030008AD1100080000000099
:100020000000000000000000000000006510000853
:100030004F0300080000000063100008671000086C
:10004000FB020008FB020008FB020008FB0200089C
:10005000FB020008FB020008FB020008FB0200088C
:10006000FB020008FB020008FB020008FB0200087C
:10007000FB020008FB020008FB020008FB0200086C
:10008000FB020008FB020008FB020008FB0200085C
:10009000FB020008FB020008FB020008FB0200084C
:1000A000FB020008FB020008FB020008FB0200083C
:1000B000FB020008FB020008FB020008FB0200082C
:1000C000FB020008FB020008FB020008FB0200081C
:1000D000FB020008FB020008FB020008FB0200080C
:1000E000FB020008FB02000800000000FB02000801
:1000F000FB020008FB020008FB020008FB020008EC
:10010000FB020008FB020008FB020008FB020008DB
:10011000FB020008FB020008FB020008FB020008CB
:10012000FB020008FB020008FB020008FB020008BB
:10013000FB020008FB020008FB020008FB020008AB
:1001400000000000000000000000000000000000AF
:10015000FB020008FB020008FB020008FB0200088B
:10016000FB020008FB020008FB020008FB0200087B
:10017000FB020008FB020008FB0200080000000070
:10018000FB020008FB020008FB020008FB0200085B
:10019000FB020008FB020008FB020008FB0200084B
:1001A000FB020008FB020008FB0200080000000040
:1001B000FB020008FB020008FB020008FB0200082B
:1001C000FB020008FB020008000000000000000025
:1001D0000000000000000000FB020008000000001A
:1001E000000000000000000000000000000000000F
:1001F0000000000000000000FB020008FB020008F5
:10020000FB020008FB02000800000000FB020008DF
:10021000FB020008FB020008FB020008FB020008CA
:10022000FB02000800000000FB02000800000000C4
:10023000FB020008FB02000800000000FB020008AF
:10024000FB020008FB020008FB020008FB0200089A
:10025000FB020008FB020008FB020008FB0200088A
:10026000FB020008FB020008FB020008FB0200087A
:10027000FB020008FB020008FB020008000000006F
:10028000FB020008FB020008FB020008FB0200085A
:1002900000000000FB020008FB0200080000000054
:1002A00000000000FB020008FB020008FB0200083F
:1002B000FB020008FB020008FB020008FB0200082A
:1002C000FB020008FB020008FB020008DFF80CD06C
:1002D00000F02AF8004800474912000818040024DA
:1002E0000648804706480047FEE7FEE7FEE7FEE7D0
:1002F000FEE7FEE7FEE7FEE7FEE7FEE71511000872
:10030000CD020008D2B201E000F8012B491EFBD259
:1003100070470022F6E710B513460A460446194610
:10032000FFF7F0FF204610BD064C074D06E0E068E1
:1003300040F0010394E8070098471034AC42F6D32C
:10034000FFF7C8FF5013000870130008FEE770475E
:10035000B0B5044600F0DCF805469948611C007809
:1003600018BF044400F0D4F8401BA042FAD3B0BD3B
:100370002DE9FC4F5B4A0A244FF0000A4FF0000BB6
:100380009042594A08BF092402444FEAB223082B7D
:1003900038BF4FEAB2240094012700220E6836FAD3
:1003A00002F500F09C8007FA02F916EA090E00F047
:1003B00090800323D1F804C003FA0BF50CF0030876
:1003C000EE43A8F10105012D12D885685346D1F8F6
:1003D0000CA00AFA0BF435409A462C438460CCF307
:1003E00000144568944025EA09052C43446005E063
:1003F000B8F1030F02D14FF0030820E0C4688D6804
:10040000344005FA0BF52C43C460B8F1020F16D145
:100410000AF01C040F2303FA04FC6FF0030303EA41
:10042000520303441D6A25EA0C0C0D6905FA04F415
:1004300044EA0C041C62D1F804C00CF00308046800
:1004400008FA0BF33440234303601CF4403F40D0D0
:10045000844C274E236843F00203236023680F2453
:1004600003F002030193019D0AF00C0322F003053F
:100470009C40AF5927EA0404009F07FA03F3234383
:10048000AB514FF0B04633684D6843EA0E04EF02BB
:1004900058BF23EA0E043460144EAF02336843EAB7
:1004A0000E0458BF23EA0E043460AF03D6F8803040
:1004B0004FF0010743EA0E0458BF23EA0E04C6F8C2
:1004C0008040ED03F36F43EA0E0458BF23EA0E04A5
:1004D000F4670AF1040A0BF1020B01325EE7BDE892
:1004E000FC8F00BF002402580000FEA70400005843
:1004F00008040058426902EA0103914341EA0341BA
:1005000081617047002A08BF0904816170470000BB
:1005100005480068704700BF2948034900780A6809
:1005200010440860704700BF1000002480B503200D
:1005300000F0C0F800F068FA0E490F4B0A6809682D
:1005400001F00F01C2F30322595C9A5C01F01F0114
:1005500002F01F02D0401B4A1060C84007490860E3
:100560000F2000F00DF808B1012080BD00F06CF8FC
:10057000002080BD184402583E1300080C000024DF
:1005800070B50F4E04463078B0B14FF47A71B1FBBC
:10059000F0F00C490968B1FBF0F000F0F3FC012524
:1005A0000F2C0AD848B94FF0FF3021460022002511
:1005B00000F05AF8746000E00125284670BD00BFC5
:1005C00000000024080000240278114943780B60E1
:1005D000D2B143684B60037B42EA0372C37A42EABA
:1005E0000362837A42EAC342437B42EA8342837BCB
:1005F00042EA4342C37B42EA0342437A007A42EA38
:10060000032242EA400001E0002048608860704711
:1006100098ED00E00B48BFF35F8F016821F4803153
:100620000160002101677047064940F0010008673A
:10063000086840F480300860BFF34F8FBFF36F8FBE
:10064000704700BF24ED00E081B00648016841F02A
:1006500002010160006800F002000090009801B003
:10066000704700BFF4440258F0B5184B4FF0FF3606
:100670001C68C4F30224E51E84F0070438BF00257B
:1006800006FA05F7BA43042C28BF042406FA04F43A
:10069000A14300F00F04A940043C1143044A234441
:1006A00009010244002848BF03F10C021170F0BD9B
:1006B00000E400E005494FF6FF030A681A4060F3C2
:1006C0000A22034810430860704700BF0CED00E0A9
:1006D0000000FA0504490A6802430A6049680840B4
:1006E00018BF0120704700BF20480258B0B50F4D19
:1006F0002A682968520705D401F00701081A18BFB3
:100700000120B0BD21F00701084300F093FC04462E
:1007100055F8080C800406D4FFF7FAFE00F082FCBE
:10072000F6D90120B0BD0020B0BD00BF0C48025872
:1007300010B5D0E900121024806891FAA1F3B3FA41
:1007400083F304EB430404F01E04A04003F1080407
:1007500004F01F04A2404FF4403410431E2202EA6A
:10076000430203F01F0304FA02F24FF4807404FA08
:1007700003F31A43104B0A431C6824EA0202104395
:10078000084318600348026822F0AC5242EAC151A3
:10079000016010BD90000058014909680840704789
:1007A000244802586FF03F0161EA000002490A68DC
:1007B00010400860704700BF284802580948016887
:1007C00041F005010160016841F002010160064845
:1007D000016841F004010160BFF34F8FBFF36F8FD9
:1007E00030BF70471048025810ED00E02DE9F84383
:1007F000002800F0FB807F4D04468846286800F002
:100800000F0088420BD2286820F00F0040EA080051
:100810002860286800F00F00404540F0E78020681D
:10082000AF4F410709D52169BA6900F016FC04D918
:10083000BA6922F070021143B961010709D56169F3
:10084000FA6900F00AFC04D9FA6922F07002114337
:10085000F961C1060AD5A169FA6902F4E062914220
:1008600004D9FA6922F4E0621143F961810609D5DD
:10087000E1693A6A00F0F1FB04D93A6A22F07002A9
:100880001143396210F002010AD0E268BB6903F03B
:100890000F039A4204D9BB6923F00F031A43BA61CC
:1008A000C2073AD0D4E90101BA6922F47062114357
:1008B000B961012807D0032809D002280BD1396873
:1008C00089030CD492E03968C90508D48EE03968F0
:1008D000890104D48AE03968490740F18780396981
:1008E000A94621F0070108433861FFF711FE0646CB
:1008F00041F288356068396901F03801B1EBC00F09
:1009000007D0FFF705FE801BA842F3D90320BDE8FE
:10091000F88320684D4600F0020151B1E168BA69E0
:1009200002F00F02914204D2BA6922F00F02114381
:10093000B961296801F00F0141450AD9296821F000
:100940000F0141EA08012960296801F00F014145C2
:100950004CD1410709D52169BA6900F07EFB04D268
:10096000BA6922F070021143B961010709D56169C2
:10097000FA6900F072FB04D2FA6922F070021143A6
:10098000F961C1060AD5A169FA6902F4E0629142EF
:1009900004D2FA6922F4E0621143F96180060AD5B3
:1009A000E069396A01F07001884204D2396A21F0A5
:1009B00070010843386200F027F8B9690E4A0F4BFE
:1009C000C1F30321515C01F01F01C840B9691860EF
:1009D00001F00F01515C01F01F01C8400849086097
:1009E00008480068BDE8F843FFF7CABD0120BDE82C
:1009F000F88300BF002000523E13000808000024C6
:100A00000C0000240400002410B535490869C0F327
:100A1000C20003280FD0022804BF334810BD40B9DC
:100A20000868800634485AD50968C1F3C101C84036
:100A300010BD2C4810BD8A6A886ACC6A4B6BC0F323
:100A4000051000B304F0010402F00302644204EA5A
:100A5000D303022A6FF35F3300EE103AB8EE400A78
:100A600013D0AAB90A68920651BF9FED221A0A68EC
:100A7000C2F3C102204B42BF23FA02F201EE102A58
:100A8000B8EE411A06E0002010BD9FED191A01E0F2
:100A90009FED161A0A6B9FED193A6FF35F2202EE73
:100AA000102AB8EE422A00EE032AB7EE000A32EE10
:100AB000000A02EE100A086BC0F34620B8EE422A84
:100AC000013081EE021A21EE000A01EE100AB8EEA2
:100AD000411A80EE010ABCEEC00A10EE100A10BDE9
:100AE0000044025800093D0040787D010024744A0A
:100AF00020BCBE4B0024744C0090D0030000003991
:100B0000F8B5002800F0DC8004460078D74EC00716
:100B10001FD1207880075CD5306910F03801B06AA9
:100B200039D0182901D1800735D03068E168002913
:100B300000F0248120F01900084300F070FA054607
:100B4000306840073ED4FFF7E3FC401B0228F7D98A
:100B50005FE1306900F03801B06A102905D018292A
:100B60000AD100F00300022806D130688003D0D5F6
:100B700060680028CDD1A3E06068002800F02681DD
:100B8000B0F5A02F00F03281B0F5803F00F0328147
:100B900000F053FA31E1E0683168490702D50028D6
:100BA00000F08E80316821F01901084300F037FA17
:100BB00005463068400705D4FFF7AAFC00F036FA76
:100BC000F7D9F8BD2069716821F0FE4141EA006063
:100BD00070602078C0061AD5306900F03801B06A1C
:100BE000082907D0182940F0938000F0030001285D
:100BF00040F08E803068C00502D5E06980285FD162
:100C0000206AF16821F07C5141EA0060F0602078B0
:100C1000000757D42078800667D42078400700F179
:100C20008A80676A002F49D0306900F038001828A0
:100C300040F00081B16A306B012F41D0A26A01F00F
:100C4000030393423CD1E26AC1F30511914237D1CB
:100C50000146226B6FF35F21013A914230D1626B02
:100C6000C0F34621013A91422AD1A26BC0F306415A
:100C7000013A914224D1E16BC0F306600139884208
:100C80001ED1A06C716BC1F3CC01884216D0F06A02
:100C900020F00100F062FFF73BFC0546FFF738FC4F
:100CA000A842FBD0706B4FF6F8718843A16C40EA04
:100CB000C1007063F06A40F00100F0620020F8BDEE
:100CC0000120F8BD706F6169002947D040F0010034
:100CD0007067FFF71DFC0546706F80079AD4FFF719
:100CE00017FC401B0228F7D993E03068A16900295E
:100CF0005DD040F4805000F092F9054630688004E1
:100D00003FF58BAFFFF704FC401B0228F6D980E0CB
:100D10003068E16900297ED040F0800000F07FF962
:100D200005463068C0053FF56BAFFFF7F1FB00F0FB
:100D30007DF9F6D945E7D6F8000440F48070C6F88E
:100D40000004FFF7E5FB0546D6F80004C00524D4EF
:100D5000FFF7DEFB401B6428F6D95AE020F00100C3
:100D60007067FFF7D5FB0546706F80077FF552AFC0
:100D7000FFF7CEFB00F05AF9F6D922E720F0010088
:100D800000F04DF90546306840077FF522AFFFF7C8
:100D9000BFFB00F04BF9F6D913E7A068002867D035
:100DA000052878D001287AD000F04FF97AE020F4B5
:100DB000805000F034F90546306880047FF52DAF8F
:100DC000FFF7A6FB00F032F9F6D9FAE600F035F9A4
:100DD00000F025F90546306880037FF59AAEFFF7ED
:100DE00097FB411B03206429F5D9EAE6306840F4FB
:100DF00080203060306840F4803000F010F9054603
:100E0000306880033FF585AEFFF782FB401B642806
:100E1000F6D90320F8BD20F0800000F000F9054667
:100E20003068C0057FF5F3AEFFF772FB00F0FEF807
:100E3000F6D9C6E6306820F0807000F0F0F805467C
:100E4000022F08D1306880013DD5FFF761FB00F02B
:100E5000EDF8F7D9B5E6306880017FF52FAFFFF7E1
:100E600057FB00F0E3F8F6D9ABE600BF00440258A8
:100E700000F0EBF83067FFF74BFB054641F288378F
:100E8000306F80077FF5CDAEFFF742FB411B03209B
:100E9000B942F5D995E6306F40F004003067306F05
:100EA00040F001003067FFF733FB054641F2883719
:100EB000306F80073FF5B5AEFFF72AFB411B0320DB
:100EC000B942F5D97DE604F12805B06A40F2F33164
:100ED00088432ECD0843591E40EA0210B0626FF3DA
:100EE0005F214FF4FE024FF47E4000EB452080B2BC
:100EF0000844A16B02EB01414FF0FE4201F4FE01F8
:100F00000844E16B02EB016101F0FE4108443063EB
:100F10004FF6F871F06A20F00100F062706B8843C0
:100F2000A16C40EAC1007063206CF16A21F00C01F1
:100F30000843F062F06A616C20F002000843F0623E
:100F4000F06A40F48030F062F06A40F40030F06201
:100F5000F06A40F48020F062F06A40F00100F06234
:100F6000306840F0807000F05AF804463068800124
:100F70003FF5A4AEFFF7CCFA011B03200229F5D9F7
:100F80001FE60000411E0020B0EB116F01D00120D0
:100F90007047044AF023516003490B7090600721A9
:100FA0001160704710E000E023ED00E0FEE7B0B50F
:100FB000054601200C4600F039F9681EFFF7C8F914
:100FC000002000F033F9601EBDE8B040FFF7C0B963
:100FD00083B09548016841F004010160016801F0A7
:100FE000040102910299016841F0800101600168E9
:100FF00001F0800101910199016841F00101016056
:10100000006800F001000090009803B0704700BF36
:10101000FEE7FEE74FF4FA70C821FFF7C8BF306063
:10102000FFF776BA001BB0F57A7F7047411B0320AB
:10103000022970472860FFF76BBA306820F48030CF
:101040003060306820F480207047306F20F001005D
:101050003067306F20F00400704702F07002914258
:10106000704770477047FFF757BA0000B0B59CB0A3
:1010700009A81C210830FFF74CF901A82021FFF72F
:1010800048F90220FFF732FB002000902048016859
:1010900021F440410160016801F440410091009950
:1010A00001688904FCD502206E22CDE91700CDE944
:1010B00012000024082501211592CDE91A44199542
:1010C00016914FF4803005221492CDE9091009A839
:1010D000FFF716FD18B1EFF3108072B6FEE740205F
:1010E0000890CDE905004FF480610791CDE90345F3
:1010F0003F20019003210320029001A8FFF776FB17
:1011000018B1EFF3108072B6FEE71CB0B0BD00BF9F
:101110001848025810B51D481D4A016841F4700175
:101120000160106800F00F00062804D8106807213D
:1011300061F3030010601748174C016841F001018A
:1011400001600021016103682340036013681B07ED
:1011500004D51368072464F3030313600F4A816105
:10116000C161016282620E4AC2620E4A0263416339
:101170008263C16302644164026822F480220260D7
:101180000166094843F2D201016010BD88ED00E01C
:1011900000200052004402587FEDF6EA00020202ED
:1011A0000000FF018002010100400052FEE7000044
:1011B000FEB51D490020CDE904000A6842F0040292
:1011C0000A60096801F0040100910221CDE90201E1
:1011D0004FF400500190009801A90248FFF7C8F8A9
:1011E00006B080BD0008025870B586B00E480025D4
:1011F0000595144C00220826016841F01001016099
:101200000068082100F01000009000982046FFF7C9
:1012100079F90120CDE90160CDE9035501A9204606
:10122000FFF7A6F806B070BDE04402580246002859
:10123000044818BF01220821FFF764B901480821BA
:10124000FFF758B90010025884B001200090FFF752
:10125000E1F940F20110039048F21F700290002063
:1012600001906846FFF7B0F90420FFF7DDF9FFF7BA
:101270005DF9FFF7FBFEFFF7ABFEFFF799FFFFF706
:10128000B3FF264C2068C00109D42068000204D4B2
:101290002068400205D5FFF7BDFEFFF7BBFEFFF754
:1012A000B9FE206840F480302060D4F84003400646
:1012B0000DD5D4F84003FA2140F40070C4F840037F
:1012C0000A20FFF774FE0A20FA21FFF770FE0820BB
:1012D0000824FFF761FA38B1FA20FA21FFF767FE18
:1012E000FA20FA21FFF763FE0820FFF75BFA0820D7
:1012F000FFF7F0F9022002900120CDE90040684696
:10130000FFF716FA0820FFF7E5F9FFF757FAFFF79E
:1013100095FF4FF4FA70FFF71BF8F8E7D044025836
:1013200002E008C8121F08C1002AFAD170477047AE
:10133000002001E001C1121F002AFBD1704700000C
:10134000000001020304010203040607080900006B
:101350007013000800000024100000002013000893
:101360008013000810000024080400003013000857
:1013700001000000100000000090D0030090D00396
:04000005080002CD20
:00000001FF
