:020000040800F2
:10000000880600246D030008D11E0008491E000860
:10001000C91E000879040008B12300080000000090
:100020000000000000000000000000002122000885
:100030008104000800000000D91E000829220008E1
:100040008703000887030008870300088703000868
:100050008703000887030008870300088703000858
:100060008703000887030008870300088703000848
:100070008703000887030008870300088703000838
:100080008703000887030008870300088703000828
:100090008703000887030008870300088703000818
:1000A0008703000887030008870300088703000808
:1000B00087030008870300088703000887030008F8
:1000C00087030008870300088703000887030008E8
:1000D00087030008870300088703000887030008D8
:1000E000870300088703000800000000870300085A
:1000F00087030008870300088703000887030008B8
:1001000087030008870300088703000887030008A7
:100110008703000887030008870300088703000897
:100120008703000887030008870300088703000887
:100130008703000887030008870300088703000877
:1001400000000000000000000000000000000000AF
:100150008703000887030008870300088703000857
:100160008703000887030008870300088703000847
:1001700087030008870300088703000800000000C9
:100180008703000887030008870300088703000827
:100190008703000887030008870300088703000817
:1001A0008703000887030008870300080000000099
:1001B00087030008870300088703000887030008F7
:1001C000870300088703000800000000000000000B
:1001D000000000000000000087030008000000008D
:1001E000000000000000000000000000000000000F
:1001F00000000000000000008703000887030008DB
:100200008703000887030008000000008703000838
:100210008703000887030008870300088703000896
:1002200087030008000000008703000800000000AA
:100230008703000887030008000000008703000808
:100240008703000887030008870300088703000866
:100250008703000887030008870300088703000856
:100260008703000887030008870300088703000846
:1002700087030008870300088703000800000000C8
:100280008703000887030008870300088703000826
:10029000000000008703000887030008000000003A
:1002A0000000000087030008870300088703000898
:1002B00087030008870300088703000887030008F6
:1002C00087030008870300088703000800F002F88E
:1002D00000F03CF80AA090E8000C82448344AAF1A4
:1002E0000107DA4501D100F031F8AFF2090EBAE8A2
:1002F0000F0013F0010F18BFFB1A43F0010318475A
:100300004C2200006C220000103A24BF78C878C14B
:10031000FAD8520724BF30C830C144BF04680C600B
:10032000704700000023002400250026103A28BF53
:1003300078C1FBD8520728BF30C148BF0B60704757
:100340001FB502F0EDF81FBD10B510BD00F058F854
:100350001146FFF7F5FF02F093F800F076F803B4CA
:10036000FFF7F2FF03BC00F07DF80000094880476A
:1003700009480047FEE7FEE7FEE7FEE7FEE7FEE787
:10038000FEE7FEE7FEE7FEE704480549054A064B9F
:100390007047000001230008CD02000888000024F7
:1003A0008806002488020024880200244FF00002FE
:1003B00000B5134694469646203922BFA0E80C505B
:1003C000A0E80C50B1F12001BFF4F7AF090728BF36
:1003D000A0E80C5048BF0CC05DF804EB890028BFB2
:1003E00040F8042B08BF704748BF20F8022B11F0DB
:1003F000804F18BF00F8012B704770477047704757
:10040000754600F02BF8AE4605006946534620F0CD
:100410000700854618B020B5FFF7B6FFBDE82040BD
:100420004FF000064FF000074FF000084FF0000BB0
:10043000AC46ACE8C009ACE8C009ACE8C009ACE81F
:10044000C00921F007018D46704710B50446AFF38F
:1004500000802046BDE81040FFF781BF004870478C
:100460001000002401491820ABBEFEE72600020060
:100470007047000000000000FEE7000000000000E0
:100480007047000000000000EFF3108072B600BF5C
:10049000FEE70000000000002DE9F04F82B00D687B
:1004A000002D00F0CB8000F1264242F2004302F121
:1004B000FF72C5F602030A2698424FEAB22444F2BC
:1004C000F44E08BF0926082C40F2040C38BF4FEA4E
:1004D000B226C5F6020EC5F6000C009600220027D3
:1004E000002609E001360D6835FA06F307F1040726
:1004F00002F1020200F0A280012303FA06F415EAD9
:100500000408EFD0D1F804A003230AF0030B9340B2
:10051000ABF101056FEA0309012D0FD88368CD689F
:1005200003EA090395402B438360CAF3001543682F
:10053000A34305FA06F42343436005E0BBF1030F30
:1005400002D14FF0030B21E0C3688C6803EA090372
:100550009440BBF1020F43EA0403C36016D16FF06D
:10056000030307F01C0503EA56030F24034404FAAF
:1005700005FBD3F820A00C692AEA0B0AAC4044EA38
:100580000A041C62D1F804A00AF0030B03680BFAFA
:1005900002F403EA09031AF4403F43EA0403036048
:1005A000A0D0DEF8003040F2084A43F00203CEF853
:1005B0000030DEF80030C5F6000A03F002030193B4
:1005C00026F00303019C07F00C040F2553F80A9052
:1005D000A54029EA0509009D05FA04F444EA090446
:1005E00043F80A404FF0B04ADAF800904C6849EA04
:1005F0000805E30258BF29EA0805A302CAF800501B
:10060000DCF8009049EA080558BF29EA0805A30369
:10061000CCF80050DCF8809049EA080558BF29EA78
:100620000805E403CCF88050DCF87C3043EA080588
:1006300058BF23EA0805CCF87C5053E702B0BDE868
:10064000F08F0000000000000069084018BF012082
:100650007047000000000000426902EA0103914374
:1006600041EA034181617047002A08BF09048161A2
:10067000704700000000000040F28400C2F2004019
:10068000006870470000000040F2000040F2840162
:10069000C2F20040C2F2004100780A6810440860CB
:1006A000704700000000000080B5032000F0E8F86B
:1006B00000F0A6FF44F2184142F23A53C5F6020197
:1006C000C0F600030A68096801F00F01C2F30322B3
:1006D000595C9A5C01F01F0102F01F02D04040F209
:1006E0000C02C2F2004220FA01F1116040F208014E
:1006F000C2F2004108600F2000F00AF800281CBF79
:10070000012080BD00F07CF8002080BD00000000CA
:1007100070B540F20006C2F200463178E1B10446FD
:1007200040F20800C2F200404FF47A72B2FBF1F1DD
:100730000068B0FBF1F001F06FFB0F2C4FF00105EA
:1007400008D838B94FF0FF3000222146002500F0CC
:1007500067F87460284670BD012070BD000000007D
:10076000B0B502784EF69C5CCEF2000C43784CF8A3
:10077000043CFAB14368CCF80030037BC17A90F8AE
:100780000AE0457B447A42EA0372837B42EA0161D4
:10079000C27B41EACE41007A41EA854141EA4341C8
:1007A00041EA024141EA042141EA4000CCF8040058
:1007B000B0BD00BF0020CCF80000CCF80400B0BDF4
:1007C0004EF62450CEF20000BFF35F8F016821F493
:1007D00080310160002101677047000000000000C7
:1007E0004EF6245140F00100CEF20001086708687F
:1007F00040F480300860BFF34F8FBFF36F8F7047B6
:1008000081B044F2F440C5F60200016841F00201F3
:100810000160006800F002000090009801B070478D
:1008200070B54EF60C5C4FF0FF36CEF2000C00F1C6
:10083000604505F56445DCF80030C3F3022E8EF008
:100840000703042B28BF0423BEF1030406FA03F3B5
:1008500021EA030100F00F0338BF0024043B002805
:10086000634406FA04F048BF03F10C05A14022EAF4
:10087000000008430001287070BD00000000000067
:100880004EF60C514FF6FF03CEF200010A681A40F3
:1008900060F30A2242F0806040F0FD70086070470B
:1008A000B0B544F60C05C5F6020529684907296864
:1008B00006D401F00701081A18BF0120B0BD00BF1F
:1008C00021F0070108432860FFF7D6FE044600BF69
:1008D00055F8080C800407D4FFF7CEFE001BB0F5D6
:1008E0007A7FF5D90120B0BD0020B0BD0000000026
:1008F0002DE9F0470446C07844F22C480007C5F6BD
:10090000020833D5606E4FEA305103290CD8DFE876
:1009100001F003111D2600BFD8F8001041F400318A
:10092000C8F800101BE000BF01266078C0070BD09C
:1009300020E000BF04F10800022101F0D1FA0646D0
:1009400060B16078C00715D1354646E004F1280053
:10095000022101F059FB06460028F2D1606ED8F85A
:10096000241021F440110843C8F8240000266078C0
:10097000C007E9D0A06D04280ED83546DFE800F0A6
:100980000412181E1E0000BFD8F80000354640F4BF
:100990000030C8F8000011E0012501276078400709
:1009A0001FD453E004F10800002101F099FA04E09B
:1009B00004F12800002101F027FB05462F461DB158
:1009C000607840070DD441E0D8F82400A16D20F0F4
:1009D000070000250843C8F8240037466078400720
:1009E00034D5D4F8A4004FEA705005280CD8DFE8BD
:1009F00000F00311171D1D1DD8F8000040F4003051
:100A0000C8F8000012E000BF012501266078000749
:100A100020D455E004F10800002101F061FA04E05F
:100A200004F12800002101F0EFFA05462E461DB121
:100A3000607800070ED443E0D8F82C00D4F8A41056
:100A400020F4600000250843C8F82C003E4660787A
:100A5000000735D5D4F8A8004FEA306005280DD836
:100A6000DFE800F00412181E1E1E00BFD8F80000B8
:100A700040F40030C8F8000012E000BF0125012753
:100A8000E078800720D44EE004F10800002101F056
:100A900027FA04E004F12800002101F0B5FA054628
:100AA0002F461DB1E07880070ED43CE0D8F82C002A
:100AB000D4F8A81020F0E06000250843C8F82C0006
:100AC0003746E07880072ED5E06C4FEA30100328D7
:100AD0000ED8DFE800F00903130900BFD8F80000C2
:100AE00040F40030C8F800002E467DB912E000BF87
:100AF000012501266078C00619D44CE004F10800F5
:100B0000022101F0EDF905462E461DB16078C006C0
:100B10000DD440E0D8F82000E16C20F03000002532
:100B20000843C8F820003E466078C00633D5E06D23
:100B30004FEA303004280DD8DFE800F00412181E08
:100B40001E0000BFD8F8000040F40030C8F80000D4
:100B500012E000BF01250127607880061FD44EE017
:100B600004F10800002101F0BBF904E004F12800C1
:100B7000002101F049FA05462F461DB16078800634
:100B80000DD43CE0D8F82400E16D20F4E0400025CD
:100B90000843C8F824003746607880062FD5206EB9
:100BA0004FEA3040052809D8DFE800F0040E1404AD
:100BB000040400BF2E46ADB918E000BF0125012690
:100BC000607840061FD44FE004F10800012101F0D5
:100BD00087F904E004F12800012101F015FA054627
:100BE0002E461DB1607840060DD43DE0D8F82400B3
:100BF000216E20F4E02000250843C8F824003E467A
:100C00006078400630D5D4F8AC004FEA3070052843
:100C100008D8DFE800F0030D130303032F46ADB936
:100C200018E000BF012501276078000620D442E0CB
:100C300004F10800012101F053F904E004F1280057
:100C4000012101F0E1F905462F461DB1607800064B
:100C50000ED430E0D8F82C00D4F8AC1020F0E040EE
:100C600000250843C8F82C0037466078000622D5D6
:100C7000E06E58B1B0F1005F0CD0B0F1805F2FD1C1
:100C8000D8F8000040F40030C8F800002E469DB9A6
:100C900008E000BF04F10800012101F021F9054638
:100CA0002E464DB9D8F82400E16E20F040500025C2
:100CB0000843C8F824003E46E078C00733D0A06C53
:100CC000032813D8DFE800F008021A08D8F800005B
:100CD00040F40030C8F80000A946BDB91AE000BFD2
:100CE00001250126E078C007E9D11CE001254FF07D
:100CF0000109A07840061AD51CE000BF04F10800E5
:100D0000022101F0EDF80546A9461DB1A078400684
:100D10000DD50FE0D8F82000A16C20F003000025CD
:100D20000843C8F82000B146A078400602D44F46D8
:100D300018E000BFD8F8D40340F48070C8F8D4039A
:100D4000FFF79AFC064600BFD8F8D403C00507D4C5
:100D5000FFF792FC801B6428F6D90325032701E0E6
:100D60002F468DB12078C00761D0A06F4FEAF00008
:100D700005283BD8DFE800F004404604040400BF27
:100D8000002D2E4646D149E0D8F84410D4F8B000E2
:100D9000414011F4407F11D0D8F84410D8F84420D5
:100DA00042F48032C8F84420D8F8442021F440713D
:100DB00022F48032C8F84420C8F84410B0F5807F8F
:100DC00040F0CE82FFF758FC064641F2883A0325F0
:100DD000032700BFD8F84400800700F1BF82FFF767
:100DE0004BFC801B5045F5D9BCE700BF012501260F
:100DF000207880071FD44CE004F10800012101F0A5
:100E00006FF804E004F12800012101F0FDF8054627
:100E10002E461DB1207880070DD43AE0D8F828007E
:100E2000A16F20F0380000250843C8F828003E468E
:100E3000207880072DD5606F052809D8DFE800F0FD
:100E4000040E1404040400BF2F46ADB918E000BF1F
:100E500001250127207840071FD44DE004F1080048
:100E6000012101F03DF804E004F12800012101F026
:100E7000CBF805462F461DB1207840070DD43BE046
:100E8000D8F82800616F20F0070000250843C8F853
:100E900028003746207840072ED5D4F89000052842
:100EA00008D8DFE800F0030D130303032E46ADB9A5
:100EB00018E000BF012601252078800620D451E0EB
:100EC00004F10800012101F00BF804E004F128000E
:100ED000012101F099F805462E461DB120788006C3
:100EE0000ED43FE0D8F82C00D4F8901020F0070082
:100EF00000250843C8F82C003E462078800631D5EE
:100F0000D4F88C004FEA3070052809D8DFE800F0EB
:100F1000040E1404040400BF2F46ADB918E000BF4E
:100F2000012701252078400620D451E004F1080073
:100F3000002100F0D5FF04E004F12800022101F0B7
:100F400063F805462F461DB1207840060ED43FE0D9
:100F5000D8F82800D4F88C1020F0E0400025084391
:100F6000C8F8280037462078400631D5D4F89800D4
:100F70004FEAB020052809D8DFE800F0040E140479
:100F8000040400BF2E46ADB918E000BF01260125BC
:100F90002078000620D454E004F10800002100F07D
:100FA0009FFF04E004F12800022101F02DF805461E
:100FB0002E461DB1207800060ED442E0D8F82C0051
:100FC000D4F8981020F4E05000250843C8F82C000D
:100FD0003E462078000634D5D4F89C004FEA7030A5
:100FE00005280FD8DFE800F004141A04040400BF39
:100FF0002F46E5B12068010727D4C1063ED400037F
:1010000055D475E00127012520680107F5D51CE0BE
:1010100004F10800002100F063FF04E004F128005F
:10102000022100F0F1FF0546002D2F46E2D1D8F84D
:101030002C00D4F89C1020F4604000250843C8F828
:101040002C00374620680107D7D5D4F88000B0F5CA
:10105000805F09D104F12800022100F0D5FF0028AB
:1010600018BF0127D4F88000D8F8281021F4405187
:101070000843C8F828002068C106C0D5D4F89400F9
:10108000B0F5807F09D104F12800022100F0BCFFF7
:10109000002818BF0127D4F89400D8F82C1021F4A8
:1010A00040710843C8F82C002068000320D5D4F80C
:1010B000A000B0F5003F0FD0B0F5803F06D078BB60
:1010C00004F10800002100F00BFF04E004F1280007
:1010D000022100F099FF05462E4655B9D8F82C009C
:1010E000D4F8A01020F4403000250843C8F82C00A4
:1010F0003E46A07840072BD5D4F88400B0F5401FB9
:101100000BD0B0F5001F11D0B0F5801F2AD1D8F850
:10111000000040F40030C8F800002F46CDB90DE0C3
:1011200001260125A0784007E6D411E004F128004B
:10113000012100F069FF05462F4655B9D8F828006F
:10114000D4F8841020F4401000250843C8F8280083
:101150003746A078C0070AD13E462168880016D5D8
:1011600033E000BF01270125A078C007F4D0206D2F
:10117000B0F5803F10D018BBD8F8000040F4003024
:10118000C8F800002E4685B1216888001DD460682B
:101190008A0326D465E000BF04F10800022100F0B4
:1011A0009FFE0546002D2E46EED1D8F82000216D79
:1011B00020F4803000250843C8F82000CCE700BFA9
:1011C0000126012521688800E1D504F128000221CB
:1011D00000F01AFF002818BF0126D4E900108A0386
:1011E0003FD5E26F6FF0010303EB3223022B0BD3E9
:1011F0004FEA322343B1012B40F0AA80D8F80030E7
:1012000043F40033C8F8003025B3CA022CD48A0254
:1012100034D44A003CD4CA0F49D1090251D4C10781
:101220005AD1810763D441076CD4010776D4C10633
:1012300000F18080800607D504F12800022100F02B
:10124000E3FE002818BF0125002D18BF0125284600
:10125000BDE8F087D8F8283023F440731A43C8F863
:1012600028203546CA02D2D5D8F82420236F22F090
:1012700000421A43C8F824208A02CAD5D8F824208C
:10128000A36E22F080721A43C8F824204A00C2D507
:1012900058F81C2C22F4004248F81C2CD4F8B42036
:1012A00058F81C3C1A4348F81C2CCA0FB5D0D8F883
:1012B0002020636D22F040521A43C8F82020090212
:1012C000ADD5D8F82810D4F8882021F44001114376
:1012D000C8F82810C107A4D004F10800002100F0CC
:1012E000FFFD002818BF0546606881079BD504F103
:1012F0000800012100F0F4FD002818BF05466068D1
:10130000410792D504F10800022100F0E9FD002810
:1013100018BF0546606801077FF589AF04F1280012
:10132000002100F071FE002818BF05466068C10664
:101330007FF580AF04F12800012100F065FE002850
:1013400018BF0546606880067FF57EAF74E700BF72
:101350000125CA027FF55BAF86E700BFD4F8B00075
:101360004FF6CF7358F81C2CC0F2FF0300F4407105
:1013700022F47C5203EA10136FF31F30B1F5407F63
:1013800008BF1A43002548F81C2CD8F8441008431D
:10139000C8F84400FFF7CBBC2DE9F04381B000282A
:1013A00000F02A8142F200080446C5F2002889466E
:1013B000D8F8000000F00F0088420ED2D8F80000E4
:1013C00020F00F0040EA0900C8F80000D8F800003B
:1013D00000F00F00484540F00F81206844F21847A4
:1013E0004107C5F602070AD521693A6802F0700282
:1013F000914204D93A6822F0700211433960010722
:101400000AD561697A6802F07002914204D97A685B
:1014100022F0700211437960C1060AD5A1697A6889
:1014200002F4E062914204D97A6822F4E062114346
:10143000796081060AD5E169BA6802F070029142CA
:1014400004D9BA6822F070021143B96010F00201A9
:101450000AD0E2683B6803F00F039A4204D93B6864
:1014600023F00F031A433A60C20746D0386820F4CD
:101470007061D4E90102012841EA0201396009D012
:1014800003280DD0022811D157F8181C890340F108
:10149000B38010E057F8181CC90540F1AD800AE090
:1014A00057F8181C890140F1A78004E057F8181C70
:1014B000490740F1A18057F8081C21F007010843B3
:1014C00047F8080CFFF7D8F8064641F2883500BF08
:1014D00057F8080C616800F03800B0EBC10F09D074
:1014E000FFF7CAF8801BA842F2D9032001B0BDE87B
:1014F000F08300BF206800F0020151B1E1683A6852
:1015000002F00F02914204D23A6822F00F02114316
:101510003960D8F8001001F00F0149450DD9D8F80D
:10152000001021F00F0141EA0901C8F80010D8F8B5
:10153000001001F00F0149455ED141070AD521692C
:101540003A6802F07002914204D23A6822F07002C6
:101550001143396001070AD561697A6802F07002A7
:10156000914204D27A6822F0700211437960C10678
:101570000AD5A1697A6802F4E062914204D27A68DD
:1015800022F4E0621143796080060AD5E069B96807
:1015900001F07001884204D2B96821F0700108435B
:1015A000B86000F02DF8396842F23A533A68C0F654
:1015B0000003C1F3032102F00F02595C9A5C01F0B1
:1015C0001F0120FA01F102F01F0040F20C0221FA83
:1015D00000F0C2F20042106040F2040040F2080243
:1015E000C2F20040C2F200420068116001B0BDE8E2
:1015F000F043FFF78DB800BF012001B0BDE8F083D4
:1016000044F20041C5F602010869C0F3C200032894
:1016100010D002282ED098BB0868800649F200003E
:10162000C0F2D03058BF70470968C1F3C101C8404B
:10163000704700BF8A6A886AC0F3051CC86ABCF19B
:10164000000F4B6B22D000F0010002F00302404279
:10165000022A00EAD3006FF35F3000EE100AB8EE02
:10166000400A15D0C2B90868800619D49FED281A1F
:1016700023E000BF47F64000C0F27D10704700BF76
:1016800040F60010C0F23D00704700BF00207047D8
:101690009FED1E1A11E000BF9FED1B1A0DE000BF69
:1016A000086849F20002C0F2D032C0F3C10022FA49
:1016B00000F001EE100AB8EE411A086B9FED153AE2
:1016C0006FF35F2002EE100A086BC0F34620B8EEFD
:1016D000422A013000EE032A00EE10CAB7EE003AAB
:1016E000B8EE400A81EE000A32EE031A20EE010A3B
:1016F00001EE100AB8EE411A80EE010ABCEEC00AF3
:1017000010EE100A704700BF0024744A20BCBE4B84
:101710000024744C00000039F0B581B0002800F0BE
:10172000D5800446007844F20046C007C5F602069C
:1017300022D12078800768D5306910F03801B06A6E
:1017400042D0182908BF5FEA80703DD0E068316858
:10175000002800F0258121F0190108433060FEF7D0
:101760008BFF05463068400748D4FEF785FF401BD5
:101770000228F7D977E100BF306900F03801B06A7C
:10178000102905D018290BD100F00300022807D139
:1017900030688003CDD560680028CAD196E000BFCC
:1017A0006068002800F03281B0F5A02F00F046817B
:1017B000B0F5803F00F04681306820F48030306022
:1017C000306820F4802040E130684007E06801D5AF
:1017D00000287BD0316821F0190108433060FEF702
:1017E0004BFF05463068400708D4FEF745FF401B15
:1017F00002284FF00300F5D901B0F0BD70682169EF
:1018000020F0FE4040EA016070602078C00619D5E3
:10181000306900F03801B06A082906D0182940F074
:10182000818000F0030001287CD13068C00502D51A
:10183000E06980284AD1F068216A20F07C5040EAB3
:101840000160F0602078000744D42078800655D4E9
:101850002078400700F17E80656A9DB3306900F012
:101860003800182840F01481012DB16A306B2DD05A
:1018700001F00302A36A9A4228D1C1F30511E26A7A
:10188000914223D10146226B6FF35F21013A9142CD
:101890001CD1C0F34622616B01398A4216D1C0F3D4
:1018A0000642A16B01398A4210D1C0F30660E16B98
:1018B000013988420AD1706BA16CC0F3CC0081421F
:1018C00040F09C81002001B0F0BD00BF012001B0BC
:1018D000F0BD00BF60690028706F4FD040F001007C
:1018E0007067FEF7C9FE0546706F8007ADD4FEF73E
:1018F000C3FE401B0228F7D9B5E000BFA06900284D
:10190000306871D040F480503060FEF7B5FE054677
:10191000306880049CD4FEF7AFFE401B0228F7D944
:10192000A1E000BFE0690028306800F09F8040F02F
:1019300080003060FEF7A0FE054600BF3068C0059D
:101940003FF579AFFEF798FE401B02284FF00300E9
:10195000F4D951E7D6F8000440F48070C6F80004CA
:10196000FEF78AFE054600BFD6F80004C00529D45C
:10197000FEF782FE401B6428F6D974E020F00100D7
:101980007067FEF779FE0546706F80077FF55DAFE3
:10199000FEF772FE401B02284FF00300F4D92BE73C
:1019A00021F001003060FEF767FE05463068400711
:1019B0007FF52BAFFEF760FE401B02284FF00300BF
:1019C000F4D919E7A068002800F08480052800F009
:1019D0009B80012800F09C80306F20F00100306770
:1019E000306F20F0040096E020F480503060FEF765
:1019F00043FE0546306880047FF52AAFFEF73CFEC3
:101A0000401B02284FF00300F4D9F5E6306820F4BB
:101A100080303060306820F480203060FEF72CFE8B
:101A2000054600BF306880037FF583AEFEF724FED5
:101A3000401B64284FF00300F4D9DDE6306840F421
:101A400080203060306840F480303060FEF714FE53
:101A5000054600BF306880033FF56BAEFEF70CFE15
:101A6000401B6428F6D9032001B0F0BD20F08000AF
:101A70003060FEF701FE05463068C0057FF5E2AE36
:101A8000FEF7FAFD401B02284FF00300F4D9B3E63D
:101A9000306820F080703060FEF7EEFD022D0546C4
:101AA0000CD100BF3068800148D5FEF7E5FD401B32
:101AB00002284FF00300F5D99EE600BF3068800190
:101AC0007FF500AFFEF7D8FD401B02284FF0030062
:101AD000F4D991E6306F20F001003067306F20F0CC
:101AE00004003067FEF7C8FD054641F28837306FC5
:101AF00080077FF5B1AEFEF7BFFD401BB8424FF047
:101B00000300F4D978E600BF306F40F0040030677E
:101B1000306F40F001003067FEF7AEFD054641F240
:101B2000883700BF306F80073FF596AEFEF7A4FD03
:101B3000401BB8424FF00300F4D95DE604F12807DA
:101B4000B06A40F2F33188438ECF0843591E40EA11
:101B500002104FF47E426FF35F21B06202EB472028
:101B60004FF4FE0280B2E36B0844A16B02EB01412B
:101B70004FF0FE4201F4FE0102EB0362084402F062
:101B8000FE4108443063F06A4FF6F87120F001001E
:101B9000F062706BA26C884340EAC2007063F06A26
:101BA000216C20F00C000843F062F06A616C20F0B8
:101BB00002000843F062F06A40F48030F062F06A9C
:101BC00040F40030F062F06A40F48020F062F06A85
:101BD00040F00100F062306840F080703060FEF745
:101BE0004BFD0446306880013FF56CAEFEF744FDC6
:101BF000001B02284FF00300F4D9FDE5F06A20F045
:101C00000100F062FEF738FD0546FEF735FDA842FB
:101C1000FBD0706B4FF6F871A26C884340EAC200AB
:101C20007063F06A40F00100F062002001B0F0BD86
:101C30007047000000000000F0B581B00446007A53
:101C4000012803D10225284601B0F0BD01202072F1
:101C5000607A012808D10220607220680E46406830
:101C6000400605D400250FE001250420E06036E0A1
:101C70000820E060204600F05BFA0546012803D109
:101C80000125284601B0F0BDFEF7F6FC21684A6840
:101C9000D20713D1074602E04868C0070ED1FEF70D
:101CA000EBFCC01B21680328F6D34868C007F3D1BA
:101CB000012565720220E06011E000BF88682061A4
:101CC0004A68520602D4306007E000BF0820E06096
:101CD0004868012520F00100486001206072002062
:101CE0002072284601B0F0BDB0B5D8B30446407AA2
:101CF00020B900202072204600F062F802206072B5
:101D0000D4E90001026822F004020260026822F0B5
:101D10002002114341F08041016040F6BC21C1F234
:101D20005971016147F274210161016821F080411C
:101D30000160FEF7A1FC21680A68520014D408680B
:101D400040F0040008604868400621D4FEF794FC87
:101D50002168496849071FD4012060720020E060B3
:101D6000B0BD00BF0120B0BD054602E008684000DC
:101D7000E5D5FEF781FC401B21680328F6D30868EF
:101D80004000F3D5012060720221E160B0BD00BFC8
:101D9000042060720120B0BD054602E040684007A3
:101DA000DAD5FEF769FC401B03282068F6D34168AA
:101DB0004907F3D5042060720220E0600120B0BD25
:101DC00010B5B0B002A9044601F10800B021FEF739
:101DD000EDFA41F600012068C4F60201884201D004
:101DE00030B010BD002003904FF40030029002A8E4
:101DF000FEF77EFD08B1FEF747FB44F2DC40C5F676
:101E00000200016841F040010160006800F04000FC
:101E10000190019830B010BD411E0020B0EB116F51
:101E200002D00120704700BF4EF21002F023CEF224
:101E3000000251604EF62351CEF200010B700721D3
:101E40009060116070470000FEE700000000000095
:101E500083B044F2E040C5F60200016841F004019D
:101E60000160016801F0040102910299016841F0EA
:101E700080010160016801F0800101910199016810
:101E800041F001010160006800F00100009000983D
:101E900003B070470000000080B540F2700041F6CA
:101EA0000001C2F20040C4F602010160002141605D
:101EB000FFF71AFF002808BF80BDBDE88040FEF78D
:101EC000E3BA000000000000FEE700000000000090
:101ED000FEE7000000000000704700000000000066
:101EE000F0B581B044F22C47C5F6020757F8042C30
:101EF00002F00302032A03D1012001B0F0BD00BFAC
:101F0000054657F82C0C0C4620F0806047F82C0C46
:101F1000FEF7B2FB064600BF57F82C0C000105D5B2
:101F2000FEF7AAFB801B0228F6D964E057F8040CE0
:101F3000EE6895E80E0020F47C30012C40EA013078
:101F4000A2F101016FF35F214FF47E4202EB4322C5
:101F500047F8040C92B24FF0FE4302EB01004FF43D
:101F6000FE012A6901EB064101F4FE0103EB026266
:101F7000084402F0FE410844F8603868696920F0BE
:101F8000C00040EA010038603868A96920F02000EC
:101F900040EA0100386038684FF6F87120F0100010
:101FA00038603869EA6920EA01004FF4001140EA1C
:101FB000C2003861386808BF4FF4801140F010004B
:101FC000002C386008BF4FF400213868084338609F
:101FD00057F82C0C40F0806047F82C0CFEF74CFBB7
:101FE000044600BF57F82C0C000107D4FEF744FB51
:101FF000001B0328F6D3032001B0F0BD002001B080
:10200000F0BD000000000000F0B581B044F22C47A4
:10201000C5F6020757F8042C02F00302032A03D185
:10202000012001B0F0BD00BF054657F82C0C0C464E
:1020300020F0805047F82C0CFEF71EFB064600BF30
:1020400057F82C0C800005D5FEF716FB801B0228E4
:10205000F6D964E057F8040CEE6895E80E0020F01D
:102060007C70012C40EA0150A2F101016FF35F2165
:102070004FF47E4202EB432247F8040C92B24FF039
:10208000FE4302EB01004FF4FE012A6901EB064119
:1020900001F4FE0103EB0262084402F0FE41084431
:1020A00078613868696920F4406040EA010038606E
:1020B0003868A96920F4007040EA01003860386887
:1020C0004FF6F87120F480703860B869EA6920EA48
:1020D00001004FF0807140EAC200B861386808BF63
:1020E0004FF4000140F48070002C386008BF4FF4BA
:1020F000800138680843386057F82C0C40F0805055
:1021000047F82C0CFEF7B8FA044600BF57F82C0C21
:10211000800007D4FEF7B0FA001B0328F6D3032093
:1021200001B0F0BD002001B0F0BD000000000000D3
:1021300010B582B00021019101684A6852070BD4A2
:102140004A6822F040024A60C168002421F0080178
:10215000C160204602B010BD0A6842F080420A60A9
:102160000A6822F080420A6002220192019A013A32
:102170000192019A002A45D00A68520017D5019AA7
:10218000013A0192019AEAB30A6852000FD5019A06
:10219000013A0192019AAAB30A68520007D5019A3E
:1021A000013A0192019A6AB30A685200DED44A6881
:1021B000520603D54A6822F040024A600222019288
:1021C000019A013A0192019AE2B14A685207BBD5DD
:1021D000019A013A0192019AA2B14A685207B3D515
:1021E000019A013A0192019A62B14A685207ABD54D
:1021F000019A013A0192019A22B14A685207DFD44A
:10220000A2E700BF01244472C16841F00201C1602D
:1022100000210172FFF70CFD204602B010BD000046
:102220007047000000000000FEF72EBA000000001A
:10223000B0B59CB044F61804022000251195CDE9F4
:102240000F55CDE90D55CDE90B550895C5F602049E
:10225000CDE90655CDE90455CDE902550195FEF7C6
:102260001FFB0095206820F440402060206800F4A7
:102270004040009000982068800409D420688004C1
:102280005CBF20685FEA804002D420688004F2D5F9
:10229000212009904FF480300A9001200F902C22C9
:1022A0000221CDE915200C20199009A81491CDE93F
:1022B0001211CDE917110024CDE91A44FFF72CFAC9
:1022C00020B1EFF3108072B6FEE700BF3F2001900F
:1022D00003204FF48061CDE90204082004904020DF
:1022E000CDE90500CDE9071001A80321FFF754F857
:1022F00020B1EFF3108072B6FEE700BF1CB0B0BD96
:102300004EF6885042F2000CCEF20000C5F2002CCE
:10231000026842F470020260DCF8000000F00F0076
:10232000062806D8DCF80000072262F30300CCF888
:10233000000044F200404EF67F51C5F60200CEF692
:10234000F621026842F00102026000220261036885
:1023500019400160DCF80010090706D5DCF8001010
:10236000072363F30301CCF8001040F200218261DF
:10237000C261C0F20221026281620021C0F2FF113B
:10238000C16240F28021C0F20111016342638163A6
:10239000C26301644264016821F480210160026625
:1023A00044F20000C5F2002043F2D2010160704700
:1023B000FEE700000000000080B540F600004FF48A
:1023C0000051C5F60200FEF73FF90138B0FA80F07F
:1023D000400980BD0000000080B586B044F2E041B5
:1023E0000020C5F60201CDE904000A6842F00402AB
:1023F0000A60096801F00401009100994FF400514E
:10240000CDE901100220039040F6000001A9C5F6B5
:102410000200FEF741F806B080BD00000000000099
:1024200070B586B044F2E0400025C5F6020005957F
:1024300041F2000400220168C5F6020441F01001D7
:1024400001600068082100F010000090009820460C
:102450000826FEF709F9012001A9CDE90205204669
:1024600001960495FEF718F806B070BD0000000054
:1024700041F200000821C5F60200FEF7EDB80000A9
:1024800084B001200090FEF79BF9E84600200190FF
:1024900048F21F70029040F2011003904046FEF790
:1024A0005FF90420FEF79CF9FEF7FEF8FFF7C0FE87
:1024B000FFF7CEFCFFF7F0FCFFF78EFFFFF7B0FF52
:1024C000FEF7DAF800F1C805FEF7D6F840F2700919
:1024D00048F2B517C2F20049C1F64E374FF41674F0
:1024E00002E000BFAE420DD2FEF7C6F80646FFF787
:1024F00063FF0028F6D0AE42F6D306F1C805FFF719
:10250000B7FFF1E748464146FFF796FB0098A0FB6E
:102510000712910901FB14008519FFF7A9FFE3E7F2
:10252000F1EE100A4FF6FF71C0F2C03120EA01004F
:1025300040F04070E1EE100A704700000000010218
:1025400003040102030406070809000070250008BF
:102550000000002410000000080300088025000887
:10256000100000247806000024030008000000008A
:1025700001000000100000000090D0030090D00384
:04000005080002CD20
:00000001FF
