:020000040800F2
:10000000680B0024E1020008C3390008D131000860
:10001000C13900085D060008895200080000000090
:10002000000000000000000000000000BF4D0008BC
:100030005F06000800000000FB3E0008C14D0008FC
:10004000FB020008FB020008FB020008FB0200089C
:10005000FB020008FB020008FB020008FB0200088C
:10006000FB020008FB020008FB020008FB0200087C
:10007000FB020008FB020008FB020008FB0200086C
:10008000FB020008FB020008FB020008FB0200085C
:10009000FB020008FB020008FB020008FB0200084C
:1000A000FB020008FB020008FB020008FB0200083C
:1000B000FB020008FB020008FB020008FB0200082C
:1000C000FB020008FB020008FB020008FB0200081C
:1000D000FB020008FB020008FB020008FB0200080C
:1000E000FB020008FB02000800000000FB02000801
:1000F000FB020008FB020008FB020008FB020008EC
:10010000FB020008FB020008FB020008FB020008DB
:10011000FB020008FB020008FB020008FB020008CB
:10012000FB020008FB020008FB020008FB020008BB
:10013000FB020008FB020008FB020008FB020008AB
:1001400000000000000000000000000000000000AF
:10015000FB020008FB020008FB020008FB0200088B
:10016000FB020008FB020008FB020008FB0200087B
:10017000FB020008FB020008FB0200080000000070
:10018000FB020008FB020008FB020008FB0200085B
:10019000FB020008FB020008FB020008FB0200084B
:1001A000FB020008FB020008FB0200080000000040
:1001B000FB020008FB020008FB020008FB0200082B
:1001C000FB020008FB020008000000000000000025
:1001D0000000000000000000FB020008000000001A
:1001E000000000000000000000000000000000000F
:1001F0000000000000000000FB020008FB020008F5
:10020000FB020008FB02000800000000FB020008DF
:10021000FB020008FB020008FB020008FB020008CA
:10022000FB02000800000000FB02000800000000C4
:10023000FB020008FB02000800000000FB020008AF
:10024000FB020008FB020008FB020008FB0200089A
:10025000FB020008FB020008FB020008FB0200088A
:10026000FB020008FB020008FB020008FB0200087A
:10027000FB020008FB020008FB020008000000006F
:10028000FB020008FB020008FB020008FB0200085A
:1002900000000000FB020008FB0200080000000054
:1002A00000000000FB020008FB020008FB0200083F
:1002B000FB020008FB020008FB020008FB0200082A
:1002C000FB020008FB020008FB020008DFF80CD06C
:1002D00000F05CF80048004769540008680B0024EF
:1002E0000648804706480047FEE7FEE7FEE7FEE7D0
:1002F000FEE7FEE7FEE7FEE7FEE7FEE7814E0008C9
:10030000CD020008D2B201E000F8012B491EFBD259
:1003100070470022F6E710B513460A460446194610
:10032000FFF7F0FF204610BD2DE9F05F05460020E5
:1003300092469B4688460646814640241BE0284656
:1003400041464746224600F042F853465A46C01AF4
:10035000914110D311461846224600F029F82D1A73
:1003600067EB01084F4622460120002100F020F8EB
:1003700017EB00094E41201EA4F10104DFDC4846C2
:1003800031462A464346BDE8F09F0000064C074D23
:1003900006E0E06840F0010394E807009847103455
:1003A000AC42F6D3FFF796FF44CA000864CA0008BF
:1003B000202A04DB203A00FA02F100207047914025
:1003C000C2F1200320FA03F3194390407047202A1A
:1003D00004DB203A21FA02F00021704721FA02F3EF
:1003E000D040C2F1200291400843194670470000F6
:1003F00010B5044600682F4940F48070884214BF4D
:1004000095482D48006810F4403F0DD001F0B6FE2D
:100410006168B1F5803F05D0B1F5403F1FD0B1F51F
:10042000003F1DD1090C17E04FF40020002101F01E
:10043000B9F86168A1F580224FEAB2420A2A0FD8C2
:10044000DFE802F00606060606062E3032343600D5
:100450006FF0010202EA5141B0FBF1F000E08008C8
:100460001649884204D82068816821F4407107E069
:100470001349884206D820680122816862F3092165
:10048000816010BD21680F4B98428A6804D8022011
:1004900060F309228A6010BD42F44070886010BD8C
:1004A0000009DDE74009DBE78009D9E7C009D7E7A4
:1004B000000AD5E7002102400823024021BCBE000B
:1004C00041787D0181F0FA0270B50446006803F0BE
:1004D00009FB01D1002070BDC26892010CD5627E7B
:1004E000012A09D1227E012A06D11F49026852063B
:1004F00007D40139FAD133E0022905D102210826B7
:1005000010E04021016001218268520707D582680E
:10051000920704D482684E4B1A401032826004263F
:1005200001290DD08268120707D58268920704D48A
:100530008268474B1A4020328260032908BF0C268C
:1005400000F03AFE0546206880683042C2D000F0D4
:1005500033FE401B0628F6D3206880683042F2D074
:1005600003F030FA70BD00BF01DC0C00B0B50168CB
:1005700004468A688868C0074FF0000020D012F057
:1005800002021DD1886800F00D00012816D188688C
:100590002F4A1040023088600320086000F00CFEF3
:1005A000054620688068C0070BD000F005FE401BA0
:1005B0000328F6D320688068C007F2D003F002FA5F
:1005C000B0BD0020B0BD00BF2DE9F843044600686F
:1005D0008168C90724D11E4E816806F17F0211424D
:1005E00003D003F0EFF9BDE8F8838168314041F0B2
:1005F00001018160174800F5807800F54277814657
:1006000000F0DAFD054620681349404508BF394629
:10061000484508BF39460968404504D1C90602D09B
:100620000020BDE8F8830168C907F9D18168C907CE
:1006300004D18168314041F00101816000F0BCFDCE
:10064000411B20680329EED30168C907EBD1C8E735
:10065000C0FFFF7F0020024008630258FEE770479A
:10066000EFF3108072B6FEE77CB5044600200190DF
:1006700094F85C00012804BF02207CBD012084F8AE
:100680005C0016460D4603F01BFB216E10B141F0D5
:10069000100127E041F20212914305F48032144D1B
:1006A0000231216606F080410A4421688B682B40A4
:1006B0001A4402F100428A600E4A8B68B3F1FF3F90
:1006C0000CDC019B01330193019B9342F5D3206E17
:1006D00040F0100020F00201012003E0216E012211
:1006E00062F30101002284F85C2021667CBD00BF1A
:1006F000C0FFFE3F00F8C3252DE9FC47044600205B
:10070000019094F85C00012802D10220BDE8FC872A
:10071000012084F85C000D4620688168490700F1DB
:10072000C781E74AE74B29689042904699460ED028
:1007300091FAA1F21942B2FA82F208BF8A0E01239D
:1007400002F01F0203FA02F2C3691A43C2616A6827
:10075000890E1F2702F01F0301F01F01C2F30122BF
:100760009F40994000EB8202166BBE4331431163F8
:1007700003F0E6F916D12968AA6802F0ABFF2168F8
:10078000C246414510D0E348006800F07040B0F127
:10079000805F5FD1C8680E2202EA50006A6902FADF
:1007A00000FC63E0C246DEE0DAF80C002A69042AA5
:1007B00040F08780DAF860000E6E2B6813EA0900BB
:1007C000C3F3846293FAA3F3C6F38466B3FA83F3A4
:1007D0001F4608BF1746BE4207D1086ECC4620F020
:1007E000004008662B6803F02FF91E46002808BF5A
:1007F00016464F6E4F6EC7F38467B74207D1486EF7
:1008000020F0004048662B68484603F01DF91E465C
:10081000002808BF16468F6E8F6EC7F38467B742F5
:1008200007D1886E20F0004088662B68484603F0A8
:100830000BF9002808BF1346C86EC246C86EC0F345
:1008400084609842404640F08E80C86E20F00040A0
:10085000C86687E06869CB68CA685208DB064CBF87
:1008600002F0080202F00E0200FA02FC2A69604659
:10087000042A2ED128680A6E800602F0F8428242CD
:1008800003D10A6E22F000420A664A6E02F0F84274
:10089000824203D14A6E22F000424A668A6E02F01A
:1008A000F842824203D18A6E22F000428A66CA6E02
:1008B00002F0F84282423BD1C86E20F00040C86688
:1008C00036E006234FF0004C03EA90006B6903FA10
:1008D00000F02E6801F1600306F0F84653F822702C
:1008E000414518BF07F0004046EA0C06304343F884
:1008F0002200286941451DD053F8202095F8217029
:100900002E7EC24622F00042012F08BF02F10042B3
:1009100043F82020701E2A69B0FA80F002F01F020E
:100920004009C00290400A6922F4F0421043086175
:10093000084618E008F16002E969C24652F8203022
:1009400023F08073194342F82010286952F82010D0
:1009500095F8203021F00071012B08BF01F10071E2
:1009600042F8201050468168C90763D12968EA68B7
:10097000504509D001EA0903D0F8C0604F4603F0A2
:10098000EBF9C0F8C03008E001EA0903DAF8B0601A
:10099000CC4603F0E1F9CAF8B0305F4B9A4246D139
:1009A00011EA090F1DD091FAA1F1B1FA81F2511C9F
:1009B00001F01E03092B13461ED8013201F01F015E
:1009C000012602F01F0206FA01F14FF0806606EBE5
:1009D000836302EB420203F0F84343EA02521143FD
:1009E00021E00122C1F3846302EB916202F01E0652
:1009F0008A0E591C0A2EE0D30132484E01F01F0125
:100A000002F01F0202EB420206EB02524FF0806638
:100A100006EB836303F0F8431A43012303FA01F161
:100A2000114341F00071AA6802F054FE2968B1F147
:100A3000FF3F01DD00203DE0C8482268C84E00F5B8
:100A4000807342F480759A42534604BF42F2000319
:100A5000C4F20203824208BF1346B542D3F80833FA
:100A600011BFDAF808008568D0F808012843C007EC
:100A70001ED12B4803F0E075814208BF13F400003B
:100A800022D02848814208BF13F0807036D0002061
:100A9000254EB1420ED113F4800108BF524509D151
:100AA000DAF8080320F0E070284340F480002EE0DC
:100AB00003F081F9002184F85C10BDE8FC8700BFD9
:100AC00000600258FFFF0F005245B3D1DAF8080367
:100AD000A04920F0E070284340F40000CAF8080361
:100AE0009B480068B0FBF1F0022101EB400001904F
:100AF000019800289ED001980138F8E7524599D115
:100B0000DAF8080320F0E070284340F08070CAF85B
:100B100008038FE70010005C0000FF47000020FE84
:100B2000000052C7000021C3000084CB0068006CA5
:100B300070470000F8B50446002000909CB3206E7A
:100B400030B9204600F018F9002084F85C00606697
:100B50002068816889007D4902D582680A408260E8
:100B60008268D20012D401F1805182681140794A22
:100B700041F08051816076490968B1FBF2F10131A1
:100B80000091009911B100990139F9E78168C90014
:100B90000BD4216E012541F010012166616E41F0F8
:100BA0000101616602E00125CDE000258168226E29
:100BB00001F0040102F010028918216E2DD121F4F8
:100BC0008171023121668168C90763491DD140F4F2
:100BD0008073634EF64AB34211BF8B689368D2F8B4
:100BE00008613343DB0710D102F5807398420B464E
:100BF00008BF1346904208BF0346D3F8082366682F
:100C000022F47C123243C3F80823627EE36B8842ED
:100C100043EA423205D0A36815E041F010000125F7
:100C200090E0D4E90263082E05D00C2E05D01C2ECE
:100C300005D1102606E0002604E0082602E0182E62
:100C400018BF002633431A4394F82030012B42EAA0
:100C5000034204D1636A434E06EB43431A43A36A3B
:100C600023B1E66A03F4787333431A43884205D00C
:100C7000C3683D4E33401A43C2600AE0CB683B4E26
:100C800033401A43CA60626B0B6923F040631A4316
:100C90000A6102F027FF46D1227E44F20306920346
:100CA000884219BF236B1A4394F8383042EA430252
:100CB000C368B3431A43C26094F84420012A13D195
:100CC0002B4A884215D004F1480C9646294A9CE8E4
:100CD000C81002EB0342036903EA0E0333431A43CD
:100CE0003A4342EA0C0202E0026922F00102026188
:100CF0000EE004F148070B6903EA020C626DC8CFED
:100D000043EA0C0333433B431A4342F001020A61B6
:100D1000226C036923F070431A430261884202D0B7
:100D20002046FFF765FB20682269012A016B21F04C
:100D30000F0102D1E269013A114301630121206EE2
:100D400061F3010020662846F8BD00BFC0FFFF5FC9
:100D500008000024400D03000060025800200240FB
:100D6000002102400000FEFF03C0F0FF0740F0FF3B
:100D70001EF800FC0100FFFFB0B5B0B0044602A8A9
:100D8000B0210830FFF7C5FA164D216805F5D95096
:100D9000814225D1002003904FF4002002904FF4AF
:100DA00000302A9002A800F02FFD08B1FFF758FC90
:100DB00028684FF0806140F080702860286800F05B
:100DC000807001900198286840F00400286028682D
:100DD00000F00400019001984FF0806002F042F8AA
:100DE00030B0B0BDE04402582DE9F84F0446704BD6
:100DF0008B4600686F4903F5807A03F54272D4F898
:100E00001480504508BF1146984208BF11460A6831
:100E100002F01F09B8F1080F01D108270DE0B9F160
:100E2000090F5DD8012240F2212302FA09F21A4289
:100E300056D0C068C00757D1042700F0BDF9064658
:100E40000BF1010520680168394211D1002DF9D05C
:100E500000F0B2F9801B584502D8BBF1000FF1D168
:100E6000206800683842EDD103F00DF8BDE8F88F36
:100E7000216E41F400712166C16811F4406F0FD1F9
:100E8000617E69B9016809070AD5216E21F4807174
:100E90002166216EC90403D4216E41F0010121664F
:100EA0005045434B014618BF034683420BD0B9F16E
:100EB000090F07D8012140F2212201FA09F111425C
:100EC000014600D11946C968B8F1080F01D10821BF
:100ED00002E0490401D40C2101600020BDE8F88F34
:100EE000086810F4404FA7D002F065FFBDE8F88F06
:100EF000F8B52F4D044600682E4A05F5807605F5B5
:100F00004271B04208BF0A46A84208BF0A461768A5
:100F10008068400703D494F85C00012801D10220C6
:100F2000F8BD02F0F9FD18B1002184F85C10F8BD9D
:100F300002F0BAFE18BF0546854218BF002903D14A
:100F4000226E22F480122266226E0023D20444BF55
:100F5000636E23F006036366002284F85C201C2283
:100F60000260854208D0092915D8012202FA01F150
:100F700040F2212211420ED0C168890104D5216EB0
:100F8000012262F30D31216681680B4A1140043160
:100F900081600020F8BD206E40F480102066E86873
:100FA0008001F6D5206E012161F30D302066F0E757
:100FB0000020024008630258C0FFFF7F10B502F016
:100FC0007DFF04BF022010BD02F020FE20B902F018
:100FD00000FE08B902F0C7FD002184F85C1010BDC6
:100FE000B0B5044600F0E8F805469E48611C00785C
:100FF00018BF044400F0E0F8401BA042FAD3B0BD93
:101000002DE9FC4F5B4A0A244FF0000A4FF0000B19
:101010009042594A08BF092402444FEAB223082BE0
:1010200038BF4FEAB2240094012700220E6836FA36
:1010300002F500F09C8007FA02F916EA090E00F0AA
:1010400090800323D1F804C003FA0BF50CF00308D9
:10105000EE43A8F10105012D12D885685346D1F859
:101060000CA00AFA0BF435409A462C438460CCF36A
:1010700000144568944025EA09052C43446005E0C6
:10108000B8F1030F02D14FF0030820E0C4688D6867
:10109000344005FA0BF52C43C460B8F1020F16D1A9
:1010A0000AF01C040F2303FA04FC6FF0030303EAA5
:1010B000520303441D6A25EA0C0C0D6905FA04F479
:1010C00044EA0C041C62D1F804C00CF00308046864
:1010D00008FA0BF33440234303601CF4403F40D034
:1010E000894C274E236843F00203236023680F24B2
:1010F00003F002030193019D0AF00C0322F00305A3
:101100009C40AF5927EA0404009F07FA03F32343E6
:10111000AB514FF0B04633684D6843EA0E04EF021E
:1011200058BF23EA0E043460144EAF02336843EA1A
:101130000E0458BF23EA0E043460AF03D6F88030A3
:101140004FF0010743EA0E0458BF23EA0E04C6F825
:101150008040ED03F36F43EA0E0458BF23EA0E0408
:10116000F4670AF1040A0BF1020B01325EE7BDE8F5
:10117000FC8F00BF002402580000FEA704000058A6
:10118000080400580069084018BF012070474269F0
:1011900002EA0103914341EA034181617047002A59
:1011A00008BF090481617047024800686FF31F306F
:1011B000704700BF0010005C05480068704700BF22
:1011C0002848034900780A6810440860704700BF47
:1011D0006007002480B5032000F0BEF800F0FAFF9D
:1011E0000E497F4B0A68096801F00F01C2F3032220
:1011F000595C9A5C01F01F0102F01F02D0401A4AAC
:101200001060C840064908600F2000F00BF808B1D4
:10121000012080BD00F06AF8002080BD184402580B
:101220000C00002470B50F4E04463078B0B14FF476
:101230007A71B1FBF0F00C490968B1FBF0F001F0F4
:101240001BFE01250F2C0AD848B94FF0FF3021466C
:101250000022002500F05AF8746000E001252846BD
:1012600070BD00BF0000002408000024027811496E
:1012700043780B60D2B143684B60037B42EA037250
:10128000C37A42EA0362837A42EAC342437B42EA78
:101290008342837B42EA4342C37B42EA0342437A6E
:1012A000007A42EA032242EA400001E0002048605E
:1012B0008860704798ED00E00B48BFF35F8F0168CE
:1012C00021F480310160002101677047064940F038
:1012D00001000867086840F480300860BFF34F8F52
:1012E000BFF36F8F704700BF24ED00E081B0064868
:1012F000016841F002010160006800F00200009006
:10130000009801B0704700BFF4440258F0B5184B84
:101310004FF0FF361C68C4F30224E51E84F0070476
:1013200038BF002506FA05F7BA43042C28BF042469
:1013300006FA04F4A14300F00F04A940043C114351
:10134000044A234409010244002848BF03F10C0267
:101350001170F0BD00E400E005494FF6FF030A6894
:101360001A4060F30A22034810430860704700BF28
:101370000CED00E00000FA05B0B50F4D2A682968B1
:10138000520705D401F00701081A18BF0120B0BDAB
:1013900021F00701084302F06CFB044655F8080CE5
:1013A000800406D4FFF708FF02F030FBF6D90120D5
:1013B000B0BD0020B0BD00BF0C4802580248016813
:1013C00041F48071016070470048025880B500F018
:1013D000D5FE0249024A02F0EFBB00BF204402588A
:1013E000645B0008B0B51F498B6A8A6ACD6A4C6B92
:1013F000C2F3051292B105F0010503F003036D423B
:1014000005EAD40402F0B7FB0CD0012B0DD013B9C0
:101410000B689B060CD49FED161A13E00021C0E95F
:1014200000111DE09FED111A0CE09FED0F1A09E06D
:101430000B68104CC3F3C10324FA03F301EE103A16
:10144000B8EE411A0B6B9FED0C3A02F0F9FC0A6BF7
:1014500002F0C5FA0A6B02F08DFC096B02F067FC22
:101460008160B0BD004402580024744A20BCBE4BC9
:101470000024744C0090D00300000039B0B51E4920
:101480008B6A8A6ACC6ACD6BC2F30532D2B1E406AC
:10149000ED0803F0030305EAE47402F06CFB15D0D9
:1014A000BBB90B689B0651BF9FED161A0B68C3F3BF
:1014B000C103154C42BF24FA03F301EE103AB8EE13
:1014C000411A08E00021C0E9001112E09FED0C1A5A
:1014D00001E09FED0A1A8B6B9FED0C3A02F0B0FC15
:1014E0008A6B02F07CFA8A6B02F044FC896B02F092
:1014F0001EFC8160B0BD00BF004402580024744A45
:1015000020BCBE4B0024744C0090D0030000003976
:10151000B0B51E498B6A8A6ACC6A4D6CC2F305521B
:10152000D2B1E405ED0803F0030305EAE47402F028
:1015300022FB15D0BBB90B689B0651BF9FED161A55
:101540000B68C3F3C103154C42BF24FA03F301EE49
:10155000103AB8EE411A08E00021C0E9001112E08B
:101560009FED0C1A01E09FED0A1A0B6C9FED0C3AEF
:1015700002F066FC0A6C02F032FA0A6C02F0FAFB26
:10158000096C02F0D4FB8160B0BD00BF004402587A
:101590000024744A20BCBE4B0024744C0090D0033D
:1015A00000000039F8B580F400220A435DD080F4D1
:1015B00080620A4300F06A8080F400620A4300F00F
:1015C000728080F480520A4325D080F400520A438E
:1015D0002ED080F480420A4300F0748080F40042F0
:1015E0000A4300F07F8080F480320A4330D080F4D8
:1015F0008070084340F0E0807E49086D00F00702EB
:10160000042A00F2D9807F48DFE812F05A007C00FB
:101610008300D7008B007749086DC0F30232042A9B
:1016200000F2CA807748DFE802F04B6D74C87C0096
:101630007048016DC1F30241052900F2BD80DFE869
:1016400001F003878E959C5DBDE88F4000F0B4BD2E
:101650006848C16C0068C90340F1AC80000140F1EA
:10166000AB8001A8FFF70AFFA1E06248816D01F499
:101670004031B1F5003F00F08680B1F5803F00F0C9
:101680009080002940F0988000683CE05949886DBE
:10169000C0F34252042A00F28F805A48DFE802F079
:1016A0001032398D41005349886DC0F30262042A1B
:1016B00000F282805348DFE802F003252C803400DA
:1016C000086877E04B48816DC1F30271052900F28B
:1016D0007380DFE801F0033D444B5213BDE88F40B7
:1016E000FFF774BE4348016D01F04051B1F1005F56
:1016F0002ED0B1F1805F5CD000295DD100683E49F9
:1017000080033DE00868000156D501A8FFF7B6FE4A
:1017100005E0086880004FD501A8FFF7F9FE0198A1
:101720004BE0C86C0B680A6800F040505B0700D5BE
:1017300088B3D20502D5B0F1805F4AD00022B0F163
:10174000005F04BF47F64002C0F27D1208684BE01C
:101750000068000130D501A8FFF790FE32E0006874
:10176000800029D501A8FFF7D3FE2BE001684907C7
:1017700022D50068C0F3C1000FE000681F49C00512
:1017800001EAE07019E0C16C0368026801F04051A1
:101790005B0719D5C1B9C2F3C100194921FA00F09C
:1017A0000BE00068800007D501A8FFF7B1FE0398A1
:1017B00003E00068800102D4002004B080BD01A8CD
:1017C000FFF710FE0298F8E7D20504D5B1F1805F6B
:1017D00001D10A48F1E70022B1F1005F04BF47F6EA
:1017E0004002C0F27D12006810F4003018BF1046AD
:1017F000E3E700BF0044025840787D0100093D0046
:101800000090D0030080BB002DE9F0470446C0786B
:10181000A74F00071CD5606E4FEA3051032908D846
:10182000DFE801F002090C11F96941F40031F961B6
:1018300009E001260DE002F075F901E002F0F5F98A
:10184000064630B9606E396C21F4401108433864A3
:1018500000266078BA46C00701D1354621E0A06D68
:1018600004280BD83546DFE800F0030C0F121200F5
:10187000F869354640F40030F86108E00125012799
:1018800010E002F028FA01E002F034F905462F4694
:1018900045B9A06D02F0A0F921F007010843CAF88C
:1018A000400037466078400720D5D4F8A4004FEABE
:1018B0007050052807D8DFE800F003090C0F0F0F60
:1018C00002F0CFF808E00125012610E002F003FA4B
:1018D00001E002F00FF905462E4645B9D4F8A40000
:1018E00002F036F921F4600102F055F93E466078C5
:1018F000000720D5D4F8A8004FEA3060052807D8A3
:10190000DFE800F003090C0F0F0F02F0AAF808E05F
:101910000125012710E002F0DEF901E002F0EAF80B
:1019200005462F4645B9D4F8A80002F011F921F078
:10193000E06102F030F93746E07880071DD5E06CB1
:101940004FEA3010032806D8DFE800F00B02080B3E
:1019500002F087F805E0012501260FE002F0E2F829
:1019600005462E4655B9E06CDAF83C100025524683
:1019700021F030010843CAF83C003E466078C006BA
:101980001FD5E06D4FEA3030042807D8DFE800F0BB
:1019900003090C0F0F0002F064F808E0012501278D
:1019A00010E002F098F901E002F0A4F805462F4695
:1019B00045B9E06D02F010F921F4E0410843CAF89E
:1019C00040003746607880061CD5206E4FEA3040D4
:1019D000052807D8DFE800F00C03090C0C0C02F016
:1019E00072FA04E0012501260DE002F055FA0546E1
:1019F0002E4645B9206E02F0EFF821F4E0210843AD
:101A0000CAF840003E46607840061DD5D4F8AC00C8
:101A10004FEA3070052807D8DFE800F00C03090C06
:101A20000C0C02F050FA04E0012501270DE002F051
:101A300033FA05462F4645B9D4F8AC0002F088F8D1
:101A400021F0E04102F0A7F837466078000617D58C
:101A5000E06E58B1B0F1005F05D0B0F1805F23D1E6
:101A600001F0FFFF02E002F02EFA05462E4645B9CE
:101A7000E06E02F0B1F821F040510843CAF840008E
:101A80003E46E078C00702D1B046574623E0A06C3E
:101A9000574603280ED8DFE800F014021114F86945
:101AA00040F40030F8610CE001250126E9E700BFB1
:101AB0001044025801254FF001080CE002F032F802
:101AC0000546A8463DB9A06CF96B0025B04621F04B
:101AD00003010843F863A078400601D4474616E0A6
:101AE000D7F8F00340F48070C7F8F003FFF764FB09
:101AF0000646D7F8F003C00507D4FFF75DFB801B4F
:101B00006428F6D90325032701E02F467DB120780C
:101B1000C00746D0A06F4FEAF000052832D8DFE8B2
:101B200000F037033437373702F0CDF92FE0DAF819
:101B30006010D4F8B0005546414011F4407F0BD0FE
:101B4000296E2A6E42F480322A6621F440712A6E90
:101B500022F480322A662966B0F5807F40F0EF815A
:101B6000FFF72AFB064641F288390327DAF86000BE
:101B7000800700F1E181FFF71FFB801B032548452B
:101B8000F4D9C4E7012501260CE002F085F90546E9
:101B90002E463DB9A06F02F029F821F0380102F07D
:101BA00031F83E462078800719D5606F052807D8A0
:101BB000DFE800F00C03090C0C0C02F084F904E0DF
:101BC000012501270CE002F067F905462F463DB9D3
:101BD000606F02F00BF821F0070102F013F83746AE
:101BE000207840071BD5D4F89000052807D8DFE8F7
:101BF00000F00C03090C0C0C02F065F904E001255F
:101C000001260DE002F048F905462E4645B9D4F804
:101C1000900001F09DFF21F0070101F0BCFF3E465E
:101C2000207880061DD5D4F88C004FEA3070052846
:101C300007D8DFE800F00C03090C0C0C02F04BF89D
:101C400004E0012501270DE001F0EFFF05462F46D6
:101C500045B9D4F88C0001F0C9FF21F0E04101F052
:101C6000D1FF3746207840061DD5D4F898004FEABA
:101C7000B020052807D8DFE800F00C03090C0C0C95
:101C800002F029F804E0012501260DE001F0CDFF66
:101C900005462E4645B9D4F8980001F059FF21F4C5
:101CA000E05101F078FF3E46207800061DD5D4F8BB
:101CB0009C004FEA7030052807D8DFE800F00C03DD
:101CC000090C0C0C02F007F804E0012501270DE0D7
:101CD00001F0ABFF05462F4645B9D4F89C0001F052
:101CE00037FF21F4604101F056FF374620680107B5
:101CF00013D5D4F88000B0F5805F06D101F095FFD0
:101D0000002818BF0127D4F88000DAF844105246A2
:101D100021F4405101F076FF2068C10613D5D4F8B4
:101D20009400B0F5807F06D101F07FFF002818BF36
:101D30000127D4F89400DAF84810524621F4407193
:101D400001F029FF2068000318D5D4F8A000B0F5F1
:101D5000003F09D0B0F5803F03D010BB01F0BBFFBE
:101D600001E001F062FF05462E4645B9D4F8A00017
:101D700001F0EEFE21F4403101F00DFF3E46A07867
:101D800040071ED5D4F88400B0F5401F0FD0B0F541
:101D9000001F09D0B0F5801F40F0C98001F061FE3E
:101DA00005E001250126EAE702F076F805462F4610
:101DB00045B9D4F8840001F019FF21F4401101F075
:101DC00021FF3746A078C00701D13E4619E0206DBB
:101DD000B0F5803F03D090B901F043FE02E001F07E
:101DE000A1FE05462E4665B9206DDAF83C100025A7
:101DF000524621F480310843CAF83C00E5E701254A
:101E000001262168880001D4606806E001F00DFF1A
:101E1000002818BF0126D4E900108A0319D5E26F03
:101E20006FF0010303EB3223022B0AD34FEA322374
:101E30003BB1012B7ED1DAF81C3043F40033CAF8F1
:101E40001C303DB9DAF8443023F440731A43CAF821
:101E500044203546CA0207D5226FDAF8403023F015
:101E600000431A43CAF840208A0207D5A26EDAF866
:101E7000403023F080731A43CAF840204A000CD542
:101E8000DAF8002022F40042CAF80020D4F8B42086
:101E9000DAF800301A43CAF80020CA0F07D0626D82
:101EA000DAF83C3023F040531A43CAF83C200902C8
:101EB00008D5D4F88810DAF8442022F440021143FF
:101EC000CAF84410C10705D001F005FF002818BF6B
:101ED00005466068810705D501F0F5FF002818BFA9
:101EE00005466068410705D501F01CFE002818BFB3
:101EF00005466068010705D501F0FCFD002818BF04
:101F000005466068C10605D501F0C6FF002818BF68
:101F100005466068800604D501F087FE002818BFDA
:101F20000125002D18BF01252846BDE8F0870125B1
:101F3000012747E701258DE75546D4F8B0002A6808
:101F4000094900F4407322F47C5201EA1011B3F500
:101F5000407F6FF31F3008BF0A432A60296E084391
:101F600028660025BAE500BFCFFFFF002DE9F84342
:101F7000002800F0FB807F4D04468846286800F06A
:101F80000F0088420BD2286820F00F0040EA0800BA
:101F90002860286800F00F00404540F0E780206886
:101FA000C24F410709D52169BA6901F0BCFE04D9C5
:101FB000BA6922F070021143B961010709D561695C
:101FC000FA6901F0B0FE04D9FA6922F070021143F7
:101FD000F961C1060AD5A169FA6902F4E062914289
:101FE00004D9FA6922F4E0621143F961810609D546
:101FF000E1693A6A01F097FE04D93A6A22F0700268
:102000001143396210F002010AD0E268BB6903F0A3
:102010000F039A4204D9BB6923F00F031A43BA6134
:10202000C2073AD0D4E90101BA6922F470621143BF
:10203000B961012807D0032809D002280BD13968DB
:1020400089030CD492E03968C90508D48EE0396858
:10205000890104D48AE03968490740F187803969E9
:10206000A94621F0070108433861FFF7A5F80646A5
:1020700041F288356068396901F03801B1EBC00F71
:1020800007D0FFF799F8801BA842F3D90320BDE8D9
:10209000F88320684D4600F0020151B1E168BA6949
:1020A00002F00F02914204D2BA6922F00F021143EA
:1020B000B961296801F00F0141450AD9296821F069
:1020C0000F0141EA08012960296801F00F0141452B
:1020D0004CD1410709D52169BA6901F024FE04D227
:1020E000BA6922F070021143B961010709D561692B
:1020F000FA6901F018FE04D2FA6922F07002114365
:10210000F961C1060AD5A169FA6902F4E062914257
:1021100004D2FA6922F4E0621143F96180060AD51B
:10212000E069396A01F07001884204D2396A21F00D
:1021300070010843386200F04DF8B969244A1C4B1D
:10214000C1F30321515C01F01F01C840B969186057
:1021500001F00F01515C01F01F01C84015490860F2
:1021600005480068BDE8F843FFF75CB80120BDE80A
:10217000F88300BF002000520400002480B500F066
:1021800029F80A49124B0A68096801F00F01C2F3E5
:102190000322595C9A5C01F01F0102F01F02D0403B
:1021A000034A1060C8400349086080BD18440258C3
:1021B000080000240C00002480B5FFF7DFFF03496E
:1021C000034A0968C1F3021101F0CFBD1C44025853
:1021D000645B000810B535490869C0F3C2000328E4
:1021E0000FD0022804BF334810BD40B908688006EC
:1021F00034485AD50968C1F3C101C84010BD2C4804
:1022000010BD8A6A886ACC6A4B6BC0F3051000B3B4
:1022100004F0010402F00302644204EAD303022A38
:102220006FF35F3300EE103AB8EE400A13D0AAB94C
:102230000A68920651BF9FED221A0A68C2F3C102D2
:10224000204B42BF23FA02F201EE102AB8EE411AE7
:1022500006E0002010BD9FED191A01E09FED161A4F
:102260000A6B9FED193A6FF35F2202EE102AB8EE67
:10227000422A00EE032AB7EE000A32EE000A02EE0E
:10228000100A086BC0F34620B8EE422A013081EEF6
:10229000021A21EE000A01EE100AB8EE411A80EE91
:1022A000010ABCEEC00A10EE100A10BD004402582C
:1022B00000093D0040787D010024744A20BCBE4BDB
:1022C0000024744C0090D00300000039F8B50028B9
:1022D00000F0DC8004460078D74EC0071FD120787C
:1022E00080075CD5306910F03801B06A39D0182900
:1022F00001D1800735D03068E168002900F02481E1
:1023000020F01900084301F067FB054630684007DC
:102310003ED4FEF751FF401B0228F7D95FE1306938
:1023200000F03801B06A102905D018290AD100F050
:102330000300022806D130688003D0D560680028E9
:10234000CDD1A3E06068002800F02681B0F5A02F71
:1023500000F03281B0F5803F00F0328101F05DFC89
:1023600031E1E0683168490702D5002800F08E802D
:10237000316821F01901084301F02EFB0546306851
:10238000400705D4FEF718FF01F067FBF7D9F8BD49
:102390002069716821F0FE4141EA00607060207898
:1023A000C0061AD5306900F03801B06A082907D094
:1023B000182940F0938000F00300012840F08E803F
:1023C0003068C00502D5E06980285FD1206AF168D5
:1023D00021F07C5141EA0060F0602078000757D47A
:1023E0002078800667D42078400700F18A80676AE9
:1023F000002F49D0306900F03800182840F00081E3
:10240000B16A306B012F41D0A26A01F003039342FD
:102410003CD1E26AC1F30511914237D10146226BEA
:102420006FF35F21013A914230D1626BC0F34621D4
:10243000013A91422AD1A26BC0F30641013A91427E
:1024400024D1E16BC0F30660013988421ED1A06C33
:10245000716BC1F3CC01884216D0F06A20F0010004
:10246000F062FEF7A9FE0546FEF7A6FEA842FBD0E5
:10247000706B4FF6F8718843A16C40EAC10070633D
:10248000F06A40F00100F0620020F8BD0120F8BDC4
:10249000706F6169002947D040F001007067FEF756
:1024A0008BFE0546706F80079AD4FEF785FE401BB1
:1024B0000228F7D993E03068A16900295DD040F483
:1024C000805001F089FA0546306880043FF58BAFF3
:1024D000FEF772FE401B0228F6D980E03068E16901
:1024E00000297ED040F0800001F076FA0546306881
:1024F000C0053FF56BAFFEF75FFE01F0AEFAF6D90F
:1025000045E7D6F8000440F48070C6F80004FEF7F2
:1025100053FE0546D6F80004C00524D4FEF74CFE51
:10252000401B6428F6D95AE020F001007067FEF7DE
:1025300043FE0546706F80077FF552AFFEF73CFE05
:1025400001F08BFAF6D922E720F0010001F044FAFD
:102550000546306840077FF522AFFEF72DFE01F0FB
:102560007CFAF6D913E7A068002867D0052878D050
:1025700001287AD001F0A7FB7AE020F4805001F026
:102580002BFA0546306880047FF52DAFFEF714FE68
:1025900001F063FAF6D9FAE601F03FFB01F01CFA0C
:1025A0000546306880037FF59AAEFEF705FE411BB5
:1025B00003206429F5D9EAE6306840F480203060D1
:1025C000306840F4803001F007FA05463068800337
:1025D0003FF585AEFEF7F0FD401B6428F6D90320D9
:1025E000F8BD20F0800001F0F7F905463068C0051D
:1025F0007FF5F3AEFEF7E0FD01F02FFAF6D9C6E65F
:10260000306820F0807001F0E7F90546022F08D10C
:10261000306880013DD5FEF7CFFD01F01EFAF7D9F5
:10262000B5E6306880017FF52FAFFEF7C5FD01F0FC
:1026300014FAF6D9ABE600BF0044025801F043FBA0
:102640003067FEF7B9FD054641F28837306F8007E5
:102650007FF5CDAEFEF7B0FD411B0320B942F5D9A1
:1026600095E6306F40F004003067306F40F00100B5
:102670003067FEF7A1FD054641F28837306F8007CD
:102680003FF5B5AEFEF798FD411B0320B942F5D9E1
:102690007DE604F12805B06A40F2F33188432ECD7F
:1026A0000843591E40EA0210B0626FF35F214FF4F5
:1026B000FE024FF47E4000EB452080B20844A16B3F
:1026C00002EB01414FF0FE4201F4FE010844E16BD0
:1026D00002EB016101F0FE41084430634FF6F871EE
:1026E000F06A20F00100F062706B8843A16C40EA50
:1026F000C1007063206CF16A21F00C010843F062A4
:10270000F06A616C20F002000843F062F06A40F465
:102710008030F062F06A40F40030F062F06A40F419
:102720008020F062F06A40F00100F062306840F012
:10273000807001F051F90446306880013FF5A4AE85
:10274000FEF73AFD011B03200229F5D91FE6000020
:1027500070B560B3044690F8210028B9002084F8D1
:102760002000204600F038F8022084F8210020687C
:10277000C168C9062AD4CA21416201F05BFA90B946
:1027800094E80F00134E856835408560256929431C
:10279000A569294385682943816043EA02410161B3
:1027A00001F0F1F928B12168FF224A6270BD0120D1
:1027B00070BD20686169E2691143C36C23F00303B3
:1027C000C364C26C1143C164FF21416201F0E7F9A7
:1027D00070BD00BFBFFF8FFF10B5AEB004466846A6
:1027E000B0210830FDF795FD20680C49884212D1D0
:1027F000002001904FF4800000904FF480702C90E6
:102800006846FFF701F808B1FDF72AFF04480168A0
:1028100041F4004101602EB010BD00BF00400058DF
:10282000704402582DE9F04101F026F941D084F8B6
:102830002100012084F820004AB16978EB782878DB
:10284000AA780902460341EA03418D1816E06E7822
:10285000F00604D506F0EF0000F10A066E70E87885
:10286000DFF8FC80C04707463046C047000240EA18
:102870000746A878C0470644287845032068CA213F
:10288000416201F0D7F918B12168FF224A620DE0D8
:1028900045EA0600216820F0C000486001F073F9A5
:1028A000FF2221684A6208B901F079F9002184F811
:1028B0002010BDE8F08100BF2DE9F04101F0DCF807
:1028C0004BD084F82100CA211646206841620121BC
:1028D00084F8201001F0AEF918B12168FF224A6295
:1028E00038E02768B86800F040001EB198B90020B1
:1028F000E87012E008B90020E8702878DFF86080FE
:10290000C04706466878C04701F0E2FAE9783044EB
:1029100040EA815009E0E87880056A782978AB7848
:10292000120242EA0141194408430E490840386046
:10293000B86820F48020B860D5E903010843B9687D
:102940000843B86001F01FF9FF2221684A6208B904
:1029500001F025F9002184F82010BDE8F08100BFC6
:10296000B14000087F7F7F00B0B504460068094988
:10297000C160FEF721FC05462068C068800606D4C9
:10298000FEF71AFC01F036FAF6D90320B0BD00209C
:10299000B0BD00BF5FFF03002DE9F84348B3044614
:1029A00000205D4AA0622068904208D05B498842BE
:1029B00005D05B49884202D0E1680F2919D8E16847
:1029C000E36B0125083105EB5313C90859439042C5
:1029D0000DD0534A90420AD0504A904218BF08295D
:1029E00007D802F57443984218BF904204D11029C9
:1029F00002D90120BDE8F88394F8810020B901F0E4
:102A0000FAF8204600F08EF8022084F88100D4E91C
:102A10000009D4F81880B8F1806F036823F001032F
:102A20000360836803F4F81E12D1B9F1000F07D0D8
:102A3000B9F5800F0CD1A56B35B14FF480090DE0CD
:102A4000A56BB5F1805F64D1056845F480550560DC
:102A50005FEA492502D44FF0010C0DE0E668072E2D
:102A600008D3256D07684FF0000C27F480773D43AD
:102A7000056006E04FF0000C066826F480760660DC
:102A8000E668E269A16AA768D4E9045342EA0E0243
:102A90001143E26B114331438160616A626B114300
:102AA000A26B1143226A294319431143D4E912232B
:102AB000194339431143A26D114341EA0801B9F1A9
:102AC000000F41EA0901C1600DD0016DBCF1000F9A
:102AD00021F00101016514D1616DC26822F000424C
:102AE0001143C1600DE08168012262F3CC21816055
:102AF0000222816862F34A218160016D21F00101A7
:102B000001650020C4F88400012184F88110BDE82B
:102B1000F8834FF000099EE700380040003C004079
:102B20000030014010B5B6B0044602A8B02108300C
:102B3000FDF7EFFB2068184988422AD14FF4005076
:102B400000240394029002A8FEF75EFE08B1FDF790
:102B500087FD1248016941F400510161016901F4E6
:102B6000005131913199016841F010010160006814
:102B700000F010000190CDE933440520359002208B
:102B800032904FF4A0403190019831A90448FEF7EB
:102B900037FA36B010BD00BF00340140E04402589F
:102BA000001002582DE9F84301F0F3F825D0012078
:102BB0001D4617460E4600F0A2FF01F0A1F81AD1FB
:102BC000F6B1EFB1042000F0B2FFA4F86A70A4F8E7
:102BD00068706666A4F86000E065C4E91C00A4F8AB
:102BE0006200A1682068B1F5C02F0DD1016821F401
:102BF000006101600DE000F0FEFF0220BDE8F883F7
:102C000001F032F8BDE8F883C168022262F3524154
:102C1000C16001F0F3F801D101F043F9E068102838
:102C20001ED348F208066F1CB4F86A00002847D08B
:102C300020684169314206D0006B616E01C1616656
:102C400000F0FDFFF0E7FEF7B7FA002FECD001F03F
:102C500010F8E9D300F0A8FF00F0DCFEBDE8F8832F
:102C60006E1C072817D9B4F86A0048B32068406979
:102C7000C00707D1FEF7A0FA002EF4D000F0F9FF4C
:102C8000F1D3E7E7B9F83000616E21F8020B616615
:102C900000F0D5FFE7E7B4F86A0088B12068416921
:102CA000C90707D1FEF788FA002EF4D000F0E1FF43
:102CB000F1D3CFE700F0E5FF606600F0C0FFEAE780
:102CC00000F072FF01F00CF818BF0120BDE8F88396
:102CD0002DE9F04701F05DF825D001201D4617468B
:102CE0000E4600F00CFF01F00BF81AD1F6B1EFB16F
:102CF000032000F01CFFA4F86270A4F86070E66581
:102D0000A4F868006066C4E91C00A4F86A00A16821
:102D10002068B1F5C02F0DD1016841F40061016058
:102D20000DE000F068FF0220BDE8F08700F09CFF96
:102D3000BDE8F087C168012262F35241C16001F031
:102D40005DF801D101F0ADF8E068102819D36E1CD0
:102D5000B4F8620000286FD000F08FFF07D4FEF7B0
:102D60002BFA002EF4D000F084FFF1D374E0E16D73
:102D700004C90262E165B4F862000138A4F8620097
:102D8000E6E7072824D900F0C0FFB4F86200002865
:102D900052D000F072FF07D4FEF70EFA002EF4D0E6
:102DA00000F067FFF1D357E0B4F86210022906D3B0
:102DB000E16B21B1E16D04C90262504605E0E16DAD
:102DC00031F8020BA9F82000384600F0A5FFDCE737
:102DD00000F09BFFB4F8620070B300F04EFF07D420
:102DE000FEF7EAF9002EF5D000F043FFF2D333E00E
:102DF000B4F86210042908D3E16B412905D3E16DD1
:102E000004C902624FF6FC7013E0B4F862100229A4
:102E100008D3E16B31B1E16D31F8020BA9F8200064
:102E2000504606E0E16D097880F82010E06D411C05
:102E3000384600F071FFCDE720462946424601F0B2
:102E4000E9F908B100F029FF00F0AEFE00F048FFFC
:102E500018BF0120BDE8F08700F0A6FE00F0DAFD03
:102E6000BDE8F087034A136823EA000008431060B6
:102E7000704700BF04040058411E0020B0EB116FE2
:102E800001D001207047044AF023516003490B70C0
:102E9000906007211160704710E000E023ED00E032
:102EA000F0B590F83C20012A01D1022140E091E8E0
:102EB0003C00204E25F47C5524F47054334022F419
:102EC00077222C43704D23431A430B6923F4762356
:102ED0001A434B691A430B6B22F4742223F47023B8
:102EE0001A438B6942EA0343026842F48064AC42AD
:102EF00002BF23F08053CE693343AC4214D1AE46B7
:102F00008D6A0D4FD1E9086C23F07C7307EA0555F3
:102F10002B4326F000752B4343EA0C03744502BF94
:102F200023F00053C96A0B43002180F83C1053641E
:102F30000846F0BDFF87F0FF0000F0FC70B590F888
:102F40003C300222012B32D080F83D204E4C0268EA
:102F500042F4806655689368A64202BF25F4700566
:102F60004E6835430E6825F0700535435560B2F163
:102F7000804F11D03D4DAA421CBF3D4DAA420BD0FF
:102F80003C4DAA421CBF3C4DAA4205D03B4DAA4233
:102F90001CBF3B4DAA420CD123F080038968194322
:102FA0009160002280F83C20012180F83D101046FD
:102FB00070BD854DAA42EFD0324DAA4218BFA24241
:102FC000EAD0EEE710B5044641B108290ED0042935
:102FD00014BF04F1470004F1450009E094F84400EF
:102FE000012812D1022084F8440012E004F14600C6
:102FF0000078012809D10220082908D0042914BF2B
:1030000084F8470084F8450003E0012010BD84F8EF
:1030100046002068042201F0E5FF00F04FFD11D0CA
:10302000124881421CBF124881420BD01148814294
:103030001CBF1148814205D0104881421CBF104876
:10304000814208D18868114A00F00AFE18BFB2F523
:10305000803F09D110BD5C488142F3D009488142CC
:10306000F0D009488142EDD000F0F7BE00040040E6
:1030700000080040000C00400018004000E0004044
:1030800000E400400040014000040140070001004E
:10309000FEB500684C49884217D10D48016841F0DF
:1030A00010010160006800F0100000900120059000
:1030B0000020CDE90300022002904FF480600190CF
:1030C000009801A90348FDF79BFF06B080BD00BF33
:1030D000E044025800100258B0B500F0CFFE04BF23
:1030E0000220B0BD00F0C3FE052948D8DFE801F09A
:1030F000030B131B23332068294601F083FF20684C
:1031000050F8181F1EE02068294601F0BBFF206818
:1031100050F8181F26E02068294601F0EBFF2068D0
:1031200050F81C1F0EE02068294602F01FF82068A6
:1031300050F81C1F16E02068294602F047F8206866
:1031400050F8541F41F008010160016821F00401AA
:10315000016029690FE02068294602F061F82068C3
:1031600050F8541F41F400610160016821F480614E
:1031700001602969090202681143016000200021F1
:1031800084F83C10B0BD58B110B500F00FFE03D16B
:1031900000F07EFD00F006F800F09FFE00F073BC2A
:1031A0000120704781B000680749884209D107486B
:1031B000016841F001010160006800F00100009029
:1031C000009801B0704700BF00000140F044025871
:1031D000FEE7000070B52DED048B194E0C463168EA
:1031E000896B814228D03CB300EE101A01EE104AE0
:1031F000B8EE408A00EE100AB8EE411AB8EE400A66
:1032000030EE480A80EE019AFDF7D6FF0546012010
:10321000FDF7E6FEFDF7D0FF401BB0EE481A31681F
:1032200000EE100AA042B8EE400AA0EE091ABCEE69
:10323000C10A81ED0E0AEAD3BDEC048B70BD00BF5C
:10324000140700242DE9F04F03AF8FB0814608200A
:103250008A468F4C1D4616460C2B08BF062047F8A1
:103260001C0C47F838DC5843072101EB400021884B
:1032700020F0070047F8201CADEB000047F8280CB1
:103280008546DFF80C84A7F1180108F1080B5846B1
:1032900001F09CF9A7F11401584647F844BC01F02D
:1032A0009BF9A6F1200047F8409CC1B2B86947F8E5
:1032B0002C1C002867D02088C846002257F8146CC0
:1032C0004FF0000C54464FF0000900BA000C47F8CC
:1032D000240C57F8180C47F83C0C6E4800EB011012
:1032E00047F8300CAC4500F0BA8057F8300C01EBD1
:1032F0004101694B0C2D4FF0000E604403EB81013E
:1033000008BF01EB0C0057F8283C2CF001010078B5
:103310000B4404F1080147F8341CBEF1070F2BD809
:1033200041B2B1F1FF3F09DC1FFA89F157F81C2CBB
:10333000514357F8242C23F8112000220134A1B264
:103340008E4240F2998009F10109A1EB0A010EF1C8
:10335000010E1FFA89FBAB4528BF91464000A942E8
:10336000DBD1404657F83C1C544608F1010080462A
:1033700080B2814202D87FE057F8344C0CF1010C46
:1033800057F82C1CAEE7B8F8000057F8148C00264C
:103390005446002347F83C9C00BA4FEA104C57F8BB
:1033A000180C47F8480C3B4800EB011047F8300C6C
:1033B000AE4254D057F8300C01EB4101364A0C2D87
:1033C0004FF0000E304402EB810108BF881957F816
:1033D000282C47F8246C26F00101007802EB010943
:1033E00004F108012A4A47F8341CBEF1070F2DD812
:1033F00041B257F8202C0029614648BF51BA9AB211
:1034000057F81C6C013472431FFA84FB29F8121020
:10341000D84531D901330EF1010E9AB2AA424FF0CC
:10342000000228BF1346ABEB0A024000AA42184A2A
:10343000DBD157F83C0C118057F8481C544601303A
:1034400047F83C0C80B2814203D815E057F8344C61
:10345000118057F8246C57F82C1C0136A8E782B06D
:1034600057F81C0CCDE90005524657F8283C57E99F
:10347000110100F0FFFF02B0054857F8201C018041
:1034800057F838DCA7F10C04A546BDE8F08F00BF63
:103490001000002431C40008BDBF00082DE9FE4F14
:1034A00083465818DDF830A00C460D9F00264FEAE1
:1034B0005A091FFA80F85D4602EB0B0102913A7837
:1034C000A2F12000C0B25E2814D80298ABB280B23C
:1034D000834228BF5444A1B241450BD28342009697
:1034E00028BF5FFA8BF5A8B25346FFF7ABFE4D44F9
:1034F0000137E4E7BDE8FE8F2DE9F04F87B0634D5B
:103500004FF48070624C634904F1080BA8810320DA
:10351000A860584601F0A8FA5F4E584605212A4691
:1035200033689847B268211D58469047DFF86CA170
:1035300000215B4B0022DAF800008163584600212D
:10354000B46AA047FDF738FE06465648564D642734
:10355000A0EB060900F079FB012858D00A20FDF7FE
:103560003FFDFDF729FE0446FDF726FEA0EB060809
:10357000A01BB0F57A7F09D808FB07F04FF47A71E9
:10358000B0FBF1F0DAF800108863E3E7FDF714FE12
:1035900040F6B831884531D848440A2102ACB0FB26
:1035A000F1F2204641A102F07DF8DFF8E080102022
:1035B00001211023B8F80020CDE90004A2F11E007B
:1035C00080B2FFF76BFF34482F46D8F80450846B65
:1035D000FDF7F2FDD8F8001048440322009248435A
:1035E0004FF6FF724FF4FA610192EA1E3D466427DE
:1035F000B0FBF1F358460021A047ABE7801B40F633
:10360000B9318842A6D302E00A20FDF7E9FC00F0B8
:103610001CFB0128F8D000204FF496710024FFF71E
:10362000D9FD1D48194E00210022856BD6E90030D6
:10363000CDE900045846A8471E48029010231024E4
:103640001CA0D0E90112CDE90312007B32888DF86D
:10365000140004200421009402AD0195FFF71EFF21
:10366000FDF7A2FD024617A1284602F01BF832889A
:10367000042016211023CDE90045FFF70FFF642039
:10368000C82107B0BDE8F04FFFF7A4BDE800002453
:10369000A800002460000024140000241407002463
:1036A000745B000818FCFFFF0008025825303364E3
:1036B0000000000057654163742053747564696F9E
:1036C0000000000053544D3332483778782030786A
:1036D0002558000010B5C1F30453C1F3406107241D
:1036E0009C409A4000EB81004169A1431143416134
:1036F00010BD0000F0B589B0684614211030FCF709
:1037000008FE2A4C08202A49002601250427C4E97E
:103710000016C4E9020604F12800112184F844606F
:10372000C4E90F66656284F82050E7612683C4E926
:103730000457FCF7EEFD2046FDF7FCF908B1FCF755
:103740008FFF40F2FF70039069460796CDE904763B
:1037500006200290CDE900501448FCF7CDFF08B1D7
:10376000FCF77EFF0C2001906946124800900F483C
:10377000FCF7C2FF08B1FCF773FF12200190694605
:103780000D4800900948FCF7B7FF08B1FCF768FF47
:10379000182001906946094800900448FCF7ACFFE6
:1037A00008B1FCF75DFF09B0F0BD00BFF8050024CB
:1037B00000600258000084CB000052C7000021C303
:1037C00070B586B01D48002505951D4C00224FF4AC
:1037D0002056016841F004010160016801F0040114
:1037E00000910099016841F080010160016801F0D9
:1037F000800100910099016841F0100101600168A9
:1038000001F0100100910099016841F0010101608F
:1038100000684FF4205100F001000090009820460D
:10382000FDF7BDFC0120CDE90160CDE9035501A9FB
:103830002046FDF7E5FB06B070BD00BFE04402582E
:103840000010025810B586B017480024174BFF210E
:103850007F22CDE90244CDE90044C0E90034C0E94B
:103860000221C0E90444C0E90644FEF771FF08B133
:10387000FCF7F6FECDE904448DF80640ADF80440AF
:10388000094801A90122FFF717F808B1FCF7E8FE83
:1038900007480090694601220348FEF7C3FF08B1BC
:1038A000FCF7DEFE06B010BD68060024004000589C
:1038B00001010100F8B5144C00204FF000514FF009
:1038C000806207234FF4C0254FF480060F4F20621B
:1038D000C4E90400C4E90900E0624FF08040C4E993
:1038E000062160632421C4E90076C4E9025304F18F
:1038F0003800FCF70EFD2046FFF74EF818B1BDE882
:10390000F840FCF7ADBEF8BD8C0600240034014041
:10391000B0B598B00EA81C21FCF7FBFC01A834211F
:10392000FCF7F7FC2448002440F2E7310D22234B3A
:10393000C0E90032C0E90241C0E904448461FFF7F4
:1039400022FC08B1FCF78CFE1794CDE915441A4807
:1039500015A9FFF7F3FA08B1FCF782FE08201190D1
:1039600000251495CDE91255CDE90F5504226020AC
:103970000E900EA91048FFF7AFFB08B1FCF770FEE0
:1039800001AC14212046FCF7C4FC4FF00070CDE9D7
:10399000095021460D950B9507954FF40050069060
:1039A0000548FFF77DFA08B1FCF75AFE0248FFF719
:1039B0006FFB18B0B0BD00BF140700240000014029
:1039C000FEE7FEE7206E40F010002066606E40F0DB
:1039D00001006066012070473060FDF7EDBBC2F367
:1039E0004622B8EE433A32EE002A81EE031A21EE67
:1039F000021A02EE102AB8EE422A32EE002A81EEB6
:103A0000022ABCEEC22A80ED002A7047001BB0F5E6
:103A10007A7F7047D4F8840040F48070C4F8840042
:103A2000002084F88000012084F881000320704782
:103A300020464FF400610122FDF7B1BB8DF8EF0085
:103A4000394601223046584703EA0900C3F384622D
:103A500093FAA3F3B3FA83F37047411B03200229BF
:103A60007047DAF81C00514640F40030CAF81C00D8
:103A700070472860FDF7A0BB0D4690F82010044663
:103A8000022001297047012084F8480084F83E0094
:103A900084F83F0084F8400084F8410084F8420034
:103AA00084F8430084F8440084F8450084F8460014
:103AB00084F8470084F83D00002010BD2168B1F172
:103AC000804F486C40F40040486470470D460646FD
:103AD0004FF4006100222046FDF761BB30463946B5
:103AE000012270478268836802F0040203F0080331
:103AF000D218704704F12800002100F077BAD4F8FA
:103B0000009084F88000FDF757BB1321002307F1D4
:103B100020044A4620462847012084F85C002046BD
:103B2000FCF752BD04F10800022100F0FFB984F84F
:103B300081000020C4F884007047084611461847E9
:103B40008168826801F0040102F008028918704758
:103B5000DAF84810002552467047384629460122B7
:103B60008DF813604047206E41F201118843013007
:103B7000206600207047022B6FF35F3400EE104A7E
:103B8000B8EE400A7047204600F0C6BA20463621FB
:103B90004A46002328470843CAF8480070470120D6
:103BA00084F8210000207047204600F0DDBA3A4634
:103BB00001238DF8EF9020470968C1F30211515C91
:103BC00001F01F01C84080BD3A4601238DF8EF5037
:103BD00020472046FCF7CABCDAF8401000255246C0
:103BE00070478DF8EF00394601227047DAF844102B
:103BF000002552467047002084F8800070473860E6
:103C0000FDF7DABA0843CAF844007047012084F887
:103C10005C0003212046FCF757BC306820F480305C
:103C20003060306820F48020704704F128000221C1
:103C300000F0DCB953214162204600F04BBAB4F8E1
:103C40006A000138A4F86A00704728464FF4005112
:103C5000FDF798BA3046394601228DF8EF90584763
:103C600002400020062A7047002084F880000120CE
:103C70007047A0EB0800A842704720684169890797
:103C8000704790F83000616E0870606E01307047C8
:103C9000002084F83C0020467047D4F8840040F0AF
:103CA0002000C4F8840070472068226E40F601733B
:103CB00007F01F019A43B04202F5807222667047F6
:103CC0002046FCF753BC306F20F001003067306FA6
:103CD00020F00400704704F10800002100F026B92C
:103CE000012084F88100002084F88000D4F884004A
:103CF000002870473046394601228DF8EF5058476A
:103D0000804694F88100012870474FF6FC706E1CC5
:103D100000F1020AC71C7047E165B4F8621008445C
:103D2000A4F86200704702F0700291427047C1F33C
:103D3000066102EE101AB8EE422A32EE000A81EE57
:103D4000000ABCEEC00A10EE101A70473046394621
:103D500001228DF8EF80584726EA030302F0180687
:103D600029FA06F60E4033437047515C01F01F01FB
:103D7000C84080BDC2F3064202EE102AB8EE422AC5
:103D800032EE002A81EE022ABCEEC22A80ED012A20
:103D90007047044690F88000012870470D188DF890
:103DA000032020464946012201F074BC044690F8E5
:103DB0003D0000287047206E40F020002066012062
:103DC0007047B8626FF35F214FF47E4000EB4220F2
:103DD0004FF0FE4280B208444FF4FE0101EB034174
:103DE00001F4FE010844296902EB016101F0FE4182
:103DF00008447047401BB0F57A7F704741684FF622
:103E0000FF72914339444160016841F00101016052
:103E10006168B1F5800F704738460A2100F0E4BBB5
:103E20000262B842026A46680C688B68456D70474A
:103E30000262B042D1F800C08B68046A45687047DE
:103E40006FF35F2302EE103AB8EE422A00EE032A27
:103E500003EE102AB7EE000A7047086840F0010030
:103E60000860002010BD3A460123304620470D4629
:103E700001204FEAB20184F83C007047044690F8F4
:103E80003C0001287047002084F85C00206E40F060
:103E9000040020660320704704F12800012100F08F
:103EA000A5B8016841F40071016070473046394699
:103EB00001228DF8EF804FF02D085847044690F806
:103EC0005C000128704704F10800012100F02EB8C1
:103ED000000240EA0646A8784047022084F83D00E8
:103EE000211D206801F018B88A68097B03EBC20223
:103EF000002906EB080152687047704710B5AEB054
:103F00006C46B02104F10800FCF703FA0020019090
:103F10004FF0004000902046FDF776FC18B1EFF31B
:103F2000108072B6FEE72EB010BD0000F8B55F4FEE
:103F30000546B86A00F00300032804BF0120F8BD5D
:103F400038680C4620F08060FFF759FE0646386856
:103F5000000105D5FDF730F9801B0228F7D941E0B3
:103F600095E80F00BE6A26F47C36013946EA003037
:103F7000FFF727FFB8636869F96A21F0C0010843B9
:103F8000F862A869F96A21F020010843F8624FF647
:103F9000F871F86A20F01000F862F86B8843E9695C
:103FA000012C40EAC100F863F86A40F01000F862A2
:103FB0004FF4001008BF4FF48010002C08BF4FF4DE
:103FC0000020F96A0843F862386840F08060FFF723
:103FD00016FE04463868000106D4FDF7EDF8001B14
:103FE0000328F7D30320F8BD0020F8BDF8B52F4F04
:103FF0000546B86A00F00300032804BF0120F8BD9D
:1040000038680C4620F08050FFF7F9FD0646386806
:10401000800005D5FDF7D0F8801B0228F7D941E0D4
:1040200095E80F00BE6A26F07C76013946EA00501A
:10403000FFF7C7FE38646869F96A21F440610843F4
:10404000F862A869F96A21F400710843F8624FF632
:10405000F871F86A20F48070F862786C8843E96936
:10406000012C40EAC1007864F86A40F48070F8627C
:104070004FF0807008BF4FF40000002C08BF4FF4D1
:104080008000F96A0843F862386840F08050FFF712
:10409000B6FD04463868800006D4FDF78DF8001B95
:1040A0000328F7D30320F8BD0020F8BD00440258D0
:1040B0000928014698BF0921CAB20A23B2FBF3F2CC
:1040C00002EB8203A1EB4303591A084440EA0210B1
:1040D000C0B27047F8B504460068C168490618D4F4
:1040E0004FF0FF31C16000260127FDF765F8054656
:1040F0002168F843C96840EA9110C0070AD1FDF76A
:104100005BF8FFF777FEF3D9032684F821600027D8
:10411000EEE70026F0B2F8BDB0B5124D044668686F
:1041200020F0400068602868800607D42046FEF72B
:104130001BFC78B1032084F82100B0BD286820F072
:10414000200028602046FEF70FFC28B1032084F8E9
:10415000210002E00020B0BD0020296841F02001CC
:104160002960B0BD0840005810B5016840F26F34B6
:104170004A698B6943F008038B618B6943F0100334
:104180008B610B6823F001030B600B69A3430B6188
:104190008B6823F440438B6090F88130042B0BD064
:1041A000930609D5D0F8843043F08003C0F88430FA
:1041B0008B6943F020038B6190F88130032B0BD087
:1041C000530609D5D0F8843043F00403C0F8843096
:1041D0008B6943F040038B61930509D5D0F8843097
:1041E00043F00103C0F884308B6943F400738B61A2
:1041F000D20509D5D0F8842042F00802C0F8842006
:104200008A6942F480728A610021A0F86210A0F8E5
:104210006A1010BDF8B514460D4606464F1C3068AE
:104220004069000708D4FCF7C7FF002FF7D0001B38
:10423000A842F4D30320F8BD0020F8BD0020704749
:104240002DE9F843074600200DF103098DF803001E
:10425000234DFFF75AFC8046FFF7DEFD204628215C
:104260004A460023A8470646FFF7D6FDFFF78EFC17
:10427000DC495A4BFFF738FE08BF42F00802FFF74F
:104280008DFD4042281A18BF4FF0FF30BDE8F8837B
:104290002DE9F843074600200DF103098DF80300CE
:1042A0000F4DFFF732FC8046FFF7B6FD204629216F
:1042B0004A460023A8470646FFF7AEFDFFF766FC17
:1042C000C849464BFFF710FE08BF42F00802FFF74F
:1042D00065FD4042281A18BF4FF0FF30BDE8F88353
:1042E0009B5600082DE9FE4F1E46DFF8BC9A0F468C
:1042F0000446D3F802B0D3F80AA0D3F81230D6F8A7
:1043000016100091D9F804001144451A2046394688
:104310002A4600F04DFCE0B9D9F808002F4904F115
:1043200020080DF1090251F8300099F80C1000290D
:1043300008BF40F008008DF80900404636210123EF
:1043400001F0ABF928B9204639462A4600F0BCFBFB
:1043500020B14FF0FF352846BDE8FE8F5644ABEB49
:104360000A0700250DF10A0A705D514602228DF8F8
:104370000B00701940788DF80A00404601F08AF968
:1043800020B90235BD42EFD3002601E04FF0FF36E1
:104390001249D9F808000DF1090201EBC00099F8A3
:1043A0000C104068002908BF40F008008DF8090093
:1043B00036210123404601F070F94FF0FF35002807
:1043C000C9D1D9E90030009000210022204600F038
:1043D000EFFB002808BF3546BDE700BF24CA000830
:1043E00070B505461C4658187E4B1B68984203D88A
:1043F000284600F069FB10B14FF0FF3070BD049803
:1044000000220B4B010A944206D003EB420603F84C
:10441000121001327070F6E705F1200062000449C5
:1044200001F038F9002818BF4FF0FF3070BD00BF11
:10443000F80000242DE9F0410E466A490746981815
:10444000496888420ED81C461546DDF818806CB1C4
:10445000384631462A46434600F082FC0135013C8D
:104460000028F4D04FF0FF30BDE8F0810020BDE817
:10447000F08100BF2DE9FE4F83465A48DDF83090A9
:1044800015460E4649440268914202D94FF0FF3862
:1044900006E00D9940684FF0FF382944814202D967
:1044A0004046BDE8FE8F4FEA49001C464FF0000829
:1044B000164F4FF0000A02900BF1200001900D986A
:1044C0008245EDD00AEB05025846314600F0FCFA71
:1044D00010B14FF0FF3816E00020814509D0217857
:1044E00007F8101007EB40010130627802344A707F
:1044F000F3E701983946029A01F0CCF800284FF012
:10450000FF3018BF80460AF1010AD8E7780300247B
:104510002DE9F843994615460E460746DDE9084859
:104520005CB1384631462A464B46CDF80080FFF74D
:1045300057FF28B9013C0135F2E70020BDE8F883B8
:104540004FF0FF30BDE8F8834FF0FF3070470000B8
:104550002448806808600020704700BF2DE9FC47B0
:104560009846064600F0B0FA0DF1050406F1200762
:1045700081462E213846224601F086F88246124EA8
:10458000384621460122B04704460DF1070138465E
:104590000122B04705460DF1060138460122B04719
:1045A0009DF806109DF80720404242EA0121C8F814
:1045B00000100AEB090121442944081A18BF4FF0E2
:1045C000FF30BDE8FC8700BF8F5600080548006833
:1045D00008600020704700BF024840680860002063
:1045E000704700BFE800002470B50546C0690C465E
:1045F00080470646E8698047801BA042FAD370BD19
:104600002DE9F04FBDB000283A923C9100F0F981BD
:1046100000210DF1EF0700F120068DF8EF1005469F
:10462000FA4C00234FF00009304601213A46A047DA
:10463000284678213995FFF7D7FF304601213A46C1
:1046400000238DF8EF90A047389028467821FFF797
:10465000CBFF30461121FFF7AAFA37903046B1213F
:104660003A460023A0473690DFF868B6FFF736FADF
:1046700001258DF8EF50D84735902C20FFF7B1FA7F
:104680004FF02C093046D84734902D20FFF7A9FA77
:104690004FF02D083046D84733903046B2213A4685
:1046A00001238DF8EF504FF0010AA04732903046B9
:1046B000394601228DF8EF902C25D8473190FFF72D
:1046C000F5FB30903046B3213A4601238DF8EFA038
:1046D0004FF00109A0472F903046394601228DF84E
:1046E000EF502C25D8472E90FFF7E0FB2D90FFF7D9
:1046F000B1FA2C90FFF7FEFA2B90FFF727FB2A90D8
:1047000007208DF8EF00B4213A4601234FF0070847
:104710003046A0472990A2208DF8EF00C021FFF776
:10472000A2FB28900220FFF75CFA4FF00209304606
:10473000D84727908420FFF781F92690C5208DF86F
:10474000EF00C121FFF78FFB25900A208DF8EF00C5
:10475000C221FFF788FB24900020FFF76FF9239018
:104760003046C3213A4601238A258DF8EF50A047F1
:1047700022902A20FFF762F921903046C421FFF7EA
:1047800023FA2090EE20FFF759F91F900E208DF8A4
:10479000EF00C521FFF767FB1E903A9820213A46AB
:1047A000007B002808BF212130460023A0471D9030
:1047B0003CAA30463A210123A0471C903046E02114
:1047C000FFF7F5F91B901C20FFF738F91A90FFF757
:1047D000BDFA19901220FFF731F91890FFF77EF912
:1047E0004FF037088DF8EF80D84717903220FFF749
:1047F00025F91690FFF772F94FF029098DF8EF901F
:10480000D8471590FFF76AF94FF02D0A8DF8EFA001
:10481000D8471490FFF71EFA13902520FFF70EF9E2
:1048200012902B20FFF70AF911903920FFF706F9B3
:1048300010900020FFF702F90F900120FFF7FEF81B
:104840000E90FFF74BF903258DF8EF50D8470D90E8
:104850001020FFF7F3F80C903046E121FFF7B4F990
:104860000B901D20FFF7EAF80A900720FFF7E6F803
:1048700009900620FFF7E2F80890FFF72FF92E25A0
:104880008DF8EF50D84707902C20FFF7D7F8069007
:10489000FFF7E0F90590FFF721F98DF8EFA0D84771
:1048A0000490FFF727FA0390FFF724FA0290FFF72E
:1048B0004DFA01903F20FFF7C1F88146FFF70EF94E
:1048C00000248DF8EF40D8470546FFF707F98DF82B
:1048D000EF404FF00008D84782460220FFF7AEF8BD
:1048E00004461020FFF7AAF8DDE9372101238DF8EF
:1048F000EF801144369A1144359A1144349A114488
:10490000339A1144329A1144319A1144309A114425
:104910002F9A11442E9A11442D9A11442C9A114425
:104920002B9A11442A9A1144299A1144289A114425
:10493000279A1144269A1144259A1144249A114425
:10494000239A1144229A1144219A1144209A114425
:104950001F9A11441E9A11441D9A11441C9A114425
:104960001B9A11441A9A1144199A1144189A114425
:10497000179A1144169A1144159A1144149A114425
:10498000139A1144129A1144119A1144109A114425
:104990000F9A11440E9A11440D9A11440C9A114425
:1049A0000B9A11440A9A1144099A1144089A114425
:1049B000079A1144069A1144059A1144049A114425
:1049C000039A1144029A1144019A11443A46494407
:1049D0002944764D514421440C1830461321A847F0
:1049E0000444304629213A460123A8470444DDE91E
:1049F000390100F071F92044B0FA80F04009013823
:104A000001E04FF0FF303DB0BDE8F08F9B5600084D
:104A10007CB500F120050DF105060C46DA2128468B
:104A2000324600F031FE58B9721C2846DB2100F0F6
:104A30002BFE28B9B21C2846DC2100F025FE10B15F
:104A40004FF0FF307CBDBDF806009DF8051040BA60
:104A500040EA0140206000207CBD0369FFF76DB88B
:104A60008369FFF76AB80000E8B1B0B50F4A426247
:104A7000D1E90345C0E9034500630D4AC2620D4A0E
:104A800082620D4A0262D1E90023C0E900230B894A
:104A900003814B6943618B69C9698361C161BDE869
:104AA000B04002B110474FF0FF3070475B4A00083A
:104AB000614A0008BD4A0008AD4D00084369FFF790
:104AC0003CB84FF0FF3070472DE9F84F0C46B6491F
:104AD0008B684D7B012B05D8012D0AD1097BD9B1FB
:104AE000183417E0012D0DD1097BC9B102F1180965
:104AF00019E0022D0ED1097B01290BD102F1010928
:104B0000023410E0022D05D1097B012902D102F106
:104B1000020907E0914606E002F101091A3402E0B9
:104B200002F11A09013400F120060DF103071F4DAF
:104B30002A21002330463A46A8478246200A8DF8AB
:104B40000300DFF89081394601223046C047834692
:104B5000FEF7C4FF8DF80340C047044630462B21C2
:104B60003A460023A84705464FEA19208DF803006E
:104B7000394601223046C0470BEB0A0101228DF86D
:104B80000390214429440C1830463946C047044458
:104B900030462C213A460023044DA8474042201AB3
:104BA00018BF4FF0FF30BDE8F88F00BF9B560008DC
:104BB0002DE9F04F85B00E467B491C4692468B6826
:104BC0004A7B012B09D8012A12D1097B002912BF87
:104BD00018360AF1010A1A361BE0012A11D1097BA5
:104BE0000136002914BF0AF1180A0AF11A0A10E066
:104BF000022A0ED1097B012904BF0AF1010A0236FB
:104C000007E0022A05D1097B012904BF0AF1020A43
:104C1000013600F120070DF113052A210023384643
:104C20002A4600F03AFD0390300A8DF81300DFF8B1
:104C3000A480294601223846C0470290FEF78DFF26
:104C40000190A01929460122441E200A8DF8130064
:104C50003846C04700903846294601228DF8134057
:104C6000C047044638462B212A46002300F015FD94
:104C700081464FEA1A208DF8130029460122384652
:104C8000C04756468246FEF768FF83460E9829467F
:104C900001223044461E300A8DF813003846C047C2
:104CA000DDE902218DF813601144019A1144009A44
:104CB0001144012221444944514459440C183846B6
:104CC0002946C0474042201A18BF4FF0FF3005B0B8
:104CD000BDE8F08F955600087CB591F90D3004467B
:104CE00088680128DAB206D8032A0DD21A4D55F881
:104CF0002350A02305E0032A06D2174D55F8233090
:104D0000A025294EC6E90053274EB060087B727378
:104D1000002100223073D6E9003000902046FFF7D2
:104D200047FF0546B0680D490DF1070201EBC000D1
:104D3000317B4068002908BF40F008008DF807006B
:104D40003621012304F1200000F0A7FC4042281A7C
:104D500018BF4FF0FF307CBD585B000824CA000824
:104D6000BCB50446180240EA13200F4BADF806000C
:104D70004FF0FF301D688D4214D95B68934211D902
:104D80002046FFF7A1FE10B14FF0FF30BCBD04F18B
:104D900020000DF10601022200F07CFC002818BF63
:104DA0004FF0FF30BCBD00BFE800002410B51C462A
:104DB000C368084611462246BDE8104018477047B0
:104DC000FCF7FEB970B59CB00024CDE91044CDE9E4
:104DD0000E4401A82021FBF79CFA0220FCF7CCFA34
:104DE0000094254C206820F440402060206800F4A6
:104DF00040400090009820688004FCD5FCF7DEFA63
:104E00001E486E2208254026215821F01801215005
:104E10000220CDE91700CDE91200002415920522E9
:104E2000CDE91A44199514920D964FF480300A90EA
:104E300001211691CDE90B110720099009A8FDF772
:104E400045FA18B1EFF3108072B6FEE74FF48060B8
:104E50000896CDE90660032103A870C03F200190A9
:104E60000320029001A8FDF781F818B1EFF310803C
:104E700072B6FEE71CB070BD1848025858FCFFFF20
:104E800010B51D481D4A016841F4700101601068A9
:104E900000F00F00062804D81068072161F3030012
:104EA00010601748174C016841F0010101600021B2
:104EB000016103682340036013681B0704D513686E
:104EC000072464F3030313600F4A8161C161016227
:104ED00082620E4AC2620E4A026341638263C16308
:104EE00002644164026822F480220260016609487B
:104EF00043F2D201016010BD88ED00E000200052B5
:104F0000004402587FEDF6EA000202020000FF01B1
:104F1000800201010040005270B5D54A03689042FA
:104F200028D0B0F1804F1CBF294CA04246D123F0BD
:104F300070034C682343B0F1804F1FD0244CA04233
:104F40001CBF244CA04219D0234CA0421CBF234CB0
:104F5000A04213D0224CA0421CBFC64CA0420DD090
:104F6000C54CA0420AD0C54CA04207D0C44CA042B8
:104F700004D007E023F070034C682343CC6823F48B
:104F8000407323434E6923F080030C688D683343DC
:104F90000360C562846290420BD0B64A904208D04A
:104FA000B54A904205D0B54A904202D0B44A9042E8
:104FB00001D1096901630121416170BD054CA04225
:104FC000B5D0AC4CA042B2D0034CA042AFD0B2E7B7
:104FD0000004004000080040000C004000E00040D9
:104FE00000E4004010B501F01F010423046A8B4067
:104FF00002FA01F124EA03030362026A1143016227
:1050000010BD0000F0B5026A994E22F00102026262
:105010000A688B68046A456824F0020423438469A3
:10502000B0420BD0934FB84208D0934FB84205D04E
:10503000924FB84202D0924FB84207D1CF6823F0C6
:105040000C0327F004073B43B0420BD0894EB0421B
:1050500008D0894EB04205D0884EB04202D0884E6A
:10506000B04205D125F44075D1E9056735433D438C
:1050700045603D4D2C402243826149684163036293
:10508000F0BD00BFF0B5026A794E22F01002FEF7C3
:10509000CFFE24F0200444EA0313846903D006F50C
:1050A0008067B84209D1CF686FF0400223F0C00397
:1050B00002EA07121343B0420BD06E4A904208D066
:1050C0006D4A904205D06D4A904202D06C4A90429F
:1050D00006D125F44062D1E90556354342EA8505FB
:1050E000394A4560224042EA0C2282614968816364
:1050F0000362F0BDF0B5026A5D4E22F48072FEF7E5
:1051000097FE24F4007444EA0323C46903D006F52F
:105110008067B8420AD1CF6840F2FF4223F440636F
:105120003F0227EA02021343B0420BD0514A904299
:1051300008D0514A904205D0504A904202D0504A7D
:10514000904206D125F44052D1E90556354342EA52
:105150000515054A4560224042EA0C02C2614968D1
:10516000C1630362F0BD00BF8CFFFEFFF0B5026AB1
:105170003F4F22F480520262B842026A46680C68CD
:105180008B68C5691CBF3B4FB84212D14F6926F4EA
:10519000804646EA871646600B4E354045EA0424B1
:1051A000C4614968016422F4005141EA033101629B
:1051B000F0BD314FB842E9D0304FB842E6D0304F61
:1051C000B842E3D0E7E700BFFF8CFFFEF0B5026A0C
:1051D000274F22F48032FEF723FE1CBF254FB84232
:1051E00011D14F6926F4803646EA072646600B4EF9
:1051F00035402C4344654968816522F4003141EA19
:1052000003410162F0BD1C4FB842EAD01B4FB842C7
:10521000E7D01B4FB842E4D0E8E700BF8FFFFEFFA6
:10522000F0B5026A124F22F48012FEF7F9FD1CBF9E
:10523000104FB84212D14F6926F4802646EA8726DD
:105240004660104E354045EA042444654968C1650E
:1052500022F4001141EA03510162F0BD064FB84249
:10526000E9D0064FB842E6D0054FB842E3D0E7E7B1
:10527000000001400004014000400140004801409E
:1052800000440140FF8FFFFEFEE7000080B512489A
:105290004FF40051FBF776FF0138B0FA80F0400977
:1052A00080BD00BFFEB51D490020CDE904000A689D
:1052B00042F004020A60096801F004010091022131
:1052C000CDE902014FF400500190009801A9024875
:1052D000FBF796FE06B080BD0008025870B586B098
:1052E0000E48002505955D4C00220826016841F016
:1052F000100101600068082100F010000090009883
:105300002046FBF74CFF0120CDE90160CDE90355B4
:1053100001A92046FBF774FE06B070BDE0440258B8
:105320004E480821FBF733BFFBF746BF80B5034863
:105330000421FDF747FE002080BD00BF14070024B4
:105340002DE9FC41454C88468DF80700444E4FF44A
:10535000006100222046B04720464FF40051002251
:10536000B047404D0DF10701012264232846FDF7A7
:10537000AFFC074620464FF400510122B0472846B3
:10538000414601224FF4FA73FDF70CFC0546204616
:105390004FF400610122B0476842381A18BF4FF03D
:1053A000FF30BDE8FC8100BF70B52C4CFEF78EFBD2
:1053B000AAB22C4831464FF4FA73FDF7F3FB0546C9
:1053C000FEF736FB002D18BF4FF0FF35284670BDA5
:1053D00070B5224CFEF77AFBAAB22248314664230C
:1053E000FDF776FC0546FEF723FB002D18BF4FF0B6
:1053F000FF35284670BD00BF2DE9FC41174C16460D
:1054000088468DF80700164D4FF4006100222046B3
:10541000A84720464FF400510022A84711480DF13B
:10542000070101226423FDF753FC074620464FF491
:1054300000510122A8473EB1B2B20A4841464FF49A
:10544000FA73FDF745FC0744FEF7F2FA002F18BF88
:105450004FF0FF373846BDE8FC8100BF001002580E
:105460009F1100088C0600248AB0764801688903E1
:1054700012D4BFF34F8F0021BFF36F8FC0F83C12DF
:10548000BFF34F8FBFF36F8F016841F400310160AC
:10549000BFF34F8FBFF36F8F0168C90327D400217B
:1054A000016743F6E07CBFF34F8FC36EDA08C3F3A6
:1054B0004E31C3F3C903920701330CEA4115164676
:1054C0001F4646EA050406F14046013FC0F84C423B
:1054D000F7D14C1E00292146EFD1BFF34F8F016851
:1054E00041F480310160BFF34F8FBFF36F8F012014
:1054F0000390FBF7E1FE40F2011006900DF10C0B5A
:1055000048F21F700590002004905846FBF7AEFE4D
:105510000420FBF7DBFEFBF75DFEFFF753FCFEF715
:10552000EDFCFEF74DF9FEF7E5F8FEF78BF9FEF717
:10553000C1F9FEF7EDF9FFF7B5FEFFF7CFFEFDF776
:10554000DBFFFBF739FE0546FBF736FE3E48002140
:1055500040F2FF72FBF788F818B1EFF3108072B6D3
:10556000FEE705F1C804384D384F4FF00C0840F6FF
:10557000E449FBF721FE0646FFF788FE30B1A6425C
:10558000F7D306F1C804FFF7CBFEF2E7A642F0D34B
:1055900006F5FA74FFF7C4FE00262846042E1BD039
:1055A000FBF7A6FC002844D128464FF47A71FBF79C
:1055B0001BFC002841D1284607EB460AFBF7B6FA48
:1055C000AAF8100007EB86000136BAF8101001FBAC
:1055D00009F1090B8161E0E7FBF7F0FCBA69FB69AF
:1055E000386A0226796AC7E90023A0F51B70890092
:1055F00090FBF6F01E30C7E9020115A1584600F0F5
:1056000051F8194E00202E211023CDE9008B32884D
:10561000FDF744FFD7E90223584614A100F042F8F1
:10562000328800203E211023CDE9008BFDF736FFA4
:105630009FE7EFF3108072B6FEE7EFF3108072B6CB
:10564000FEE700BF14ED00E0F80500248000002410
:10565000205043323A202534646D562056726566D8
:105660003A202534646D5600E800002474656D709E
:105670003A2025336420274320766261743A20253E
:1056800034646D5600000000436800691847D0E993
:1056900003301847836800691847D0F800C00069D4
:1056A000604700000FB4084B10B504A902AA039884
:1056B00000F01CF8044602A9002000F048FA204639
:1056C00010BC5DF814FB00004F5B000802E008C846
:1056D000121F08C1002AFAD170477047002001E06C
:1056E00001C1121F002AFBD1704700002DE9FF4FB6
:1056F0008DB00F460546002606E025280BD0DDE9D3
:105700000F1290476D1C761C28780028F5D111B037
:105710003046BDE8F08F0024A246A1460122EC49A4
:1057200000E0044315F8013F203B02FA03F0084271
:10573000F7D128782A2810D06FF02F022878A0F10E
:105740003001092914D80AEB8A0102EB410144F027
:10575000020400EB010A6D1CF0E701CF5FEA000ACA
:1057600003D544F40054CAF1000A44F002046D1C4D
:1057700028782E2817D115F8010F44F004042A28A0
:105780000ED06FF02F022878A0F1300109290AD835
:1057900009EB890102EB410100EB01096D1CF2E705
:1057A00057F8049B6D1C28786C280FD006DC4C2819
:1057B00017D068280DD06A2814D104E0742810D0BE
:1057C0007A280FD10DE044F400140AE044F4801468
:1057D00001E044F440146978814202D104F5801458
:1057E0006D1C6D1C2A786E2A1FD00CDC632A31D008
:1057F00004DC002A8BD0582A11D1A3E0642A68D097
:10580000692A0CD165E0732A2ED004DC6F2A73D08C
:10581000702A04D19BE0752A6FD0782A6ED010468A
:10582000DDE90F129047761C50E1C4F302500228C4
:1058300006D0032809D0042801CF09D0066045E12D
:1058400001CFF117C0E9006140E101CF06803DE1E1
:1058500006703BE117F8040B8DF8000000208DF86E
:105860000100EB46012003E057F804BB4FF0FF3086
:1058700061074FF0000102D40DE008F101018846F4
:1058800049450FDA8045F8DB1BF808100029F4D1F0
:1058900008E008F1010188468142FADB1BF8081094
:1058A0000029F6D1DDE90F23AAEB08008146214645
:1058B00000F036F9304400EB080604E0DDE90F1291
:1058C0001BF8010B9047B8F10108F7D22146484672
:1058D000F7E00A21C4F302534FF0000B0891022BAA
:1058E00004D001CFC117032B09D00AE0FF1D27F018
:1058F0000707F7E8020108E032E01FE020E000B20D
:10590000C117042B01D140B2C117031E71F100036E
:1059100007DA4FF0000CD0EB0C006CEB01012D23EB
:1059200002E0230504D52B238DF82430012303E066
:10593000E30701D02023F7E7984658E00A2110E05A
:1059400010210EE010204FF0000B08900CE0102109
:105950004FF0000B44F004044FF00809089103E0F5
:1059600008214FF0000B0891C4F30253022B04D01E
:1059700001CF0021032B06D006E0FF1D27F007070B
:10598000F7E8020103E080B2042B00D1C0B24FF06F
:10599000000823072BD5702A07D0DDF820C08CF033
:1059A000100C5CEA0B0C05D00EE040238DF824307F
:1059B000012308E050EA010306D030238DF824309B
:1059C0008DF8252002239846DDF820C08CF0080CC5
:1059D0005CEA0B0C0BD150EA010301D1630706D539
:1059E00030238DF824304FF00108A9F10109582A1D
:1059F00004D038A20B9208AA0A920BE03AA2F9E767
:105A00005B46089AFAF790FC0B9B9B5C0A9A521E25
:105A10000A92137050EA0102F2D10A98ADEB00002D
:105A200000F1200B600702D524F4803401E04FF030
:105A30000109D94502DDA9EB0B0000E0002000EBD5
:105A40000B0141440890AAEB010AE00306D4DDE90A
:105A50000F232146504600F063F806444FF000093A
:105A600008E009A911F80900DDE90F12904709F1D2
:105A70000109761CC145F4DBE0030CD5DDE90F23F9
:105A80002146504600F04CF8064404E0DDE90F12D0
:105A900030209047761C0899481E08900029F5DCB4
:105AA00008E00A980A990078491C0A91DDE90F126A
:105AB0009047761CBBF10001ABF1010BF1DC2146F4
:105AC0005046DDE90F2300F019F806446D1C1BE673
:105AD00009280100303132333435363738396162C4
