:020000040800F2
:1000000068430024E102000889680008B150000834
:10001000816800086904000811B9000800000000A8
:10002000000000000000000000000000A192000895
:10003000710400080000000081710008A992000806
:10004000FB020008FB020008FB020008FB0200089C
:10005000FB020008FB020008FB020008FB0200088C
:10006000FB020008FB020008FB020008FB0200087C
:10007000FB020008FB020008FB020008FB0200086C
:10008000FB020008FB020008FB020008FB0200085C
:10009000FB020008FB020008FB020008FB0200084C
:1000A000FB020008FB020008FB020008FB0200083C
:1000B000FB020008FB020008FB020008FB0200082C
:1000C000FB020008FB020008FB020008FB0200081C
:1000D000FB020008FB020008FB020008FB0200080C
:1000E000FB020008FB02000800000000FB02000801
:1000F000FB020008FB020008FB020008FB020008EC
:10010000FB020008FB020008FB020008FB020008DB
:10011000FB020008FB020008FB020008FB020008CB
:10012000FB020008FB020008FB020008FB020008BB
:10013000FB020008FB020008FB020008FB020008AB
:1001400000000000000000000000000000000000AF
:10015000FB020008FB020008FB020008FB0200088B
:10016000FB020008FB020008FB020008FB0200087B
:10017000FB02000871710008FB020008000000008B
:10018000FB020008FB020008FB020008FB0200085B
:10019000FB020008FB020008FB020008FB0200084B
:1001A000FB020008FB020008FB0200080000000040
:1001B000FB020008FB020008FB020008FB0200082B
:1001C000FB020008FB020008000000000000000025
:1001D0000000000000000000FB020008000000001A
:1001E000000000000000000000000000000000000F
:1001F0000000000000000000FB020008FB020008F5
:10020000FB020008FB02000800000000FB020008DF
:10021000FB020008FB020008FB020008FB020008CA
:10022000FB02000800000000FB02000800000000C4
:10023000FB020008FB02000800000000FB020008AF
:10024000FB020008FB020008FB020008FB0200089A
:10025000FB020008FB020008FB020008FB0200088A
:10026000FB020008FB020008FB020008FB0200087A
:10027000FB020008FB020008FB020008000000006F
:10028000FB020008FB020008FB020008FB0200085A
:1002900000000000FB020008FB0200080000000054
:1002A00000000000FB020008FB020008FB0200083F
:1002B000FB020008FB020008FB020008FB0200082A
:1002C000FB020008FB020008FB020008DFF80CD06C
:1002D00000F068F800480047F1C0000868430024B7
:1002E0000648804706480047FEE7FEE7FEE7FEE7D0
:1002F000FEE7FEE7FEE7FEE7FEE7FEE7899300087C
:10030000CD020008D2B201E000F8012B491EFBD259
:1003100070470022F6E710B513460A460446194610
:10032000FFF7F0FF204610BD2DE9F05F05460020E5
:1003300092469B4688460646814640241BE0284656
:1003400041464746224600F054F853465A46C01AE2
:10035000914110D311461846224600F03BF82D1A61
:1003600067EB01084F4622460120002100F032F8D9
:1003700017EB00094E41201EA4F10104DFDC4846C2
:1003800031462A464346BDE8F09F420005D0C0F3FF
:10039000C7525242914201DC0020704700EBC1502D
:1003A000704700001CB509480090094801900546B7
:1003B000009C06E0E06840F0010394E807009847DD
:1003C0001034AC42F6D3FFF785FF0000EC3701088C
:1003D0000C380108202A04DB203A00FA02F1002040
:1003E00070479140C2F1200320FA03F31943904073
:1003F0007047202A04DB203A21FA02F000217047DE
:1004000021FA02F3D040C2F120029140084319467C
:10041000704770B58C1810F8015B15F0070301D117
:1004200010F8013B2A1106D110F8012B03E010F857
:10043000016B01F8016B5B1EF9D12B0705D400237A
:10044000521E0DD401F8013BFAE710F8013BCB1A1C
:10045000921C03E013F8015B01F8015B521EF9D511
:10046000A142D8D3002070BDFEE7000000000000CC
:100470007047000000000000EFF3108072B600BF6C
:10048000FEE7000000000000B0B5044600F004F9EB
:1004900040F204010546C2F20041621C097818BF0F
:1004A0000C4400BF00F0F8F8401BA042FAD3B0BDE6
:1004B0002DE9F04F82B00D68002D00F0C78000F1EB
:1004C000264242F2004402F1FF728305C5F602049F
:1004D0000A27A04243EA922208BF0927082A40F2CD
:1004E000040C38BF1746C5F6000C4FF0000E0097FD
:1004F000002700260AE000BF01360D6835FA06F233
:1005000007F102070EF1040E00F0A080012202FAAA
:1005100006FB15EA0B08EFD0D1F804A003220AF07D
:10052000030502FA07F36C1E6FEA0309012C0FD8CA
:100530008368CC6803EA0903BC4023438360CAF3A1
:100540000014436823EA0B03B4402343436003E0F1
:10055000032D01D1032520E0C3688C6803EA090359
:10056000BC40022D43EA0403C36016D16FF00302BE
:100570000EF01C0502EA56030F22034402FA05FBA3
:10058000D3F820A00C692AEA0B0AAC4044EA0A041A
:100590001C62D1F804A00AF00305036805FA07F409
:1005A00003EA09031AF4403F43EA04030360A3D0BB
:1005B00044F2F44240F2084AC5F60202C5F6000AC7
:1005C000136843F00203136013680F2203F0020361
:1005D000019326F00303019C0EF00C0453F80A90DB
:1005E00002FA04F5009A29EA050502FA04F44FF02C
:1005F000B0492C4343F80A40D9F800304C6843EA2C
:100600000805E20258BF23EA0805C9F80050A50210
:10061000DCF8002042EA080358BF22EA0803A503D9
:10062000CCF80030DCF8802042EA080358BF22EA08
:100630000803E403CCF88030DCF87C2042EA0803AD
:1006400058BF22EA0803CCF87C3055E702B0BDE879
:10065000F08F0000000000000069084018BF012072
:100660007047000000000000426902EA0103914364
:1006700041EA034181617047002A08BF0904816192
:10068000704700000000000041F20000C5F6004085
:1006900000686FF31F30704742F26030C2F20040D2
:1006A000006870470000000040F2040042F2603130
:1006B000C2F20040C2F2004100780A6810440860AB
:1006C000704700000000000080B5032000F0FCF837
:1006D00002F026FF44F218414CF6C403C5F60201AD
:1006E000C0F600030A68C2F303229A5C096801F0AD
:1006F0000F0102F01F02595CD04040F21002C2F21A
:10070000004201F01F0120FA01F1116040F20C01DA
:10071000C2F2004108600F2000F00AF800281CBF58
:10072000012080BD00F07CF8002080BD00000000AA
:1007300070B540F20406C2F200463178E1B10446D9
:1007400040F20C00C2F200404FF47A72B2FBF1F1B9
:100750000068B0FBF1F004F083F80F2C4FF00105B6
:1007600008D838B94FF0FF3000222146002500F0AC
:100770007BF87460284670BD012070BD0000000049
:10078000B0B502784EF69C5CCEF2000C43784CF883
:10079000043CFAB14368CCF80030037BC17A90F88E
:1007A0000AE0457B447A42EA0372837B42EA0161B4
:1007B000C27B41EACE41007A41EA854141EA4341A8
:1007C00041EA024141EA042141EA4000CCF8040038
:1007D000B0BD00BF0020CCF80000CCF80400B0BDD4
:1007E0004EF62450CEF20000BFF35F8F016821F473
:1007F00080310160002101677047000000000000A7
:100800004EF6245140F00100CEF20001086708685E
:1008100040F480300860BFF34F8FBFF36F8F704795
:1008200081B044F2F440C5F60200016841F00201D3
:100830000160006800F002000090009801B070476D
:10084000002848BF704700F01F01012202FA01F1A1
:100850004EF20012C0F34A10CEF2000242F820100D
:10086000704700000000000070B54EF60C5C4FF0C1
:10087000FF36CEF2000C00F1604505F56445DCF86A
:100880000030C3F3022E8EF00703042B28BF04238D
:10089000BEF1030406FA03F321EA030100F00F039B
:1008A00038BF0024043B0028634406FA04F048BF24
:1008B00003F10C05A14022EA000008430001287062
:1008C00070BD0000000000004EF60C514FF6FF0313
:1008D000CEF200010A681A4060F30A2242F08060FA
:1008E00040F0FD70086070472DE9F04F8EB04BF27C
:1008F00004480023C5F200280693CDE90233CDE970
:100900000433D0F800A0D8F8000000F00303012B56
:1009100078D10123029300F03003102B77D000F43C
:100920004073B3F5807F01D10123049300F4A02329
:1009300040F2010EB3F5803FC0F2001E70D1830378
:10094000734658BF4FF00113059300F0A063B3F155
:10095000807F6AD0D8F8040000F00303012B70D127
:100960000223029300F03003102B6ED000F440738A
:10097000B3F5807F01D10223049300F4A02340F259
:10098000020BB3F5803FC0F2010B05D183035B4638
:1009900048BF0EF10103059300F0A063B3F1807F1F
:1009A00005D18001584648BF0EF101000690002491
:1009B0000C94CDE90A44CDE9084458F8040C4FF4EE
:1009C0000073D8F80060C00704BF40F22223C0F2D1
:1009D0000443F00705D086EA0300800701D4012410
:1009E0000894F0063AD586EA0300800636D44FF024
:1009F0000109CDF8249006F44070B0F5407F34D062
:100A000035E000BF00F03003102B7FF488AF0123E6
:100A1000039300F44073B3F5807F3FF485AF85E71F
:100A200000F0A063B3F1807F94D18001704658BF7D
:100A30004FF001100690D8F8040000F00303012BDA
:100A40008ED000F03003102B90D10223039300F4DA
:100A50004073B3F5807F8ED08FE700BF4FF0000961
:100A600006F44070B0F5407F01D101200A90F003F8
:100A70000ED586EA030040030AD4F446B00358BFFB
:100A80004FF0011CCDF82CC0F00115D504E000BFDB
:100A90004FF0000CF0010FD586EA030040010BD4A3
:100AA0007546B00158BF4FF001150C95D8F80400F9
:100AB000C6070CD005E000BF0025D8F80400C60723
:100AC00005D080EA0306B60701D402240894C606BE
:100AD00007D580EA0306B60603D44FF00209CDF825
:100AE000249000F44076B6F5407F01D102260A96A4
:100AF00045F20002C603C5F200220AD580EA0306C9
:100B0000760306D4DC46870348BF0EF1010CCDF80E
:100B10002CC0C60109D543405B0106D4800148BF03
:100B20000EF1010B5D46CDF830B00095BAEB020036
:100B30001368D34618BF0120DB07AAEB020301D1DB
:100B4000002204E0166826F00106166001224AF22F
:100B50000007CA46C5F200273D68ED07B3FA83F5E2
:100B600002D1B94606E000BF3B68B946023223F025
:100B700001033B6000EB400602AB01926D0903EB01
:100B8000C600D0F808E008EB8E0757F8042C22F4D2
:100B9000807247F8042C58F8042CD2072AD153F855
:100BA0003640002C5CD008EB840252F8047C27F01D
:100BB000010742F8047C44683CB108EB840252F817
:100BC000047C27F0100742F8047CC4683CB1012281
:100BD000A24358F8227027F4803748F82270006941
:100BE00000283DD0012222EA000058F8202022F0FF
:100BF000807233E045F2000258F8040CC5F200227E
:100C000020F00100934548F8040C29D108EB84003A
:100C1000BAF1000F50F8042C42F0020240F8042C04
:100C200007D008EB8A0050F8042C42F0200240F86C
:100C3000042CBCF1000F08D0012020EA0C0058F869
:100C4000202042F4802248F82020009840B1012062
:100C5000009A904358F8202042F0806248F8202003
:100C600005EB4500D1E9002603EBC00453F8300042
:100C70008242656816D145F2000CAE422B46C5F2A1
:100C8000002C28D1CA68E3689A421DD10A692369F9
:100C90009A4233461FD158F8040C40F0010048F83E
:100CA000040C48E045F2000CAE423346C5F2002C7D
:100CB00011D08A68A3689A4203D0CA68E3689A424E
:100CC00004D12B4607E000BF334604E00A692369DC
:100CD0009A422B462FD108EB800050F8042C22F0CA
:100CE000010240F8042C3BB108EB830050F8042CBF
:100CF00022F0100240F8042CD4E9022008EB820212
:100D000052F8043C23F4807342F8043C40B10122C1
:100D100022EA000058F8202022F4803248F82020EF
:100D2000206940B1012222EA000058F8202022F078
:100D3000807248F8202088684FF48072E34508EB01
:100D4000800050F8043C18BF4FF4407223F4407305
:100D50001A4440F8042C486958F8042C431EC2F386
:100D6000074293420BD9002358F8042CCFF6FF73A7
:100D700022F47F0203EB0040104348F8040C58F8BB
:100D8000042C08680138D20758F8203023F00303F8
:100D900028D10122E34518BF03221A4348F8202036
:100DA000486860B108EB80001022E34550F8043C2D
:100DB00018BF302223F020031A4340F8042CC868DF
:100DC000C20327D4B0B30122E34522EA00004FF06A
:100DD000807258F8203023F0E06318BF4FF0A06213
:100DE00025E000BF43F0010248F82020486840B1E8
:100DF00008EB8000012350F8042C63F3051240F83F
:100E0000042CC868C20329D4A8B34FF080736FF0D4
:100E1000E06427E00122E34522EA00004FF480323B
:100E200058F8203018BF4FF4A02223F4E0231A44CE
:100E300048F820200869C1032AD4002842D00121A3
:100E4000E34521EA00004FF0407158F8202022F0DD
:100E5000E06218BF4FF0E06127E000BF4FF480333D
:100E60006FF4E024012222EA000058F820202240FA
:100E70001A4348F820200869C10319D410B301218E
:100E8000032221EA000058F8201062F31A6117E0EB
:100E90000121E34521EA00004FF4403158F82020B9
:100EA00018BF4FF4E02122F4E022114408E000BF13
:100EB0000121032221EA000058F8201062F31241B8
:100EC00048F820100199C80706D188070CD40020E3
:100ED0000EB0BDE8F08F00BFDCF8000040F001006C
:100EE000CCF800008807F2D5D9F8000040F00100E6
:100EF000C9F8000000200EB0BDE8F08F000000002F
:100F00002DE9F04381B015460F460446FFF7C4FBB8
:100F10002168D1F84880D1F81091226D042A39D186
:100F20000646F868B0F5800F34D1086A800641D4CF
:100F300097E80D10C1F88800C1F880203869C1F821
:100F40009000086820F04350184340EA0C0040F03D
:100F500000500860E068B0F1806F04D0D1F8000163
:100F600010F4E06F50D0C1F84880086A000750D4F0
:100F7000002D3BD0681C13D1086A000749D4086AC9
:100F800000075CBF086A5FEA007042D4086A000785
:100F9000F2D53EE010206065012001B0BDE8F0838D
:100FA000FFF77AFB801BA84222D82168086A000755
:100FB000F6D52EE0D5B1681C12D1086A8006B7D5E7
:100FC000086A800644BF086A5FEA8060B0D5086A94
:100FD0008006F2D4ACE700BF2168086A8006A7D576
:100FE000FFF75AFB801BA842F6D901E0FFF754FB3C
:100FF0004FF400702065606D40F0010060650120D5
:1010000001B0BDE8F08300BFC1F81091086A000785
:10101000AED50820486202202065002001B0BDE85E
:10102000F083000000000000F0B581B015460F46C7
:101030000446FFF731FB216D0646242908D0142908
:101040001AD002291DD1E068B0F1806F05D118E0F7
:10105000386840F00200032813D12068016A89062D
:1010600014D4002060652046394605F011FC48B3D1
:10107000012001B0F0BD00BF386820F00100022857
:10108000EBD010206065012001B0F0BD25B3691CD4
:1010900012D1016A8906E4D5016A890644BF016A52
:1010A0005FEA8161DDD5016A8906F2D4D9E700BF24
:1010B0002068006A8006D4D5FFF7EEFA801BA842AC
:1010C000F6D90BE0B86B98B13868022834D0012803
:1010D00038D0D0B33BE000BFFFF7DEFA4FF400702A
:1010E0002065606D40F001006065012001B0F0BD39
:1010F0002168086A80071AD475B3681C0ED1086A83
:10110000800714D4086A80075CBF086A5FEA8070B1
:101110000DD4086A8007F2D509E000BFFFF7BCFADA
:10112000801BA8421AD82168086A8007F6D50020DB
:1011300002224A6201B0F0BD206D142805D024209F
:1011400004E000BF206D242804D104202065002085
:1011500001B0F0BD1420F9E7FFF79EFA4FF40070DC
:101160002065606D40F00100606521680120022269
:101170004A6201B0F0BD0000F0B581B00446FFF74F
:101180008BFA002C00F08980054600206065216DF7
:1011900011B101B0F0BD00BF204600F081F8206819
:1011A00041F28836A6654FF6F40ED4E903C26369AE
:1011B0008168CFF6E00E0027CFF6FF7701EA0E0137
:1011C00007EB024241EA0C016FF0FF0E676B11431F
:1011D0000EEB03223943E369114319438160C1686F
:1011E000226A21F4E0211143C160216BA26B42EA23
:1011F00001410161E16B41610168626821F4F851CC
:101200000EEB022211430160016A890609D500BF75
:10121000FFF742FA401BB04238D82068016A8906BD
:10122000F6D4C168A268D4E9097621F0FF01013F34
:10123000A3693943C160022B016821F0400141EAF2
:1012400002010160D0F80811E26A21F0A04141EAF0
:10125000060141EA0201C0F80811016841F00101EC
:10126000016003D1816841F002018160E068B0F162
:10127000806F05D101202065002001B0F0BD00BFC6
:1012800002202065002001B0F0BD00BF4FF40070C7
:101290002065606D40F001006065012001B0F0BD87
:1012A0002DE9F047B4B06946044601F10800B021C9
:1012B000FFF72FF845F200012068C5F200218842AF
:1012C00002D034B0BDE8F0874FF0007000901020DD
:1012D000139068464FF00008CDF8048001F070FAD2
:1012E00008B1FFF7C9F844F2E04040F20044C5F607
:1012F0000200C5F602042FAD4FF0040950F80C1C93
:101300004FF0020A41F4001140F80C1C50F80C1C7C
:10131000032601F400112F912F9950F80C1C41F471
:10132000804140F80C1C50F80C1C092701F4804146
:101330002F912F99016841F010010160016801F0BF
:1013400010012F912F99016841F00201016001689D
:1013500001F002012F912F99016841F0080101600D
:101360000068294600F008002F902F9804F540608F
:10137000CDF8BC90CDE930A832963397FFF798F8B6
:1013800020462946CDE92F9ACDE931863397FFF7DC
:101390008FF84FF460502946CDE92F0A04F500601C
:1013A0003397CDE93186FFF783F840202946CDE910
:1013B0002F0A0A2033902046CDE93186FFF778F8CE
:1013C00034B0BDE8F08700002DE9F04381B0154648
:1013D0000F460446FFF760F926688046002FB06C80
:1013E000D6F8101178D0226D042A7BD1326C0123FB
:1013F0000132A264A26C62642764326863F31D72D6
:101400003260E268B2F1806F04D0D6F8002112F4A5
:10141000E06F7BD0B06415F1010900F08C80002DE5
:1014200046D100BF2068006A10F0060F60D096F821
:1014300050003870206CA16C471C2764481EA064C3
:10144000A06C0028EED12068016A89071CD4002D09
:101450004ED0B9F1000F0DD1016A890714D4016A89
:1014600089075CBF016A5FEA81710DD4016A89074F
:10147000F2D509E0FFF710F9A0EB0800A84239D82F
:101480002068016A8907F5D50221416221650020A3
:1014900001B0BDE8F08300BF96F850003870206CB2
:1014A000A16C471C2764481EA064A06C0028CAD009
:1014B0002068006A10F0060FEED100BFFFF7ECF8CD
:1014C000A0EB0800A84215D82068006A10F0060FAB
:1014D000F4D0276CE0E700BF08206065012001B070
:1014E000BDE8F08310206065012001B0BDE8F08305
:1014F000FFF7D2F84FF400702065606D40F00100F6
:101500006065012001B0BDE8F08300BFC6F810118E
:1015100015F101097FF483AF0DE000BF96F850008C
:101520003870206CA16C471C2764481EA064A06C16
:1015300000283FF488AF2068016A11F0060FEDD152
:10154000016A11F0060F04BF016A11F0060FE5D120
:10155000016A11F0060FEFD0E0E700000000000084
:101560002DE9F04381B015460F460446FFF794F885
:10157000002F6BD080462668206D04286CD1306C1B
:1015800015F1010900F10100A064A06C60642764FA
:10159000306820F04050306036D0002D6ED100BF52
:1015A0002068006A400779D5387886F85000206CAA
:1015B000A16C471C2764481EA064A06C0028EFD1D2
:1015C0002068016A890739D4002D67D0B9F1000F6E
:1015D0002AD1016A890731D4016A89075CBF016A8F
:1015E0005FEA81712AD4016A8907F2D526E000BF3B
:1015F000387886F85000206CA16C471C2764481E80
:10160000A064A06C0028DBD02068016A4907EFD4F1
:10161000016A49075CBF016A5FEA4171E8D4016A67
:101620004907F2D5E4E700BFFFF736F8A0EB080062
:10163000A84235D82068016A8907F5D502214162A0
:101640002165002001B0BDE8F08300BF082060657F
:10165000012001B0BDE8F08310206065012001B0D9
:10166000BDE8F083387886F85000206CA16C471CE8
:101670002764481EA064A06C0028A1D02068006ADE
:101680004007EFD4FFF708F8A0EB0800A84207D8FE
:101690002068006A4007F5D5276CE3E7FEF7FCFFFA
:1016A0004FF400702065606D40F00100606501201E
:1016B00001B0BDE8F083000001680122C0F80025F8
:1016C000002280F8F424886940F000608861486D49
:1016D00040F08052002042F003024A65704700004B
:1016E000704700000000000002680020516270474F
:1016F0002DE9F043D0F80080D8F8243081B1D8F833
:101700002870B1F1010E03EB174355D05FFA8EF14B
:101710000EF0030C04290BD2002700212DE000BF9E
:10172000002043EA0241C8F82810BDE8F08300BF5A
:101730000EF0FC0908F1F405002108F5827600BFDF
:1017400055F8107F41F00100C0B241F00304E4B24B
:1017500003EB174341F0020756F82000FFB20431B3
:1017600003EB104056F8273056F82440CFB200EB78
:1017700013404F4500EB1443E2D1BCF1000F1BD0E6
:1017800008EB8700BCF1010FD0F8040103EB104314
:1017900012D0481CBCF1020FC0B208EB8000D0F898
:1017A000040103EB104307D0881CC0B208EB800093
:1017B000D0F8040103EB104308EB8E0043EA02412A
:1017C000C0F804110020BDE8F08300000000000014
:1017D000D0F8080508F0ECB901EBC10200EB820279
:1017E000D0F80805926C08F047B90000000000002E
:1017F00001EBC10200EB8202D0F80805D2F8882282
:1018000008F09AB900000000D0F8080508F0D4B933
:1018100010B54AB2044601F00F00B2F1FF3F00EBF1
:10182000C00104EB81020BDD02F51F71002382F879
:101830007D3294F8BC240870012A0BD1022010BD1F
:1018400002F13C01012382F83D3094F8BC24087079
:10185000012AF3D0012084F8BC04206809F02CF997
:10186000002084F8BC0410BDB0B5044601F00F00A0
:101870006268824202D20120B0BD00BF49B2B1F11C
:10188000FF3F09DD00EBC001002304EB810202F5FC
:101890001F7182F87D3208E000EBC001012304EBE8
:1018A000810202F13C0182F83D3094F8BC2400250D
:1018B0008D70012A087001D10220B0BD012084F88A
:1018C000BC04206809F0DCFB284684F8BC54B0BD99
:1018D00010B5044690F8BC04012801D1022010BDC7
:1018E00048B20122B0F1FF3F206884F8BC2405DD36
:1018F00009F0AAFD002084F8BC0410BD01F00F011E
:1019000009F0FEFD002084F8BC0410BD00000000BA
:1019100001F00F0101EBC10100EB8100D0F8900252
:10192000704700000000000070B54CB2064601F0A0
:101930000F00B4F1FF3F00EBC00107DD06EB8104AF
:10194000002504F51F7184F87D5206E006EB810C3A
:1019500001240CF13C018CF83D404D7808708A6000
:10196000002D0B7118BF4883022B01D10020487154
:1019700096F8BC04012801D1022070BD012086F830
:10198000BC04306808F040FF002086F8BC0470BD3D
:1019900080B501F00F0E0EEBCE0100EB810C0021A3
:1019A000CCE9A331C368CCF888228CF87D12012BD6
:1019B0008CF87CE20CF51F7108BFCCF89822DAB2E3
:1019C000006809F0A9FB002080BD000000000000B5
:1019D000B0B5044601F00F054068854202D90120E8
:1019E000B0BD00BF48B2B0F1FF3F09DD01EBC1005F
:1019F000002204EB800000F51F7180F87D2208E0D2
:101A000005EBC500012204EB800000F13C0180F8E9
:101A10003D2094F8BC2401208870012A0D7001D16A
:101A20000220B0BD84F8BC04206809F055FB1DB14C
:101A3000002084F8BC04B0BD217B206804F2C442BD
:101A400009F0EEFA002084F8BC04B0BD00000000EC
:101A500080B501F00F0E0EEBCE0100EB810C61465C
:101A600001F83CEF4FF0000EC1F814E04FF0010E0A
:101A700081F801E0D0F80CE0CA60BEF1010F0B6103
:101A800008BFCCF858205FFA8EF2006809F044FBDA
:101A9000002080BD000000002DE9F04F89B00568EE
:101AA0008246284609F098FD10B109B0BDE8F08FD4
:101AB000DAF8000009F0C0FD0028F6D0D5F80808D3
:101AC000C0F30D20CAF8FC04DAF8000009F0B4FDF8
:101AD0008007DAF8000003D5416901F00201416195
:101AE00005F50061049109F0A7FDC006DAF80000D1
:101AF00007953BD5816921F0100181612C6A04F0C2
:101B00000F05C4F34340062818D0022827D147F612
:101B1000F07014EA000622D005EBC50034090AEB88
:101B2000800707982246D7F8881209F089FDD7F870
:101B3000880200EB1610C7F8880207E00AF2C441D9
:101B40000822079809F07CFDC4F30A1405EBC500D0
:101B50000AEB8000D0F890122144C0F89012DAF815
:101B60000000816941F010018161079D09F064FD69
:101B7000000340F10181DAF8000009F039FD002886
:101B800000F0FA8006460AF527784FF430644FF0EB
:101B9000000B0AF2C440089009E000BF0BF1010BF2
:101BA000760804F1200408F1240800F0E580F0072D
:101BB000F4D05FFA8BF9DAF80000494609F034FDF9
:101BC0000746C00771D0281901218160DAF80000AA
:101BD00004EB000C036CDCF80820DAF80C50012D43
:101BE00028D115073AD4950658D412F0280F079D2E
:101BF0005BD143F20B01C4F654718B4202D312F451
:101C0000004235D1D8F80020DCF810106FF3DF4126
:101C1000BBF1000FA2EB010148F80C1C19D1DAF856
:101C20008C22002A00F0A280DAF888020844CAF860
:101C300088020EE043F20B05C4F65475FF35AB4243
:101C40001CD110042CD49006079D02D52020CCF87E
:101C5000080050464946FFF7CBFD26E043F20B0053
:101C6000079DC4F6547083421FD312F400401CD069
:101C70004FF40040CCF8080017E000BFBBF1000FA4
:101C800006D1DAF88C1219B90021089A09F0C8F9BE
:101C900050464946FFF7ACFD06E000BF202001E0BA
:101CA0004FF40040CCF80800079D38072CD52819C0
:101CB0000821816043F20B01DAF80000C4F6547188
:101CC000056C20448D4281680AD311F4004107D08D
:101CD0004FF400418160504600F0FAFC079D09E096
:101CE000504600F0F5FC43F20B00C4F654708542F8
:101CF000079D09D3DAF80C00012805D1DAF80000B5
:101D00000121089A09F08CF9F80607D4B8070AD41B
:101D1000B80620D4B8047FF541AF22E0281910217D
:101D20008160B807F4D56869000604D5049948684D
:101D300040F48060486018F81D0C012806D100208E
:101D400008F81D0C5046494600F092FB2819022164
:101D50008160B806DED5281920218160B8047FF59E
:101D60001DAF28194FF40051816017E70121089A2F
:101D700009F056F96DE700BFDAF8000009F05CFCE5
:101D80004003DDF810B040F1E180DAF8000009F01E
:101D900027FC002800F0DA800646079800F5106757
:101DA00000250AF2C4400290CDF814A0039704E085
:101DB000760805F1010500F0C980F007F8D0E9B216
:101DC000DAF80000089109F01BFC0446C0070BD1AB
:101DD000200733D4E00637D460063BD4A0073FD4B5
:101DE0002006E5D555E000BF05F00F00012307EB05
:101DF0004512DBF8341003FA00F021EA0000CBF8BA
:101E000034009360DAF80C00012811D105EBC5000D
:101E10000AEB8000D0E911121144816445B9DAF867
:101E20004C0028B9DAF800000121029A09F0F8F80C
:101E300050460899FFF7D0FC2007CBD507EB45109B
:101E400008218160E006C7D507EB451010218160AD
:101E50006006C3D507EB451040218160A007BFD5C0
:101E60000798294609F04CFB05EBC5000AEB8000FA
:101E700010F83F1F012905D1002101705046089933
:101E800000F0F2FA07EB45100221816020067FF591
:101E90008FAF05EBC5000AEB8002914659F84C1F45
:101EA000C84658F8040F8142FFF482AF9346DAF82F
:101EB00000400B1A5BF8447FBB4238BF1F4604EB5F
:101EC0004513069407F1030CD3F81879BFB2B7EBAA
:101ED0009C0F29D303F5106A02F14807D9F80010C6
:101EE00081421FD9081A0599DBF80040A0420A7BFD
:101EF00038BF044639680092A3B20698089A09F0E0
:101F0000CBFC3868E11C20443860D8F8000020443D
:101F1000C8F80000DAF8182092B2B2EB910FDDD2C7
:101F2000D9F80010DDF814A0DDE9037B81423FF60B
:101F30003FAF069A05F00F00012101FA00F0D2F838
:101F4000341821EA0000C2F8340831E7DAF800005A
:101F500009F072FB00281DD4DAF80000079C09F094
:101F60006BFB000536D4DAF8000009F065FB0001D0
:101F700041D4DAF8000009F05FFBC0044DD4DAF870
:101F8000000009F059FB8004DAF8000000F16581D7
:101F90007EE100BFDBF8040020F00100CBF8040074
:101FA0009AF8F404012807D100208AF8F4040021EB
:101FB0005046FFF795FB02E0504600F06DFBDAF863
:101FC0000000079C416901F00041416109F034FBC8
:101FD0000005C8D5DBF80800C00702D0504600F065
:101FE0009FFBDAF80000416901F40061416109F0EA
:101FF00023FB0001BDD5DAF80000416901F0006162
:1020000041619AF8F414F9B1504600F089FBDAF80E
:10201000000009F011FBC004B1D5DBF80400102169
:1020200020F00100CBF80400DAF8000009F068FAAB
:10203000DAF80400002800F0D780042800F0030C30
:1020400016D2002182E000BF01218AF8F414406D0D
:10205000C0F38300CAF8F8045046FFF741FBDAF8F2
:10206000000009F0E9FAC0047FF589AFD5E700BFA9
:1020700020F0030E04F536634FF6A0584FF6C05516
:102080004FF6E0544FF6006000214FF67F37CFF651
:10209000FF78CFF6FF75CFF6FF74CFF6FF7000BF65
:1020A000A3F51872A3F51076043197608E4553F8A6
:1020B000082022F4001243F8082043F8587C53F813
:1020C000602C22F4001243F8602C53F8602C42F08C
:1020D000006243F8602CB760A3F508765A5922F4E1
:1020E00000125A5143F8387C53F8402C22F4001265
:1020F00043F8402C53F8402C42F0006243F8402C47
:10210000B760A3F500761A5922F400121A5143F869
:10211000187C53F8202C22F4001243F8202C53F89A
:10212000202C42F0006243F8202CB7601A5822F4A9
:1021300000121A509F601A6822F400121A601A687E
:1021400042F000621A6003F18003A9D1BCF1000FD4
:10215000079849D000F5106200F5306002EB411796
:102160004FF67F334E01BCF1010FBB6000EB411510
:10217000975927F400179751AB60875927F4001738
:102180008751875947F0006787512DD04F1CBCF10C
:10219000020F4FEA471502EB471600EB4717B360F3
:1021A000565926F400165651BB60435923F40013C8
:1021B0004351435943F00063435115D002314FF668
:1021C0007F364F0102EB411300EB41119E60D35962
:1021D00023F40013D3518E60C15921F40011C15171
:1021E000C15941F00061C151DBF81C0040F0011001
:1021F000CBF81C00DAF8300040B1DBF8840040F086
:102200000B00CBF884000BF1440008E0DBF814006D
:1022100042F22B010843CBF814000BF110000168C7
:102220000AF2C44241F00B010160DBF8000020F427
:10223000FE60CBF800009AF80C10DAF8000008F005
:10224000EFFEDAF80000416901F48051416109F0C4
:10225000F3F98004DAF800001AD508F01DFBDAF86B
:10226000000009F0A9F9CAF81000DAF8004001F0FE
:102270002FF99AF810200146204609F081FA5046BD
:1022800000F0F2F9DAF80000416901F4005141610F
:1022900009F0D2F9000707D4DAF8000009F0CCF908
:1022A00000060ED436E000BF504600F0F9F9DAF827
:1022B0000000416901F00801416109F0BDF9000623
:1022C00028D50799886920F080008861DAF8040031
:1022D00002281FD3012440F2A32503E00134243552
:1022E000844217D21AF805100129F7D104F00F0023
:1022F000220600EBC0000AEB800000F13C0158BF51
:1023000000F51F71DAF8000009F00EF8DAF80400A1
:10231000E4E700BFDAF8000009F08EF9C00251D4FA
:10232000DAF8000009F088F9800240F18080DAF8DC
:10233000041002292DD30798013900F532600AF5FF
:102340002972012304E000BF013900F1200020D0F0
:102350001746066812F8245B012DF5D1B6F1FF3F50
:10236000F2DCDAF8FC5406F4803605F00105AE42E2
:10237000EAD1079E07F8013CB76947F08007B761CB
:1023800077693F06E0D4DBF8040040F40070CBF836
:102390000400DAF80000416901F40011416109F01C
:1023A0004BF9400049D55046FFF712FADAF8000021
:1023B000416901F08041416109F03EF9400743D491
:1023C000FFF773BBDAF80400022825D307990AF156
:1023D000640501F512640126012703E0013720346A
:1023E000874219D22946226815F8243B012BF5D1E2
:1023F000B2F1FF3FF2DC07F00F0001F8016C00EBD7
:10240000C0000AEB800000F13C01DAF8000008F09F
:102410008BFFDAF80400E1E7DAF80000416901F423
:102420008011416109F008F980023FF580AFDAF8C8
:10243000000009F001F94000B5D4DAF8000009F015
:10244000FBF840077FF531ABDAF80000446861071C
:1024500004D55046FFF7D8F9DAF800004168214367
:10246000416009B0BDE8F08FD0F8080507F01CBC4A
:10247000D0F8080507F030BC002800F0A1802DE955
:10248000F04F8BB00446056890F8BD0428B90020D1
:1024900084F8BC04204600F0ABF8032084F8BD04A7
:1024A000E86BC00501D40020E060206808F0B0FDB2
:1024B00020680A9004F1040E04F11C0AD4E90C50BF
:1024C0009EE80E589AE8C007CDE9085003A88DE8A9
:1024D000005880E8C0070A9808F0EEF9002867D194
:1024E00020680021002509F003F96168002941D026
:1024F00001200023002200BF03EBC30304EB83078A
:10250000D3B287F83C200132A7F85630D3B287F80F
:102510003D00994287F840507D64BD64FD64EBD86E
:102520000020431CDDB200EBC002A94204EB820292
:1025300082F87C02C2F88802C2F88C0214D900BF6B
:1025400005EBC507C2F8840282F8800282F87D029A
:1025500004EB870282F87C320133DDB2C2F88802D4
:10256000A942C2F88C02EBD882F87D0282F8800280
:10257000C2F8840204F1140E04F1240A2268A0684F
:102580000A90D4E903379EE840589AE80007D4E956
:102590000C50CDE9085002A8CDE9007680E800583B
:1025A00005A880E8000710460A9A08F0E9FA48B141
:1025B000022084F8BD0401200BB0BDE8F08F00BFFD
:1025C00001207047002084F83800012084F8BD0401
:1025D000606A012802D12046FFF76EF8206808F0F3
:1025E000BFFA00200BB0BDE8F08F00000000000033
:1025F00010B5B0B002A9044601F10800B021FDF702
:1026000088FE00212068C4F20401884202D030B064
:1026100010BD00BF002003904FF4802002904FF4C3
:102620004010239002A800F0CBF808B1FDF724FF7A
:1026300000F0BAF844F2D8400022C5F60200016862
:1026400041F0007101600068002100F0007001900D
:1026500001984D20FEF708F94D20FEF7F1F830B053
:1026600010BD00000000000010B50446006928B14C
:10267000022801D0FDF700FF012100E00021D4F87D
:10268000080507F0B5FBD4F80805BDE8104007F0D1
:1026900063BB000000000000D0F8080507F08CBB09
:1026A000D0F8080507F094BB10B5044690F8BC04B8
:1026B000012801D1022010BD012084F8BC0484F857
:1026C0003810206809F048F8002084F8BC0410BDD8
:1026D000D0F8082500F2C441104607F0A1BB000065
:1026E00010B5044690F8BC04012801D1022010BDA9
:1026F0002068012184F8BC14C16BC90506D4A16A05
:10270000012903D1816B41F48031816308F094FE8B
:10271000206808F015FA002084F8BC0410BD000001
:1027200010B50446D0F8080507F0D6FB2068D0F8AD
:10273000001E41F00101C0F8001E206A002808BFF9
:1027400010BD4EF61050CEF20000016841F00601B7
:10275000016010BD00000000B0B544F60C05C5F6E0
:10276000020529684907296806D401F00701081AFB
:1027700018BF0120B0BD00BF21F007010843286049
:10278000FDF78AFF044600BF55F8080C800407D403
:10279000FDF782FF001BB0F57A7FF5D90120B0BDAF
:1027A0000020B0BD0000000044F60C00C5F6020099
:1027B000016841F080710160704700000000000076
:1027C0002DE9F0470446C07844F22C480007C5F6CE
:1027D000020833D5606E4FEA305103290CD8DFE888
:1027E00001F003111D2600BFD8F8001041F400319C
:1027F000C8F800101BE000BF01266078C0070BD0AE
:1028000020E000BF04F10800022104F0BDFC0646F0
:1028100060B16078C00715D1354646E004F1280064
:10282000022104F045FD06460028F2D1606ED8F87A
:10283000241021F440110843C8F8240000266078D1
:10284000C007E9D0A06D04280ED83546DFE800F0B7
:102850000412181E1E0000BFD8F80000354640F4D0
:102860000030C8F8000011E001250127607840071A
:102870001FD453E004F10800002104F085FC04E0BB
:1028800004F12800002104F013FD05462F461DB178
:10289000607840070DD441E0D8F82400A16D20F005
:1028A000070000250843C8F8240037466078400731
:1028B00034D5D4F8A4004FEA705005280CD8DFE8CE
:1028C00000F00311171D1D1DD8F8000040F4003062
:1028D000C8F8000012E000BF01250126607800075B
:1028E00020D455E004F10800002104F04DFC04E080
:1028F00004F12800002104F0DBFC05462E461DB142
:10290000607800070ED443E0D8F82C00D4F8A41067
:1029100020F4600000250843C8F82C003E4660788B
:10292000000735D5D4F8A8004FEA306005280DD847
:10293000DFE800F00412181E1E1E00BFD8F80000C9
:1029400040F40030C8F8000012E000BF0125012764
:10295000E078800720D44EE004F10800002104F064
:1029600013FC04E004F12800002104F0A1FC05465A
:102970002F461DB1E07880070ED43CE0D8F82C003B
:10298000D4F8A81020F0E06000250843C8F82C0017
:102990003746E07880072ED5E06C4FEA30100328E8
:1029A0000ED8DFE800F00903130900BFD8F80000D3
:1029B00040F40030C8F800002E467DB912E000BF98
:1029C000012501266078C00619D44CE004F1080006
:1029D000022104F0D9FB05462E461DB16078C006E1
:1029E0000DD440E0D8F82000E16C20F03000002544
:1029F0000843C8F820003E466078C00633D5E06D35
:102A00004FEA303004280DD8DFE800F00412181E19
:102A10001E0000BFD8F8000040F40030C8F80000E5
:102A200012E000BF01250127607880061FD44EE028
:102A300004F10800002104F0A7FB04E004F12800E1
:102A4000002104F035FC05462F461DB16078800654
:102A50000DD43CE0D8F82400E16D20F4E0400025DE
:102A60000843C8F824003746607880062FD5206ECA
:102A70004FEA3040052809D8DFE800F0040E1404BE
:102A8000040400BF2E46ADB918E000BF01250126A1
:102A9000607840061FD44FE004F10800012104F0E3
:102AA00073FB04E004F12800012104F001FC054659
:102AB0002E461DB1607840060DD43DE0D8F82400C4
:102AC000216E20F4E02000250843C8F824003E468B
:102AD0006078400630D5D4F8AC004FEA3070052855
:102AE00008D8DFE800F0030D130303032F46ADB948
:102AF00018E000BF012501276078000620D442E0DD
:102B000004F10800012104F03FFB04E004F1280077
:102B1000012104F0CDFB05462F461DB1607800066B
:102B20000ED430E0D8F82C00D4F8AC1020F0E040FF
:102B300000250843C8F82C0037466078000622D5E7
:102B4000E06E58B1B0F1005F0CD0B0F1805F2FD1D2
:102B5000D8F8000040F40030C8F800002E469DB9B7
:102B600008E000BF04F10800012104F00DFB054658
:102B70002E464DB9D8F82400E16E20F040500025D3
:102B80000843C8F824003E46E078C00733D0A06C64
:102B9000032813D8DFE800F008021A08D8F800006C
:102BA00040F40030C8F80000A946BDB91AE000BFE3
:102BB00001250126E078C007E9D11CE001254FF08E
:102BC0000109A07840061AD51CE000BF04F10800F6
:102BD000022104F0D9FA0546A9461DB1A0784006A5
:102BE0000DD50FE0D8F82000A16C20F003000025DF
:102BF0000843C8F82000B146A078400602D44F46EA
:102C000018E000BFD8F8D40340F48070C8F8D403AB
:102C1000FDF742FD064600BFD8F8D403C00507D42F
:102C2000FDF73AFD801B6428F6D90325032701E050
:102C30002F468DB12078C00761D0A06F4FEAF00019
:102C400005283BD8DFE800F004404604040400BF38
:102C5000002D2E4646D149E0D8F84410D4F8B000F3
:102C6000414011F4407F11D0D8F84410D8F84420E6
:102C700042F48032C8F84420D8F8442021F440714E
:102C800022F48032C8F84420C8F84410B0F5807FA0
:102C900040F0CE82FDF700FD064641F2883A03255A
:102CA000032700BFD8F84400800700F1BF82FDF77A
:102CB000F3FC801B5045F5D9BCE700BF0125012678
:102CC000207880071FD44CE004F10800012104F0B3
:102CD0005BFA04E004F12800012104F0E9FA05465A
:102CE0002E461DB1207880070DD43AE0D8F8280090
:102CF000A16F20F0380000250843C8F828003E46A0
:102D0000207880072DD5606F052809D8DFE800F00E
:102D1000040E1404040400BF2F46ADB918E000BF30
:102D200001250127207840071FD44DE004F1080059
:102D3000012104F029FA04E004F12800012104F043
:102D4000B7FA05462F461DB1207840070DD43BE069
:102D5000D8F82800616F20F0070000250843C8F864
:102D600028003746207840072ED5D4F89000052853
:102D700008D8DFE800F0030D130303032E46ADB9B6
:102D800018E000BF012501262078800620D451E0FC
:102D900004F10800012104F0F7F904E004F128002F
:102DA000012104F085FA05462E461DB120788006E3
:102DB0000ED43FE0D8F82C00D4F8901020F0070093
:102DC00000250843C8F82C003E462078800631D5FF
:102DD000D4F88C004FEA3070052809D8DFE800F0FD
:102DE000040E1404040400BF2F46ADB918E000BF60
:102DF000012501272078400620D451E004F1080085
:102E0000002104F0C1F904E004F12800022104F0DB
:102E10004FFA05462F461DB1207840060ED43FE0FC
:102E2000D8F82800D4F88C1020F0E04000250843A2
:102E3000C8F8280037462078400631D5D4F89800E5
:102E40004FEAB020052809D8DFE800F0040E14048A
:102E5000040400BF2E46ADB918E000BF01250126CD
:102E60002078000620D454E004F10800002104F08A
:102E70008BF904E004F12800022104F019FA054658
:102E80002E461DB1207800060ED442E0D8F82C0062
:102E9000D4F8981020F4E05000250843C8F82C001E
:102EA0003E462078000634D5D4F89C004FEA7030B6
:102EB00005280FD8DFE800F004141A04040400BF4A
:102EC0002F46E5B12068010727D4C1063ED4000390
:102ED00055D475E00125012720680107F5D51CE0D0
:102EE00004F10800002104F04FF904E004F1280087
:102EF000022104F0DDF90546002D2F46E2D1D8F875
:102F00002C00D4F89C1020F4604000250843C8F839
:102F10002C00374620680107D7D5D4F88000B0F5DB
:102F2000805F09D104F12800022104F0C1F90028D2
:102F300018BF0127D4F88000D8F8281021F4405198
:102F40000843C8F828002068C106C0D5D4F894000A
:102F5000B0F5807F09D104F12800022104F0A8F91E
:102F6000002818BF0127D4F89400D8F82C1021F4B9
:102F700040710843C8F82C002068000320D5D4F81D
:102F8000A000B0F5003F0FD0B0F5803F06D078BB71
:102F900004F10800002104F0F7F804E004F128002F
:102FA000022104F085F905462E4655B9D8F82C00C3
:102FB000D4F8A01020F4403000250843C8F82C00B5
:102FC0003E46A07840072BD5D4F88400B0F5401FCA
:102FD0000BD0B0F5001F11D0B0F5801F2AD1D8F862
:102FE000000040F40030C8F800002F46CDB90DE0D5
:102FF00001250126A0784007E6D411E004F128005D
:10300000012104F055F905462F4655B9D8F8280096
:10301000D4F8841020F4401000250843C8F8280094
:103020003746A078C0070AD13E462168880016D5E9
:1030300033E000BF01250127A078C007F4D0206D40
:10304000B0F5803F10D018BBD8F8000040F4003035
:10305000C8F800002E4685B1216888001DD460683C
:103060008A0326D465E000BF04F10800022104F0C1
:103070008BF80546002D2E46EED1D8F82000216DA4
:1030800020F4803000250843C8F82000CCE700BFBA
:103090000125012621688800E1D504F128000221DC
:1030A00004F006F9002818BF0126D4E900108A03AD
:1030B0003FD5E26F6FF0010303EB3223022B0BD3FA
:1030C0004FEA322343B1012B40F0AA80D8F80030F8
:1030D00043F40033C8F8003025B3CA022CD48A0266
:1030E00034D44A003CD4CA0F49D1090251D4C10793
:1030F0005AD1810763D441076CD4010776D4C10645
:1031000000F18080800607D504F12800022104F038
:10311000CFF8002818BF0125002D18BF012528462B
:10312000BDE8F087D8F8283023F440731A43C8F874
:1031300028203546CA02D2D5D8F82420236F22F0A1
:1031400000421A43C8F824208A02CAD5D8F824209D
:10315000A36E22F080721A43C8F824204A00C2D518
:1031600058F81C2C22F4004248F81C2CD4F8B42047
:1031700058F81C3C1A4348F81C2CCA0FB5D0D8F894
:103180002020636D22F040521A43C8F82020090223
:10319000ADD5D8F82810D4F8882021F44001114387
:1031A000C8F82810C107A4D004F10800002103F0DA
:1031B000EBFF002818BF0546606881079BD504F126
:1031C0000800012103F0E0FF002818BF05466068F1
:1031D000410792D504F10800022103F0D5FF002831
:1031E00018BF0546606801077FF589AF04F1280024
:1031F000002104F05DF8002818BF05466068C1068C
:103200007FF580AF04F12800012104F051F8002877
:1032100018BF0546606880063FF576AF7CE700BFC3
:103220000125CA027FF55BAF86E700BFD4F8B00086
:103230004FF6CF7358F81C2CC0F2FF0300F4407116
:1032400022F47C5203EA10136FF31F30B1F5407F74
:1032500008BF1A43002548F81C2CD8F8441008432E
:10326000C8F84400FFF7CBBC2DE9F04381B000283B
:1032700000F02A8142F200080446C5F2002889467F
:10328000D8F8000000F00F0088420ED2D8F80000F5
:1032900020F00F0040EA0900C8F80000D8F800004C
:1032A00000F00F00484540F00F81206844F21847B5
:1032B0004107C5F602070AD521693A6802F0700293
:1032C000914204D93A6822F0700211433960010733
:1032D0000AD561697A6802F07002914204D97A686D
:1032E00022F0700211437960C1060AD5A1697A689B
:1032F00002F4E062914204D97A6822F4E062114358
:10330000796081060AD5E169BA6802F070029142DB
:1033100004D9BA6822F070021143B96010F00201BA
:103320000AD0E2683B6803F00F039A4204D93B6875
:1033300023F00F031A433A60C20746D03968D4E934
:10334000010221F47061012841EA0201396009D0CB
:1033500003280DD0022811D157F8181C890312D464
:10336000B2E000BF57F8181CC9050CD4ACE000BF90
:1033700057F8181C890106D4A6E000BF57F8181C9E
:10338000490740F1A18057F8081C21F007010843C4
:1033900047F8080CFDF780F9064641F2883500BF72
:1033A00057F8080C616800F03800B0EBC10F09D085
:1033B000FDF772F9801BA842F2D9032001B0BDE8E5
:1033C000F08300BF206800F0020151B1E1683A6863
:1033D00002F00F02914204D23A6822F00F02114328
:1033E0003960D8F8001001F00F0149450DD9D8F81F
:1033F000001021F00F0141EA0901C8F80010D8F8C7
:10340000001001F00F0149455ED141070AD521693D
:103410003A6802F07002914204D23A6822F07002D7
:103420001143396001070AD561697A6802F07002B8
:10343000914204D27A6822F0700211437960C10689
:103440000AD5A1697A6802F4E062914204D27A68EE
:1034500022F4E0621143796080060AD5E069B96818
:1034600001F07001884204D2B96821F0700108436C
:10347000B86000F055F839684CF6C402C0F6000296
:10348000C1F30321515C3B6803F00F0301F01F01FE
:10349000D25C20FA01F102F01F0040F21002C2F2E9
:1034A000004221FA00F0106040F2080040F20C02E5
:1034B000C2F20040C2F200420068116001B0BDE8F3
:1034C000F043FDF735B900BF012001B0BDE8F0833E
:1034D00080B500F025F844F218414CF6C403C5F657
:1034E0000201C0F600030A68C2F303229A5C09686D
:1034F00001F00F0102F01F02595C20FA02F201F004
:103500001F0040F21001C2F2004122FA00F00860F0
:1035100040F20C01C2F200410A6080BD00000000D0
:1035200044F20041C5F602010869C0F3C200032855
:1035300010D002282ED098BB0868800649F20000FF
:10354000C0F2D03058BF70470968C1F3C101C8400C
:10355000704700BF8A6A886AC0F3051CC86ABCF15C
:10356000000F4B6B22D000F0010002F0030240423A
:10357000022A00EAD3006FF35F3000EE100AB8EEC3
:10358000400A15D0C2B90868800619D49FED281AE0
:1035900023E000BF47F64000C0F27D10704700BF37
:1035A00040F60010C0F23D00704700BF0020704799
:1035B0009FED1E1A11E000BF9FED1B1A0DE000BF2A
:1035C000086849F20002C0F2D032C0F3C10022FA0A
:1035D00000F001EE100AB8EE411A086B9FED153AA3
:1035E0006FF35F2002EE100A086BC0F34620B8EEBE
:1035F000422A013000EE032A00EE10CAB7EE003A6C
:10360000B8EE400A81EE000A32EE031A20EE010AFB
:1036100001EE100AB8EE411A80EE010ABCEEC00AB3
:1036200010EE100A704700BF0024744A20BCBE4B45
:103630000024744C0000003970B3F0B581B004462A
:10364000007844F20046C007C5F6020626D120786D
:1036500080076ED5306910F03801B06A46D018295D
:1036600008BF5FEA807041D0E0683168002800F050
:10367000318121F0190108433060FDF70DF805464E
:10368000306840074ED4FDF707F8401B0228F7D9F1
:10369000032001B0F0BD00BF01207047306900F089
:1036A0003801B06A102905D018290BD100F00300A9
:1036B000022807D130688003C9D560680028C6D1C8
:1036C000AEE000BF6068002800F03A81B0F5A02F9E
:1036D00000F04E81B0F5803F00F04E81306820F45C
:1036E00080303060306820F4802048E13068400746
:1036F000E06802D5002800F09380316821F01901BC
:1037000008433060FCF7C8FF054600BF306840073B
:1037100008D4FCF7C1FF401B02284FF00300F5D985
:1037200001B0F0BD7068216920F0FE4040EA016000
:1037300070602078C0061AD5306900F03801B06A90
:10374000082907D0182940F0858000F003000128DF
:1037500040F080803068C00502D5E06980285FD1E4
:10376000F068216A20F07C5040EA0160F060207827
:1037700000073FD42078800656D42078400700F117
:103780008180656A9DB3306900F03800182840F0E8
:103790001981012DB16A306B42D001F00302A36A96
:1037A0009A423DD1C1F30511E26A914238D10146F6
:1037B000226B6FF35F21013A914231D1C0F346226F
:1037C000616B01398A422BD1C0F30642A16B0139EA
:1037D0008A4225D1C0F30660E16B013988421FD1CE
:1037E000706BA16CC0F3CC00814240F0A18100203D
:1037F00001B0F0BD60690028706F59D040F0010041
:103800007067FCF749FF0546706F8007B2D4FCF77C
:1038100043FF401B0228F7D9032001B0F0BD00BFD1
:10382000012001B0F0BD00BFA0690028306875D04C
:1038300040F480503060FCF72FFF0546306880046C
:103840009BD4FCF729FF401B0228F7D9032001B0C5
:10385000F0BD00BFE0690028306800F0A18040F0B2
:1038600080003060FCF718FF054600BF3068C005D7
:103870003FF576AFFCF710FF401B02284FF0030026
:10388000F4D94DE7D6F8000440F48070C6F800047F
:10389000FCF702FF054600BFD6F80004C0052BD494
:1038A000FCF7FAFE401B6428F6D9032001B0F0BDF6
:1038B00020F001007067FCF7EFFE0546706F80078F
:1038C0007FF558AFFCF7E8FE401B02284FF00300DD
:1038D000F4D925E721F001003060FCF7DDFE054654
:1038E000306840077FF525AFFCF7D6FE401B022865
:1038F0004FF00300F4D913E7A068002800F084809B
:10390000052800F09B80012800F09C80306F20F09B
:1039100001003067306F20F0040096E020F4805002
:103920003060FCF7B9FE0546306880047FF525AFAE
:10393000FCF7B2FE401B02284FF00300F4D9EFE67B
:10394000306820F480303060306820F480203060AF
:10395000FCF7A2FE054600BF306880037FF577AE16
:10396000FCF79AFE401B64284FF00300F4D9D7E619
:10397000306840F480203060306840F4803030603F
:10398000FCF78AFE054600BF306880033FF55FAE56
:10399000FCF782FE401B6428F6D9032001B0F0BD7D
:1039A00020F080003060FCF777FE05463068C005E7
:1039B0007FF5DDAEFCF770FE401B02284FF00300E0
:1039C000F4D9ADE6306820F080703060FCF764FE1A
:1039D000022D05460CD100BF3068800148D5FCF7A8
:1039E0005BFE401B02284FF00300F5D998E600BFAC
:1039F000306880017FF5FBAEFCF74EFE401B0228CD
:103A00004FF00300F4D98BE6306F20F001003067EF
:103A1000306F20F004003067FCF73EFE054641F2AF
:103A20008837306F80077FF5ACAEFCF735FE401B62
:103A3000B8424FF00300F4D972E600BF306F40F097
:103A400004003067306F40F001003067FCF724FE5F
:103A5000054641F2883700BF306F80073FF591AED1
:103A6000FCF71AFE401BB8424FF00300F4D957E6AA
:103A700004F12807B06A40F2F33188438ECF08433F
:103A8000591E40EA02104FF47E426FF35F21B0628C
:103A900002EB47204FF4FE0280B2E36B0844A16BB7
:103AA00002EB01414FF0FE4201F4FE0102EB036222
:103AB000084402F0FE4108443063F06A4FF6F871A2
:103AC00020F00100F062706BA26C884340EAC200F3
:103AD0007063F06A216C20F00C000843F062F06A19
:103AE000616C20F002000843F062F06A40F480301C
:103AF000F062F06A40F40030F062F06A40F4802036
:103B0000F062F06A40F00100F062306840F08070CE
:103B10003060FCF7C1FD0446306880013FF567AEB8
:103B2000FCF7BAFD001B02284FF00300F4D9F7E5BB
:103B3000F06A20F00100F062FCF7AEFD0546FCF7EC
:103B4000ABFDA842FBD0706B4FF6F871A26C8843B6
:103B500040EAC2007063F06A40F00100F0620020A9
:103B600001B0F0BD00000000B0B50068002A406858
:103B70004FEA104300F03F0CC0F3042ECB70C0F3AB
:103B8000423281F801E081F802C00A7002D00020C0
:103B9000B0BD00BFDAB24FEA1E14120903F00F03E2
:103BA000050A00F00F0002EB820205F00F0503EB9F
:103BB0004202CA7044EA84034FEA1C1405EB430333
:103BC0004B7044EA840200EB420088700020B0BDD4
:103BD000B0B50068002A836A4B6003696FF3DF3376
:103BE0008B60006800F07F0C81F802C0C0F30543D1
:103BF0000B70C0F3062E81F801E0C0F38052CA704A
:103C000002D00020B0BD00BF1B09020C43EA8303B1
:103C100002F00F024FEA1E1402EB43020A7004EB9B
:103C200084034FEA1C14050A00F00F0004EB840221
:103C300005F00F0505EB43034B7000EB4200887065
:103C40000020B0BD00000000002847D0B0B50446F9
:103C500090F8210028B9002084F82000204600F0C8
:103C60005BF8022084F821002168C868C00643D4AC
:103C7000CA20486253204862C868400614D44FF0F6
:103C8000FF30C860FCF708FD2168CA6852060BD4F3
:103C9000054600BFFCF700FD401BB0F57A7F31D828
:103CA0002168C8684006F5D54FF6BF728868CFF620
:103CB0008F72251D104088602DCD2843A5692843AB
:103CC0008D682843886043EA02400861204603F07B
:103CD00083FB216820B1FF224A62B0BD01207047FA
:103CE000C86C20F00300C8646069E2691043CA6CC4
:103CF0001043C864FF204862012084F8210000209E
:103D0000B0BD00BF032084F821002168CA68FF22EB
:103D10004A62B0BD0000000010B5AEB0694604466E
:103D200001F10800B021FCF7F4FA44F20001206828
:103D3000C5F60001884201D02EB010BD00200190D0
:103D40004FF4800000904FF400702C906846FEF70E
:103D500037FD08B1FCF790FB44F27040C5F6020055
:103D6000016841F4004101602EB010BD0000000068
:103D70002DE9F041044690F8200001284FF00200A0
:103D800008BFBDE8F0814FF0010384F8203084F8CB
:103D900021003AB14878CA788E78000240EA024899
:103DA00045E000BF4878C20603D500F0EF000A30B6
:103DB0004870CA784FF0CD0CA0F10A054FF0010E03
:103DC000A2F10A03DFB207FB0CF7FE0A0EEBD727BE
:103DD00006EB8606A3EB4608EEB206FB0CF3D6B262
:103DE000092E4FEAD32688BF48EA071206EB86075A
:103DF0008E780EEBD3230928D2B2A5EB470588BFF6
:103E000045EA0310A6F10A03DDB2C0B205FB0CF7C8
:103E10000002FD0A40EA0248F2B205EB85000EEB13
:103E2000D727092AA3EB400088BF40EA071622687B
:103E30000F78CA20506253205062D068400613D4D5
:103E40004FF0FF30D060FCF727FC2268D1684906AC
:103E50000AD40546FCF720FC401BB0F57A7F23D836
:103E60002268D0684006F5D5F0B2790340EA080030
:103E700020F0C00008435060204603F0ADFA2168EE
:103E80004FF0FF024A6228B1002184F82010BDE8FB
:103E9000F08100BF012084F821000020002184F877
:103EA0002010BDE8F08100BF032084F821002168C4
:103EB000CA68FF224A62002184F82010BDE8F08120
:103EC0002DE9F04F81B0044690F8200001284FF012
:103ED000020000F0B3800D46012184F82010164640
:103EE00084F82100CA202168486253204862C868CB
:103EF000400614D44FF0FF30C860FCF7CDFB2168BA
:103F0000CA6852060BD40746FCF7C6FBC01BB0F5C7
:103F10007A7F00F289802168C8684006F4D58868F5
:103F200036B140060CD44FF0000E85F803E00AE0ED
:103F300040060FD44FF0000E85F803E00DE000BFFF
:103F4000E8784FEA805E28786B78AA781B0243EA0B
:103F5000004348E0E8784FEA805E2B784FF0CD0CC4
:103F600068784FF00109A3F10A02D6B206FB0CFAF9
:103F70004FEADA2709EBDA2A07EB8707A2EB4708B3
:103F8000A0F10A07FAB202FB0CF6DAB24FEAD62B1E
:103F9000092A88BF48EA0A130BEB8B08AA785FFA54
:103FA00080FA09EBD626A7EB4807BAF1090F88BFBC
:103FB00047EA0610DBB2A2F10A06F7B2C0B207FB6D
:103FC0000CF700024FEAD72C40EA03430CEB8C00BD
:103FD0005FFA82FC09EBD727A6EB4000BCF1090F82
:103FE00088BF40EA0712D0B247F67F721843C0F28A
:103FF0007F0240EA0E0010400860886820F48020AC
:104000008860D5E9030210438A681043886020461F
:1040100003F0E2F921684FF0FF024A6258B901202B
:1040200084F82100002006E0032084F821002168A4
:10403000CA68FF224A62002184F8201001B0BDE85E
:10404000F08F00000000000000284DD02DE9F04F57
:1040500081B043F6000104460068C4F2000143F257
:10406000000E43F6004C8842C4F2010EC4F2000C6C
:104070004FF00002A26203D0604518BF704541D1E5
:10408000E36B0125E268884202F1080205EB531355
:104090004FEAD20202FB03F318BF704526D1102B62
:1040A00033D894F8810028B9002084F88000204695
:1040B00000F0AAF8022084F88100D4E90009D4F8BD
:1040C00018800368B8F1806F23F0010303608368F0
:1040D00003F4F81E26D1B9F1000F1BD0B9F5800FFB
:1040E00020D1A36B23BB19E001207047604518BFA6
:1040F000082B0AD80CF574418842D0D06045CED048
:10410000CFE700BFE3680F2BBAD9012001B0BDE8AB
:10411000F08F00BFA36BB3F1805F06D1036843F457
:10412000805303605FEA492302D44FF0010C0FE093
:10413000E368072B0AD3056825F4807C256D45EAE2
:104140000C0505604FF0000C07E000BF4FF0000CBD
:10415000036823F480730360E368E769A26A47EAAF
:104160000E07E16B3A43A7681143B9F1000FD4E998
:1041700004BA41EA03018160616BA56B626A41EA9E
:104180000201226A41EA050141EA0B0141EA0A0102
:10419000D4E9126341EA0201A26D41EA030141EA56
:1041A000070141EA060141EA020141EA080141EA48
:1041B0000901C1600ED0016DBCF1000F21F00101B9
:1041C000016515D1C168626D21F000411143C160E4
:1041D0000EE000BF8168012262F3CC21816081681A
:1041E000022262F34A218160016D21F00101016523
:1041F0000020C4F88400012184F8811001B0BDE8DA
:10420000F08F00000000000070B5B6B0044602A8B0
:10421000B8210025CDE93455CDE932553195FCF76B
:1042200078F843F200412068C4F20101884247D087
:1042300043F20001C4F20101884275D14FF480506D
:10424000029002A800250395FEF7BAFA08B1FCF720
:1042500013F944F2E04040F20044C5F60200C5F60E
:1042600002040226016941F480510161016901F4EF
:10427000805101910199016841F0080101600168D4
:1042800001F0080101910199016841F0020101600A
:10429000006831A900F0020001900198802031905F
:1042A0000520359004F50060CDE932653495FCF7C2
:1042B000FFF81820CDE93106CDE933552EE000BFD7
:1042C0004FF40050029002A80395FEF779FA08B166
:1042D000FCF7D2F844F2E040C5F60200016941F46F
:1042E00000510161016901F40051019101990168D6
:1042F00041F01001016040F200410068C5F6020182
:1043000000F01000019001F5406401984FF4A040C6
:104310003190022032900020339034900520359067
:1043200031A92046FCF7C4F836B070BD000000008B
:104330002DE9F04381B0044690F8800001281CD09C
:104340001D4617460E46D4F80090012084F88000E0
:10435000FCF7A2F994F8811001290BD1002E18BFA7
:10436000002F0FD1002084F88000012001B0BDE8AB
:10437000F08300BF002084F88000022001B0BDE877
:10438000F08300BF8046042084F881000020C4F838
:1043900084006666A4F86870A4F86A70E065A4F802
:1043A0006000A4F86200A1682067B1F5C02F6067C3
:1043B000206805D1016821F40061016005E000BFBB
:1043C000C168022262F35241C16041684FF6FF7238
:1043D000914339444160016841F001010160616825
:1043E000B1F5800F03D1016841F400710160E1680B
:1043F000102925D3B4F86A00002800F0CA80681C90
:1044000000F0AC8048F208060FE000BF006B616E60
:1044100041F8040B6166B4F86A000138A4F86A0038
:10442000B4F86A00002800F0B48020684169314285
:10443000ECD1FCF731F9A0EB0800A842F0D35FE023
:10444000B4F86A0007293BD9002800F0A280681C54
:1044500010D121E0B9F83000616E21F8020B6166DD
:10446000B4F86A000138A4F86A00B4F86A000028B9
:1044700000F08F8020684069C007EBD1FCF70CF991
:10448000A0EB0800A842F0D33AE000BFFCF704F923
:10449000B4F86A0000287CD020684069C007F5D0D5
:1044A000B9F83000616E21F8020B6166B4F86A0059
:1044B0000138A4F86A00B4F86A000028ECD168E07A
:1044C000002866D0681C11D133E000BF90F830009E
:1044D000616E0870606E01306066B4F86A00013881
:1044E000A4F86A00B4F86A00002852D02068416934
:1044F000C907EBD1FCF7D0F8A0EB0800A842F1D334
:10450000204603F091FD002084F88000D4F8840058
:1045100040F48070C4F88400012084F881000320F6
:1045200001B0BDE8F08300BFFCF7B6F8B4F86A004C
:1045300078B320684169C907F6D090F83000616E01
:104540000870606E01306066B4F86A000138A4F843
:104550006A00B4F86A000028EBD11AE048F20805B6
:1045600005E000BFFCF798F8B4F86A0088B120684D
:1045700041692942F6D0006B616E41F8040B616617
:10458000B4F86A000138A4F86A00B4F86A00002898
:10459000EDD1204603F048FD002084F88000012082
:1045A00084F88100D4F88400002818BF012001B0ED
:1045B000BDE8F083000000002DE9F047044690F8C4
:1045C0008000012802D10220BDE8F0871D46174671
:1045D0000E46D4F80090012084F88000FCF75CF8C7
:1045E00094F88110012909D1002E18BF002F0BD19A
:1045F000002084F880000120BDE8F087002084F8C6
:1046000080000220BDE8F0878046032084F8810006
:104610000020C4F88400E665A4F86070A4F8627015
:104620006066A4F86800A4F86A00A1682067B1F584
:10463000C02F6067206805D1016841F40061016006
:1046400005E000BFC168012262F35241C1604168C8
:104650004FF6FF72914339444160016841F0010116
:1046600001606168B1F5800F03D1016841F4007108
:104670000160E16810294DD3B4F86200002800F011
:10468000C580681C0FD132E0E16D51F8042B026245
:10469000E165B4F862000138A4F86200B4F8620081
:1046A000002800F0B380206841698907ECD4FBF74B
:1046B000F3FFA0EB0800A842F0D3204603F0B4FCBF
:1046C000002084F88000D4F8840040F48070C4F89E
:1046D0008400012084F881000320BDE8F08700BF3A
:1046E000FBF7DAFFB4F86200002800F08F80206842
:1046F00041698907F4D5E16D51F8042B0262E16547
:10470000B4F862000138A4F86200B4F8620000282E
:10471000EDD17BE0B4F86200072933D9002875D0C9
:104720004FF6FE706E1C471C13E000BFE06B0028C4
:10473000E06D20D050F8042B0A624FF6FE71E06560
:10474000B4F862000844A4F86200B4F862000028DB
:104750005CD021684869800708D4FBF79DFF002ED4
:10476000F3D0A0EB0800A842EFD3A6E7B4F86200AC
:104770000128DBD8E06D30F8021BA9F8201039467B
:10478000DDE700BF002841D04FF6FE706E1CA0F19F
:10479000020A471C0EE000BFE16D51F8042B0262D3
:1047A0005046E165B4F862100844A4F86200B4F819
:1047B000620058B320684169890709D4FBF76CFF90
:1047C000002EF4D0A0EB0800A842F0D375E700BF9C
:1047D000B4F86210042902D3E16B4129DCD2B4F8A9
:1047E000621001290AD9E16B0029E16D07D031F887
:1047F000020BA9F820004FF6FE70D2E7E16D0978B0
:1048000080F82010E06D411C3846CAE7681C13D0C0
:1048100020684069000713D4FBF73EFFA0EB0800B7
:10482000A842F5D3D4F8840040F02000C4F88400F6
:1048300006E000BFFBF730FF206840690007F9D5AC
:10484000204603F0F1FB002084F88000012084F86A
:104850008100D4F88400002818BF0120BDE8F0874B
:10486000411E0020B0EB116F02D00120704700BF45
:104870004EF21002F023CEF2000251604EF62351A8
:10488000CEF200010B7007219060116070470000AC
:1048900090F83C20012A01D102207047F0B5CB6886
:1048A00048F2FF7ED1E901C223F47C5322F4705216
:1048B000CFF6F07E1A430CEA0E03D1F800C042EAAC
:1048C000030E2CF477230A6943EA0E0322F47622BE
:1048D0008D691A434B691A430B6B22F4742223F43B
:1048E0007024D0F800C040F2004E22434CF48063A4
:1048F000C4F2010E42EA0542734502BF22F0805223
:10490000CC692243734514D100268D6ACFF6F04658
:1049100022F07C720C6A06EA05552A4324F00074E2
:104920004F6A22433A43734502BF22F00052C96ADC
:104930000A43CCF84420002180F83C10BDE8F04048
:10494000084670470000000090F83C20012A4FF014
:10495000020266D0B0B580F83D2040F2004C0268FB
:10496000C4F2010C42F4806363455368D2F808E056
:1049700002BF23F470034C6823434DF6FF740D68A7
:10498000C4F2000423F07003A24243EA050353601B
:1049900014DC40F2FF73C4F200039A4222DD40F6B9
:1049A0000003C4F200039A422ED040F60043C4F242
:1049B00000039A4228D041F6000321E04FF6FF732E
:1049C000C4F200039A4213DD0023C4F201039A42A9
:1049D0001AD044F20003C4F201039A4214D0624593
:1049E00012D016E0B2F1804F0ED040F2004307E043
:1049F0004EF20003C4F200039A4205D04EF2004387
:104A0000C4F200039A4204D12EF08003896819434E
:104A100091600022012180F83D1080F83C20BDE823
:104A2000B04010467047000051B1082910D0042949
:104A300016D100F145021278012A0ED115E000BF0F
:104A400090F84420012A08D1022280F844201BE07B
:104A500000F146021278012A07D00120704700BFFA
:104A600000F147021278012AF7D10222082905D065
:104A7000042907D180F8452006E000BF80F84620D1
:104A800002E000BF80F84720026801F01F00042107
:104A900001FA00F0116A81431162116A0843106241
:104AA0004DF6FF70516CC4F20000824241F40040A8
:104AB000506419DC40F2FF70C4F2000082422BDD2A
:104AC00040F60000C4F2000082423BD040F60040B5
:104AD000C4F20000824235D041F60000C4F200006A
:104AE00082422FD03AE000BF4FF6FF70C4F20000C0
:104AF00082421BDD0020C4F20100824222D044F237
:104B00000000C4F2010082421CD040F20040C4F216
:104B10000100824216D021E0B2F1804F12D040F263
:104B20000040C4F2000082420CD017E04EF20000B8
:104B3000C4F20000824205D04EF20040C4F20000F0
:104B400082420BD107219068C0F201010140002090
:104B5000062918BFB1F5803F00D17047106840F0BA
:104B6000010010600020704790F83C30012B01D10B
:104B7000022070474FEAB202052A33D82DE9F041EE
:104B8000DFE812F0060036007400B200D800FE0024
:104B9000036843F6FF76C4F201061A6AB34222F0B4
:104BA00001021A621A461C6AD3F804C024F00204F7
:104BB00052F818EF8D6844EA0504D1F8008040F3FC
:104BC000058144F20007C4F20107BB4200F00981ED
:104BD00044F60007C4F20107BB4200F0028144F230
:104BE0000047FAE00121002280F83C200846704787
:104BF000036840F2004E43F48067C4F2010E1A6A63
:104C0000774522F010021A621A461C6A5D6824F089
:104C1000200452F818CF8E6844EA061407D1CE68F3
:104C20006FF0400724F0C00407EA0616344343F649
:104C3000FF76D1F80080C4F20106B34240F3EC8065
:104C400044F20007C4F20107BB4200F0EC8044F6D6
:104C50000007C4F20107BB4200F0E58044F20047C0
:104C6000C4F20107BB4200F0DE80E3E0036840F2DB
:104C7000004E43F48067C4F2010E1A6A774522F4AD
:104C800080721A621A461C6A5D6824F4007452F835
:104C90001CCF8E6844EA062407D1CE6840F2FF4755
:104CA000360224F44064BE43344343F6FF76D1F821
:104CB0000080C4F20106B34240F3D48044F20007FE
:104CC000C4F20107BB4200F0D48044F60007C4F2EE
:104CD0000107BB4200F0CD8044F20047C4F2010757
:104CE000BB4200F0C680CBE0036843F6FF77C4F216
:104CF00001071A6ABB4222F480521A621A46D3F89C
:104D000020C05C6852F81C6F0D68D1F808E040F3D1
:104D1000CF8044F20007C4F20107BB4200F0D38009
:104D200044F60007C4F20107BB4200F0CC8044F215
:104D30000047C4E0036843F6FF77C4F201071A6A2C
:104D4000BB4222F480321A621A46D3F820C05C6853
:104D500052F8546F0D68D1F808E040F3D38044F264
:104D60000007C4F20107BB4200F0D78044F60007F9
:104D7000C4F20107BB4200F0D08044F20047C8E013
:104D8000036843F6FF77C4F201071A6ABB4222F4B4
:104D900080121A621A46D3F820C05C6852F8546F29
:104DA0000D68D1F808E040F3D98044F20007C4F25E
:104DB0000107BB4200F0DD8044F60007C4F20107A2
:104DC000BB4200F0D68044F20047CEE00027C4F298
:104DD0000107BB4205D040F20047C4F20107BB42C5
:104DE00005D1CF6824F00C0427F004073C43B342FC
:104DF00040F3E28044F20006C4F20106B34200F040
:104E0000E68044F60006C4F20106B34200F0DF80FB
:104E100044F20046D7E000BF0027C4F20107BB42BE
:104E200001D0734506D1D1E90576374325F44066B4
:104E300046EA870548F6FF475D60CFF6FF6707EA59
:104E40000C0747EA08279F614F6809699F631C6246
:104E50009F6947F400679F619F6927F480679F619E
:104E6000A7E000BF0027C4F20107BB4201D0734591
:104E700006D1D1E90576374325F4405646EA0715B1
:104E80004FF68C775D60CFF6FE7707EA0C0747EAAE
:104E90000807DF614F680969DF631C62DF6947F05B
:104EA0000807DF61DF6927F00407DF61ADE000BFBD
:104EB0000027C4F20107BB4205D040F20047C4F20C
:104EC0000107BB4204D14F6924F4804444EA8714AB
:104ED00048F6FF475C60CFF6FF673E402CF4005772
:104EE00046EA0524DC614E6809691E6447EA0E370C
:104EF0001F62DF6947F40067DF61DF6927F48067BD
:104F0000DF6156E00027C4F20107BB4205D040F242
:104F10000047C4F20107BB4204D14F6924F4803436
:104F200044EA07244FF68C775C60CFF6FE770337B0
:104F30003E402CF4003746EA05045C654E6809697A
:104F40009E6547EA0E471F625F6D47F008075F6581
:104F50005F6D27F004075F6557E000BF0027C4F2CC
:104F60000107BB4205D040F20047C4F20107BB4233
:104F700004D14F6924F4802444EA872448F6FF478B
:104F80005C60CFF6FF6707F540773E402CF40017D2
:104F900046EA05245C654E680969DE6547EA0E57F6
:104FA0001F625F6D47F400675F655F6D27F4806780
:104FB0005F65090229E000BF0026C4F20106B34282
:104FC00005D040F20046C4F20106B34206D12CF4EB
:104FD0004077D1E90565374347EA050C4FF68C75F4
:104FE000C3F804C0CFF6FE750EEA050747EA0807C6
:104FF0009F614F6809695F631C629F6947F00807FA
:105000009F619F6927F004079F611368194311602E
:105010000021BDE8F041002280F83C20084670479E
:1050200060B310B5044690F83D0028B9002084F81C
:105030003C00204600F024F8022084F83D0020685F
:10504000211D04F0F9F9012084F8480084F83E009D
:1050500084F83F0084F8400084F8410084F842005E
:1050600084F8430084F8440084F8450084F846003E
:1050700084F8470084F83D00002010BD01207047EF
:1050800000210068C4F20101884218BF704781B056
:1050900044F2F040C5F60200016841F001010160F0
:1050A000006800F001000090009801B07047000017
:1050B000FEE70000000000002DE9F04F03AF8FB0C5
:1050C0009A460823BAF10C0F164608BF062347F884
:1050D0001C1C40F2740147F8203C03FB0AF347F81C
:1050E000340C0720C2F2004147F83CDC00EB4300DF
:1050F000D7F8188020F007000988ADEB000047F8CA
:10510000301C47F8240C854640F2A015A7F1180181
:10511000C2F2004505F10804204603F099FBA7F10F
:105120001401204647F8404C03F09AFBB8F1000FF9
:10513000A6F1200000F01481BAF1000F00F05583B1
:10514000C0B240F27401C2F2004157F814ECBAF157
:105150000C0F098809BA4FEA114147F82C1C57F87F
:10516000181C47F8281C40F0498200EB400042F62A
:105170006551C0F601014FF0000C01EB80090021E0
:10518000002657F8342C57F81C5C00BF19F90100B1
:1051900021F0010357F8244CB0F1FF3F04EB030B5F
:1051A00007DCB3B257F8204C634357F82C4C2BF86C
:1051B00013400136B3B2534505F101039BB228BF3A
:1051C00066469E4540F2218357F81C4C1B1B5345F5
:1051D00000F0B880C0B2430607D5B3B257F8204CF0
:1051E000634357F82C4C2BF813400136B3B25345A8
:1051F00005F102039BB228BF66469E4540F2058337
:1052000057F81C4C1B1B534500F09C80830607D5A8
:10521000B3B257F8204C634357F82C4C2BF813408B
:105220000136B3B2534505F103039BB228BF66466E
:105230009E4540F2EA8257F81C4C1B1B534500F078
:105240008180C30607D5B3B257F8204C634357F8A3
:105250002C4C2BF813400136B3B2534505F104032F
:105260009BB228BF66469E4540F2CF8257F81C4C41
:105270001B1B534566D0030707D5B3B257F8204C24
:10528000634357F82C4C2BF813400136B3B2534507
:1052900005F105039BB228BF66469E4540F2B582E4
:1052A00057F81C4C1B1B53454CD0430707D5B3B2D2
:1052B00057F8204C634357F82C4C2BF81340013619
:1052C000B3B2534505F106039BB228BF66469E451F
:1052D00040F29B8257F81C4C1B1B534532D083076E
:1052E00007D5B3B257F8204C634357F82C4C2BF832
:1052F00013400136B3B2534505F107039BB228BFF3
:1053000066469E4540F2818257F81C4C1B1B534554
:1053100018D0C00707D0B0B257F8203C584357F810
:105320002C3C2BF810300835A8B2864540F26D822F
:10533000013657F81C4CB3B2001B534528BF6646D4
:10534000504507D1013257F8283C90B22546834298
:1053500040F25B8201310C297FF418AF45E200BFB7
:10536000BAF1000F00F04182C0B22988BAF10C0FE7
:1053700009BA4FEA114147F82C1C57F8301C91FA32
:1053800091FC57F8141C47F8281C57F8181C47F8CC
:10539000381C40F0498200EB400042F66551C0F6EF
:1053A00001010023002657F8349C57F81CBC01EB80
:1053B000800047F8440C00BF57F8440C23F001016B
:1053C00057F82C5CC05657F8242C02EB010E002134
:1053D000B2B2002848BF654657F8204C0136544306
:1053E000B2B252450BF1010292B228BF0E4657F8F5
:1053F000288C2EF81450904540F2078257F81C4C28
:10540000121B524500F0DC805FFA80F857F82C5CE4
:105410005FEA486048BF6546B0B257F8204C013695
:105420004443B0B250450BF1020080B228BF0E4693
:1054300057F8282C2EF81450824240F2E68157F893
:105440001C4C001B504500F0BB8057F82C5C5FEAF9
:10545000886048BF6546B0B257F8204C01364443D7
:10546000B0B250450BF1030080B228BF0E4657F88A
:10547000282C2EF81450824240F2C78157F81C4C59
:10548000001B504500F09C8057F82C5C5FEAC86018
:1054900048BF6546B0B257F8204C01364443B0B21D
:1054A00050450BF1040080B228BF0E4657F8282C57
:1054B0002EF81450824240F2A88157F81C4C001B71
:1054C00050457DD057F82C5C5FEA087048BF6546B0
:1054D000B0B257F8204C01364443B0B250450BF1FE
:1054E000050080B228BF0E4657F8282C2EF814501D
:1054F000824240F28A8157F81C4C001B50455FD015
:1055000057F82C5C5FEA487048BF6546B0B257F860
:10551000204C01364443B0B250450BF1060080B236
:1055200028BF0E4657F8282C2EF81450824240F21D
:105530006C8157F81C4C001B504541D057F82C5C2F
:105540005FEA887048BF6546B0B257F8204C013614
:105550004443B0B250450BF1070080B228BF0E465D
:1055600057F8282C2EF81450824240F24E8157F8FA
:105570001C4C001B504523D057F8202C5FEAC87004
:10558000B0B2654600FB02F206F1010657F82C1C8A
:105590000BF1080BB0B208BF0D46002150451FFAB1
:1055A0008BF028BF0E4657F8284C2EF81250844234
:1055B00040F22B8157F81C4C001B504514D100BF02
:1055C00009F1010957F8381C1FFA89F0A3468142F6
:1055D00040F27400C2F20040058040F216810133AF
:1055E0000C2B7FF4E9AE00E140F27400C2F20040FF
:1055F000058001330C2B7FF4DFAEF6E043F2D911C6
:105600004FF0000CC0F60101002601EB001900214B
:1056100057F8342C57F81C8C19F9010021F00103BC
:1056200057F8245CB0F1FF3F05EB030B0ADCB3B283
:1056300057F820CC57F82C5C0CFB03F34FF0000C10
:105640002BF813500136B3B2534508F101039BB256
:1056500028BF66469E4540F2D88057F81C5C5B1B0D
:10566000534500F0B780C0B2430607D5B3B257F830
:10567000204C57F82C5C63432BF813500136B3B21F
:10568000534508F102039BB228BF66469E4540F28F
:10569000BC8057F81C5C5B1B534500F09B80830665
:1056A00007D5B3B257F8204C57F82C5C63432BF85E
:1056B00013500136B3B2534508F103039BB228BF20
:1056C00066469E4540F2A18057F81C5C5B1B534523
:1056D00000F08080C30607D5B3B257F8204C57F8C6
:1056E0002C5C63432BF813500136B3B2534508F1D9
:1056F00004039BB228BF66469E4540F2868057F859
:105700001C5C5B1B534565D0030707D5B3B257F844
:10571000204C57F82C5C63432BF813500136B3B27E
:10572000534508F105039BB228BF66469E456CD9D8
:1057300057F81C5C5B1B53454CD0430707D5B3B2ED
:1057400057F8204C57F82C5C63432BF81350013664
:10575000B3B2534508F106039BB228BF66469E4587
:1057600053D957F81C5C5B1B534533D0830707D5CF
:10577000B3B257F8204C57F82C5C63432BF8135006
:105780000136B3B2534508F107039BB228BF664602
:105790009E453AD957F81C5C5B1B53451AD0C0078D
:1057A00007D0B0B257F8203C584357F82C3C2BF8A0
:1057B000103008F108081FFA88F0864525D901360F
:1057C00057F81C5CB3B2401B534528BF6646504592
:1057D00007D100BF013257F8283C90B2A846834257
:1057E00013D901318A457FF417AF82B057F8200CE6
:1057F00057F8341CCDE9000A57F8400C57F81C2C18
:1058000057F8243C02F078FE02B040F2740057F8DA
:10581000301CC2F20040018057F83CDCA7F10C04B8
:10582000A546BDE8F08F00BF43F2D9110023C0F6B2
:1058300001014FF0000857F8349C01EB001057F8B5
:105840001C4C47F8440C00BF57F8440C57F82C5C2C
:10585000C15623F0010057F8242C0029104448BFFA
:1058600065461FFA88F257F8206C08F1010806FB1C
:1058700002FB00261FFA88F2524504F1010292B29F
:1058800028BFB04657F8286C20F81B509642BCD968
:1058900057F81C6C921B524500F0F6805FFA81FBB2
:1058A00057F82C5C5FEA4B624FF0000148BF654639
:1058B0001FFA88F257F8206C08F1010856431FFAC6
:1058C00088F2524504F1020292B228BF884657F886
:1058D000281C20F81650914297D957F81C6C921B3F
:1058E000524500F0D18057F82C5C5FEA8B6248BFCC
:1058F00065461FFA88F257F8206C08F1010800216C
:1059000056431FFA88F2524504F1030292B228BFAF
:10591000884657F8281C20F8165091427FF675AF3C
:1059200057F81C6C921B524500F0AE8057F82C5C67
:105930005FEACB6248BF65461FFA88F257F8206CD1
:1059400008F10108002156431FFA88F2524504F17C
:10595000040292B228BF884657F8281C20F8165037
:1059600091427FF652AF57F81C6C921B524500F0E3
:105970008B8057F82C5C5FEA0B7248BF65461FFAB4
:1059800088F257F8206C08F10108002156431FFAED
:1059900088F2524504F1050292B228BF884657F8B2
:1059A000281C20F8165091427FF62FAF57F81C6C38
:1059B000921B524568D057F82C5C5FEA4B7248BF87
:1059C00065461FFA88F257F8206C08F1010800219B
:1059D00056431FFA88F2524504F1060292B228BFDC
:1059E000884657F8281C20F8165091427FF60DAFD4
:1059F00057F81C6C921B524546D057F82C5C5FEA56
:105A00008B7248BF65461FFA88F257F8206C08F180
:105A10000108002156431FFA88F2524504F107029B
:105A200092B228BF884657F8281C20F81650914299
:105A30007FF6EBAE57F81C6C921B524524D057F8FA
:105A4000202C5FEACB711FFA88F1654601FB02F258
:105A500008F1010857F82C6C04F108041FFA88F1CA
:105A600008BF354600265145A1B228BFB04657F8B9
:105A7000286C20F812508E427FF6C7AE57F81C0CE7
:105A8000081A504516D100BF09F1010957F8381C12
:105A90001FFA89F057F81C4C814240F27400C2F2A0
:105AA000004005807FF6B1AE01339A457FF4CCAE5D
:105AB0009BE600BF40F27400C2F200400580013353
:105AC0009A457FF4C1AE90E62DE9F04F83B00D9F6B
:105AD0003E78A6F12005EDB25E2D2AD80C46804610
