:020000040800F2
:1000000068430024E1020008B1640008D1500008F0
:10001000A964000861040008D1B5000800000000D0
:10002000000000000000000000000000118F000828
:100030006904000800000000B16D0008198F000875
:10004000FB020008FB020008FB020008FB0200089C
:10005000FB020008FB020008FB020008FB0200088C
:10006000FB020008FB020008FB020008FB0200087C
:10007000FB020008FB020008FB020008FB0200086C
:10008000FB020008FB020008FB020008FB0200085C
:10009000FB020008FB020008FB020008FB0200084C
:1000A000FB020008FB020008FB020008FB0200083C
:1000B000FB020008FB020008FB020008FB0200082C
:1000C000FB020008FB020008FB020008FB0200081C
:1000D000FB020008FB020008FB020008FB0200080C
:1000E000FB020008FB02000800000000FB02000801
:1000F000FB020008FB020008FB020008FB020008EC
:10010000FB020008FB020008FB020008FB020008DB
:10011000FB020008FB020008FB020008FB020008CB
:10012000FB020008FB020008FB020008FB020008BB
:10013000FB020008FB020008FB020008FB020008AB
:1001400000000000000000000000000000000000AF
:10015000FB020008FB020008FB020008FB0200088B
:10016000FB020008FB020008FB020008FB0200087B
:10017000FB020008A16D0008FB020008000000005F
:10018000FB020008FB020008FB020008FB0200085B
:10019000FB020008FB020008FB020008FB0200084B
:1001A000FB020008FB020008FB0200080000000040
:1001B000FB020008FB020008FB020008FB0200082B
:1001C000FB020008FB020008000000000000000025
:1001D0000000000000000000FB020008000000001A
:1001E000000000000000000000000000000000000F
:1001F0000000000000000000FB020008FB020008F5
:10020000FB020008FB02000800000000FB020008DF
:10021000FB020008FB020008FB020008FB020008CA
:10022000FB02000800000000FB02000800000000C4
:10023000FB020008FB02000800000000FB020008AF
:10024000FB020008FB020008FB020008FB0200089A
:10025000FB020008FB020008FB020008FB0200088A
:10026000FB020008FB020008FB020008FB0200087A
:10027000FB020008FB020008FB020008000000006F
:10028000FB020008FB020008FB020008FB0200085A
:1002900000000000FB020008FB0200080000000054
:1002A00000000000FB020008FB020008FB0200083F
:1002B000FB020008FB020008FB020008FB0200082A
:1002C000FB020008FB020008FB020008DFF80CD06C
:1002D00000F068F800480047B9BD000868430024F2
:1002E0000648804706480047FEE7FEE7FEE7FEE7D0
:1002F000FEE7FEE7FEE7FEE7FEE7FEE7F98F000810
:10030000CD020008D2B201E000F8012B491EFBD259
:1003100070470022F6E710B513460A460446194610
:10032000FFF7F0FF204610BD2DE9F05F05460020E5
:1003300092469B4688460646814640241BE0284656
:1003400041464746224600F04EF853465A46C01AE8
:10035000914110D311461846224600F035F82D1A67
:1003600067EB01084F4622460120002100F02CF8DF
:1003700017EB00094E41201EA4F10104DFDC4846C2
:1003800031462A464346BDE8F09F420005D0C0F3FF
:10039000C7525242914201DC0020704700EBC1502D
:1003A00070470000064C074D06E0E06840F001038E
:1003B00094E8070098471034AC42F6D3FFF78AFF61
:1003C000BC340108DC340108202A04DB203A00FA9E
:1003D00002F1002070479140C2F1200320FA03F39C
:1003E000194390407047202A04DB203A21FA02F09A
:1003F0000021704721FA02F3D040C2F1200291405F
:1004000008431946704770B58C1810F8015B15F059
:10041000070301D110F8013B2A1106D110F8012B76
:1004200003E010F8016B01F8016B5B1EF9D12B079B
:1004300005D40023521E0DD401F8013BFAE710F851
:10044000013BCB1A921C03E013F8015B01F8015B3E
:10045000521EF9D5A142D8D3002070BD0000000083
:10046000FEE70000000000007047000000000000F0
:10047000EFF3108072B600BFFEE70000000000003E
:10048000B0B5044600F008F940F204010546C2F296
:100490000041621C097818BF0C4400BF00F0FCF852
:1004A000401BA042FAD3B0BD2DE9F04F82B00D68D9
:1004B000002D00F0CB8000F1264242F2004302F111
:1004C000FF72C5F602030A2698424FEAB22444F2AC
:1004D000F44E08BF0926082C40F2040C38BF4FEA3E
:1004E000B226C5F6020EC5F6000C009600220027C3
:1004F000002609E001360D6835FA06F307F1040716
:1005000002F1020200F0A280012303FA06F415EAC8
:100510000408EFD0D1F804A003230AF0030B9340A2
:10052000ABF101056FEA0309012D0FD88368CD688F
:1005300003EA090395402B438360CAF3001543681F
:10054000A34305FA06F42343436005E0BBF1030F20
:1005500002D14FF0030B21E0C3688C6803EA090362
:100560009440BBF1020F43EA0403C36016D16FF05D
:10057000030307F01C0503EA56030F24034404FA9F
:1005800005FBD3F820A00C692AEA0B0AAC4044EA28
:100590000A041C62D1F804A00AF0030B03680BFAEA
:1005A00002F403EA09031AF4403F43EA0403036038
:1005B000A0D0DEF8003040F2084A43F00203CEF843
:1005C0000030DEF80030C5F6000A03F002030193A4
:1005D00026F00303019C07F00C040F2553F80A9042
:1005E000A54029EA0509009D05FA04F444EA090436
:1005F00043F80A404FF0B04ADAF800904C6849EAF4
:100600000805E30258BF29EA0805A302CAF800500A
:10061000DCF8009049EA080558BF29EA0805A30359
:10062000CCF80050DCF8809049EA080558BF29EA68
:100630000805E403CCF88050DCF87C3043EA080578
:1006400058BF23EA0805CCF87C5053E702B0BDE858
:10065000F08F0000000000000069084018BF012072
:100660007047000000000000426902EA0103914364
:1006700041EA034181617047002A08BF0904816192
:10068000704700000000000041F20000C5F6004085
:1006900000686FF31F30704742F26030C2F20040D2
:1006A000006870470000000040F2040042F2603130
:1006B000C2F20040C2F2004100780A6810440860AB
:1006C000704700000000000080B5032000F0FCF837
:1006D00002F036FF44F218414CF29453C5F6020181
:1006E000C0F600030A68096801F00F01C2F3032293
:1006F000595C9A5C01F01F0102F01F02D04040F2E9
:100700001002C2F2004220FA01F1116040F20C0125
:10071000C2F2004108600F2000F00AF800281CBF58
:10072000012080BD00F07CF8002080BD00000000AA
:1007300070B540F20406C2F200463178E1B10446D9
:1007400040F20C00C2F200404FF47A72B2FBF1F1B9
:100750000068B0FBF1F004F08BF80F2C4FF00105AE
:1007600008D838B94FF0FF3000222146002500F0AC
:100770007BF87460284670BD012070BD0000000049
:10078000B0B502784EF69C5CCEF2000C43784CF883
:10079000043CFAB14368CCF80030037BC17A90F88E
:1007A0000AE0457B447A42EA0372837B42EA0161B4
:1007B000C27B41EACE41007A41EA854141EA4341A8
:1007C00041EA024141EA042141EA4000CCF8040038
:1007D000B0BD00BF0020CCF80000CCF80400B0BDD4
:1007E0004EF62450CEF20000BFF35F8F016821F473
:1007F00080310160002101677047000000000000A7
:100800004EF6245140F00100CEF20001086708685E
:1008100040F480300860BFF34F8FBFF36F8F704795
:1008200081B044F2F440C5F60200016841F00201D3
:100830000160006800F002000090009801B070476D
:10084000002848BF704781B200F01F00012249090B
:1008500002FA00F04EF20012CEF2000242F821003D
:10086000704700000000000070B54EF60C5C4FF0C1
:10087000FF36CEF2000C00F1604505F56445DCF86A
:100880000030C3F3022E8EF00703042B28BF04238D
:10089000BEF1030406FA03F321EA030100F00F039B
:1008A00038BF0024043B0028634406FA04F048BF24
:1008B00003F10C05A14022EA000008430001287062
:1008C00070BD0000000000004EF60C514FF6FF0313
:1008D000CEF200010A681A4060F30A2242F08060FA
:1008E00040F0FD70086070472DE9F04F8DB04BF27D
:1008F00004480022C5F200280392CDE901220492A7
:1009000045F200030592C5F20023D0F80090D8F814
:100910000000B9EB030A00F0030218BF4FF0010A10
:10092000012A6DD10122019200F03002102A6BD011
:1009300000F44072B2F5807F01D10122039200F4ED
:10094000A0220127B2F5803FC0F2001764D18203D4
:100950003A4658BF4FF00112049200F0A062B2F183
:10096000807F5ED0D8F8040000F00302012A64D131
:100970000222019200F03002102A62D000F440728C
:10098000B2F5807F01D10222039200F4A02240F24E
:10099000020EB2F5803FC0F2010E0AD13A4687033B
:1009A0001746724645F2000348BF7A1CC5F2002381
:1009B000049200F0A062B2F1807F04D18001704601
:1009C00048BF781C059000250B95CDE90955CDE968
:1009D000075558F8040CD8F80060C0074FF40070B1
:1009E00004BF40F22220C0F20440F20705D086EA9C
:1009F000000292072ED401250795F2062DD43BE084
:100A000000F03002102A93D10122029200F44072C9
:100A1000B2F5807F91D092E700F0A062B2F1807FC2
:100A2000A0D18001384658BF4FF001100590D8F88A
:100A3000040000F00302012A9AD000F03002102ACC
:100A40009CD10222029200F44072B2F5807F9AD0CB
:100A50009BE700BF0025F2060ED586EA000292064B
:100A60000AD4012401220092089406F44072B2F5DF
:100A7000407F0AD107E000BF0022009206F44072D6
:100A8000B2F5407F01D101220992F2030ED586EA28
:100A9000000252030AD4BC46B20358BF4FF0011CF7
:100AA000CDF828C0F20115D504E000BF4FF0000CCE
:100AB000F2010FD586EA000252010BD4BB46B20107
:100AC00058BF4FF0011BCDF82CB0D8F80440E20716
:100AD0000CD005E04FF0000BD8F80440E20705D039
:100AE00084EA0002920701D402250795E20607D5A1
:100AF00084EA0002920603D402260222009208969B
:100B000004F44072B2F5407F01D102220992E2035F
:100B10000AD584EA0002520306D4F446A20348BF71
:100B200007F1010CCDF828C0E20109D56040400171
:100B300006D4A00148BF07F1010EF346CDF82CE022
:100B40001868C007A9EB030002D14FF0000E05E0C2
:100B50001A684FF0010E22F001021A60B0FA80F418
:100B60004AF20003C5F200231A68D20705D01868BC
:100B70000EF1020E20F0010018600AEB4A0601A8EF
:100B8000640900EBC602976808EB870757F8043C36
:100B900023F4807347F8043C58F8043CDB072BD15E
:100BA00050F83670002F5DD008EB870353F8047CB3
:100BB00027F0010743F8047C57683FB108EB87032F
:100BC00053F8047C27F0100743F8047CD7683FB142
:100BD0000123BB4358F8237027F4803748F823706B
:100BE0001269002A3ED0012323EA020258F822307B
:100BF00023F0807334E000BF45F2000358F8042C62
:100C0000C5F2002322F00102994548F8042C29D1AD
:100C100008EB850252F8043C009D43F0020342F8C1
:100C2000043C3DB108EB850252F8043C43F020033C
:100C300042F8043CBCF1000F08D0012222EA0C0269
:100C400058F8223043F4802348F82230BBF1000FDB
:100C500008D0012222EA0B0258F8223043F08063C8
:100C600048F8223004EB44024E6800EBC20450F80E
:100C700032000A688242656816D145F20007AE422A
:100C80002A46C5F2002728D1CA68E3689A421DD1D6
:100C90000A6923699A4232461FD158F8040C40F081
:100CA000010048F8040C48E045F20007AE42324625
:100CB000C5F2002711D08A68A3689A4203D0CA6897
:100CC000E3689A4204D12A4607E000BF324604E0B6
:100CD0000A6923699A422A462FD108EB800050F80E
:100CE000043C23F0010340F8043C3AB108EB8200D5
:100CF00050F8042C22F0100240F8042CA06808EBF5
:100D00008002E06852F8043C23F4807342F8043C0B
:100D100040B1012222EA000058F8202022F480325B
:100D200048F82020206940B1012222EA000058F84A
:100D3000202022F0807248F8202088684FF440720A
:100D4000B94508EB800050F8043C08BF4FF48072AE
:100D500023F440731A4440F8042C486958F8042CD2
:100D6000431EC2F3074293420BD9002358F8042CC8
:100D7000CFF6FF7322F47F0203EB0040104348F8E4
:100D8000040C58F8042C08680138D20758F82030B1
:100D900023F0030228D10323B94508BF01231A43D6
:100DA00048F82020486860B108EB80003022B9453F
:100DB00050F8043C08BF102223F020031A4340F8E7
:100DC000042CC868C20327D4B0B30122B94522EA73
:100DD00000004FF0A06258F8203023F0E06308BF15
:100DE0004FF0807225E000BF42F0010248F8202059
:100DF000486840B108EB8000012350F8042C63F3ED
:100E0000051240F8042CC868C20329D4A8B34FF0D7
:100E100080726FF0E06427E00122B94522EA000009
:100E20004FF4A02258F8203008BF4FF4803223F44A
:100E3000E0231A4448F820200869C1032AD4002876
:100E400042D00121B94521EA00004FF0E06158F895
:100E5000202022F0E06208BF4FF0407127E000BF81
:100E60004FF480326FF4E024012323EA000058F8A5
:100E7000203023401A4348F820200869C10319D4C0
:100E800010B30121032221EA000058F8201062F378
:100E90001A6117E00121B94521EA00004FF4E02171
:100EA00058F8202008BF4FF4403122F4E0221144CA
:100EB00008E000BF0121032221EA000058F82010B9
:100EC00062F3124148F820105FEACE7006D15FEA63
:100ED0008E700AD400200DB0BDE8F08F386840F065
:100EE000010038605FEA8E70F4D54AF20001C5F265
:100EF0000021086840F00100086000200DB0BDE846
:100F0000F08F0000000000002DE9F04381B015468D
:100F10000F460446FFF7C0FB2168D1F84880D1F89E
:100F20001091226D042A39D10646F868B0F5800F79
:100F300034D1086A800641D497E80D10C1F88800C2
:100F4000C1F880203869C1F89000086820F043504B
:100F5000184340EA0C0040F000500860E068B0F12F
:100F6000806F04D0D1F8000110F4E06F50D0C1F8C8
:100F70004880086A000750D4002D3BD0681C13D16C
:100F8000086A000749D4086A00075CBF086A5FEA7C
:100F9000007042D4086A0007F2D53EE01020606578
:100FA000012001B0BDE8F083FFF776FB801BA8426B
:100FB00022D82168086A0007F6D52EE0D5B1681C52
:100FC00012D1086A8006B7D5086A800644BF086A4D
:100FD0005FEA8060B0D5086A8006F2D4ACE700BF53
:100FE0002168086A8006A7D5FFF756FB801BA84238
:100FF000F6D901E0FFF750FB4FF400702065606DFB
:1010000040F001006065012001B0BDE8F08300BF41
:10101000C1F81091086A0007AED508204862022086
:101020002065002001B0BDE8F08300000000000052
:10103000F0B581B015460F460446FFF72DFB216D34
:101040000646242908D0142918D002291BD1E068AB
:10105000B0F1806F17D004E0386840F00200032838
:1010600011D12068016A890612D4002060652046EB
:10107000394605F021FA38B301B0F0BD386820F0E8
:1010800001000228EDD010206065012001B0F0BD04
:1010900025B3691C12D1016A8906E6D5016A890661
:1010A00044BF016A5FEA8161DFD5016A8906F2D433
:1010B000DBE700BF2068006A8006D6D5FFF7ECFAB0
:1010C000801BA842F6D90BE0B86B98B138680228AB
:1010D00034D0012838D0E0BB39E000BFFFF7DCFA9C
:1010E0004FF400702065606D40F0010060650120E4
:1010F00001B0F0BD2168086A80071AD475B3681C76
:101100000ED1086A800714D4086A80075CBF086A99
:101110005FEA80700DD4086A8007F2D509E000BF4D
:10112000FFF7BAFA801BA8421AD82168086A80071C
:10113000F6D5002002224A6201B0F0BD206D1428CD
:1011400005D0242004E000BF206D242804D1042011
:101150002065002001B0F0BD1420F9E7FFF79CFAEC
:101160004FF400702065606D40F0010060652168FB
:10117000012002224A6201B0F0BD00000000000020
:10118000F0B581B00446FFF787FA002C00F08980A3
:10119000054600206065216D11B101B0F0BD00BFB2
:1011A000204600F081F8206841F28836A6654FF6A7
:1011B000F40ED4E903C263698168CFF6E00E00271C
:1011C000CFF6FF7701EA0E0107EB024241EA0C017C
:1011D0006FF0FF0E676B11430EEB03223943E36997
:1011E000114319438160C168226A21F4E02111434F
:1011F000C160216BA26B42EA01410161E16B416177
:101200000168626821F4F8510EEB0222114301607B
:10121000016A890609D500BFFFF73EFA401BB042BC
:1012200038D82068016A8906F6D4C168A268D4E972
:10123000097621F0FF01013FA3693943C160022B08
:10124000016821F0400141EA02010160D0F8081173
:10125000E26A21F0A04141EA060141EA0201C0F838
:101260000811016841F00101016003D1816841F07A
:1012700002018160E068B0F1806F05D10120206536
:10128000002001B0F0BD00BF02202065002001B0A9
:10129000F0BD00BF4FF400702065606D40F00100AC
:1012A0006065012001B0F0BD2DE9F047B4B069469A
:1012B000044601F10800B021FFF72BF845F20001C8
:1012C0002068C5F20021884202D034B0BDE8F08722
:1012D0004FF0007000901020139068464FF0000807
:1012E000CDF8048001F07CFA08B1FFF7C1F844F2B0
:1012F000E04040F20044C5F60200C5F602042FADFE
:101300004FF0040950F80C1C4FF0020A41F4001190
:1013100040F80C1C50F80C1C032601F400112F910E
:101320002F9950F80C1C41F4804140F80C1C50F8E7
:101330000C1C092701F480412F912F99016841F07D
:1013400010010160016801F010012F912F990168CF
:1013500041F002010160016801F002012F912F9913
:10136000016841F0080101600068294600F00800AA
:101370002F902F9804F54060CDF8BC90CDE930A8AF
:1013800032963397FFF790F820462946CDE92F9AF9
:10139000CDE931863397FFF787F84FF4605029463F
:1013A000CDE92F0A04F500603397CDE93186FFF7C8
:1013B0007BF840202946CDE92F0A0A2033902046A9
:1013C000CDE93186FFF770F834B0BDE8F087000052
:1013D0002DE9F04381B015460F460446FFF75CF94E
:1013E00026688046002FB06CD6F8101178D0226D98
:1013F000042A7BD1326C01230132A264A26C6264A4
:101400002764326863F31D723260E268B2F1806F64
:1014100004D0D6F8002112F4E06F7BD0B06415F14F
:10142000010900F08C80002D46D100BF2068006AC1
:1014300010F0060F60D096F850003870206CA16C48
:10144000471C2764481EA064A06C0028EED12068C9
:10145000016A89071CD4002D4ED0B9F1000F0DD1BF
:10146000016A890714D4016A89075CBF016A5FEACF
:1014700081710DD4016A8907F2D509E0FFF70CF9F3
:10148000A0EB0800A84239D82068016A8907F5D581
:10149000022141622165002001B0BDE8F08300BF58
:1014A00096F850003870206CA16C471C2764481EC9
:1014B000A064A06C0028CAD02068006A10F0060F53
:1014C000EED100BFFFF7E8F8A0EB0800A84215D85E
:1014D0002068006A10F0060FF4D0276CE0E700BF28
:1014E00008206065012001B0BDE8F0831020606530
:1014F000012001B0BDE8F083FFF7CEF84FF4007093
:101500002065606D40F001006065012001B0BDE81C
:10151000F08300BFC6F8101115F101097FF483AF05
:101520000DE000BF96F850003870206CA16C471C8D
:101530002764481EA064A06C00283FF488AF206890
:10154000016A11F0060FEDD1016A11F0060F04BF18
:10155000016A11F0060FE5D1016A11F0060FEFD014
:10156000E0E70000000000002DE9F04381B01546DF
:101570000F460446FFF790F8002F6BD08046266890
:10158000206D04286CD1306C15F1010900F10100C7
:10159000A064A06C60642764306820F04050306024
:1015A00036D0002D6ED100BF2068006A400779D583
:1015B000387886F85000206CA16C471C2764481EC0
:1015C000A064A06C0028EFD12068016A890739D493
:1015D000002D67D0B9F1000F2AD1016A890731D4F3
:1015E000016A89075CBF016A5FEA81712AD4016AD6
:1015F0008907F2D526E000BF387886F85000206CC5
:10160000A16C471C2764481EA064A06C0028DBD096
:101610002068016A4907EFD4016A49075CBF016A83
:101620005FEA4171E8D4016A4907F2D5E4E700BFF7
:10163000FFF732F8A0EB0800A84235D82068016A0D
:101640008907F5D5022141622165002001B0BDE87E
:10165000F08300BF08206065012001B0BDE8F08381
:1016600010206065012001B0BDE8F083387886F86D
:101670005000206CA16C471C2764481EA064A06C1D
:101680000028A1D02068006A4007EFD4FFF704F8D3
:10169000A0EB0800A84207D82068006A4007F5D5EB
:1016A000276CE3E7FEF7F8FF4FF400702065606DEC
:1016B00040F001006065012001B0BDE8F08300004A
:1016C00001680122C0F80025002280F8F42488690E
:1016D00040F000608861486D40F08052002042F088
:1016E00003024A65704700007047000000000000D8
:1016F00002680020516270472DE9F04F81B0D0F8A8
:101700000080D8F8240099B1D8F82830B1F1010E42
:1017100000EB134375D0AEF101000EF00307C0B229
:1017200003280DD201214FF0000A002F50D168E0AC
:1017300040EA0240C8F82800002001B0BDE8F08F60
:1017400008F1F4050021009741F0010408F5827CBE
:1017500055F8100FE4B241F00207FFB203EB104B53
:101760005CF8244041F00303D8B25CF827600B1DFD
:101770000EF0FC095FFA83FA0BEB1444CA4504EB44
:1017800016445CF820001ED0194643F00103DBB27A
:1017900004EB104A41F0020455F8106FE4B241F036
:1017A0000307FFB25CF823000B1D0AEB16465FFA35
:1017B00083FA5CF8244006EB1046CA455CF8270023
:1017C00006EB1444E0D104EB10430531009FC7B190
:1017D00008EB8A00012FD0F8040103EB104310D06E
:1017E000C8B2022F08EB8000D0F8040103EB1043CD
:1017F00007D0481CC0B208EB8000D0F8040103EB0E
:10180000104308EB8E0043EA0241C0F804110020A7
:1018100001B0BDE8F08F0000D0F8080507F0FCBF6C
:1018200001EBC10200EB8202D0F80805926C07F0D0
:1018300057BF00000000000001EBC10200EB820274
:10184000D0F80805D2F8882207F0AABF00000000EF
:10185000D0F8080507F0E4BF10B54AB2044601F01D
:101860000F00B2F1FF3F00EBC00104EB81020BDD82
:1018700002F51F71002382F87D3294F8BC240870B1
:10188000012A0BD1022010BD02F13C01012382F894
:101890003D3094F8BC240870012AF3D0012084F86C
:1018A000BC04206808F060FF002084F8BC0410BD70
:1018B000B0B5044601F00F006268824202D20120F6
:1018C000B0BD00BF49B2B1F1FF3F09DD00EBC0017F
:1018D000002304EB810202F51F7182F87D3208E0DB
:1018E00000EBC001012304EB810202F13C0182F80C
:1018F0003D3094F8BC2400258D70012A087001D178
:101900000220B0BD012084F8BC04206809F014FA5C
:10191000284684F8BC54B0BD10B5044690F8BC0409
:10192000012801D1022010BD48B20122B0F1FF3FD1
:10193000206884F8BC2405DD09F0E2FB002084F86F
:10194000BC0410BD01F00F0109F036FC002084F842
:10195000BC0410BD0000000001F00F0101EBC1014B
:1019600000EB8100D0F890027047000000000000FA
:1019700070B54CB2064601F00F00B4F1FF3F00EB2A
:10198000C00107DD06EB8104002504F51F7184F812
:101990007D5206E006EB810C01240CF13C018CF831
:1019A0003D404D7808708A60002D0B7118BF488348
:1019B000022B01D10020487196F8BC04012801D106
:1019C000022070BD012086F8BC04306808F074FD68
:1019D000002086F8BC0470BD80B501F00F0E0EEB40
:1019E000CE0100EB810C0021CCE9A331C368CCF817
:1019F00088228CF87D12012B8CF87CE20CF51F718B
:101A000008BFCCF89822DAB2006809F0E1F90020AA
:101A100080BD000000000000B0B5044601F00F05D5
:101A20004068854202D90120B0BD00BF48B2B0F184
:101A3000FF3F09DD01EBC100002204EB800000F54F
:101A40001F7180F87D2208E005EBC500012204EB40
:101A5000800000F13C0180F83D2094F8BC24012076
:101A60008870012A0D7001D10220B0BD84F8BC0439
:101A7000206809F08DF91DB1002084F8BC04B0BDC8
:101A8000217B206804F2C44209F026F9002084F882
:101A9000BC04B0BD0000000080B501F00F0E0EEBDD
:101AA000CE0100EB810C614601F83CEF4FF0000ED7
:101AB000C1F814E04FF0010E81F801E0D0F80CE01D
:101AC000CA60BEF1010F0B6108BFCCF858205FFA65
:101AD0008EF2006809F07CF9002080BD0000000053
:101AE0002DE9F04F89B005688246284609F0D0FB01
:101AF00010B109B0BDE8F08FDAF8000009F0F8FB8A
:101B00000028F6D0D5F80808C0F30D20CAF8FC0468
:101B1000DAF8000009F0ECFB8007DAF8000003D5E2
:101B2000416901F00201416105F50061049109F08C
:101B3000DFFBC006DAF8000005953BD5816921F08E
:101B4000100181612C6A04F00F05C4F3434006289C
:101B500018D0022827D147F6F07014EA000622D0E8
:101B600005EBC50034090AEB800705982246D7F833
:101B7000881209F0C1FBD7F8880200EB1610C7F8ED
:101B8000880207E00AF2C4410822059809F0B4FB74
:101B9000C4F30A1405EBC5000AEB8000D0F89012DC
:101BA0002144C0F89012DAF80000816941F0100178
:101BB0008161059D09F09CFB0003CDF820A040F158
:101BC0000381DAF8000009F06FFB002800F0FC80C8
:101BD00006460AF527784FF430644FF0000B0AF2FE
:101BE000C440079009E000BF0BF1010B760804F137
:101BF000200408F1240800F0E780F007F4D05FFA31
:101C00008BF9DAF80000494609F06AFB8246C00702
:101C10006DD0281901218160089F38682118036C54
:101C20008A68FF68012F29D117073BD497065BD438
:101C300012F0280F059D5AD143F20B07C4F65477D2
:101C4000BB4202D312F400424AD1D8F800200969FD
:101C50006FF3DF41BBF1000FA2EB0101059D48F8D6
:101C60000C1C19D1089BD3F88C22002A00F0A68006
:101C7000D3F888020844C3F888020DE043F20B074A
:101C8000C4F65477FF37BB421AD1100428D490060B
:101C9000059D01D52020886008984946FFF7CCFDB6
:101CA00025E000BF43F20B00059DC4F6547083424B
:101CB0001DD312F400401AD04FF40040886016E0A3
:101CC000BBF1000F07D10899D1F88C1219B9002186
:101CD000079A09F001F808984946FFF7ADFD05E0BD
:101CE0004FF4004001E000BF20208860059D5FEABE
:101CF0000A7025D528190821816043F20B01089844
:101D0000C4F654714F1E0068056C2044BD428168C2
:101D100005D911F400411CBF4FF4004181600898BF
:101D200000F0E6FCBD42059D0AD90898C06801286C
:101D300006D108980121079A006808F0CDFF00BF7E
:101D40005FEACA600CD45FEA8A700FD45FEA8A60E7
:101D500025D45FEA8A40DDF820A07FF545AF27E073
:101D60002819102181605FEA8A70EFD56869000642
:101D700004D50499486840F48060486018F81D0C48
:101D8000012806D1002008F81D0C0898494600F0EB
:101D900097FB2819022181605FEA8A60D9D528194A
:101DA000202181605FEA8A40DDF820A07FF51CAF2A
:101DB00028194FF40051816016E700BF0121079AEE
:101DC00008F08AFF68E700BFDAF80000AB4609F0C8
:101DD0008FFA400340F1E080DAF8000009F05CFA85
:101DE000002800F0D980064600270BF5106003900C
:101DF0000AF2C440029004E0760807F1010700F0FF
:101E0000CB80F007F8D0F9B2DAF80000079109F0BA
:101E100053FA0446C007039D0AD1200734D4E006D4
:101E200038D460063CD4A00740D42006E4D556E060
:101E3000049B07F00F004FF0010C05EB47120CFA62
:101E400000F0596B21EA00005863C2F808C0DAF8C4
:101E50000C00012812D107EBC7000AEB8000D0E983
:101E60001112114481644FB9DAF84C0030B9DAF834
:101E700000000121029A08F02FFF00BF5046079989
:101E8000FFF7CEFC2007CAD505EB4710082181607B
:101E9000E006C6D505EB4710102181606006C2D56B
:101EA00005EB471040218160A007BED55846394652
:101EB00009F082F907EBC7000AEB800010F83F1F1A
:101EC000012905D1002101705046079900F0F4FA6C
:101ED00005EB47100221816020067FF58DAF07EBEF
:101EE000C7000AEB8002914659F84C1FC84658F8C3
:101EF000040F8142FFF480AF9346DAF800400B1ADA
:101F00005BF8445FAB4238BF1D4604EB47130694B1
:101F100005F1030CD3F81859ADB2B5EB9C0F29D3DA
:101F200003F5106A02F14805D9F8001081421FD963
:101F3000081A0899DBF80040A0420A7B38BF044623
:101F400029680092A3B2DDE9060209F005FB2868C2
:101F5000E11C20442860D8F800002044C8F80000A4
:101F6000DAF8182092B2B2EB910FDDD2D9F8001056
:101F7000DDF820A0DDF814B081423FF63DAF069AAF
:101F800007F00F00012101FA00F0D2F8341821EA1D
:101F90000000C2F834082FE7DAF8000009F0A8F9C9
:101FA00000281DD4DAF8000009F0A2F9000536D4A3
:101FB000DAF8000009F09CF9000141D4DAF80000D9
:101FC00009F096F9C0044DD4DAF80000DDF810806D
:101FD00009F08EF98004DAF8000000F164817DE1F7
:101FE0000499486820F0010048609AF8F404012838
:101FF00008D100208AF8F40400215046FFF774FB52
:1020000003E000BF504600F057FBDAF800004169DA
:1020100001F00041416109F06BF90005C8D5049851
:102020008068C00702D0504600F08AFBDAF8000052
:10203000416901F40061416109F05AF90001BDD51F
:10204000DAF80000416901F0006141619AF8F41486
:10205000F1B1504600F074FBDAF8000009F048F9DD
:10206000C004B1D50499486820F001004860DAF84E
:102070000000102109F0A0F8DAF80400002800F0B0
:10208000D780411E00F0030C032915D2002181E006
:1020900001218AF8F414406D0121C0F38300CAF8CD
:1020A000F8045046FFF720FBDAF8000009F020F9A9
:1020B000C0047FF589AFD5E720F0030E4FF6A05896
:1020C0004FF6C0554FF6E0544FF600600BF53663FF
:1020D00000214FF67F37CFF6FF78CFF6FF75CFF6AA
:1020E000FF74CFF6FF7000BFA3F51872A3F510764A
:1020F000043197608E4553F8082022F4001243F80B
:10210000082043F8587C53F8602C22F4001243F85E
:10211000602C53F8602C42F0006243F8602CB760EA
:10212000A3F508765A5922F400125A5143F8387C24
:1021300053F8402C22F4001243F8402C53F8402C62
:1021400042F0006243F8402CB760A3F500761A59BC
:1021500022F400121A5143F8187C53F8202C22F470
:10216000001243F8202C53F8202C42F0006243F870
:10217000202CB7601A5822F400121A509F601A6877
:1021800022F400121A601A6842F000621A6003F129
:102190008003A9D1BCF1000F059849D000F5106269
:1021A00000F5306002EB41174FF67F334E01BCF172
:1021B000010FBB6000EB4115975927F400179751A9
:1021C000AB60875927F400178751875947F000679C
:1021D00087512DD04F1CBCF1020F4FEA471502EB7F
:1021E000471600EB4717B360565926F400165651B0
:1021F000BB60435923F400134351435943F0006338
:10220000435115D002314FF67F364F0102EB411397
:1022100000EB41119E60D35923F40013D3518E601B
:10222000C15921F40011C151C15941F00061C1519E
:10223000DDF81080D8F81C0040F00110C8F81C0030
:10224000DAF8300040B1D8F8840040F00B00C8F84C
:10225000840008F1440008E0D8F8140042F22B0191
:102260000843C8F8140008F1100001680AF2C442DB
:1022700041F00B010160D8F8000020F4FE60C8F8BE
:1022800000009AF80C10DAF8000008F025FDDAF8E2
:102290000000416901F48051416109F029F880048E
:1022A000DAF800001AD508F04FF9DAF8000008F063
:1022B000DFFFCAF81000DAF8004001F019F99AF8C7
:1022C00010200146204609F0B7F8504600F0DCF92E
:1022D000DAF80000416901F40051416109F008F8A1
:1022E000000707D4DAF8000009F002F800060ED45F
:1022F00036E000BF504600F0E3F9DAF8000041692B
:1023000001F00801416108F0F3FF000628D50599A6
:10231000886920F080008861DAF8040002281FD361
:10232000012440F2A32503E001342435844217D26E
:102330001AF805100129F7D104F00F00220600EB6E
:10234000C0000AEB800000F13C0158BF00F51F718E
:10235000DAF8000008F044FEDAF80400E4E700BF11
:10236000DAF8000008F0C4FFC00251D4DAF8000027
:1023700008F0BEFF8002059D40F18080DAF804106D
:1023800002292BD305F5326001390AF529720123A0
:1023900006E000BF013900F1200002F124021DD047
:1023A00007681678012EF5D1B7F1FF3FF2DCDAF8B5
:1023B000FC6407F4803706F00106B742EAD102F860
:1023C000013CAF6947F08007AF616F693F06E1D418
:1023D000D8F8040040F40070C8F80400DAF80000EF
:1023E000416901F40011416108F082FF40004BD5C2
:1023F0005046FFF711FADAF80000416901F0804118
:10240000416108F075FF400745D4FFF772BB00BF7C
:10241000DAF80400022825D305990AF1640501F5CC
:1024200012640126012705E001372034874205F1B7
:10243000240517D221682A78012AF5D1B1F1FF3F8E
:10244000F2DC07F00F0005F8016C00EBC0000AEBAE
:10245000800000F13C01DAF8000008F0C1FDDAF874
:102460000400E1E7DAF80000416901F480114161FC
:1024700008F03EFF8002059D3FF580AFDAF80000CE
:1024800008F036FF4000B3D4DAF8000008F030FF5F
:1024900040077FF52EABDAF800004468610704D5E9
:1024A0005046FFF7D5F9DAF8000041682143416052
:1024B00009B0BDE8F08F0000D0F8080507F028BA91
:1024C000D0F8080507F038BA2DE9F04F8BB0002896
:1024D00000F085800446056890F8BD0428B9002006
:1024E00084F8BC04204600F093F8032084F8BD046F
:1024F000E86BC00501D40020E060206808F0E4FB30
:1025000020680A9004F1040E04F11C0AD4E90C506E
:102510009EE80E589AE8C007CDE9085003A88DE858
:10252000005880E8C0070A9808F01EF8002853D128
:1025300020680021002508F037FF616871B3012091
:102540000023002203EBC30304EB8307D3B287F815
:102550003C200132A7F85630D3B287F83D009942AB
:1025600087F840507D64BD64FD64EBD800200023F3
:10257000002200BF03EBC30304EB830787F87C2230
:102580000132D3B287F87D02994287F88002C7F8FA
:102590008402C7F88802C7F88C02EBD804F1140E45
:1025A00004F1240A2268A0680A90D4E903379EE85F
:1025B00040589AE80007D4E90C50CDE9085002A829
:1025C000CDE9007680E8005805A880E800071046AD
:1025D0000A9A08F02DF938B1022084F8BD040120D0
:1025E0000BB0BDE8F08F00BF002084F83800012058
:1025F00084F8BD04606A012802D12046FFF760F824
:10260000206808F005F900200BB0BDE8F08F00004D
:1026100010B5B0B002A9044601F10800B021FDF7E1
:1026200078FE00212068C4F20401884202D030B054
:1026300010BD00BF002003904FF4802002904FF4A3
:102640004010239002A800F0CBF808B1FDF710FF6E
:1026500000F0BAF844F2D8400022C5F60200016842
:1026600041F0007101600068002100F000700190ED
:1026700001984D20FEF7F8F84D20FEF7E1F830B054
:1026800010BD00000000000010B50446006918B13C
:10269000022803D1012104E0002102E0FDF7E8FE59
:1026A0000121D4F8080507F0D3F9D4F80805BDE8EE
:1026B000104007F07DB90000D0F8080507F0ACB96C
:1026C000D0F8080507F0B4B910B5044690F8BC047A
:1026D000012801D1022010BD012084F8BC0484F837
:1026E0003810206808F094FE002084F8BC0410BD67
:1026F000D0F8082500F2C441104607F0C1B9000027
:1027000010B5044690F8BC04012801D1022010BD88
:102710002068012184F8BC14C16BC90506D4A16AE4
:10272000012903D1816B41F48031816308F0E0FC21
:10273000206808F05DF8002084F8BC0410BD00009B
:1027400010B50446D0F8080507F0F6F92068D0F86F
:10275000001E41F00101C0F8001E206A002808BFD9
:1027600010BD4EF61050CEF20000016841F0060197
:10277000016010BD00000000B0B544F60C05C5F6C0
:10278000020529684907296806D401F00701081ADB
:1027900018BF0120B0BD00BF21F007010843286029
:1027A000FDF77AFF044600BF55F8080C800407D4F3
:1027B000FDF772FF001BB0F57A7FF5D90120B0BD9F
:1027C0000020B0BD0000000044F60C00C5F6020079
:1027D000016841F080710160704700000000000056
:1027E0002DE9F0470446C07844F22C480007C5F6AE
:1027F000020833D5606E4FEA305103290CD8DFE868
:1028000001F003111D2600BFD8F8001041F400317B
:10281000C8F800101BE000BF01266078C0070BD08D
:1028200020E000BF04F10800022104F0C5FA0646CA
:1028300060B16078C00715D1354646E004F1280044
:10284000022104F04DFB06460028F2D1606ED8F854
:10285000241021F440110843C8F8240000266078B1
:10286000C007E9D0A06D04280ED83546DFE800F097
:102870000412181E1E0000BFD8F80000354640F4B0
:102880000030C8F8000011E00125012760784007FA
:102890001FD453E004F10800002104F08DFA04E095
:1028A00004F12800002104F01BFB05462F461DB152
:1028B000607840070DD441E0D8F82400A16D20F0E5
:1028C000070000250843C8F8240037466078400711
:1028D00034D5D4F8A4004FEA705005280CD8DFE8AE
:1028E00000F00311171D1D1DD8F8000040F4003042
:1028F000C8F8000012E000BF01250126607800073B
:1029000020D455E004F10800002104F055FA04E059
:1029100004F12800002104F0E3FA05462E461DB11B
:10292000607800070ED443E0D8F82C00D4F8A41047
:1029300020F4600000250843C8F82C003E4660786B
:10294000000735D5D4F8A8004FEA306005280DD827
:10295000DFE800F00412181E1E1E00BFD8F80000A9
:1029600040F40030C8F8000012E000BF0125012744
:10297000E078800720D44EE004F10800002104F044
:102980001BFA04E004F12800002104F0A9FA05462E
:102990002F461DB1E07880070ED43CE0D8F82C001B
:1029A000D4F8A81020F0E06000250843C8F82C00F7
:1029B0003746E07880072ED5E06C4FEA30100328C8
:1029C0000ED8DFE800F00903130900BFD8F80000B3
:1029D00040F40030C8F800002E467DB912E000BF78
:1029E000012501266078C00619D44CE004F10800E6
:1029F000022104F0E1F905462E461DB16078C006BB
:102A00000DD440E0D8F82000E16C20F03000002523
:102A10000843C8F820003E466078C00633D5E06D14
:102A20004FEA303004280DD8DFE800F00412181EF9
:102A30001E0000BFD8F8000040F40030C8F80000C5
:102A400012E000BF01250127607880061FD44EE008
:102A500004F10800002104F0AFF904E004F12800BB
:102A6000002104F03DFA05462F461DB1607880062E
:102A70000DD43CE0D8F82400E16D20F4E0400025BE
:102A80000843C8F824003746607880062FD5206EAA
:102A90004FEA3040052809D8DFE800F0040E14049E
:102AA000040400BF2E46ADB918E000BF0125012681
:102AB000607840061FD44FE004F10800012104F0C3
:102AC0007BF904E004F12800012104F009FA05462D
:102AD0002E461DB1607840060DD43DE0D8F82400A4
:102AE000216E20F4E02000250843C8F824003E466B
:102AF0006078400630D5D4F8AC004FEA3070052835
:102B000008D8DFE800F0030D130303032F46ADB927
:102B100018E000BF012501276078000620D442E0BC
:102B200004F10800012104F047F904E004F1280051
:102B3000012104F0D5F905462F461DB16078000645
:102B40000ED430E0D8F82C00D4F8AC1020F0E040DF
:102B500000250843C8F82C0037466078000622D5C7
:102B6000E06E58B1B0F1005F0CD0B0F1805F2FD1B2
:102B7000D8F8000040F40030C8F800002E469DB997
:102B800008E000BF04F10800012104F015F9054632
:102B90002E464DB9D8F82400E16E20F040500025B3
:102BA0000843C8F824003E46E078C00733D0A06C44
:102BB000032813D8DFE800F008021A08D8F800004C
:102BC00040F40030C8F80000A946BDB91AE000BFC3
:102BD00001250126E078C007E9D11CE001254FF06E
:102BE0000109A07840061AD51CE000BF04F10800D6
:102BF000022104F0E1F80546A9461DB1A07840067F
:102C00000DD50FE0D8F82000A16C20F003000025BE
:102C10000843C8F82000B146A078400602D44F46C9
:102C200018E000BFD8F8D40340F48070C8F8D4038B
:102C3000FDF732FD064600BFD8F8D403C00507D41F
:102C4000FDF72AFD801B6428F6D90325032701E040
:102C50002F468DB12078C00761D0A06F4FEAF000F9
:102C600005283BD8DFE800F004404604040400BF18
:102C7000002D2E4646D149E0D8F84410D4F8B000D3
:102C8000414011F4407F11D0D8F84410D8F84420C6
:102C900042F48032C8F84420D8F8442021F440712E
:102CA00022F48032C8F84420C8F84410B0F5807F80
:102CB00040F0CE82FDF7F0FC064641F2883A03254B
:102CC000032700BFD8F84400800700F1BF82FDF75A
:102CD000E3FC801B5045F5D9BCE700BF0125012668
:102CE000207880071FD44CE004F10800012104F093
:102CF00063F804E004F12800012104F0F1F805462E
:102D00002E461DB1207880070DD43AE0D8F828006F
:102D1000A16F20F0380000250843C8F828003E467F
:102D2000207880072DD5606F052809D8DFE800F0EE
:102D3000040E1404040400BF2F46ADB918E000BF10
:102D400001250127207840071FD44DE004F1080039
:102D5000012104F031F804E004F12800012104F01D
:102D6000BFF805462F461DB1207840070DD43BE043
:102D7000D8F82800616F20F0070000250843C8F844
:102D800028003746207840072ED5D4F89000052833
:102D900008D8DFE800F0030D130303032E46ADB996
:102DA00018E000BF012601252078800620D451E0DC
:102DB00004F10800012103F0FFFF04E004F1280002
:102DC000012104F08DF805462E461DB120788006BD
:102DD0000ED43FE0D8F82C00D4F8901020F0070073
:102DE00000250843C8F82C003E462078800631D5DF
:102DF000D4F88C004FEA3070052809D8DFE800F0DD
:102E0000040E1404040400BF2F46ADB918E000BF3F
:102E1000012701252078400620D451E004F1080064
:102E2000002103F0C9FF04E004F12800022104F0AE
:102E300057F805462F461DB1207840060ED43FE0D6
:102E4000D8F82800D4F88C1020F0E0400025084382
:102E5000C8F8280037462078400631D5D4F89800C5
:102E60004FEAB020052809D8DFE800F0040E14046A
:102E7000040400BF2E46ADB918E000BF01260125AD
:102E80002078000620D454E004F10800002103F06B
:102E900093FF04E004F12800022104F021F8054624
:102EA0002E461DB1207800060ED442E0D8F82C0042
:102EB000D4F8981020F4E05000250843C8F82C00FE
:102EC0003E462078000634D5D4F89C004FEA703096
:102ED00005280FD8DFE800F004141A04040400BF2A
:102EE0002F46E5B12068010727D4C1063ED4000370
:102EF00055D475E00127012520680107F5D51CE0B0
:102F000004F10800002103F057FF04E004F1280059
:102F1000022103F0E5FF0546002D2F46E2D1D8F847
:102F20002C00D4F89C1020F4604000250843C8F819
:102F30002C00374620680107D7D5D4F88000B0F5BB
:102F4000805F09D104F12800022103F0C9FF0028A5
:102F500018BF0127D4F88000D8F8281021F4405178
:102F60000843C8F828002068C106C0D5D4F89400EA
:102F7000B0F5807F09D104F12800022103F0B0FFF1
:102F8000002818BF0127D4F89400D8F82C1021F499
:102F900040710843C8F82C002068000320D5D4F8FD
:102FA000A000B0F5003F0FD0B0F5803F06D078BB51
:102FB00004F10800002103F0FFFE04E004F1280002
:102FC000022103F08DFF05462E4655B9D8F82C0096
:102FD000D4F8A01020F4403000250843C8F82C0095
:102FE0003E46A07840072BD5D4F88400B0F5401FAA
:102FF0000BD0B0F5001F11D0B0F5801F2AD1D8F842
:10300000000040F40030C8F800002F46CDB90DE0B4
:1030100001260125A0784007E6D411E004F128003C
:10302000012103F05DFF05462F4655B9D8F8280069
:10303000D4F8841020F4401000250843C8F8280074
:103040003746A078C0070AD13E462168880016D5C9
:1030500033E000BF01270125A078C007F4D0206D20
:10306000B0F5803F10D018BBD8F8000040F4003015
:10307000C8F800002E4685B1216888001DD460681C
:103080008A0326D465E000BF04F10800022103F0A2
:1030900093FE0546002D2E46EED1D8F82000216D76
:1030A00020F4803000250843C8F82000CCE700BF9A
:1030B0000126012521688800E1D504F128000221BC
:1030C00003F00EFF002818BF0126D4E900108A0380
:1030D0003FD5E26F6FF0010303EB3223022B0BD3DA
:1030E0004FEA322343B1012B40F0AA80D8F80030D8
:1030F00043F40033C8F8003025B3CA022CD48A0246
:1031000034D44A003CD4CA0F49D1090251D4C10772
:103110005AD1810763D441076CD4010776D4C10624
:1031200000F18080800607D504F12800022103F019
:10313000D7FE002818BF0125002D18BF01252846FD
:10314000BDE8F087D8F8283023F440731A43C8F854
:1031500028203546CA02D2D5D8F82420236F22F081
:1031600000421A43C8F824208A02CAD5D8F824207D
:10317000A36E22F080721A43C8F824204A00C2D5F8
:1031800058F81C2C22F4004248F81C2CD4F8B42027
:1031900058F81C3C1A4348F81C2CCA0FB5D0D8F874
:1031A0002020636D22F040521A43C8F82020090203
:1031B000ADD5D8F82810D4F8882021F44001114367
:1031C000C8F82810C107A4D004F10800002103F0BA
:1031D000F3FD002818BF0546606881079BD504F100
:1031E0000800012103F0E8FD002818BF05466068CB
:1031F000410792D504F10800022103F0DDFD00280B
:1032000018BF0546606801077FF589AF04F1280003
:10321000002103F065FE002818BF05466068C1065E
:103220007FF580AF04F12800012103F059FE00284A
:1032300018BF0546606880067FF57EAF74E700BF63
:103240000125CA027FF55BAF86E700BFD4F8B00066
:103250004FF6CF7358F81C2CC0F2FF0300F44071F6
:1032600022F47C5203EA10136FF31F30B1F5407F54
:1032700008BF1A43002548F81C2CD8F8441008430E
:10328000C8F84400FFF7CBBC2DE9F04381B000281B
:1032900000F02A8142F200080446C5F2002889465F
:1032A000D8F8000000F00F0088420ED2D8F80000D5
:1032B00020F00F0040EA0900C8F80000D8F800002C
:1032C00000F00F00484540F00F81206844F2184795
:1032D0004107C5F602070AD521693A6802F0700273
:1032E000914204D93A6822F0700211433960010713
:1032F0000AD561697A6802F07002914204D97A684D
:1033000022F0700211437960C1060AD5A1697A687A
:1033100002F4E062914204D97A6822F4E062114337
:10332000796081060AD5E169BA6802F070029142BB
:1033300004D9BA6822F070021143B96010F002019A
:103340000AD0E2683B6803F00F039A4204D93B6855
:1033500023F00F031A433A60C20746D0386820F4BE
:103360007061D4E90102012841EA0201396009D003
:1033700003280DD0022811D157F8181C890340F1F9
:10338000B38010E057F8181CC90540F1AD800AE081
:1033900057F8181C890140F1A78004E057F8181C61
:1033A000490740F1A18057F8081C21F007010843A4
:1033B00047F8080CFDF770F9064641F2883500BF62
:1033C00057F8080C616800F03800B0EBC10F09D065
:1033D000FDF762F9801BA842F2D9032001B0BDE8D5
:1033E000F08300BF206800F0020151B1E1683A6843
:1033F00002F00F02914204D23A6822F00F02114308
:103400003960D8F8001001F00F0149450DD9D8F8FE
:10341000001021F00F0141EA0901C8F80010D8F8A6
:10342000001001F00F0149455ED141070AD521691D
:103430003A6802F07002914204D23A6822F07002B7
:103440001143396001070AD561697A6802F0700298
:10345000914204D27A6822F0700211437960C10669
:103460000AD5A1697A6802F4E062914204D27A68CE
:1034700022F4E0621143796080060AD5E069B968F8
:1034800001F07001884204D2B96821F0700108434C
:10349000B86000F055F839684CF294533A68C0F6B9
:1034A0000003C1F3032102F00F02595C9A5C01F0A2
:1034B0001F0120FA01F102F01F0040F2100221FA70
:1034C00000F0C2F20042106040F2080040F20C022C
:1034D000C2F20040C2F200420068116001B0BDE8D3
:1034E000F043FDF725B900BF012001B0BDE8F0832E
:1034F00080B500F025F844F218414CF29453C5F61B
:103500000201C0F600030A68096801F00F01C2F366
:103510000322595C9A5C02F01F0220FA02F201F0C9
:103520001F0040F2100122FA00F0C2F200410860D0
:1035300040F20C01C2F200410A6080BD00000000B0
:1035400044F20041C5F602010869C0F3C200032835
:1035500010D002282ED098BB0868800649F20000DF
:10356000C0F2D03058BF70470968C1F3C101C840EC
:10357000704700BF8A6A886AC0F3051CC86ABCF13C
:10358000000F4B6B22D000F0010002F0030240421A
:10359000022A00EAD3006FF35F3000EE100AB8EEA3
:1035A000400A15D0C2B90868800619D49FED281AC0
:1035B00023E000BF47F64000C0F27D10704700BF17
:1035C00040F60010C0F23D00704700BF0020704779
:1035D0009FED1E1A11E000BF9FED1B1A0DE000BF0A
:1035E000086849F20002C0F2D032C0F3C10022FAEA
:1035F00000F001EE100AB8EE411A086B9FED153A83
:103600006FF35F2002EE100A086BC0F34620B8EE9D
:10361000422A013000EE032A00EE10CAB7EE003A4B
:10362000B8EE400A81EE000A32EE031A20EE010ADB
:1036300001EE100AB8EE411A80EE010ABCEEC00A93
:1036400010EE100A704700BF0024744A20BCBE4B25
:103650000024744C00000039F0B581B0002800F05F
:10366000D5800446007844F20046C007C5F602063D
:1036700022D12078800768D5306910F03801B06A0F
:1036800042D0182908BF5FEA80703DD0E0683168F9
:10369000002800F0258121F0190108433060FCF773
:1036A000FBFF05463068400748D4FCF7F5FF401B98
:1036B0000228F7D977E100BF306900F03801B06A1D
:1036C000102905D018290BD100F00300022807D1DA
:1036D00030688003CDD560680028CAD196E000BF6D
:1036E0006068002800F03281B0F5A02F00F046811C
:1036F000B0F5803F00F04681306820F480303060C3
:10370000306820F4802040E130684007E06801D54F
:1037100000287BD0316821F0190108433060FCF7A4
:10372000BBFF05463068400708D4FCF7B5FF401BD7
:1037300002284FF00300F5D901B0F0BD706821698F
:1037400020F0FE4040EA016070602078C00619D584
:10375000306900F03801B06A082906D0182940F015
:10376000818000F0030001287CD13068C00502D5BB
:10377000E06980284AD1F068216A20F07C5040EA54
:103780000160F0602078000744D42078800655D48A
:103790002078400700F17E80656A9DB3306900F0B3
:1037A0003800182840F01481012DB16A306B2DD0FB
:1037B00001F00302A36A9A4228D1C1F30511E26A1B
:1037C000914223D10146226B6FF35F21013A91426E
:1037D0001CD1C0F34622616B01398A4216D1C0F375
:1037E0000642A16B01398A4210D1C0F30660E16B39
:1037F000013988420AD1706BA16CC0F3CC008142C0
:1038000040F09C81002001B0F0BD00BF012001B05C
:10381000F0BD00BF60690028706F4FD040F001001C
:103820007067FCF739FF0546706F8007ADD4FCF771
:1038300033FF401B0228F7D9B5E000BFA06900287C
:10384000306871D040F480503060FCF725FF0546A9
:10385000306880049CD4FCF71FFF401B0228F7D976
:10386000A1E000BFE0690028306800F09F8040F0D0
:1038700080003060FCF710FF054600BF3068C005CF
:103880003FF579AFFCF708FF401B02284FF003001B
:10389000F4D951E7D6F8000440F48070C6F800046B
:1038A000FCF7FAFE054600BFD6F80004C00529D48F
:1038B000FCF7F2FE401B6428F6D974E020F001000A
:1038C0007067FCF7E9FE0546706F80077FF55DAF16
:1038D000FCF7E2FE401B02284FF00300F4D92BE76F
:1038E00021F001003060FCF7D7FE05463068400744
:1038F0007FF52BAFFCF7D0FE401B02284FF00300F2
:10390000F4D919E7A068002800F08480052800F0A9
:103910009B80012800F09C80306F20F00100306710
:10392000306F20F0040096E020F480503060FCF707
:10393000B3FE0546306880047FF52AAFFCF7ACFE85
:10394000401B02284FF00300F4D9F5E6306820F45C
:1039500080303060306820F480203060FCF79CFEBE
:10396000054600BF306880037FF583AEFCF794FE08
:10397000401B64284FF00300F4D9DDE6306840F4C2
:1039800080203060306840F480303060FCF784FE86
:10399000054600BF306880033FF56BAEFCF77CFE48
:1039A000401B6428F6D9032001B0F0BD20F0800050
:1039B0003060FCF771FE05463068C0057FF5E2AE69
:1039C000FCF76AFE401B02284FF00300F4D9B3E66F
:1039D000306820F080703060FCF75EFE022D0546F6
:1039E0000CD100BF3068800148D5FCF755FE401B64
:1039F00002284FF00300F5D99EE600BF3068800131
:103A00007FF500AFFCF748FE401B02284FF0030093
:103A1000F4D991E6306F20F001003067306F20F06C
:103A200004003067FCF738FE054641F28837306FF6
:103A300080077FF5B1AEFCF72FFE401BB8424FF078
:103A40000300F4D978E600BF306F40F0040030671F
:103A5000306F40F001003067FCF71EFE054641F272
:103A6000883700BF306F80073FF596AEFCF714FE35
:103A7000401BB8424FF00300F4D95DE604F128077B
:103A8000B06A40F2F33188438ECF0843591E40EAB2
:103A900002104FF47E426FF35F21B06202EB4720C9
:103AA0004FF4FE0280B2E36B0844A16B02EB0141CC
:103AB0004FF0FE4201F4FE0102EB0362084402F003
:103AC000FE4108443063F06A4FF6F87120F00100BF
:103AD000F062706BA26C884340EAC2007063F06AC7
:103AE000216C20F00C000843F062F06A616C20F059
:103AF00002000843F062F06A40F48030F062F06A3D
:103B000040F40030F062F06A40F48020F062F06A25
:103B100040F00100F062306840F080703060FCF7E7
:103B2000BBFD0446306880013FF56CAEFCF7B4FD88
:103B3000001B02284FF00300F4D9FDE5F06A20F0E5
:103B40000100F062FCF7A8FD0546FCF7A5FDA842C0
:103B5000FBD0706B4FF6F871A26C884340EAC2004C
:103B60007063F06A40F00100F062002001B0F0BD27
:103B7000B0B50068002A40684FEA104300F03F0CDF
:103B8000C0F3042ECB70C0F3423281F801E081F81B
:103B900002C00A7002D00020B0BD00BFDAB24FEA06
:103BA0001E14120903F00F03050A00F00F0002EBC8
:103BB000820205F00F0503EB4202CA7044EA840357
:103BC0004FEA1C1405EB43034B7044EA840200EBFC
:103BD000420088700020B0BDB0B50068002A836A3A
:103BE0004B6003696FF3DF338B60006800F07F0C7C
:103BF00081F802C0C0F305430B70C0F3062E81F8B4
:103C000001E0C0F38052CA7002D00020B0BD00BFF6
:103C10001B09020C43EA830302F00F024FEA1E1451
:103C200002EB43020A7004EB84034FEA1C14050AFA
:103C300000F00F0004EB840205F00F0505EB4303D1
:103C40004B7000EB420088700020B0BD0000000007
:103C5000B0B5002846D0044690F8210028B90020CD
:103C600084F82000204600F05BF8022084F8210050
:103C70002168C868C00643D4CA20486253204862FD
:103C8000C868400614D44FF0FF30C860FCF704FD4C
:103C90002168CA6852060BD4054600BFFCF7FCFC3D
:103CA000401BB0F57A7F31D82168C8684006F5D549
:103CB0004FF6BF728868CFF68F72251D104088605E
:103CC0002DCD2843A56928438D682843886043EAA1
:103CD00002400861204603F097F9216820B1FF22D5
:103CE0004A62B0BD0120B0BDC86C20F00300C864BA
:103CF0006069E2691043CA6C1043C864FF204862DF
:103D0000012084F821000020B0BD00BF032084F80A
:103D100021002168CA68FF224A62B0BD000000008D
:103D200010B5AEB06946044601F10800B021FCF7B9
:103D3000F0FA44F200012068C5F60001884201D083
:103D40002EB010BD002001904FF4800000904FF481
:103D500000702C906846FEF743FD08B1FCF788FB25
:103D600044F27040C5F60200016841F40041016070
:103D70002EB010BD000000002DE9F041044690F87F
:103D8000200001284FF0020008BFBDE8F0814FF08D
:103D9000010384F8203084F821003AB14878CA78C9
:103DA0008E78000240EA024845E000BF4878C2062B
:103DB00003D500F0EF000A304870CA784FF0CD0C00
:103DC000A0F10A054FF0010EA2F10A03092ADFB2A1
:103DD00007FB0CF74FEAD72606EB8606A3EB46084F
:103DE000EEB206FB0CF30EEBD72688BF48EA0612AC
:103DF000DF0A8E780EEBD3230928D2B207EB8707B0
:103E0000A5EB470588BF45EA0310A6F10A03092E72
:103E1000DDB2C0B205FB0CF74FEA00204FEAD72510
:103E200040EA024805EB85000EEBD722A3EB4000E9
:103E300088BF40EA021622680F78CA2050625320D9
:103E40005062D068400613D44FF0FF30D060FCF7CA
:103E500023FC2268D16849060AD40546FCF71CFCFD
:103E6000401BB0F57A7F23D82268D0684006F5D58C
:103E7000F0B2790340EA080020F0C0000843506027
:103E8000204603F0C1F821684FF0FF024A6228B1D2
:103E9000002184F82010BDE8F08100BF012084F8E3
:103EA00021000020002184F82010BDE8F08100BF2F
:103EB000032084F821002168CA68FF224A62002199
:103EC00084F82010BDE8F0812DE9F047044690F811
:103ED000200001284FF0020008BFBDE8F0870D4622
:103EE000012184F82010164684F82100CA20216898
:103EF000486253204862C868400614D44FF0FF302F
:103F0000C860FCF7C9FB2168CA6852060BD4074693
:103F1000FCF7C2FBC01BB0F57A7F00F28D802168F0
:103F2000C8684006F4D5886800F0400036B158B93A
:103F30004FF0000E85F803E009E000BF70B94FF0C4
:103F4000000E85F803E00CE0E8784FEA805E287800
:103F50006B78AA781B0243EA004341E0E8784FEA15
:103F6000805E2B784FF0CD0C68784FF00109A3F1FB
:103F70000A02092BD7B207FB0CFA4FEADA2609EB43
:103F8000DA2A06EB8606A2EB4608A0F10A06F2B290
:103F900002FB0CF788BF48EA0A13FA0A0928DBB2C9
:103FA00009EBD72702EB8208AA78A6EB480688BF60
:103FB00046EA0710A2F10A06092AF7B2C0B207FBC7
:103FC0000CF74FEA00204FEAD72C40EA03430CEBF2
:103FD0008C0009EBD727A6EB400088BF40EA071208
:103FE000D0B247F67F721843C0F27F0240EA0E005B
:103FF00010400860886820F480208860D5E90302BA
:1040000010438A6810438860204602F0FDFF216853
:104010004FF0FF024A6228B1002184F82010BDE869
:10402000F08700BF012084F821000020002184F8DF
:104030002010BDE8F08700BF032084F8210021682C
:10404000CA68FF224A62002184F82010BDE8F08788
:104050002DE9F04381B000285BD043F6000104460F
:104060000068C4F2000143F2000E43F6004C88429F
:10407000C4F2010EC4F2000C4FF00002A26203D0A1
:10408000604518BF704541D1E36B0125E268884265
:1040900002F1080205EB53134FEAD20202FB03F3CD
:1040A00018BF704526D1102B33D894F8810028B959
:1040B000002084F88000204600F0AAF8022084F84E
:1040C0008100D4E90009D4F818800368B8F1806F42
:1040D00023F001030360836803F4F81E26D1B9F1CD
:1040E000000F1BD0B9F5800F20D1A36BD3B14FF4D3
:1040F000800921E0604518BF082B0AD80CF57441EF
:10410000884218BF6045CED0CFE700BFE3680F2BD1
:10411000BAD9012001B0BDE8F08300BFA36BB3F1B1
:10412000805F71D1036843F4805303605FEA4923E1
:1041300002D44FF0010C0FE0E368072B0AD30568A7
:1041400025F4807C256D45EA0C0505604FF0000CD8
:1041500007E000BF4FF0000C036823F48073036096
:10416000E368E769A26A47EA0E07E16B3A43A5688C
:1041700011432669676919438160B9F1000F626ACA
:10418000D4E90D1341EA0201226A41EA0301E36C1A
:1041900041EA060141EA070141EA0201A26C41EA53
:1041A0000301A36D41EA050141EA020141EA03016D
:1041B00041EA080141EA0901C1600DD0016DBCF17D
:1041C000000F21F00101016514D1C168626D21F079
:1041D00000411143C1600DE08168012262F3CC21EE
:1041E00081608168022262F34A218160016D21F0C1
:1041F000010101650020C4F88400012184F88110C8
:1042000001B0BDE8F08300BF4FF0000991E7000066
:1042100070B5B6B0044602A8B8210025CDE93455E2
:10422000CDE932553195FCF774F843F2004120682E
:10423000C4F20101884247D043F20001C4F20101F7
:10424000884275D14FF48050029002A80025039552
:10425000FEF7C6FA08B1FCF70BF944F2E04040F271
:104260000044C5F60200C5F602040226016941F4C5
:1042700080510161016901F4805101910199016846
:1042800041F008010160016801F008010191019904
:10429000016841F002010160006831A900F00200EC
:1042A00001900198802031900520359004F5006040
:1042B000CDE932653495FCF7F7F81820CDE93106E1
:1042C000CDE933552EE000BF4FF40050029002A814
:1042D0000395FEF785FA08B1FCF7CAF844F2E0400E
:1042E000C5F60200016941F400510161016901F460
:1042F000005101910199016841F01001016040F203
:1043000000410068C5F6020100F01000019001F5BF
:10431000406401984FF4A040319002203290002078
:10432000339034900520359031A92046FCF7BCF835
:1043300036B070BD000000002DE9F04381B00446A6
:1043400090F8800001281CD01D4617460E46D4F870
:104350000090012084F88000FCF79EF994F8811009
:1043600001290BD1002E18BF002F0FD1002084F897
:104370008000012001B0BDE8F08300BF002084F878
:104380008000022001B0BDE8F08300BF8046042019
:1043900084F881000020C4F884006666A4F8687080
:1043A000A4F86A70E065A4F86000A4F86200A1684F
:1043B0002067B1F5C02F6067206805D1016821F43E
:1043C0000061016005E000BFC168022262F3524152
:1043D000C16041684FF6FF72914339444160016802
:1043E00041F0010101606168B1F5800F03D10168FE
:1043F00041F400710160E168102925D3B4F86A0026
:10440000002800F0CA80681C00F0AC8048F2080662
:104410000FE000BF006B616E41F8040B6166B4F8F9
:104420006A000138A4F86A00B4F86A00002800F0B5
:10443000B480206841693142ECD1FCF72DF9A0EB42
:104440000800A842F0D35FE0B4F86A0007293BD91E
:10445000002800F0A280681C10D121E0B9F83000DB
:10446000616E21F8020B6166B4F86A000138A4F8A5
:104470006A00B4F86A00002800F08F802068406964
:10448000C007EBD1FCF708F9A0EB0800A842F0D375
:104490003AE000BFFCF700F9B4F86A0000287CD0CD
:1044A00020684069C007F5D0B9F83000616E21F886
:1044B000020B6166B4F86A000138A4F86A00B4F827
:1044C0006A000028ECD168E0002866D0681C11D191
:1044D00033E000BF90F83000616E0870606E01300C
:1044E0006066B4F86A000138A4F86A00B4F86A009B
:1044F000002852D020684169C907EBD1FCF7CCF8FD
:10450000A0EB0800A842F1D3204603F0D9FB00201D
:1045100084F88000D4F8840040F48070C4F88400EB
:10452000012084F88100032001B0BDE8F08300BFC2
:10453000FCF7B2F8B4F86A0078B320684169C9079B
:10454000F6D090F83000616E0870606E01306066E1
:10455000B4F86A000138A4F86A00B4F86A000028C8
:10456000EBD11AE048F2080505E000BFFCF794F82B
:10457000B4F86A0088B1206841692942F6D0006B1E
:10458000616E41F8040B6166B4F86A000138A4F862
:104590006A00B4F86A000028EDD1204603F090FBD1
:1045A000002084F88000012084F88100D4F8840081
:1045B000002818BF012001B0BDE8F0830000000012
:1045C0002DE9F047044690F88000012802D102202E
:1045D000BDE8F0871D4617460E46D4F8009001202E
:1045E00084F88000FCF758F894F88110012909D16B
:1045F000002E18BF002F0BD1002084F8800001206E
:10460000BDE8F087002084F880000220BDE8F08734
:104610008046032084F881000020C4F88400E66509
:10462000A4F86070A4F862706066A4F86800A4F84A
:104630006A00A1682067B1F5C02F6067206805D1C6
:10464000016841F40061016005E000BFC16801221A
:1046500062F35241C16041684FF6FF7291433944A1
:104660004160016841F0010101606168B1F5800FAE
:1046700003D1016841F400710160E16810294DD354
:10468000B4F86200002800F0C780681C0FD132E047
:10469000E16D51F8042B0262E165B4F86200013863
:1046A000A4F86200B4F86200002800F0B580206829
:1046B00041698907ECD4FBF7EFFFA0EB0800A842A3
:1046C000F0D3204603F0FCFA002084F88000D4F8F0
:1046D000840040F48070C4F88400012084F88100D4
:1046E0000320BDE8F08700BFFBF7D6FFB4F86200F7
:1046F000002800F09180206841698907F4D5E16DB8
:1047000051F8042B0262E165B4F862000138A4F8A4
:104710006200B4F862000028EDD17DE0B4F86200D8
:10472000072933D9002877D04FF6FE706E1C471C3E
:1047300010E000BFE16D31F8020BA9F82000384607
:10474000E165B4F862100844A4F86200B4F86200AD
:10475000002861D020684169890709D4FBF79CFFD4
:10476000002EF3D0A0EB0800A842EFD3A9E700BFCA
:10477000B4F862100229DDD3E16B0029DAD0E16DD3
:1047800051F8042B02624FF6FE70D9E7002843D09F
:104790004FF6FE706E1CA0F1020A471C10E000BF2D
:1047A000E16D097880F82010E06D411C3846E16524
:1047B000B4F862100844A4F86200B4F8620058B378
:1047C00020684169890709D4FBF766FF002EF4D001
:1047D000A0EB0800A842F0D373E700BFB4F8621062
:1047E000042909D3E16B412906D3E16D51F8042B6B
:1047F00002625046DBE700BFB4F862100229CFD353
:10480000E16B0029CCD0E16D31F8020BA9F8200052
:104810004FF6FE70CBE700BF681C13D020684069DC
:10482000000713D4FBF738FFA0EB0800A842F5D32C
:10483000D4F8840040F02000C4F8840006E000BFF3
:10484000FBF72AFF206840690007F9D5204603F0EE
:1048500037FA002084F88000012084F88100D4F821
:104860008400002818BF0120BDE8F0870000000088
:10487000411E0020B0EB116F02D00120704700BF35
:104880004EF21002F023CEF2000251604EF6235198
:10489000CEF200010B70072190601160704700009C
:1048A000F0B590F83C20012A02D10220F0BD00BFF3
:1048B000CB6848F2FF7ED1E901C223F47C5322F495
:1048C0007052CFF6F07E1A430CEA0E03D1F800C006
:1048D00042EA030E2CF477230A6943EA0E0322F41A
:1048E00076228D691A434B691A430B6B22F47422AA
:1048F00023F47024D0F800C040F2004E22434CF460
:104900008063C4F2010E42EA0542734502BF22F001
:104910008052CC692243734514D100268D6ACFF6AC
:10492000F04622F07C720C6A06EA05552A4324F010
:1049300000744F6A22433A43734502BF22F000528B
:10494000C96A0A430021CCF8442080F83C1008468C
:10495000F0BD000000000000B0B590F83C20012A36
:104960004FF0020263D080F83D2040F2004C026814
:10497000C4F2010C42F4806363455368D2F808E046
:1049800002BF23F470034C6823434DF6FF740D6897
:10499000C4F2000423F07003A24243EA050353600B
:1049A00014DC40F2FF73C4F200039A4222DD40F6A9
:1049B0000003C4F200039A422ED040F60043C4F232
:1049C00000039A4228D041F6000321E04FF6FF731E
:1049D000C4F200039A4213DD0023C4F201039A4299
:1049E0001AD044F20003C4F201039A4214D0624583
:1049F00012D016E0B2F1804F0ED040F2004307E033
:104A00004EF20003C4F200039A4205D04EF2004376
:104A1000C4F200039A4204D12EF08003896819433E
:104A200091600022012180F83D1080F83C20104662
:104A3000B0BD00000000000051B1082910D00429C9
:104A400016D100F145021278012A0ED115E000BFFF
:104A500090F84420012A08D1022280F844201BE06B
:104A600000F146021278012A07D00120704700BFEA
:104A700000F147021278012AF7D10222082905D055
:104A8000042907D180F8452006E000BF80F84620C1
:104A900002E000BF80F84720026801F01F000421F7
:104AA00001FA00F0116A81431162116A0843106231
:104AB0004DF6FF70516CC4F20000824241F4004098
:104AC000506419DC40F2FF70C4F2000082422BDD1A
:104AD00040F60000C4F2000082423BD040F60040A5
:104AE000C4F20000824235D041F60000C4F200005A
:104AF00082422FD03AE000BF4FF6FF70C4F20000B0
:104B000082421BDD0020C4F20100824222D044F226
:104B10000000C4F2010082421CD040F20040C4F206
:104B20000100824216D021E0B2F1804F12D040F253
:104B30000040C4F2000082420CD017E04EF20000A8
:104B4000C4F20000824205D04EF20040C4F20000E0
:104B500082420BD107219068C0F201010140002080
:104B6000062918BFB1F5803F00D17047106840F0AA
:104B700001001060002070472DE9F04190F83C30B2
:104B8000012B03D10220BDE8F08100BF4FEAB20241
:104B9000052A31D8DFE812F0060038007600B400AC
:104BA000DA000001036843F6FF76C4F201061A6AD0
:104BB000B34222F001021A621A461C6AD3F804E0DA
:104BC00024F0020452F818CF8D6844EA0504D1F8A5
:104BD000008040F3078144F20007C4F20107BB42A2
:104BE00000F00B8144F60007C4F20107BB4200F05D
:104BF000048144F20047FCE00121002280F83C20BF
:104C00000846BDE8F08100BF036840F2004E43F45F
:104C10008067C4F2010E1A6A774522F010021A6208
:104C20001A461C6A5D6824F0200452F818CF8E687A
:104C300044EA061407D1CE686FF0400724F0C004A0
:104C400007EA0616344343F6FF76D1F80080C4F233
:104C50000106B34240F3EC8044F20007C4F20107BE
:104C6000BB4200F0EC8044F60007C4F20107BB42EF
:104C700000F0E58044F20047C4F20107BB4200F0B7
:104C8000DE80E3E0036840F2004E43F48067C4F244
:104C9000010E1A6A774522F480721A621A461C6A5B
:104CA0005D6824F4007452F81CCF8E6844EA062430
:104CB00007D1CE6840F2FF47360224F44064BE4379
:104CC000344343F6FF76D1F80080C4F20106B342C4
:104CD00040F3D48044F20007C4F20107BB4200F065
:104CE000D48044F60007C4F20107BB4200F0CD8037
:104CF00044F20047C4F20107BB4200F0C680CBE09B
:104D0000036843F6FF77C4F201071A6ABB4222F434
:104D100080521A621A46D3F820C05C6852F81C6FA1
:104D20000D68D1F808E040F3CF8044F20007C4F2E8
:104D30000107BB4200F0D38044F60007C4F201072C
:104D4000BB4200F0CC8044F20047C4E0036843F665
:104D5000FF77C4F201071A6ABB4222F480321A625A
:104D60001A46D3F820C05C6852F8546F0D68D1F829
:104D700008E040F3D38044F20007C4F20107BB42CD
:104D800000F0D78044F60007C4F20107BB4200F0F0
:104D9000D08044F20047C8E0036843F6FF77C4F2CE
:104DA00001071A6ABB4222F480121A621A46D3F82B
:104DB00020C05C6852F8546F0D68D1F808E040F3E9
:104DC000D98044F20007C4F20107BB4200F0DD8045
:104DD00044F60007C4F20107BB4200F0D68044F25B
:104DE0000047CEE00027C4F20107BB4205D040F2E5
:104DF0000047C4F20107BB4205D1CF6824F00C0480
:104E000027F004073C43B34240F3E28044F200063B
:104E1000C4F20106B34200F0E68044F60006C4F294
:104E20000106B34200F0DF8044F20046D7E000BF45
:104E30000027C4F20107BB4201D0734506D1D1E976
:104E40000576374325F4406646EA870548F6FF476E
:104E50005D60CFF6FF6707EA0C0747EA08279F6106
:104E60004F6809699F631C629F6947F400679F61EF
:104E70009F6927F480679F61A7E000BF0027C4F205
:104E80000107BB4201D0734506D1D1E9057637430E
:104E900025F4405646EA07154FF68C775D60CFF64D
:104EA000FE7707EA0C0747EA0807DF614F680969E0
:104EB000DF631C62DF6947F00807DF61DF6927F005
:104EC0000407DF61ADE000BF0027C4F20107BB4269
:104ED00005D040F20047C4F20107BB4204D14F693C
:104EE00024F4804444EA871448F6FF475C60CFF618
:104EF000FF673E402CF4005746EA0524DC614E680B
:104F000009691E6447EA0E371F62DF6947F40067CC
:104F1000DF61DF6927F48067DF6156E00027C4F2B4
:104F20000107BB4205D040F20047C4F20107BB4273
:104F300004D14F6924F4803444EA07244FF68C7777
:104F40005C60CFF6FE7703373E402CF4003746EA2C
:104F500005045C654E6809699E6547EA0E471F6255
:104F60005F6D47F008075F655F6D27F004075F65B9
:104F700057E000BF0027C4F20107BB4205D040F252
:104F80000047C4F20107BB4204D14F6924F48024D6
:104F900044EA872448F6FF475C60CFF6FF6707F5D1
:104FA00040773E402CF4001746EA05245C654E68C5
:104FB0000969DE6547EA0E571F625F6D47F40067B7
:104FC0005F655F6D27F480675F65090229E000BFB8
:104FD0000026C4F20106B34205D040F20046C4F2F6
:104FE0000106B34206D12EF44077D1E90565374377
:104FF00047EA050E4FF68C75C3F804E0CFF6FE7550
:105000000CEA050747EA08079F614F6809695F6373
:105010001C629F6947F008079F619F6927F004079A
:105020009F611368194311600021002280F83C2021
:105030000846BDE8F081000060B310B5044690F862
:105040003D0028B9002084F83C00204600F024F8F8
:10505000022084F83D002068211D04F025F801207D
:1050600084F8480084F83E0084F83F0084F840004B
:1050700084F8410084F8420084F8430084F8440036
:1050800084F8450084F8460084F8470084F83D0021
:10509000002010BD0120704781B000210068C4F2DB
:1050A0000101884202D001B0704700BF44F2F040D5
:1050B000C5F60200016841F001010160006800F0DE
:1050C00001000090009801B070470000000000004F
:1050D000FEE70000000000002DE9F04F03AF8FB0A5
:1050E0004FF008080C2B08BF4FF006081C468A46F4
:1050F00008FB03F347F8380C40F274010720C2F2B2
:105100000041164600EB430047F840DC20F0070062
:105110000988ADEB000047F8301CD7F8189047F825
:105120001C0C854640F2A01BA7F11801C2F2004BEF
:105130000BF10805284603F0C3F9A7F1140128462E
:1051400047F8445C03F0C4F9B9F1000FA6F120035D
:1051500000F03881002C00F0AF82D9B240F2740028
:10516000C2F2004057F814BC57F838CC55460088B6
:1051700002BA100C47F82C0C4A0057F8180C47F8E4
:10518000280C52FA83F042F6A962C0F6010247F8F1
:10519000200C02EB01100021002247F8240C00BF74
:1051A00042F635260C2C57E90930C0F601064FEAC5
:1051B000510E08BF06EB80035B56B3F1FF3F0ADCDC
:1051C00096B257F81C0C08FB06F600EB460657F89B
:1051D0002C0C26F81E000132002096B2A64205F1E2
:1051E0000106B6B228BF0246B34540F27182A6EB73
:1051F0000A06A64200F0D6805FFA83F95FEA4963A7
:105200000AD593B257F81C0C08FB03F300EB4303D9
:1052100057F82C0C23F81E000132002093B2A34251
:1052200005F102039BB228BF02469B4540F2508223
:10523000A3EB0A03A34200F0B5805FEA89630AD5B5
:1052400093B257F81C0C08FB03F300EB430357F829
:105250002C0C23F81E000132002093B2A34205F16A
:1052600003039BB228BF02469B4540F23182A3EB69
:105270000A03A34200F096805FEAC9630AD593B29D
:1052800057F81C0C08FB03F300EB430357F82C0CF6
:1052900023F81E000132002093B2A34205F104035B
:1052A0009BB228BF02469B4540F21282A3EB0A0341
:1052B000A34277D05FEA09730AD593B257F81C0C62
:1052C00008FB03F300EB430357F82C0C23F81E00F4
:1052D0000132002093B2A34205F105039BB228BF1F
:1052E00002469B4540F2F481A3EB0A03A34259D046
:1052F0005FEA49730AD593B257F81C0C08FB03F315
:1053000000EB430357F82C0C23F81E000132002059
:1053100093B2A34205F106039BB228BF02469B4508
:1053200040F2D681A3EB0A03A3423BD05FEA897324
:105330000AD593B257F81C0C08FB03F300EB4303A8
:1053400057F82C0C23F81E000132002093B2A34220
:1053500005F107039BB228BF02469B4540F2B88186
:10536000A3EB0A03A3421DD05FEAC9730AD093B22C
:1053700057F81C0C08FB03F300EB430357F82C0C05
:1053800023F81E000835ABB29B4540F2A1810132E3
:10539000A3EB0A0396B20020A64228BF0246A3420E
:1053A0000AD100BF0CF1010C57F8280C1FFA8CF33E
:1053B0005546984240F28C8101318C427FF4F0AE28
:1053C0007AE100BF002C00F07781DAB2BBF8000070
:1053D0004FF0000B4FF0000957F838CC554600BA93
:1053E000000C47F8200C57F8300C40BA47F8240C52
:1053F00057F8140C47F8280C57F8180C47F83C0CD1
:10540000500050FA83F047F82C0C42F6A960C0F621
:10541000010000EB021047F8340C00BF42F63522C1
:1054200057F8340C57F82C1CC0F601020C2C2BF04A
:10543000010E08BF02EB81001FFA89F209F1010990
:1054400010F90B3008FB02F257E909101FFA89F630
:10545000002B48BF084657F81C1CA64205F1010660
:10546000B6B201EB42024FF0000128BF894657F85F
:10547000281C22F80E00B14240F22A81A6EB0A0154
:10548000A14200F0FB801FFA89F009F10109DBB2AB
:1054900008FB00F258064FF0000657E9091048BF14
:1054A000084657F81C1C4FEA5B0E01EB42011FFA3D
:1054B00089F2A24205F1020292B228BFB14657F822
:1054C000286C21F81E00964240F20281A2EB0A01EC
:1054D000A14200F0D3801FFA89F009F1010908FB0D
:1054E00000F1980657E9092048BF104657F81C2CD0
:1054F000002602EB41011FFA89F2A24205F10302E4
:1055000092B228BFB14657F8286C21F81E00964287
:1055100040F2DE80A2EB0A01A14200F0AF801FFA48
:1055200089F009F1010908FB00F1D80657E90920C3
:1055300048BF104657F81C2C002602EB41011FFA09
:1055400089F2A24205F1040292B228BFB14657F88F
:10555000286C21F81E00964240F2BA80A2EB0A01A4
:10556000A14200F08B801FFA89F009F1010908FBC4
:1055700000F1180757E9092048BF104657F81C2CBE
:10558000002602EB41011FFA89F2A24205F1050251
:1055900092B228BFB14657F8286C21F81E009642F7
:1055A00040F29680A2EB0A01A14267D01FFA89F06F
:1055B00009F1010908FB00F1580757E9092048BF24
:1055C000104657F81C2C002602EB41011FFA89F205
:1055D000A24205F1060292B228BFB14657F8286CE4
:1055E00021F81E00964273D9A2EB0A01A14245D0D0
:1055F0001FFA89F009F1010908FB00F1980757E942
:10560000092048BF104657F81C2C002602EB410128
:105610001FFA89F2A24205F1070292B228BFB146F1
:1056200057F8286C21F81E00964251D9A2EB0A01C6
:10563000A14223D01FFA89F1D80757F8240C08FBA0
:1056400001F157F8202C09F1010908BF10461FFA93
:1056500089F257F81C3C0835A2424FF0000203EBD8
:105660004101ABB228BF914657F8282C21F81E0003
:105670009A422DD9A3EB0A01A14213D10CF1010CDE
:1056800057F83C2C1FFA8CF155468A4240F27401BF
:10569000C2F2004108801BD90BF1010B5C457FF47D
:1056A000BDAE09E040F27401C2F2004108800BF186
:1056B000010B5C457FF4B2AE6DE9028457F8440CEF
:1056C00057F8381C524657F81C3C02F049FD02B00E
:1056D00040F2740057F8301CC2F20040018057F8C5
:1056E00040DCA7F10C04A546BDE8F08F00000000E7
:1056F0002DE9F04F83B00D9F3E78A6F12005EDB265
:105700005E2D2AD80C468046104419440C9D013762
:105710001FFA80F9C2461FFA81FB6A08029200BF95
:105720001FFA8AF0484528BF2C44A1B2594514D22B
:10573000F2B2484528BF5FFA88FA002300931FFAA7
:105740008AF02B46FFF7C8FC17F8016BA6F1200082
:10575000C0B25F2802988244E2D303B0BDE8F08F64
:105760002DE9F04F81B02DED048B8AB040F2F0149A
:1057700040F2A018C2F20044C2F2004808F1080644
:1057800040F27C1140F600050320A0604FF48070C9
:10579000A081C2F200413046C5F6020503F050F97F
:1057A00040F278070521C2F20047304622463B68A6
:1057B0009847BA6808F104013046904742F2143B1A
:1057C0004FF00008C2F2004B4CF2EC53C0F600035D
:1057D0000021DBF800000022C0F838803046BF6AA4
:1057E0000496B847FAF758FF07464FF40051284689
:1057F000FAF732FF012800F0AA804FF6184044F66D
:10580000D356CFF6FF7005A9A0EB070A4FF0640945
:10581000C1F26206481C0290CDF80CA010E000BF57
:1058200004FB09F0A0FB0601DBF800008909816395
:105830004FF400512846FAF70FFF012800F0878047
:105840000A20FAF71DFEFAF727FFC41BFAF724FF18
:10585000B4F57A7FA0EB0704E2D9FAF71DFF40F612
:10586000B8318C426AD84CF6CD415044CCF6CC418C
:10587000A0FB010105A8CA08C1A106F0CDFB9DF857
:105880001420A2F12000C0B25E2829D840F2F01006
:105890000125C2F20040DDF808900088A0F11E0B3F
:1058A0000BEB000A5C4600BF1FFA8AF0A3B28342EA
:1058B00028BF1035A9B2102912D8D2B2834228BF0E
:1058C0005FFA8BF41023CDF80080A0B2FFF704FC40
:1058D00019F8012B0834A2F12000C0B25F28E3D3ED
:1058E00040F2F01640F27801C2F20046C2F20041E6
:1058F00070688D6BC41EFAF7CFFE3168DDF80CA01E
:10590000504444F6D3564843C1F262062246A0FBF7
:105910000601032000904FF6FF70CB090021019093
:105920000498A84742F2143B40F60005C2F2004B2F
:10593000C5F602054FF064097AE700BFC01B884234
:105940007FF676AF03E000BF0A20FAF799FD4FF427
:1059500000512846FAF780FE0128F5D0DBF8000058
:10596000806B10B300EE100AB8EE408A9FED860AF5
:1059700088EE009AFAF790FE064600BF0120FAF77B
:105980007FFDFAF789FE801BB0EE481A00EE100A80
:10599000DBF80010B0F5967FB8EE400AA0EE091AC9
:1059A000BCEEC10A81ED0E0AE8D340F2780040F265
:1059B000F014C2F20040C2F2004400210022876BC2
:1059C0004FF00008D4E9003000900498CDF804802E
:1059D000B84746F257504FF00409C6F241300590DF
:1059E00042F274005722C7F25340069046F27540C7
:1059F0000127C6F66970079020880DF1140A042665
:105A0000042404308DF8208085B200BFB0B2A842D3
:105A100028BF1034A1B2132912D8D2B2A84228BF8D
:105A20004E461023CDF80080B0B2FFF755FB1AF8B0
:105A3000072008360137A2F12000C0B25F28E5D365
:105A4000FAF722FE05AC024650A1204606F0E4FA21
:105A50009DF81420A2F12000C0B25E2827D840F2A1
:105A6000F0100134C2F2004016264FF004084FF047
:105A7000000900880427043085B200BFB8B2A842EC
:105A800028BF1036B1B2252911D8D2B2A84228BFFA
:105A900047461023CDF80090B8B2FFF71DFB14F86D
:105AA000012B0837A2F12000C0B25F28E6D340F2F4
:105AB000A01005ACC2F2004038A14268204606F0B2
:105AC000ABFA9DF81420A2F12000C0B25E2826D8BF
:105AD00040F2F0100134C2F2004028264FF00408D2
