:020000040800F2
:1000000090040024E1020008192D0008D92B0008F3
:10001000112D000859030008813800080000000075
:10002000000000000000000000000000F1360008A1
:100030006103000800000000A9330008F936000839
:10004000FB020008FB020008FB020008FB0200089C
:10005000FB020008FB020008FB020008FB0200088C
:10006000FB020008FB020008FB020008FB0200087C
:10007000FB020008FB020008FB020008FB0200086C
:10008000FB020008FB020008FB020008FB0200085C
:10009000FB020008FB020008FB020008FB0200084C
:1000A000FB020008FB020008FB020008FB0200083C
:1000B000FB020008FB020008FB020008FB0200082C
:1000C000FB020008FB020008FB020008FB0200081C
:1000D000FB020008FB020008FB020008FB0200080C
:1000E000FB020008FB02000800000000FB02000801
:1000F000FB020008FB020008FB020008FB020008EC
:10010000FB020008FB020008FB020008FB020008DB
:10011000FB020008FB020008FB020008FB020008CB
:10012000FB020008FB020008FB020008FB020008BB
:10013000FB020008FB020008FB020008FB020008AB
:1001400000000000000000000000000000000000AF
:10015000FB020008FB020008FB020008FB0200088B
:10016000FB020008FB020008FB020008FB0200087B
:10017000FB020008FB020008FB0200080000000070
:10018000FB020008FB020008FB020008FB0200085B
:10019000FB020008FB020008FB020008FB0200084B
:1001A000FB020008FB020008FB0200080000000040
:1001B000FB020008FB020008FB020008FB0200082B
:1001C000FB020008FB020008000000000000000025
:1001D0000000000000000000FB020008000000001A
:1001E000000000000000000000000000000000000F
:1001F0000000000000000000FB020008FB020008F5
:10020000FB020008FB02000800000000FB020008DF
:10021000FB020008FB020008FB020008FB020008CA
:10022000FB02000800000000FB02000800000000C4
:10023000FB020008FB02000800000000FB020008AF
:10024000FB020008FB020008FB020008FB0200089A
:10025000FB020008FB020008FB020008FB0200088A
:10026000FB020008FB020008FB020008FB0200087A
:10027000FB020008FB020008FB020008000000006F
:10028000FB020008FB020008FB020008FB0200085A
:1002900000000000FB020008FB0200080000000054
:1002A00000000000FB020008FB020008FB0200083F
:1002B000FB020008FB020008FB020008FB0200082A
:1002C000FB020008FB020008FB020008DFF80CD06C
:1002D00000F02AF800480047613900089004002423
:1002E0000648804706480047FEE7FEE7FEE7FEE7D0
:1002F000FEE7FEE7FEE7FEE7FEE7FEE7D137000890
:10030000CD020008D2B201E000F8012B491EFBD259
:1003100070470022F6E710B513460A460446194610
:10032000FFF7F0FF204610BD1CB5094800900948B2
:1003300001900546009C06E0E06840F0010394E867
:10034000070098471034AC42F6D3FFF7C3FF000014
:10035000D83B0008F83B0008FEE700000000000062
:100360007047000000000000EFF3108072B600BF7D
:10037000FEE7000000000000B0B5044600F0FCF805
:1003800040F200010546C2F20041621C097818BF24
:100390000C4400BF00F0F0F8401BA042FAD3B0BDFF
:1003A0002DE9F04F82B00D68002D00F0C78000F1FC
:1003B000264242F2004402F1FF728305C5F60204B0
:1003C0000A27A04243EA922208BF0927082A40F2DE
:1003D000040C38BF1746C5F6000C4FF0000E00970E
:1003E000002700260AE000BF01360D6835FA06F244
:1003F00007F102070EF1040E00F0A080012202FABC
:1004000006FB15EA0B08EFD0D1F804A003220AF08E
:10041000030502FA07F36C1E6FEA0309012C0FD8DB
:100420008368CC6803EA0903BC4023438360CAF3B2
:100430000014436823EA0B03B4402343436003E002
:10044000032D01D1032520E0C3688C6803EA09036A
:10045000BC40022D43EA0403C36016D16FF00302CF
:100460000EF01C0502EA56030F22034402FA05FBB4
:10047000D3F820A00C692AEA0B0AAC4044EA0A042B
:100480001C62D1F804A00AF00305036805FA07F41A
:1004900003EA09031AF4403F43EA04030360A3D0CC
:1004A00044F2F44240F2084AC5F60202C5F6000AD8
:1004B000136843F00203136013680F2203F0020372
:1004C000019326F00303019C0EF00C0453F80A90EC
:1004D00002FA04F5009A29EA050502FA04F44FF03D
:1004E000B0492C4343F80A40D9F800304C6843EA3D
:1004F0000805E20258BF23EA0805C9F80050A50222
:10050000DCF8002042EA080358BF22EA0803A503EA
:10051000CCF80030DCF8802042EA080358BF22EA19
:100520000803E403CCF88030DCF87C2042EA0803BE
:1005300058BF22EA0803CCF87C3055E702B0BDE88A
:10054000F08F0000000000000069084018BF012083
:100550007047000000000000426902EA0103914375
:1005600041EA034181617047002A08BF09048161A3
:10057000704700000000000040F28800C2F2004016
:10058000006870470000000040F2000040F288015F
:10059000C2F20040C2F2004100780A6810440860CC
:1005A000704700000000000080B5032000F0E8F86C
:1005B00001F0E6FE44F2184143F6C833C5F60201E5
:1005C000C0F600030A68C2F303229A5C096801F0CE
:1005D0000F0102F01F02595CD04040F20C02C2F23F
:1005E000004201F01F0120FA01F1116040F2080100
:1005F000C2F2004108600F2000F00AF800281CBF7A
:10060000012080BD00F07CF8002080BD00000000CB
:1006100070B540F20006C2F200463178E1B10446FE
:1006200040F20800C2F200404FF47A72B2FBF1F1DE
:100630000068B0FBF1F002F0B7FA0F2C4FF00105A3
:1006400008D838B94FF0FF3000222146002500F0CD
:1006500067F87460284670BD012070BD000000007E
:10066000B0B502784EF69C5CCEF2000C43784CF8A4
:10067000043CFAB14368CCF80030037BC17A90F8AF
:100680000AE0457B447A42EA0372837B42EA0161D5
:10069000C27B41EACE41007A41EA854141EA4341C9
:1006A00041EA024141EA042141EA4000CCF8040059
:1006B000B0BD00BF0020CCF80000CCF80400B0BDF5
:1006C0004EF62450CEF20000BFF35F8F016821F494
:1006D00080310160002101677047000000000000C8
:1006E0004EF6245140F00100CEF200010867086880
:1006F00040F480300860BFF34F8FBFF36F8F7047B7
:1007000081B044F2F440C5F60200016841F00201F4
:100710000160006800F002000090009801B070478E
:1007200070B54EF60C5C4FF0FF36CEF2000C00F1C7
:10073000604505F56445DCF80030C3F3022E8EF009
:100740000703042B28BF0423BEF1030406FA03F3B6
:1007500021EA030100F00F0338BF0024043B002806
:10076000634406FA04F048BF03F10C05A14022EAF5
:10077000000008430001287070BD00000000000068
:100780004EF60C514FF6FF03CEF200010A681A40F4
:1007900060F30A2242F0806040F0FD70086070470C
:1007A0002DE9F04F8EB04BF204480023C5F200282B
:1007B0000693CDE90233CDE90433D0F800A0D8F890
:1007C000000000F00303012B78D10123029300F015
:1007D0003003102B77D000F44073B3F5807F01D144
:1007E0000123049300F4A02340F2010EB3F5803FEF
:1007F000C0F2001E70D18303734658BF4FF001133F
:10080000059300F0A063B3F1807F6AD0D8F80400AC
:1008100000F00303012B70D10223029300F0300398
:10082000102B6ED000F44073B3F5807F01D102230A
:10083000049300F4A02340F2020BB3F5803FC0F212
:10084000010B05D183035B4648BF0EF101030593FD
:1008500000F0A063B3F1807F05D18001584648BF06
:100860000EF10100069000240C94CDE90A44CDE974
:10087000084458F8040C4FF40073D8F80060C0071F
:1008800004BF40F22223C0F20443F00705D086EAF9
:100890000300800701D401240894F0063AD586EAC3
:1008A0000300800636D44FF00109CDF8249006F4F9
:1008B0004070B0F5407F34D035E000BF00F0300329
:1008C000102B7FF488AF0123039300F44073B3F53A
:1008D000807F3FF485AF85E700F0A063B3F1807FB0
:1008E00094D18001704658BF4FF001100690D8F89F
:1008F000040000F00303012B8ED000F03003102B16
:1009000090D10223039300F44073B3F5807F8ED01F
:100910008FE700BF4FF0000906F44070B0F5407F4C
:1009200001D101200A90F0030ED586EA03004003AE
:100930000AD4F446B00358BF4FF0011CCDF82CC0C8
:10094000F00115D504E000BF4FF0000CF0010FD509
:1009500086EA030040010BD47546B00158BF4FF042
:1009600001150C95D8F80400C6070CD005E000BFAF
:100970000025D8F80400C60705D080EA0306B607AC
:1009800001D402240894C60607D580EA0306B606F9
:1009900003D44FF00209CDF8249000F44076B6F568
:1009A000407F01D102260A9645F20002C603C5F235
:1009B00000220AD580EA0306760306D4DC468703C4
:1009C00048BF0EF1010CCDF82CC0C60109D543403B
:1009D0005B0106D4800148BF0EF1010B5D46CDF8E6
:1009E00030B00095BAEB02001368D34618BF01205F
:1009F000DB07AAEB020301D1002204E0166826F00F
:100A00000106166001224AF20007CA46C5F2002715
:100A10003D68ED07B3FA83F502D1B94606E000BFA1
:100A20003B68B946023223F001033B6000EB40060D
:100A300002AB01926D0903EBC600D0F808E008EBA9
:100A40008E0757F8042C22F4807247F8042C58F8CB
:100A5000042CD2072AD153F83640002C5CD008EB86
:100A6000840252F8047C27F0010742F8047C4468B1
:100A70003CB108EB840252F8047C27F0100742F8DE
:100A8000047CC4683CB10122A24358F8227027F4C8
:100A9000803748F82270006900283DD0012222EA00
:100AA000000058F8202022F0807233E045F2000266
:100AB00058F8040CC5F2002220F00100934548F8D4
:100AC000040C29D108EB8400BAF1000F50F8042C73
:100AD00042F0020240F8042C07D008EB8A0050F8DC
:100AE000042C42F0200240F8042CBCF1000F08D086
:100AF000012020EA0C0058F8202042F4802248F817
:100B00002020009840B10120009A904358F82020FE
:100B100042F0806248F8202005EB4500D1E900262C
:100B200003EBC00453F830008242656816D145F2E9
:100B3000000CAE422B46C5F2002C28D1CA68E368EF
:100B40009A421DD10A6923699A4233461FD158F847
:100B5000040C40F0010048F8040C48E045F2000C99
:100B6000AE423346C5F2002C11D08A68A3689A427F
:100B700003D0CA68E3689A4204D12B4607E000BF5D
:100B8000334604E00A6923699A422B462FD108EBC9
:100B9000800050F8042C22F0010240F8042C3BB1F4
:100BA00008EB830050F8042C22F0100240F8042CCB
:100BB000D4E9022008EB820252F8043C23F480734B
:100BC00042F8043C40B1012222EA000058F82020FB
:100BD00022F4803248F82020206940B1012222EA24
:100BE000000058F8202022F0807248F82020886801
:100BF0004FF48072E34508EB800050F8043C18BFC6
:100C00004FF4407223F440731A4440F8042C4869AE
:100C100058F8042C431EC2F3074293420BD9002319
:100C200058F8042CCFF6FF7322F47F0203EB004048
:100C3000104348F8040C58F8042C08680138D2070F
:100C400058F8203023F0030328D10122E34518BFD0
:100C500003221A4348F82020486860B108EB80005E
:100C60001022E34550F8043C18BF302223F0200343
:100C70001A4340F8042CC868C20327D4B0B3012239
:100C8000E34522EA00004FF0807258F8203023F04C
:100C9000E06318BF4FF0A06225E000BF43F00102FF
:100CA00048F82020486840B108EB8000012350F844
:100CB000042C63F3051240F8042CC868C20329D43D
:100CC000A8B34FF080736FF0E06427E00122E345A2
:100CD00022EA00004FF4803258F8203018BF4FF459
:100CE000A02223F4E0231A4448F820200869C10315
:100CF0002AD4002842D00121E34521EA00004FF028
:100D0000407158F8202022F0E06218BF4FF0E061F7
:100D100027E000BF4FF480336FF4E024012222EA81
:100D2000000058F8202022401A4348F82020086983
:100D3000C10319D410B30121032221EA000058F89D
:100D4000201062F31A6117E00121E34521EA000057
:100D50004FF4403158F8202018BF4FF4E02122F41E
:100D6000E022114408E000BF0121032221EA000033
:100D700058F8201062F3124148F820100199C80772
:100D800006D188070CD400200EB0BDE8F08F00BF5C
:100D9000DCF8000040F00100CCF800008807F2D534
:100DA000D9F8000040F00100C9F8000000200EB0A2
:100DB000BDE8F08F000000002DE9F04381B015463A
:100DC0000F460446FFF7D8FB2168D1F84880D1F8D8
:100DD0001091226D042A39D10646F868B0F5800FCB
:100DE00034D1086A800641D497E80D10C1F8880014
:100DF000C1F880203869C1F89000086820F043509D
:100E0000184340EA0C0040F000500860E068B0F180
:100E1000806F04D0D1F8000110F4E06F50D0C1F819
:100E20004880086A000750D4002D3BD0681C13D1BD
:100E3000086A000749D4086A00075CBF086A5FEACD
:100E4000007042D4086A0007F2D53EE010206065C9
:100E5000012001B0BDE8F083FFF78EFB801BA842A4
:100E600022D82168086A0007F6D52EE0D5B1681CA3
:100E700012D1086A8006B7D5086A800644BF086A9E
:100E80005FEA8060B0D5086A8006F2D4ACE700BFA4
:100E90002168086A8006A7D5FFF76EFB801BA84271
:100EA000F6D901E0FFF768FB4FF400702065606D34
:100EB00040F001006065012001B0BDE8F08300BF93
:100EC000C1F81091086A0007AED5082048620220D8
:100ED0002065002001B0BDE8F083000000000000A4
:100EE000F0B581B015460F460446FFF745FB216D6E
:100EF0000646242908D014291AD002291DD1E068F9
:100F0000B0F1806F05D118E0386840F00200032886
:100F100013D12068016A890614D400206065204638
:100F2000394601F0FDFE48B3012001B0F0BD00BF1D
:100F3000386820F001000228EBD010206065012005
:100F400001B0F0BD25B3691C12D1016A8906E4D550
:100F5000016A890644BF016A5FEA8161DDD5016AE1
:100F60008906F2D4D9E700BF2068006A8006D4D58C
:100F7000FFF702FB801BA842F6D90BE0B86B98B1D3
:100F80003868022834D0012838D0D0B33BE000BF05
:100F9000FFF7F2FA4FF400702065606D40F0010039
:100FA0006065012001B0F0BD2168086A80071AD48D
:100FB00075B3681C0ED1086A800714D4086A8007CC
:100FC0005CBF086A5FEA80700DD4086A8007F2D5BA
:100FD00009E000BFFFF7D0FA801BA8421AD82168A9
:100FE000086A8007F6D5002002224A6201B0F0BDEF
:100FF000206D142805D0242004E000BF206D242893
:1010000004D104202065002001B0F0BD1420F9E7D0
:10101000FFF7B2FA4FF400702065606D40F00100F8
:1010200060652168012002224A6201B0F0BD000023
:10103000F0B581B00446FFF79FFA002C00F08980DC
:10104000054600206065216D11B101B0F0BD00BF03
:10105000204600F0D9F8206841F28836A6654FF6A0
:10106000F40ED4E903C263698168CFF6E00E00276D
:10107000CFF6FF7701EA0E0107EB024241EA0C01CD
:101080006FF0FF0E676B11430EEB03223943E369E8
:10109000114319438160C168226A21F4E0211143A0
:1010A000C160216BA26B42EA01410161E16B4161C8
:1010B0000168626821F4F8510EEB022211430160CD
:1010C000016A890609D500BFFFF756FA401BB042F6
:1010D00038D82068016A8906F6D4C168A268D4E9C4
:1010E000097621F0FF01013FA3693943C160022B5A
:1010F000016821F0400141EA02010160D0F80811C5
:10110000E26A21F0A04141EA060141EA0201C0F889
:101110000811016841F00101016003D1816841F0CB
:1011200002018160E068B0F1806F05D10120206587
:10113000002001B0F0BD00BF02202065002001B0FA
:10114000F0BD00BF4FF400702065606D40F00100FD
:101150006065012001B0F0BDF0B581B00D460446D8
:10116000FFF70AFA216D04291ED106462068A76DF3
:10117000016A89061ED4882121652968082908D1B9
:101180006A68C0F8302110224262026842F480127C
:101190000260026822F00802114341F040510160F0
:1011A000002001B0F0BD00BF10206065012001B03B
:1011B000F0BD00BFD7B1791C0ED1016A8906DAD51E
:1011C000016A890644BF016A5FEA8161D3D5016A79
:1011D0008906F2D4CFE700BFFFF7CEF9801BB842F3
:1011E00006D82068016A8906F6D4C4E7FFF7C4F977
:1011F0004FF400702065606D40F0010060650120D3
:1012000001B0F0BD000000002DE9F047B4B0694620
:10121000044601F10800B021FFF77BF845F2000118
:101220002068C5F20021884202D034B0BDE8F087C2
:101230004FF00070009068464FF00008CDF8048031
:1012400000F016FA08B1FFF78FF844F2E04040F2E0
:101250000044C5F60200C5F602042FAD4FF00409A4
:1012600050F80C1C4FF0020A41F4001140F80C1C1D
:1012700050F80C1C032601F400112F912F9950F8FF
:101280000C1C41F4804140F80C1C50F80C1C092740
:1012900001F480412F912F99016841F01001016004
:1012A000016801F010012F912F99016841F00201AE
:1012B0000160016801F002012F912F99016841F04E
:1012C000080101600068294600F008002F902F985F
:1012D00004F54060CDF8BC90CDE930A83296339744
:1012E000FFF75EF820462946CDE92F9ACDE93186F1
:1012F0003397FFF755F84FF460502946CDE92F0A90
:1013000004F500603397CDE93186FFF749F84020B6
:101310002946CDE92F0A0A2033902046CDE93186AF
:10132000FFF73EF834B0BDE8F08700000000000091
:101330002DE9F04381B015460F460446FFF71CF92E
:1013400026688046002FB06CD6F8101178D0226D38
:10135000042A7BD1326C01230132A264A26C626444
:101360002764326863F31D723260E268B2F1806F05
:1013700004D0D6F8002112F4E06F7BD0B06415F1F0
:10138000010900F08C80002D46D100BF2068006A62
:1013900010F0060F60D096F850003870206CA16CE9
:1013A000471C2764481EA064A06C0028EED120686A
:1013B000016A89071CD4002D4ED0B9F1000F0DD160
:1013C000016A890714D4016A89075CBF016A5FEA70
:1013D00081710DD4016A8907F2D509E0FFF7CCF8D5
:1013E000A0EB0800A84239D82068016A8907F5D522
:1013F000022141622165002001B0BDE8F08300BFF9
:1014000096F850003870206CA16C471C2764481E69
:10141000A064A06C0028CAD02068006A10F0060FF3
:10142000EED100BFFFF7A8F8A0EB0800A84215D83E
:101430002068006A10F0060FF4D0276CE0E700BFC8
:1014400008206065012001B0BDE8F08310206065D0
:10145000012001B0BDE8F083FFF78EF84FF4007073
:101460002065606D40F001006065012001B0BDE8BD
:10147000F08300BFC6F8101115F101097FF483AFA6
:101480000DE000BF96F850003870206CA16C471C2E
:101490002764481EA064A06C00283FF488AF206831
:1014A000016A11F0060FEDD1016A11F0060F04BFB9
:1014B000016A11F0060FE5D1016A11F0060FEFD0B5
:1014C000E0E70000000000002DE9F04381B0154680
:1014D0000F460446FFF750F8002F6BD08046266871
:1014E000206D04286CD1306C15F1010900F1010068
:1014F000A064A06C60642764306820F040503060C5
:1015000036D0002D6ED100BF2068006A400779D523
:10151000387886F85000206CA16C471C2764481E60
:10152000A064A06C0028EFD12068016A890739D433
:10153000002D67D0B9F1000F2AD1016A890731D493
:10154000016A89075CBF016A5FEA81712AD4016A76
:101550008907F2D526E000BF387886F85000206C65
:10156000A16C471C2764481EA064A06C0028DBD037
:101570002068016A4907EFD4016A49075CBF016A24
:101580005FEA4171E8D4016A4907F2D5E4E700BF98
:10159000FEF7F2FFA0EB0800A84235D82068016AE8
:1015A0008907F5D5022141622165002001B0BDE81F
:1015B000F08300BF08206065012001B0BDE8F08322
:1015C00010206065012001B0BDE8F083387886F80E
:1015D0005000206CA16C471C2764481EA064A06CBE
:1015E0000028A1D02068006A4007EFD4FEF7C4FFAE
:1015F000A0EB0800A84207D82068006A4007F5D58C
:10160000276CE3E7FEF7B8FF4FF400702065606DCC
:1016100040F001006065012001B0BDE8F0830000EA
:10162000B0B544F60C05C5F60205296849072968D6
:1016300006D401F00701081A18BF0120B0BD00BF91
:1016400021F0070108432860FEF796FF044600BF1B
:1016500055F8080C800407D4FEF78EFF001BB0F588
:101660007A7FF5D90120B0BD0020B0BD0000000098
:101670002DE9F0470446C07844F22C480007C5F62F
:10168000020833D5606E4FEA305103290CD8DFE8E9
:1016900001F003111D2600BFD8F8001041F40031FD
:1016A000C8F800101BE000BF01266078C0070BD00F
:1016B00020E000BF04F10800022101F079FE064697
:1016C00060B16078C00715D1354646E004F12800C6
:1016D000022101F001FF06460028F2D1606ED8F821
:1016E000241021F440110843C8F824000026607833
:1016F000C007E9D0A06D04280ED83546DFE800F019
:101700000412181E1E0000BFD8F80000354640F431
:101710000030C8F8000011E001250127607840077B
:101720001FD453E004F10800002101F041FE04E061
:1017300004F12800002101F0CFFE05462F461DB11F
:10174000607840070DD441E0D8F82400A16D20F066
:10175000070000250843C8F8240037466078400792
:1017600034D5D4F8A4004FEA705005280CD8DFE82F
:1017700000F00311171D1D1DD8F8000040F40030C3
:10178000C8F8000012E000BF0125012660780007BC
:1017900020D455E004F10800002101F009FE04E026
:1017A00004F12800002101F097FE05462E461DB1E8
:1017B000607800070ED443E0D8F82C00D4F8A410C9
:1017C00020F4600000250843C8F82C003E466078ED
:1017D000000735D5D4F8A8004FEA306005280DD8A9
:1017E000DFE800F00412181E1E1E00BFD8F800002B
:1017F00040F40030C8F8000012E000BF01250127C6
:10180000E078800720D44EE004F10800002101F0C8
:10181000CFFD04E004F12800002101F05DFE054643
:101820002F461DB1E07880070ED43CE0D8F82C009C
:10183000D4F8A81020F0E06000250843C8F82C0078
:101840003746E07880072ED5E06C4FEA3010032849
:101850000ED8DFE800F00903130900BFD8F8000034
:1018600040F40030C8F800002E467DB912E000BFF9
:10187000012501266078C00619D44CE004F1080067
:10188000022101F095FD05462E461DB16078C00687
:101890000DD440E0D8F82000E16C20F030000025A5
:1018A0000843C8F820003E466078C00633D5E06D96
:1018B0004FEA303004280DD8DFE800F00412181E7B
:1018C0001E0000BFD8F8000040F40030C8F8000047
:1018D00012E000BF01250127607880061FD44EE08A
:1018E00004F10800002101F063FD04E004F1280088
:1018F000002101F0F1FD05462F461DB160788006FC
:101900000DD43CE0D8F82400E16D20F4E04000253F
:101910000843C8F824003746607880062FD5206E2B
:101920004FEA3040052809D8DFE800F0040E14041F
:10193000040400BF2E46ADB918E000BF0125012602
:10194000607840061FD44FE004F10800012101F047
:101950002FFD04E004F12800012101F0BDFD054642
:101960002E461DB1607840060DD43DE0D8F8240025
:10197000216E20F4E02000250843C8F824003E46EC
:101980006078400630D5D4F8AC004FEA30700528B6
:1019900008D8DFE800F0030D130303032F46ADB9A9
:1019A00018E000BF012501276078000620D442E03E
:1019B00004F10800012101F0FBFC04E004F128001F
:1019C000012101F089FD05462F461DB16078000612
:1019D0000ED430E0D8F82C00D4F8AC1020F0E04061
:1019E00000250843C8F82C0037466078000622D549
:1019F000E06E58B1B0F1005F0CD0B0F1805F2FD134
:101A0000D8F8000040F40030C8F800002E469DB918
:101A100008E000BF04F10800012101F0C9FC0546FF
:101A20002E464DB9D8F82400E16E20F04050002534
:101A30000843C8F824003E46E078C00733D0A06CC5
:101A4000032813D8DFE800F008021A08D8F80000CD
:101A500040F40030C8F80000A946BDB91AE000BF44
:101A600001250126E078C007E9D11CE001254FF0EF
:101A70000109A07840061AD51CE000BF04F1080057
:101A8000022101F095FC0546A9461DB1A07840064B
:101A90000DD50FE0D8F82000A16C20F00300002540
:101AA0000843C8F82000B146A078400602D44F464B
:101AB00018E000BFD8F8D40340F48070C8F8D4030D
:101AC000FEF75AFD064600BFD8F8D403C00507D478
:101AD000FEF752FD801B6428F6D90325032701E099
:101AE0002F468DB12078C00761D0A06F4FEAF0007B
:101AF00005283BD8DFE800F004404604040400BF9A
:101B0000002D2E4646D149E0D8F84410D4F8B00054
:101B1000414011F4407F11D0D8F84410D8F8442047
:101B200042F48032C8F84420D8F8442021F44071AF
:101B300022F48032C8F84420C8F84410B0F5807F01
:101B400040F0CE82FEF718FD064641F2883A0325A2
:101B5000032700BFD8F84400800700F1BF82FEF7DA
:101B60000BFD801B5045F5D9BCE700BF01250126C0
:101B7000207880071FD44CE004F10800012101F017
:101B800017FC04E004F12800012101F0A5FC054642
:101B90002E461DB1207880070DD43AE0D8F82800F1
:101BA000A16F20F0380000250843C8F828003E4601
:101BB000207880072DD5606F052809D8DFE800F070
:101BC000040E1404040400BF2F46ADB918E000BF92
:101BD00001250127207840071FD44DE004F10800BB
:101BE000012101F0E5FB04E004F12800012101F0EE
:101BF00073FC05462F461DB1207840070DD43BE00D
:101C0000D8F82800616F20F0070000250843C8F8C5
:101C100028003746207840072ED5D4F890000528B4
:101C200008D8DFE800F0030D130303032E46ADB917
:101C300018E000BF012501262078800620D451E05D
:101C400004F10800012101F0B3FB04E004F12800D5
:101C5000012101F041FC05462E461DB12078800689
:101C60000ED43FE0D8F82C00D4F8901020F00700F4
:101C700000250843C8F82C003E462078800631D560
:101C8000D4F88C004FEA3070052809D8DFE800F05E
:101C9000040E1404040400BF2F46ADB918E000BFC1
:101CA000012501272078400620D451E004F10800E6
:101CB000002101F07DFB04E004F12800022101F085
:101CC0000BFC05462F461DB1207840060ED43FE0A0
:101CD000D8F82800D4F88C1020F0E0400025084304
:101CE000C8F8280037462078400631D5D4F8980047
:101CF0004FEAB020052809D8DFE800F0040E1404EC
:101D0000040400BF2E46ADB918E000BF012501262E
:101D10002078000620D454E004F10800002101F0EE
:101D200047FB04E004F12800022101F0D5FB054641
:101D30002E461DB1207800060ED442E0D8F82C00C3
:101D4000D4F8981020F4E05000250843C8F82C007F
:101D50003E462078000634D5D4F89C004FEA703017
:101D600005280FD8DFE800F004141A04040400BFAB
:101D70002F46E5B12068010727D4C1063ED40003F1
:101D800055D475E00125012720680107F5D51CE031
:101D900004F10800002101F00BFB04E004F128002D
:101DA000022101F099FB0546002D2F46E2D1D8F81B
:101DB0002C00D4F89C1020F4604000250843C8F89B
:101DC0002C00374620680107D7D5D4F88000B0F53D
:101DD000805F09D104F12800022101F07DFB002879
:101DE00018BF0127D4F88000D8F8281021F44051FA
:101DF0000843C8F828002068C106C0D5D4F894006C
:101E0000B0F5807F09D104F12800022101F064FBC4
:101E1000002818BF0127D4F89400D8F82C1021F41A
:101E200040710843C8F82C002068000320D5D4F87E
:101E3000A000B0F5003F0FD0B0F5803F06D078BBD2
:101E400004F10800002101F0B3FA04E004F12800D5
:101E5000022101F041FB05462E4655B9D8F82C0069
:101E6000D4F8A01020F4403000250843C8F82C0016
:101E70003E46A07840072BD5D4F88400B0F5401F2B
:101E80000BD0B0F5001F11D0B0F5801F2AD1D8F8C3
:101E9000000040F40030C8F800002F46CDB90DE036
:101EA00001250126A0784007E6D411E004F12800BE
:101EB000012101F011FB05462F4655B9D8F828003D
:101EC000D4F8841020F4401000250843C8F82800F6
:101ED0003746A078C0070AD13E462168880016D54B
:101EE00033E000BF01250127A078C007F4D0206DA2
:101EF000B0F5803F10D018BBD8F8000040F4003097
:101F0000C8F800002E4685B1216888001DD460689D
:101F10008A0326D465E000BF04F10800022101F025
:101F200047FA0546002D2E46EED1D8F82000216D47
:101F300020F4803000250843C8F82000CCE700BF1B
:101F40000125012621688800E1D504F1280002213D
:101F500001F0C2FA002818BF0126D4E900108A0354
:101F60003FD5E26F6FF0010303EB3223022B0BD35B
:101F70004FEA322343B1012B40F0AA80D8F8003059
:101F800043F40033C8F8003025B3CA022CD48A02C7
:101F900034D44A003CD4CA0F49D1090251D4C107F4
:101FA0005AD1810763D441076CD4010776D4C106A6
:101FB00000F18080800607D504F12800022101F09D
:101FC0008BFA002818BF0125002D18BF01252846CF
:101FD000BDE8F087D8F8283023F440731A43C8F8D6
:101FE00028203546CA02D2D5D8F82420236F22F003
:101FF00000421A43C8F824208A02CAD5D8F82420FF
:10200000A36E22F080721A43C8F824204A00C2D579
:1020100058F81C2C22F4004248F81C2CD4F8B420A8
:1020200058F81C3C1A4348F81C2CCA0FB5D0D8F8F5
:102030002020636D22F040521A43C8F82020090284
:10204000ADD5D8F82810D4F8882021F440011143E8
:10205000C8F82810C107A4D004F10800002101F03D
:10206000A7F9002818BF0546606881079BD504F1D1
:102070000800012101F09CF9002818BF054660689E
:10208000410792D504F10800022101F091F90028DE
:1020900018BF0546606801077FF589AF04F1280085
:1020A000002101F019FA002818BF05466068C10632
:1020B0007FF580AF04F12800012101F00DFA00281E
:1020C00018BF0546606880063FF576AF7CE700BF25
:1020D0000125CA027FF55BAF86E700BFD4F8B000E8
:1020E0004FF6CF7358F81C2CC0F2FF0300F4407178
:1020F00022F47C5203EA10136FF31F30B1F5407FD6
:1021000008BF1A43002548F81C2CD8F8441008438F
:10211000C8F84400FFF7CBBC2DE9F04381B000289C
:1021200000F02A8142F200080446C5F200288946E0
:10213000D8F8000000F00F0088420ED2D8F8000056
:1021400020F00F0040EA0900C8F80000D8F80000AD
:1021500000F00F00484540F00F81206844F2184716
:102160004107C5F602070AD521693A6802F07002F4
:10217000914204D93A6822F0700211433960010794
:102180000AD561697A6802F07002914204D97A68CE
:1021900022F0700211437960C1060AD5A1697A68FC
:1021A00002F4E062914204D97A6822F4E0621143B9
:1021B000796081060AD5E169BA6802F0700291423D
:1021C00004D9BA6822F070021143B96010F002011C
:1021D0000AD0E2683B6803F00F039A4204D93B68D7
:1021E00023F00F031A433A60C20746D03968D4E996
:1021F000010221F47061012841EA0201396009D02D
:1022000003280DD0022811D157F8181C890312D4C5
:10221000B2E000BF57F8181CC9050CD4ACE000BFF1
:1022200057F8181C890106D4A6E000BF57F8181CFF
:10223000490740F1A18057F8081C21F00701084325
:1022400047F8080CFEF798F9064641F2883500BFBA
:1022500057F8080C616800F03800B0EBC10F09D0E6
:10226000FEF78AF9801BA842F2D9032001B0BDE82D
:10227000F08300BF206800F0020151B1E1683A68C4
:1022800002F00F02914204D23A6822F00F02114389
:102290003960D8F8001001F00F0149450DD9D8F880
:1022A000001021F00F0141EA0901C8F80010D8F828
:1022B000001001F00F0149455ED141070AD521699F
:1022C0003A6802F07002914204D23A6822F0700239
:1022D0001143396001070AD561697A6802F070021A
:1022E000914204D27A6822F0700211437960C106EB
:1022F0000AD5A1697A6802F4E062914204D27A6850
:1023000022F4E0621143796080060AD5E069B96879
:1023100001F07001884204D2B96821F070010843CD
:10232000B86000F02DF8396843F6C832C0F60002F4
:10233000C1F30321515C3B6803F00F0301F01F015F
:10234000D25C20FA01F102F01F0040F20C02C2F24E
:10235000004221FA00F0106040F2040040F208024E
:10236000C2F20040C2F200420068116001B0BDE854
:10237000F043FEF74DB900BF012001B0BDE8F08386
:1023800044F20041C5F602010869C0F3C200032807
:1023900010D002282ED098BB0868800649F20000B1
:1023A000C0F2D03058BF70470968C1F3C101C840BE
:1023B000704700BF8A6A886AC0F3051CC86ABCF10E
:1023C000000F4B6B22D000F0010002F003024042EC
:1023D000022A00EAD3006FF35F3000EE100AB8EE75
:1023E000400A15D0C2B90868800619D49FED281A92
:1023F00023E000BF47F64000C0F27D10704700BFE9
:1024000040F60010C0F23D00704700BF002070474A
:102410009FED1E1A11E000BF9FED1B1A0DE000BFDB
:10242000086849F20002C0F2D032C0F3C10022FABB
:1024300000F001EE100AB8EE411A086B9FED153A54
:102440006FF35F2002EE100A086BC0F34620B8EE6F
:10245000422A013000EE032A00EE10CAB7EE003A1D
:10246000B8EE400A81EE000A32EE031A20EE010AAD
:1024700001EE100AB8EE411A80EE010ABCEEC00A65
:1024800010EE100A704700BF0024744A20BCBE4BF7
:102490000024744C0000003970B3F0B581B00446DC
:1024A000007844F20046C007C5F6020626D120781F
:1024B00080076ED5306910F03801B06A46D018290F
:1024C00008BF5FEA807041D0E0683168002800F002
:1024D000318121F0190108433060FEF74DF80546BF
:1024E000306840074ED4FEF747F8401B0228F7D962
:1024F000032001B0F0BD00BF01207047306900F03B
:102500003801B06A102905D018290BD100F003005A
:10251000022807D130688003C9D560680028C6D179
:10252000AEE000BF6068002800F03A81B0F5A02F4F
:1025300000F04E81B0F5803F00F04E81306820F40D
:1025400080303060306820F4802048E130684007F7
:10255000E06802D5002800F09380316821F019016D
:1025600008433060FEF708F8054600BF30684007B2
:1025700008D4FEF701F8401B02284FF00300F5D9FC
:1025800001B0F0BD7068216920F0FE4040EA0160B2
:1025900070602078C0061AD5306900F03801B06A42
:1025A000082907D0182940F0858000F00300012891
:1025B00040F080803068C00502D5E06980285FD196
:1025C000F068216A20F07C5040EA0160F0602078D9
:1025D00000073FD42078800656D42078400700F1C9
:1025E0008180656A9DB3306900F03800182840F09A
:1025F0001981012DB16A306B42D001F00302A36A48
:102600009A423DD1C1F30511E26A914238D10146A7
:10261000226B6FF35F21013A914231D1C0F3462220
:10262000616B01398A422BD1C0F30642A16B01399B
:102630008A4225D1C0F30660E16B013988421FD17F
:10264000706BA16CC0F3CC00814240F0A1810020EE
:1026500001B0F0BD60690028706F59D040F00100F2
:102660007067FDF789FF0546706F8007B2D4FDF7EC
:1026700083FF401B0228F7D9032001B0F0BD00BF43
:10268000012001B0F0BD00BFA0690028306875D0FE
:1026900040F480503060FDF76FFF054630688004DD
:1026A0009BD4FDF769FF401B0228F7D9032001B036
:1026B000F0BD00BFE0690028306800F0A18040F064
:1026C00080003060FDF758FF054600BF3068C00548
:1026D0003FF576AFFDF750FF401B02284FF0030097
:1026E000F4D94DE7D6F8000440F48070C6F8000431
:1026F000FDF742FF054600BFD6F80004C0052BD405
:10270000FDF73AFF401B6428F6D9032001B0F0BD65
:1027100020F001007067FDF72FFF0546706F8007FE
:102720007FF558AFFDF728FF401B02284FF003004C
:10273000F4D925E721F001003060FDF71DFF0546C3
:10274000306840077FF525AFFDF716FF401B0228D4
:102750004FF00300F4D913E7A068002800F084804C
:10276000052800F09B80012800F09C80306F20F04D
:1027700001003067306F20F0040096E020F48050B4
:102780003060FDF7F9FE0546306880047FF525AF1F
:10279000FDF7F2FE401B02284FF00300F4D9EFE6EC
:1027A000306820F480303060306820F48020306061
:1027B000FDF7E2FE054600BF306880037FF577AE87
:1027C000FDF7DAFE401B64284FF00300F4D9D7E68A
:1027D000306840F480203060306840F480303060F1
:1027E000FDF7CAFE054600BF306880033FF55FAEC7
:1027F000FDF7C2FE401B6428F6D9032001B0F0BDEE
:1028000020F080003060FDF7B7FE05463068C00557
:102810007FF5DDAEFDF7B0FE401B02284FF0030050
:10282000F4D9ADE6306820F080703060FDF7A4FE8A
:10283000022D05460CD100BF3068800148D5FDF758
:102840009BFE401B02284FF00300F5D998E600BF1D
:10285000306880017FF5FBAEFDF78EFE401B02283D
:102860004FF00300F4D98BE6306F20F001003067A1
:10287000306F20F004003067FDF77EFE054641F220
:102880008837306F80077FF5ACAEFDF775FE401BD3
:10289000B8424FF00300F4D972E600BF306F40F049
:1028A00004003067306F40F001003067FDF764FED0
:1028B000054641F2883700BF306F80073FF591AE83
:1028C000FDF75AFE401BB8424FF00300F4D957E61B
:1028D00004F12807B06A40F2F33188438ECF0843F1
:1028E000591E40EA02104FF47E426FF35F21B0623E
:1028F00002EB47204FF4FE0280B2E36B0844A16B69
:1029000002EB01414FF0FE4201F4FE0102EB0362D3
:10291000084402F0FE4108443063F06A4FF6F87153
:1029200020F00100F062706BA26C884340EAC200A4
:102930007063F06A216C20F00C000843F062F06ACA
:10294000616C20F002000843F062F06A40F48030CD
:10295000F062F06A40F40030F062F06A40F48020E7
:10296000F062F06A40F00100F062306840F0807080
:102970003060FDF701FE0446306880013FF567AE28
:10298000FDF7FAFD001B02284FF00300F4D9F7E52C
:10299000F06A20F00100F062FDF7EEFD0546FDF75C
:1029A000EBFDA842FBD0706B4FF6F871A26C884328
:1029B00040EAC2007063F06A40F00100F06200205B
:1029C00001B0F0BD000000007047000000000000F2
:1029D00070B50446007A012802D1022070BD00BF04
:1029E00001202072607A01282CD1022060722068B8
:1029F0000D464068400608D50820E060204600F0FB
:102A0000FFFD00281CBF012070BDFDF7B5FD21684A
:102A10004A68D2071CD1064603E000BF4868C007D9
:102A200016D1FDF7A9FD801B21680328F6D348685D
:102A3000C007F3D1012060720221E1600021217200
:102A400070BD00BF0420E06001200021217270BD34
:102A5000886820614A68520602D42860002006E097
:102A60000820E060486820F0010048600120012152
:102A700061720021217270BDE0B3B0B50446407AA6
:102A800020B900202072204600F062F80220607217
:102A9000D4E90001026822F004020260026822F018
:102AA0002002114341F08041016040F6BC21C1F297
:102AB0005971016147F274210161016821F080417F
:102AC0000160FDF759FD21680A68520014D40868B6
:102AD00040F0040008604868400621D4FDF74CFD32
:102AE0002168496849071FD4012060720020E06016
:102AF000B0BD00BF01207047054602E008684000F5
:102B0000E5D5FDF739FD401B21680328F6D3086899
:102B10004000F3D5012060720221E160B0BD00BF2A
:102B2000042060720120B0BD054602E04068400705
:102B3000DAD5FDF721FD401B03282068F6D3416854
:102B40004907F3D5042060720220E0600120B0BD87
:102B500010B5B0B002A9044601F10800B021FDF79C
:102B6000D8FB41F600012068C4F60201884201D07A
:102B700030B010BD002003904FF40030029002A846
:102B8000FEF776FD08B1FDF7EFFB44F2DC40C5F639
:102B90000200016841F040010160006800F040005F
:102BA0000190019830B010BD411E0020B0EB116FB4
:102BB00002D00120704700BF4EF21002F023CEF287
:102BC000000251604EF62351CEF200010B70072136
:102BD0009060116070470000FEE7000000000000F8
:102BE00081B044F2E040C5F60200016841F01001F6
:102BF0000160016801F0100100910099016841F045
:102C000004010160016801F004010091009901686C
:102C100041F080010160016801F08001009100999C
:102C2000016841F002010160016801F002010091B8
:102C30000099016841F008010160016801F0080194
:102C400000910099016841F001010160006800F005
:102C500001000090009801B07047000000000000E3
:102C600010B586B040F2180045F20002C2F20040F2
:102C70000021CDE90411CDE90211CDE90011C5F221
:102C8000002202600822C160C0E90121172303610C
:102C900001240323C0E90541C0E9071143624FF055
:102CA0008043C0E90A31C0E90C12C0E90E11FEF7F9
:102CB000BFF908B1FDF758FB4FF00110039040F247
:102CC00018006946C2F2004041F288320094029432
:102CD000FDF766FD08B1FDF747FB06B010BD00002B
:102CE00080B540F2740041F60001C2F20040C4F623
:102CF00002010022C0E90012FFF7BEFE002808BF53
:102D000080BDBDE88040FDF72FBB00000000000043
:102D1000FEE7000000000000FEE7000000000000E9
:102D20002DE9F047036882681F68002A27F04052A7
:102D30001A600DD00A68032A13D0022A1AD103F5AB
:102D4000C07E03F5C47203F5C87C03F5D07419E0A6
:102D50001A684F6822F080023A431A600A68032A10
:102D6000EBD103F5A07E03F5A47203F5A87C03F56F
:102D7000B07407E003F5807E03F5847203F5887C68
:102D800003F59074D1E912563543CEF80050CD6A60
:102D90006DB18D6A2560DEF80040CD6A24F47C14A4
:102DA0004E6B2C430D6B34432C43CEF8004014681B
:102DB0004D6C24F01F042C4314608A6B0AB10C681C
:102DC00004B3CD68CC6925B3DEF80060D1E904878F
:102DD000A4B3002AD1E9089A48D04CF2C000CFF23F
:102DE000FF0030400E6C3043384340EA080040EAB0
:102DF0000A0040EA0900104328432043CEF80000AF
:102E000050E000BFCC6B013C1C64CD68002DCC6948
:102E1000DAD1002C4ED0DEF80060002AD1E9080794
:102E20004ED04CF2C005CFF2FF053F352E400D6C61
:102E30002E4337433843104346E000BF002A4BD0AF
:102E40004CF2C0000B6CCFF2FF0000F57C5030401C
:102E50001843384340EA080010432843CEF80000E6
:102E60008868CCF800000020BDE8F08743F63F7288
:102E700026EA02023A4342EA080242EA0A0242EA27
:102E800009022A432243CEF80020C06AB0F1805FD5
:102E900008D14869082805D1DEF8000040F000603C
:102EA000ACE700BF8868CCF800008869986400200F
:102EB000BDE8F087082141650120BDE8F08700BF2B
:102EC00026F47C523A4310432043CEF80000886930
:102ED00098640020BDE8F08726F03F023A4342EABA
:102EE00008022A43CEF80020C06AB0F1805FB7D153
:102EF00048690828B4D1DEF8000040F00060ADE772
:102F0000F0B597B040F2100003ACC2F200402821A7
:102F1000057804F11800FDF7FCF901200390032067
:102F20000026CDE90066002D049608BF0120089612
:102F3000002D06904FF00B0007964FF4407708BF26
:102F4000EB200A97002D05904FF400500B904FF4A2
:102F500040300E904FF0FF000D904FF008000C969F
:102F600041F28832109621460F9608BF042013962E
:102F700014904FF04070119040F21800C2F20040DF
:102F8000CDE91566FDF7ACFFA8B90220002D08BFFA
:102F90004FF48077039003A908BF322041F28832B2
:102FA0000A97059040F21800C2F200400E9614965F
:102FB000FDF796FF20B14FF0FF3017B0F0BD00BF16
:102FC0000020009040F218006946C2F20040FEF76F
:102FD000C3F8002818BF4FF0FF3017B0F0BD000055
:102FE0002DE9F04F95B00520FDF7C6F901AD44215C
:102FF0002846FDF78EF940F2180B41F28832C2F2F2
:10300000004B294658464FF00309CDF810904FF079
:103010006608CDF80C800027CDE912771497FDF7EC
:103020005FFF01AD44212846FDF773F941F2883274
:1030300058462946CDF810904FF0990ACDF80CA0CB
:10304000CDE912771497FDF74BFF01AD44212846D7
:10305000FDF75FF941F28832584629460126CDE94D
:103060000386CDE912771497FDF73AFF01AD4421AD
:103070002846FDF74EF941F2883258462946149702
:10308000CDE903A6CDE91277FDF72AFF0520FDF76C
:1030900073F940F2100801ADC2F200480324382150
:1030A000284698F80060002E08BF0124FDF731F98A
:1030B0004FF0407104949F20002E039041F288321B
:1030C00008BF4FF080715846CDE90F192946CDE968
:1030D0001177CDE91377FDF703FFD8B940F2180057
:1030E0000DF10101C2F2004041F28832FEF720F9F1
:1030F00080B99DF801009DF802109DF80320090297
:1031000041EA00401044C8F8040008F1010000F052
:1031100097F828B14FF0FF3015B0BDE8F08F00BF31
:1031200000F00AF8002818BF4FF0FF3015B0BDE8D6
:10313000F08F000000000000F0B597B040F21000E2
:10314000C2F200400478012C32D002AD03263821AF
:103150002846002C08BF0126FDF7DBF84FF040772A
:103160000596352004904FF40050002C0A904FF043
:10317000000008BF4FF0807712900121CDE91300C5
:10318000159040F218001191C2F2004041F28832CD
:1031900029461097FDF7A4FE50B940F218000DF132
:1031A0000701C2F2004041F28832FEF7C1F818B1BF
:1031B0004FF0FF3017B0F0BD9DF8070080073BD4FB
:1031C000204600F061FB0028F2D19DF8070002AC18
:1031D000382140F002008DF807008DF85B00204692
:1031E000FDF797F8312004904FF400500A9000202A
:1031F0001290CDE91300159040F2180001211191B1
:10320000C2F2004041F28832214605961097FDF740
:1032100067FE0028CCD140F218000DF15B01C2F22C
:10322000004041F28832FEF74FF9002818BF4FF0F6
:10323000FF3017B0F0BD00BF002017B0F0BD000098
:103240002DE9F04194B040F210086D46C2F20048FA
:1032500003260446382198F800702846002F08BF3E
:103260000126FDF756F84FF04071039605200290B5
:103270004FF40050002F08904FF0000008BF4FF0AF
:103280008071109041F28832CDE91100139040F224
:1032900018000E9101210F91C2F200402946FDF75E
:1032A0001FFE002868D140F2180041F28832C2F2B5
:1032B00000402146FEF73CF800285DD198F80060F8
:1032C0006D46032738212846002E08BF0127FDF749
:1032D00020F84FF040710397352002904FF40050D2
:1032E000002E08904FF0000008BF4FF08071109042
:1032F00041F28832CDE91100139040F218000E918E
:1033000001210F91C2F200402946FDF7E9FD98BB6B
:1033100040F21800611CC2F2004041F28832FEF710
:1033200007F848BB98F800606D4603273821284607
:10333000002E08BF0127FCF7ECFF4FF04071039708
:10334000152002904FF40050002E08904FF000001E
:1033500008BF4FF08071109041F28832CDE9110022
:10336000139040F218000E9101210F91C2F200401B
:103370002946FDF7B5FD28B14FF0FF3014B0BDE888
:10338000F08100BF40F21800A11CC2F2004041F2DF
:103390008832FDF7CDFF002818BF4FF0FF3014B082
:1033A000BDE8F08100000000704700000000000050
:1033B000F0B581B044F22C47C5F6020757F8042C4B
:1033C00002F00302032A03D1012001B0F0BD00BFC7
:1033D000054657F82C0C0C4620F0806047F82C0C62
:1033E000FDF7CAF8064600BF57F82C0C000105D5BA
:1033F000FDF7C2F8801B0228F6D964E057F8040CE8
:10340000EE6895E80E0020F47C30012C40EA013093
:10341000A2F101016FF35F214FF47E4202EB4322E0
:1034200047F8040C92B24FF0FE4302EB01004FF458
:10343000FE012A6901EB064101F4FE0103EB026281
:10344000084402F0FE410844F8603868696920F0D9
:10345000C00040EA010038603868A96920F0200007
:1034600040EA0100386038684FF6F87120F010002B
:1034700038603869EA6920EA01004FF4001140EA37
:10348000C2003861386808BF4FF4801140F0100066
:10349000002C386008BF4FF40021386808433860BA
:1034A00057F82C0C40F0806047F82C0CFDF764F8BE
:1034B000044600BF57F82C0C000107D4FDF75CF858
:1034C000001B0328F6D3032001B0F0BD002001B09B
:1034D000F0BD000000000000F0B581B044F22C47C0
:1034E000C5F6020757F8042C02F00302032A03D1A1
:1034F000012001B0F0BD00BF054657F82C0C0C466A
:1035000020F0805047F82C0CFDF736F8064600BF37
:1035100057F82C0C800005D5FDF72EF8801B0228EB
:10352000F6D964E057F8040CEE6895E80E0020F038
:103530007C70012C40EA0150A2F101016FF35F2180
:103540004FF47E4202EB432247F8040C92B24FF054
:10355000FE4302EB01004FF4FE012A6901EB064134
:1035600001F4FE0103EB0262084402F0FE4108444C
:1035700078613868696920F4406040EA0100386089
:103580003868A96920F4007040EA010038603868A2
:103590004FF6F87120F480703860B869EA6920EA63
:1035A00001004FF0807140EAC200B861386808BF7E
:1035B0004FF4000140F48070002C386008BF4FF4D5
:1035C000800138680843386057F82C0C40F0805070
:1035D00047F82C0CFCF7D0FF044600BF57F82C0C22
:1035E000800007D4FCF7C8FF001B0328F6D3032094
:1035F00001B0F0BD002001B0F0BD000000000000EF
:1036000010B582B00021019101684A6852070BD4BD
:103610004A6822F040024A60C168002421F0080193
:10362000C160204602B010BD0A6842F080420A60C4
:103630000A6822F080420A6002220192019A013A4D
:103640000192019A002A45D00A68520017D5019AC2
:10365000013A0192019AEAB30A6852000FD5019A21
:10366000013A0192019AAAB30A68520007D5019A59
:10367000013A0192019A6AB30A685200DED44A689C
:10368000520603D54A6822F040024A6002220192A3
:10369000019A013A0192019AE2B14A685207BBD5F8
:1036A000019A013A0192019AA2B14A685207B3D530
:1036B000019A013A0192019A62B14A685207ABD568
:1036C000019A013A0192019A22B14A685207DFD465
:1036D000A2E700BF01244472C16841F00201C16049
:1036E00000210172FFF770F9204602B010BD000002
:1036F0007047000000000000FCF746BF000000001B
:10370000B0B59CB044F61804022000251195CDE90F
:103710000F55CDE90D55CDE90B550895C5F60204B9
:10372000CDE90655CDE90455CDE902550195FDF7E2
:1037300077FF0095206820F440402060206800F466
:103740004040009000982068800409D420688004DC
:103750005CBF20685FEA804002D420688004F2D514
:10376000212009904FF480300A9001200F902C22E4
:103770000221CDE915200C20199009A81491CDE95A
:103780001211CDE917110024CDE91A44FEF784FE89
:1037900020B1EFF3108072B6FEE700BF3F2001902A
:1037A00003204FF48061CDE90204082004904020FA
:1037B000CDE90500CDE9071001A80321FEF7ACFC17
:1037C00020B1EFF3108072B6FEE700BF1CB0B0BDB1
:1037D0004EF6885042F2000CCEF20000C5F2002CEA
:1037E000026842F470020260DCF8000000F00F0092
:1037F000062806D8DCF80000072262F30300CCF8A4
:10380000000044F200404EF67F51C5F60200CEF6AD
:10381000F621026842F001020260002202610368A0
:1038200019400160DCF80010090706D5DCF800102B
:10383000072363F30301CCF8001040F200218261FA
:10384000C261C0F20221026281620021C0F2FF1156
:10385000C16240F28021C0F20111016342638163C1
:10386000C26301644264016821F480210160026640
:1038700044F20000C5F2002043F2D201016070471B
:10388000FEE7000000000000F0B599B005AD044669
:10389000032700284FF04401284608BF0127FCF702
:1038A00038FD0620079040F2180041F28832C2F23B
:1038B0000040294608970026CDE916661896FDF7C0
:1038C0000FFB60BB052007904FF400500D904FF0A8
:1038D00040700696CDE91166CDE90F66CDE9026626
:1038E000CDE90066CDE904660A96002CCDE908769C
:1038F000CDE90B660E9605A908BF4FF0807041F226
:103900008832159613900120149040F21800C2F2EC
:1039100000401896CDE91666FDF7E2FA20B14FF0A7
:10392000FF3019B0F0BD00BF02206946CDE90000AC
:10393000002002900A2004904FF48000039040F28F
:10394000180041F28832C2F20040FDF735FA002833
:1039500018BF4FF0FF3019B0F0BD000000000000AC
:1039600086B04EF660704FF6B452CEF20000CFF63D
:10397000FF728158890312D4BFF34F8FBFF36F8F4B
:10398000002140F8101CBFF34F8FBFF36F8F815899
:1039900041F400318150BFF34F8FBFF36F8F8158D7
:1039A000C90361D44FF624610022CFF6FF710126CE
:1039B00043F6E07B42504FF62061CFF6FF71BFF334
:1039C0004F8F4158CB08C1F3C907C1F34E327D1E5A
:1039D00006EBD101A7F1020A9E0701F003044FEAAA
:1039E000857E4FEA8A710191F91E009104E000BFC3
:1039F000002AA2F1010229D00BEA42113B467CB118
:103A0000012C46EA010303602B4609D0022C4EEA42
:103A100001030360534603D0019B0B430360009BEB
:103A2000032FE5D341EA8371013301F1404C81F06A
:103A3000004801F1804900BF043B0160C0F800C0AC
:103A4000C0F80080C0F80090F6D1D1E74FF6B4522C
:103A5000CFF6FF72BFF34F8F815841F48031815010
:103A6000BFF34F8FBFF36F8F01240294FCF728FE42
:103A70000DF108081B208DF8100000208DF81300B0
:103A800040464FF01045039505944FF48074ADF80F
:103A90001140FCF7E5FD40F20110ADF808001620DA
:103AA0008DF8100005208DF8130000200395C0F25A
:103AB000011005904046ADF81140FCF7D1FD40F2F1
:103AC0000120ADF808004FF01050039012208DF83F
:103AD000100003208DF8130040F20010ADF81140E3
:103AE000C0F2011005904046FCF7BAFD0420FCF737
:103AF000F7FDFCF759FDFFF703FEFFF771F8FFF73D
:103B0000EFF8FFF7ADF8FFF76BFAFFF7F9F900F000
:103B100033F800F036F800F039F8FCF72DFD00F12D
:103B2000C805FCF729FD40F2740948F2B517C2F246
:103B30000049C1F64E374FF4167401E0AE420DD283
:103B4000FCF71AFD064600F026F80028F6D0AE4233
:103B5000F6D306F1C80500F023F8F1E748464146E0
:103B6000FEF736FF0298A0FB0712910901FB140033
:103B7000851900F015F8E3E740F2790CC9F2000C62
:103B8000604740F2C10CC9F2000C604740F2010CE2
:103B9000C9F2000C604740F2590CC9F2000C6047B2
:103BA00040F2291CC9F2000C604702E008C8121F4D
:103BB00008C1002AFAD170477047002001E001C116
:103BC000121F002AFBD1704700000000010203040D
:103BD0000102030406070809F83B0008000000245E
:103BE00010000000AA3B0008083C00081000002458
:103BF00080040000BA3B0008010000001000000033
:083C00000090D0030090D003F6
:0200000490006A
:1000000080B5012000F084F8322000F094F8002040
:1000100000F07EF84FF4FA7000F08DF8012000F047
:1000200077F8322000F087F8002000F071F84FF4E4
:10003000FA7000F080F8012000F06AF8322000F039
:100040007AF8002000F064F84FF47A70BDE8804040
:1000500000F071B80000000080B540F600004FF4D9
:100060000051C5F6020000F06BF80138B0FA80F0DC
:10007000400980BD0000000080B586B044F2E04138
:100080000020C5F60201CDE904000A6842F004022E
:100090000A60096801F00401009100994FF40051D1
:1000A000CDE901100220039040F6000001A9C5F639
:1000B000020000F04AF806B080BD00000000000019
:1000C00070B586B044F2E0400025C5F60200059503
:1000D00041F2000400220168C5F6020441F010015B
:1000E00001600068082100F0100000900098204690
:1000F000082600F02FF8012001A9CDE902052046CD
:100100000196049500F021F806B070BD00000000D3
:100110000246002841F200004FF00801C5F6020037
:1001200018BF012200F016B841F200000821C5F600
:10013000020000F014B840F2793CC0F6000C6047B1
:1001400040F2495CC0F6000C604740F2A13CC0F6AA
:10015000000C604740F2695CC0F6000C604740F25A
:08016000595CC0F6000C604779
:04000005080002CD20
:00000001FF
