:020000040800F2
:1000000090040024E1020008112D0008D12B000803
:10001000092D00085103000879380008000000008D
:10002000000000000000000000000000E9360008A9
:100030005903000800000000A1330008F136000851
:10004000FB020008FB020008FB020008FB0200089C
:10005000FB020008FB020008FB020008FB0200088C
:10006000FB020008FB020008FB020008FB0200087C
:10007000FB020008FB020008FB020008FB0200086C
:10008000FB020008FB020008FB020008FB0200085C
:10009000FB020008FB020008FB020008FB0200084C
:1000A000FB020008FB020008FB020008FB0200083C
:1000B000FB020008FB020008FB020008FB0200082C
:1000C000FB020008FB020008FB020008FB0200081C
:1000D000FB020008FB020008FB020008FB0200080C
:1000E000FB020008FB02000800000000FB02000801
:1000F000FB020008FB020008FB020008FB020008EC
:10010000FB020008FB020008FB020008FB020008DB
:10011000FB020008FB020008FB020008FB020008CB
:10012000FB020008FB020008FB020008FB020008BB
:10013000FB020008FB020008FB020008FB020008AB
:1001400000000000000000000000000000000000AF
:10015000FB020008FB020008FB020008FB0200088B
:10016000FB020008FB020008FB020008FB0200087B
:10017000FB020008FB020008FB0200080000000070
:10018000FB020008FB020008FB020008FB0200085B
:10019000FB020008FB020008FB020008FB0200084B
:1001A000FB020008FB020008FB0200080000000040
:1001B000FB020008FB020008FB020008FB0200082B
:1001C000FB020008FB020008000000000000000025
:1001D0000000000000000000FB020008000000001A
:1001E000000000000000000000000000000000000F
:1001F0000000000000000000FB020008FB020008F5
:10020000FB020008FB02000800000000FB020008DF
:10021000FB020008FB020008FB020008FB020008CA
:10022000FB02000800000000FB02000800000000C4
:10023000FB020008FB02000800000000FB020008AF
:10024000FB020008FB020008FB020008FB0200089A
:10025000FB020008FB020008FB020008FB0200088A
:10026000FB020008FB020008FB020008FB0200087A
:10027000FB020008FB020008FB020008000000006F
:10028000FB020008FB020008FB020008FB0200085A
:1002900000000000FB020008FB0200080000000054
:1002A00000000000FB020008FB020008FB0200083F
:1002B000FB020008FB020008FB020008FB0200082A
:1002C000FB020008FB020008FB020008DFF80CD06C
:1002D00000F02AF80048004759390008900400242B
:1002E0000648804706480047FEE7FEE7FEE7FEE7D0
:1002F000FEE7FEE7FEE7FEE7FEE7FEE7C937000898
:10030000CD020008D2B201E000F8012B491EFBD259
:1003100070470022F6E710B513460A460446194610
:10032000FFF7F0FF204610BD064C074D06E0E068E1
:1003300040F0010394E8070098471034AC42F6D32C
:10034000FFF7C8FFD03B0008F03B000800000000AA
:10035000FEE7000000000000704700000000000001
:10036000EFF3108072B600BFFEE70000000000004F
:10037000B0B5044600F000F940F200010546C2F2B3
:100380000041621C097818BF0C4400BF00F0F4F86B
:10039000401BA042FAD3B0BD2DE9F04F82B00D68EA
:1003A000002D00F0CB8000F1264242F2004302F122
:1003B000FF72C5F602030A2698424FEAB22444F2BD
:1003C000F44E08BF0926082C40F2040C38BF4FEA4F
:1003D000B226C5F6020EC5F6000C009600220027D4
:1003E000002609E001360D6835FA06F307F1040727
:1003F00002F1020200F0A280012303FA06F415EADA
:100400000408EFD0D1F804A003230AF0030B9340B3
:10041000ABF101056FEA0309012D0FD88368CD68A0
:1004200003EA090395402B438360CAF30015436830
:10043000A34305FA06F42343436005E0BBF1030F31
:1004400002D14FF0030B21E0C3688C6803EA090373
:100450009440BBF1020F43EA0403C36016D16FF06E
:10046000030307F01C0503EA56030F24034404FAB0
:1004700005FBD3F820A00C692AEA0B0AAC4044EA39
:100480000A041C62D1F804A00AF0030B03680BFAFB
:1004900002F403EA09031AF4403F43EA0403036049
:1004A000A0D0DEF8003040F2084A43F00203CEF854
:1004B0000030DEF80030C5F6000A03F002030193B5
:1004C00026F00303019C07F00C040F2553F80A9053
:1004D000A54029EA0509009D05FA04F444EA090447
:1004E00043F80A404FF0B04ADAF800904C6849EA05
:1004F0000805E30258BF29EA0805A302CAF800501C
:10050000DCF8009049EA080558BF29EA0805A3036A
:10051000CCF80050DCF8809049EA080558BF29EA79
:100520000805E403CCF88050DCF87C3043EA080589
:1005300058BF23EA0805CCF87C5053E702B0BDE869
:10054000F08F0000000000000069084018BF012083
:100550007047000000000000426902EA0103914375
:1005600041EA034181617047002A08BF09048161A3
:10057000704700000000000040F28800C2F2004016
:10058000006870470000000040F2000040F288015F
:10059000C2F20040C2F2004100780A6810440860CC
:1005A000704700000000000080B5032000F0E8F86C
:1005B00001F0EAFE44F2184143F6C033C5F60201E9
:1005C000C0F600030A68096801F00F01C2F30322B4
:1005D000595C9A5C01F01F0102F01F02D04040F20A
:1005E0000C02C2F2004220FA01F1116040F208014F
:1005F000C2F2004108600F2000F00AF800281CBF7A
:10060000012080BD00F07CF8002080BD00000000CB
:1006100070B540F20006C2F200463178E1B10446FE
:1006200040F20800C2F200404FF47A72B2FBF1F1DE
:100630000068B0FBF1F002F0B3FA0F2C4FF00105A7
:1006400008D838B94FF0FF3000222146002500F0CD
:1006500067F87460284670BD012070BD000000007E
:10066000B0B502784EF69C5CCEF2000C43784CF8A4
:10067000043CFAB14368CCF80030037BC17A90F8AF
:100680000AE0457B447A42EA0372837B42EA0161D5
:10069000C27B41EACE41007A41EA854141EA4341C9
:1006A00041EA024141EA042141EA4000CCF8040059
:1006B000B0BD00BF0020CCF80000CCF80400B0BDF5
:1006C0004EF62450CEF20000BFF35F8F016821F494
:1006D00080310160002101677047000000000000C8
:1006E0004EF6245140F00100CEF200010867086880
:1006F00040F480300860BFF34F8FBFF36F8F7047B7
:1007000081B044F2F440C5F60200016841F00201F4
:100710000160006800F002000090009801B070478E
:1007200070B54EF60C5C4FF0FF36CEF2000C00F1C7
:10073000604505F56445DCF80030C3F3022E8EF009
:100740000703042B28BF0423BEF1030406FA03F3B6
:1007500021EA030100F00F0338BF0024043B002806
:10076000634406FA04F048BF03F10C05A14022EAF5
:10077000000008430001287070BD00000000000068
:100780004EF60C514FF6FF03CEF200010A681A40F4
:1007900060F30A2242F0806040F0FD70086070470C
:1007A0002DE9F04F8DB04BF204480022C5F200282D
:1007B0000392CDE90122049245F200030592C5F2AD
:1007C0000023D0F80090D8F80000B9EB030A00F03D
:1007D000030218BF4FF0010A012A6DD101220192D4
:1007E00000F03002102A6BD000F44072B2F5807F26
:1007F00001D10122039200F4A0220127B2F5803F2B
:10080000C0F2001764D182033A4658BF4FF001127C
:10081000049200F0A062B2F1807F5ED0D8F80400AC
:1008200000F00302012A64D10222019200F030029A
:10083000102A62D000F44072B2F5807F01D102220A
:10084000039200F4A02240F2020EB2F5803FC0F203
:10085000010E0AD13A4687031746724645F2000355
:1008600048BF7A1CC5F20023049200F0A062B2F1E6
:10087000807F04D18001704648BF781C0590002518
:100880000B95CDE90955CDE9075558F8040CD8F872
:100890000060C0074FF4007004BF40F22220C0F295
:1008A0000440F20705D086EA000292072ED4012503
:1008B0000795F2062DD43BE000F03002102A93D1C8
:1008C0000122029200F44072B2F5807F91D092E74B
:1008D00000F0A062B2F1807FA0D18001384658BFFD
:1008E0004FF001100590D8F8040000F00302012A2F
:1008F0009AD000F03002102A9CD10222029200F419
:100900004072B2F5807F9AD09BE700BF0025F206C7
:100910000ED586EA000292060AD401240122009232
:10092000089406F44072B2F5407F0AD107E000BF98
:100930000022009206F44072B2F5407F01D10122FC
:100940000992F2030ED586EA000252030AD4BC468D
:10095000B20358BF4FF0011CCDF828C0F20115D5E5
:1009600004E000BF4FF0000CF2010FD586EA000250
:1009700052010BD4BB46B20158BF4FF0011BCDF85A
:100980002CB0D8F80440E2070CD005E04FF0000B83
:10099000D8F80440E20705D084EA0002920701D4A7
:1009A00002250795E20607D584EA0002920603D4E1
:1009B000022602220092089604F44072B2F5407FAB
:1009C00001D102220992E2030AD584EA000252030D
:1009D00006D4F446A20348BF07F1010CCDF828C0A5
:1009E000E20109D56040400106D4A00148BF07F1EB
:1009F000010EF346CDF82CE01868C007A9EB030000
:100A000002D14FF0000E05E01A684FF0010E22F0FF
:100A100001021A60B0FA80F44AF20003C5F2002322
:100A20001A68D20705D018680EF1020E20F00100F6
:100A300018600AEB4A0601A8640900EBC602976831
:100A400008EB870757F8043C23F4807347F8043C0D
:100A500058F8043CDB072BD150F83670002F5DD0DE
:100A600008EB870353F8047C27F0010743F8047C64
:100A700057683FB108EB870353F8047C27F0100751
:100A800043F8047CD7683FB10123BB4358F8237077
:100A900027F4803748F823701269002A3ED00123DA
:100AA00023EA020258F8223023F0807334E000BFBA
:100AB00045F2000358F8042CC5F2002322F001028D
:100AC000994548F8042C29D108EB850252F8043CDA
:100AD000009D43F0020342F8043C3DB108EB85025F
:100AE00052F8043C43F0200342F8043CBCF1000FF0
:100AF00008D0012222EA0C0258F8223043F4802365
:100B000048F82230BBF1000F08D0012222EA0B0284
:100B100058F8223043F0806348F8223004EB440256
:100B20004E6800EBC20450F832000A6882426568E1
:100B300016D145F20007AE422A46C5F2002728D159
:100B4000CA68E3689A421DD10A6923699A4232460B
:100B50001FD158F8040C40F0010048F8040C48E09C
:100B600045F20007AE423246C5F2002711D08A682E
:100B7000A3689A4203D0CA68E3689A4204D12A461D
:100B800007E000BF324604E00A6923699A422A4618
:100B90002FD108EB800050F8043C23F0010340F80B
:100BA000043C3AB108EB820050F8042C22F0100209
:100BB00040F8042CA06808EB8002E06852F8043C7E
:100BC00023F4807342F8043C40B1012222EA000081
:100BD00058F8202022F4803248F82020206940B1C3
:100BE000012222EA000058F8202022F0807248F802
:100BF000202088684FF44072B94508EB800050F817
:100C0000043C08BF4FF4807223F440731A4440F848
:100C1000042C486958F8042C431EC2F3074293423F
:100C20000BD9002358F8042CCFF6FF7322F47F026F
:100C300003EB0040104348F8040C58F8042C0868F3
:100C40000138D20758F8203023F0030228D10323BB
:100C5000B94508BF01231A4348F82020486860B10D
:100C600008EB80003022B94550F8043C08BF102240
:100C700023F020031A4340F8042CC868C20327D489
:100C8000B0B30122B94522EA00004FF0A06258F843
:100C9000203023F0E06308BF4FF0807225E000BFF2
:100CA00042F0010248F82020486840B108EB80007B
:100CB000012350F8042C63F3051240F8042CC86893
:100CC000C20329D4A8B34FF080726FF0E06427E02C
:100CD0000122B94522EA00004FF4A02258F8203042
:100CE00008BF4FF4803223F4E0231A4448F8202050
:100CF0000869C1032AD4002842D00121B94521EA5C
:100D000000004FF0E06158F8202022F0E06208BFB8
:100D10004FF0407127E000BF4FF480326FF4E024C1
:100D2000012323EA000058F8203023401A4348F8F2
:100D300020200869C10319D410B30121032221EA3C
:100D4000000058F8201062F31A6117E00121B9453C
:100D500021EA00004FF4E02158F8202008BF4FF4AA
:100D6000403122F4E022114408E000BF01210322B7
:100D700021EA000058F8201062F3124148F82010D0
:100D80005FEACE7006D15FEA8E700AD400200DB003
:100D9000BDE8F08F386840F0010038605FEA8E707F
:100DA000F4D54AF20001C5F20021086840F00100C4
:100DB000086000200DB0BDE8F08F000000000000CA
:100DC0002DE9F04381B015460F460446FFF7D4FBEA
:100DD0002168D1F84880D1F81091226D042A39D1C8
:100DE0000646F868B0F5800F34D1086A800641D411
:100DF00097E80D10C1F88800C1F880203869C1F863
:100E00009000086820F04350184340EA0C0040F07E
:100E100000500860E068B0F1806F04D0D1F80001A4
:100E200010F4E06F50D0C1F84880086A000750D431
:100E3000002D3BD0681C13D1086A000749D4086A0A
:100E400000075CBF086A5FEA007042D4086A0007C6
:100E5000F2D53EE010206065012001B0BDE8F083CE
:100E6000FFF78AFB801BA84222D82168086A000786
:100E7000F6D52EE0D5B1681C12D1086A8006B7D528
:100E8000086A800644BF086A5FEA8060B0D5086AD5
:100E90008006F2D4ACE700BF2168086A8006A7D5B7
:100EA000FFF76AFB801BA842F6D901E0FFF764FB5D
:100EB0004FF400702065606D40F001006065012016
:100EC00001B0BDE8F08300BFC1F81091086A0007C7
:100ED000AED50820486202202065002001B0BDE8A0
:100EE000F083000000000000F0B581B015460F4609
:100EF0000446FFF741FB216D0646242908D014293A
:100F000018D002291BD1E068B0F1806F17D004E03F
:100F1000386840F00200032811D12068016A890670
:100F200012D4002060652046394601F0F5FE38B342
:100F300001B0F0BD386820F001000228EDD010208B
:100F40006065012001B0F0BD25B3691C12D1016AB2
:100F50008906E6D5016A890644BF016A5FEA8161B4
:100F6000DFD5016A8906F2D4DBE700BF2068006A9A
:100F70008006D6D5FFF700FB801BA842F6D90BE010
:100F8000B86B98B13868022834D0012838D0E0BB5B
:100F900039E000BFFFF7F0FA4FF400702065606D94
:100FA00040F001006065012001B0F0BD2168086AD1
:100FB00080071AD475B3681C0ED1086A800714D450
:100FC000086A80075CBF086A5FEA80700DD4086A0F
:100FD0008007F2D509E000BFFFF7CEFA801BA842D8
:100FE0001AD82168086A8007F6D5002002224A62D2
:100FF00001B0F0BD206D142805D0242004E000BF0E
:10100000206D242804D104202065002001B0F0BD0B
:101010001420F9E7FFF7B0FA4FF400702065606D17
:1010200040F0010060652168012002224A6201B09F
:10103000F0BD000000000000F0B581B00446FFF7ED
:101040009BFA002C00F08980054600206065216D28
:1010500011B101B0F0BD00BF204600F0D9F8206802
:1010600041F28836A6654FF6F40ED4E903C26369EF
:101070008168CFF6E00E0027CFF6FF7701EA0E0178
:1010800007EB024241EA0C016FF0FF0E676B114360
:101090000EEB03223943E369114319438160C168B0
:1010A000226A21F4E0211143C160216BA26B42EA64
:1010B00001410161E16B41610168626821F4F8510D
:1010C0000EEB022211430160016A890609D500BFB7
:1010D000FFF752FA401BB04238D82068016A8906EF
:1010E000F6D4C168A268D4E9097621F0FF01013F76
:1010F000A3693943C160022B016821F0400141EA34
:1011000002010160D0F80811E26A21F0A04141EA31
:10111000060141EA0201C0F80811016841F001012D
:10112000016003D1816841F002018160E068B0F1A3
:10113000806F05D101202065002001B0F0BD00BF07
:1011400002202065002001B0F0BD00BF4FF4007008
:101150002065606D40F001006065012001B0F0BDC8
:10116000F0B581B00D460446FFF706FA216D04295B
:101170001ED106462068A76D016A89061ED4882103
:1011800021652968082908D16A68C0F83021102231
:101190004262026842F480120260026822F0080291
:1011A000114341F040510160002001B0F0BD00BF8B
:1011B00010206065012001B0F0BD00BFD7B1791CDF
:1011C0000ED1016A8906DAD5016A890644BF016A2F
:1011D0005FEA8161D3D5016A8906F2D4CFE700BF07
:1011E000FFF7CAF9801BB84206D82068016A890651
:1011F000F6D4C4E7FFF7C0F94FF400702065606DC6
:1012000040F001006065012001B0F0BD0000000069
:101210002DE9F047B4B06946044601F10800B02159
:10122000FFF777F845F200012068C5F200218842F7
:1012300002D034B0BDE8F0874FF0007000906846EF
:101240004FF00008CDF8048000F016FA08B1FFF75F
:1012500087F844F2E04040F20044C5F60200C5F6CB
:1012600002042FAD4FF0040950F80C1C4FF0020A95
:1012700041F4001140F80C1C50F80C1C032601F43A
:1012800000112F912F9950F80C1C41F4804140F827
:101290000C1C50F80C1C092701F480412F912F9948
:1012A000016841F010010160016801F010012F9107
:1012B0002F99016841F002010160016801F002010B
:1012C0002F912F99016841F00801016000682946BB
:1012D00000F008002F902F9804F54060CDF8BC90E6
:1012E000CDE930A832963397FFF756F820462946C5
:1012F000CDE92F9ACDE931863397FFF74DF84FF4BA
:1013000060502946CDE92F0A04F500603397CDE9F6
:101310003186FFF741F840202946CDE92F0A0A20FF
:1013200033902046CDE93186FFF736F834B0BDE87A
:10133000F0870000000000002DE9F04381B0154661
:101340000F460446FFF718F926688046002FB06C58
:10135000D6F8101178D0226D042A7BD1326C01238B
:101360000132A264A26C62642764326863F31D7266
:101370003260E268B2F1806F04D0D6F8002112F436
:10138000E06F7BD0B06415F1010900F08C80002D76
:1013900046D100BF2068006A10F0060F60D096F8B2
:1013A00050003870206CA16C471C2764481EA06454
:1013B000A06C0028EED12068016A89071CD4002D9A
:1013C0004ED0B9F1000F0DD1016A890714D4016A1A
:1013D00089075CBF016A5FEA81710DD4016A8907E0
:1013E000F2D509E0FFF7C8F8A0EB0800A84239D809
:1013F0002068016A8907F5D5022141622165002034
:1014000001B0BDE8F08300BF96F850003870206C42
:10141000A16C471C2764481EA064A06C0028CAD099
:101420002068006A10F0060FEED100BFFFF7A4F8A5
:10143000A0EB0800A84215D82068006A10F0060F3B
:10144000F4D0276CE0E700BF08206065012001B000
:10145000BDE8F08310206065012001B0BDE8F08395
:10146000FFF78AF84FF400702065606D40F00100CE
:101470006065012001B0BDE8F08300BFC6F810111F
:1014800015F101097FF483AF0DE000BF96F850001D
:101490003870206CA16C471C2764481EA064A06CA7
:1014A00000283FF488AF2068016A11F0060FEDD1E3
:1014B000016A11F0060F04BF016A11F0060FE5D1B1
:1014C000016A11F0060FEFD0E0E700000000000015
:1014D0002DE9F04381B015460F460446FFF74CF85E
:1014E000002F6BD080462668206D04286CD1306CAC
:1014F00015F1010900F10100A064A06C606427648B
:10150000306820F04050306036D0002D6ED100BFE2
:101510002068006A400779D5387886F85000206C3A
:10152000A16C471C2764481EA064A06C0028EFD162
:101530002068016A890739D4002D67D0B9F1000FFE
:101540002AD1016A890731D4016A89075CBF016A1F
:101550005FEA81712AD4016A8907F2D526E000BFCB
:10156000387886F85000206CA16C471C2764481E10
:10157000A064A06C0028DBD02068016A4907EFD482
:10158000016A49075CBF016A5FEA4171E8D4016AF8
:101590004907F2D5E4E700BFFEF7EEFFA0EB080035
:1015A000A84235D82068016A8907F5D50221416231
:1015B0002165002001B0BDE8F08300BF0820606510
:1015C000012001B0BDE8F08310206065012001B06A
:1015D000BDE8F083387886F85000206CA16C471C79
:1015E0002764481EA064A06C0028A1D02068006A6F
:1015F0004007EFD4FEF7C0FFA0EB0800A84207D8D1
:101600002068006A4007F5D5276CE3E7FEF7B4FFD2
:101610004FF400702065606D40F0010060650120AE
:1016200001B0BDE8F0830000B0B544F60C05C5F686
:10163000020529684907296806D401F00701081A3C
:1016400018BF0120B0BD00BF21F00701084328608A
:10165000FEF792FF044600BF55F8080C800407D43B
:10166000FEF78AFF001BB0F57A7FF5D90120B0BDE7
:101670000020B0BD000000002DE9F0470446C0780E
:1016800044F22C480007C5F6020833D5606E4FEAD5
:10169000305103290CD8DFE801F003111D2600BFEB
:1016A000D8F8001041F40031C8F800101BE000BF6A
:1016B00001266078C0070BD020E000BF04F10800CD
:1016C000022101F071FE064660B16078C00715D1B5
:1016D000354646E004F12800022101F0F9FE0646F5
:1016E0000028F2D1606ED8F8241021F4401108438C
:1016F000C8F8240000266078C007E9D0A06D04284F
:101700000ED83546DFE800F00412181E1E0000BF98
:10171000D8F80000354640F40030C8F8000011E069
:1017200001250127607840071FD453E004F1080029
:10173000002101F039FE04E004F12800002101F04D
:10174000C7FE05462F461DB1607840070DD441E025
:10175000D8F82400A16D20F0070000250843C8F840
:10176000240037466078400734D5D4F8A4004FEA07
:10177000705005280CD8DFE800F00311171D1D1D5F
:10178000D8F8000040F40030C8F8000012E000BFB4
:10179000012501266078000720D455E004F10800F7
:1017A000002101F001FE04E004F12800002101F015
:1017B0008FFE05462E461DB1607800070ED443E02B
:1017C000D8F82C00D4F8A41020F4600000250843B9
:1017D000C8F82C003E466078000735D5D4F8A8003C
:1017E0004FEA306005280DD8DFE800F00412181E1B
:1017F0001E1E00BFD8F8000040F40030C8F80000FA
:1018000012E000BF01250127E078800720D44EE0D8
:1018100004F10800002101F0C7FD04E004F12800F4
:10182000002101F055FE05462F461DB1E0788007E6
:101830000ED43CE0D8F82C00D4F8A81020F0E060DA
:1018400000250843C8F82C003746E07880072ED5DD
:10185000E06C4FEA301003280ED8DFE800F00903EF
:10186000130900BFD8F8000040F40030C8F80000A9
:101870002E467DB912E000BF012501266078C00622
:1018800019D44CE004F10800022101F08DFD054659
:101890002E461DB16078C0060DD440E0D8F8200077
:1018A000E16C20F0300000250843C8F820003E46D7
:1018B0006078C00633D5E06D4FEA303004280DD88B
:1018C000DFE800F00412181E1E0000BFD8F8000068
:1018D00040F40030C8F8000012E000BF01250127E5
:1018E000607880061FD44EE004F10800002101F06A
:1018F0005BFD04E004F12800002101F0E9FD05464C
:101900002F461DB1607880060DD43CE0D8F8240045
:10191000E16D20F4E04000250843C8F82400374674
:10192000607880062FD5206E4FEA3040052809D810
:10193000DFE800F0040E1404040400BF2E46ADB925
:1019400018E000BF01250126607840061FD44FE053
:1019500004F10800012101F027FD04E004F1280052
:10196000012101F0B5FD05462E461DB16078400607
:101970000DD43DE0D8F82400216E20F4E0200025AD
:101980000843C8F824003E466078400630D5D4F8B5
:10199000AC004FEA3070052808D8DFE800F0030DEE
:1019A000130303032F46ADB918E000BF012501273B
:1019B0006078000620D442E004F10800012101F023
:1019C000F3FC04E004F12800012101F081FD05464B
:1019D0002F461DB1607800060ED430E0D8F82C00F8
:1019E000D4F8AC1020F0E04000250843C8F82C00E3
:1019F00037466078000622D5E06E58B1B0F1005F3E
:101A00000CD0B0F1805F2FD1D8F8000040F4003046
:101A1000C8F800002E469DB908E000BF04F1080098
:101A2000012101F0C1FC05462E464DB9D8F824002D
:101A3000E16E20F0405000250843C8F824003E46DF
:101A4000E078C00733D0A06C032813D8DFE800F09B
:101A500008021A08D8F8000040F40030C8F8000066
:101A6000A946BDB91AE000BF01250126E078C007EC
:101A7000E9D11CE001254FF00109A07840061AD5F4
:101A80001CE000BF04F10800022101F08DFC0546B6
:101A9000A9461DB1A07840060DD50FE0D8F820006A
:101AA000A16C20F0030000250843C8F82000B146CF
:101AB000A078400602D44F4618E000BFD8F8D403FF
:101AC00040F48070C8F8D403FEF756FD064600BF08
:101AD000D8F8D403C00507D4FEF74EFD801B642858
:101AE000F6D90325032701E02F468DB12078C007E2
:101AF00061D0A06F4FEAF00005283BD8DFE800F086
:101B000004404604040400BF002D2E4646D149E09F
:101B1000D8F84410D4F8B000414011F4407F11D0FF
:101B2000D8F84410D8F8442042F48032C8F8442051
:101B3000D8F8442021F4407122F48032C8F84420BF
:101B4000C8F84410B0F5807F40F0CE82FEF714FD57
:101B5000064641F2883A0325032700BFD8F844001F
:101B6000800700F1BF82FEF707FD801B5045F5D9C5
:101B7000BCE700BF01250126207880071FD44CE078
:101B800004F10800012101F00FFC04E004F1280039
:101B9000012101F09DFC05462E461DB120788007ED
:101BA0000DD43AE0D8F82800A16F20F038000025C5
:101BB0000843C8F828003E46207880072DD5606F7E
:101BC000052809D8DFE800F0040E1404040400BF5F
:101BD0002F46ADB918E000BF012501272078400746
:101BE0001FD44DE004F10800012101F0DDFB04E009
:101BF00004F12800012101F06BFC05462F461DB1C0
:101C0000207840070DD43BE0D8F82800616F20F021
:101C1000070000250843C8F8280037462078400709
:101C20002ED5D4F89000052808D8DFE800F0030D81
:101C3000130303032E46ADB918E000BF01260125AA
:101C40002078800620D451E004F10800012101F041
:101C5000ABFB04E004F12800012101F039FC05464A
:101C60002E461DB1207880060ED43FE0D8F82C0017
:101C7000D4F8901020F0070000250843C8F82C0085
:101C80003E462078800631D5D4F88C004FEA30707B
:101C9000052809D8DFE800F0040E1404040400BF8E
:101CA0002F46ADB918E000BF012701252078400676
:101CB00020D451E004F10800002101F075FB04E09C
:101CC00004F12800022101F003FC05462F461DB156
:101CD000207840060ED43FE0D8F82800D4F88C10C5
:101CE00020F0E04000250843C8F828003746207857
:101CF000400631D5D4F898004FEAB020052809D81D
:101D0000DFE800F0040E1404040400BF2E46ADB951
:101D100018E000BF012601252078000620D454E0F9
:101D200004F10800002101F03FFB04E004F1280069
:101D3000022101F0CDFB05462E461DB1207800069C
:101D40000ED442E0D8F82C00D4F8981020F4E050DB
:101D500000250843C8F82C003E462078000634D5FC
:101D6000D4F89C004FEA703005280FD8DFE800F067
:101D700004141A04040400BF2F46E5B120680107CB
:101D800027D4C1063ED4000355D475E001270125B0
:101D900020680107F5D51CE004F10800002101F0DE
:101DA00003FB04E004F12800022101F091FB054649
:101DB000002D2F46E2D1D8F82C00D4F89C1020F446
:101DC000604000250843C8F82C003746206801070A
:101DD000D7D5D4F88000B0F5805F09D104F1280090
:101DE000022101F075FB002818BF0127D4F88000FC
:101DF000D8F8281021F440510843C8F8280020687A
:101E0000C106C0D5D4F89400B0F5807F09D104F1A3
:101E10002800022101F05CFB002818BF0127D4F83C
:101E20009400D8F82C1021F440710843C8F82C0015
:101E30002068000320D5D4F8A000B0F5003F0FD0F3
:101E4000B0F5803F06D078BB04F10800002101F016
:101E5000ABFA04E004F12800022101F039FB054649
:101E60002E4655B9D8F82C00D4F8A01020F44030F4
:101E700000250843C8F82C003E46A07840072BD523
:101E8000D4F88400B0F5401F0BD0B0F5001F11D07E
:101E9000B0F5801F2AD1D8F8000040F40030C8F80F
:101EA00000002F46CDB90DE001260125A07840079E
:101EB000E6D411E004F12800012101F009FB0546F8
:101EC0002F4655B9D8F82800D4F8841020F44010D3
:101ED00000250843C8F828003746A078C0070AD173
:101EE0003E462168880016D533E000BF0127012552
:101EF000A078C007F4D0206DB0F5803F10D018BB9B
:101F0000D8F8000040F40030C8F800002E4685B133
:101F1000216888001DD460688A0326D465E000BF6C
:101F200004F10800022101F03FFA0546002D2E467B
:101F3000EED1D8F82000216D20F480300025084330
:101F4000C8F82000CCE700BF0126012521688800E1
:101F5000E1D504F12800022101F0BAFA002818BFE7
:101F60000126D4E900108A033FD5E26F6FF0010328
:101F700003EB3223022B0BD34FEA322343B1012B65
:101F800040F0AA80D8F8003043F40033C8F800309D
:101F900025B3CA022CD48A0234D44A003CD4CA0FD6
:101FA00049D1090251D4C1075AD1810763D44107ED
:101FB0006CD4010776D4C10600F18080800607D575
:101FC00004F12800022101F083FA002818BF01253E
:101FD000002D18BF01252846BDE8F087D8F8283025
:101FE00023F440731A43C8F828203546CA02D2D5D4
:101FF000D8F82420236F22F000421A43C8F8242086
:102000008A02CAD5D8F82420A36E22F080721A431F
:10201000C8F824204A00C2D558F81C2C22F40042EB
:1020200048F81C2CD4F8B42058F81C3C1A4348F843
:102030001C2CCA0FB5D0D8F82020636D22F0405276
:102040001A43C8F820200902ADD5D8F82810D4F8D2
:10205000882021F440011143C8F82810C107A4D0FA
:1020600004F10800002101F09FF9002818BF05467F
:10207000606881079BD504F10800012101F094F903
:10208000002818BF05466068410792D504F1080092
:10209000022101F089F9002818BF05466068010790
:1020A0007FF589AF04F12800002101F011FA002822
:1020B00018BF05466068C1067FF580AF04F12800AF
:1020C000012101F005FA002818BF05466068800666
:1020D0007FF57EAF74E700BF0125CA027FF55BAFD5
:1020E00086E700BFD4F8B0004FF6CF7358F81C2C29
:1020F000C0F2FF0300F4407122F47C5203EA101393
:102100006FF31F30B1F5407F08BF1A43002548F830
:102110001C2CD8F844100843C8F84400FFF7CBBC87
:102120002DE9F04381B0002800F02A8142F2000836
:102130000446C5F200288946D8F8000000F00F00D8
:1021400088420ED2D8F8000020F00F0040EA0900C3
:10215000C8F80000D8F8000000F00F00484540F033
:102160000F81206844F218474107C5F602070AD5D7
:1021700021693A6802F07002914204D93A6822F06B
:1021800070021143396001070AD561697A6802F06B
:102190007002914204D97A6822F07002114379608A
:1021A000C1060AD5A1697A6802F4E062914204D9B5
:1021B0007A6822F4E0621143796081060AD5E16908
:1021C000BA6802F07002914204D9BA6822F0700233
:1021D0001143B96010F002010AD0E2683B6803F0D5
:1021E0000F039A4204D93B6823F00F031A433A6065
:1021F000C20746D0386820F47061D4E90102012892
:1022000041EA0201396009D003280DD0022811D11A
:1022100057F8181C890340F1B38010E057F8181CD8
:10222000C90540F1AD800AE057F8181C890140F15A
:10223000A78004E057F8181C490740F1A18057F81F
:10224000081C21F00701084347F8080CFEF794F931
:10225000064641F2883500BF57F8080C616800F067
:102260003800B0EBC10F09D0FEF786F9801BA842F9
:10227000F2D9032001B0BDE8F08300BF206800F070
:10228000020151B1E1683A6802F00F02914204D2B2
:102290003A6822F00F0211433960D8F8001001F0BB
:1022A0000F0149450DD9D8F8001021F00F0141EA7E
:1022B0000901C8F80010D8F8001001F00F014945D5
:1022C0005ED141070AD521693A6802F07002914255
:1022D00004D23A6822F070021143396001070AD52E
:1022E00061697A6802F07002914204D27A6822F041
:1022F000700211437960C1060AD5A1697A6802F4B7
:10230000E062914204D27A6822F4E062114379607B
:1023100080060AD5E069B96801F07001884204D2EC
:10232000B96821F070010843B86000F02DF83968F1
:1023300043F6C0333A68C0F60003C1F3032102F04C
:102340000F02595C9A5C01F01F0120FA01F102F0C2
:102350001F0040F20C0221FA00F0C2F200421060AD
:1023600040F2040040F20802C2F20040C2F2004211
:102370000068116001B0BDE8F043FEF749B900BF45
:10238000012001B0BDE8F08344F20041C5F602012E
:102390000869C0F3C200032810D002282ED098BBD1
:1023A0000868800649F20000C0F2D03058BF70477C
:1023B0000968C1F3C101C840704700BF8A6A886AD2
:1023C000C0F3051CC86ABCF1000F4B6B22D000F0B3
:1023D000010002F003024042022A00EAD3006FF338
:1023E0005F3000EE100AB8EE400A15D0C2B9086896
:1023F000800619D49FED281A23E000BF47F640005D
:10240000C0F27D10704700BF40F60010C0F23D00E2
:10241000704700BF002070479FED1E1A11E000BFFB
:102420009FED1B1A0DE000BF086849F20002C0F2E0
:10243000D032C0F3C10022FA00F001EE100AB8EE6B
:10244000411A086B9FED153A6FF35F2002EE100AF8
:10245000086BC0F34620B8EE422A013000EE032A92
:1024600000EE10CAB7EE003AB8EE400A81EE000A5C
:1024700032EE031A20EE010A01EE100AB8EE411AFC
:1024800080EE010ABCEEC00A10EE100A704700BFD1
:102490000024744A20BCBE4B0024744C0000003958
:1024A000F0B581B0002800F0D5800446007844F2F1
:1024B0000046C007C5F6020622D12078800768D5FD
:1024C000306910F03801B06A42D0182908BF5FEABD
:1024D00080703DD0E0683168002800F0258121F04F
:1024E000190108433060FEF747F805463068400799
:1024F00048D4FEF741F8401B0228F7D977E100BF26
:10250000306900F03801B06A102905D018290BD1C4
:1025100000F00300022807D130688003CDD5606841
:102520000028CAD196E000BF6068002800F0328120
:10253000B0F5A02F00F04681B0F5803F00F0468155
:10254000306820F480303060306820F4802040E132
:1025500030684007E06801D500287BD0316821F061
:10256000190108433060FEF707F805463068400758
:1025700008D4FEF701F8401B02284FF00300F5D9FC
:1025800001B0F0BD7068216920F0FE4040EA0160B2
:1025900070602078C00619D5306900F03801B06A43
:1025A000082906D0182940F0818000F00300012896
:1025B0007CD13068C00502D5E06980284AD1F06836
:1025C000216A20F07C5040EA0160F060207800072A
:1025D00044D42078800655D42078400700F17E80CE
:1025E000656A9DB3306900F03800182840F0148106
:1025F000012DB16A306B2DD001F00302A36A9A421B
:1026000028D1C1F30511E26A914223D10146226B20
:102610006FF35F21013A91421CD1C0F34622616BF6
:1026200001398A4216D1C0F30642A16B01398A42B0
:1026300010D1C0F30660E16B013988420AD1706B9A
:10264000A16CC0F3CC00814240F09C81002001B01D
:10265000F0BD00BF012001B0F0BD00BF60690028DF
:10266000706F4FD040F001007067FDF785FF0546A1
:10267000706F8007ADD4FDF77FFF401B0228F7D9AC
:10268000B5E000BFA0690028306871D040F48050E8
:102690003060FDF771FF0546306880049CD4FDF77B
:1026A0006BFF401B0228F7D9A1E000BFE0690028BA
:1026B000306800F09F8040F080003060FDF75CFFE4
:1026C000054600BF3068C0053FF579AFFDF754FF00
:1026D000401B02284FF00300F4D951E7D6F800045C
:1026E00040F48070C6F80004FDF746FF054600BFC1
:1026F000D6F80004C00529D4FDF73EFF401B64282E
:10270000F6D974E020F001007067FDF735FF05464B
:10271000706F80077FF55DAFFDF72EFF401B02282D
:102720004FF00300F4D92BE721F001003060FDF7F2
:1027300023FF0546306840077FF52BAFFDF71CFFF0
:10274000401B02284FF00300F4D919E7A0680028C5
:1027500000F08480052800F09B80012800F09C8018
:10276000306F20F001003067306F20F0040096E0F9
:1027700020F480503060FDF7FFFE0546306880048D
:102780007FF52AAFFDF7F8FE401B02284FF003004B
:10279000F4D9F5E6306820F480303060306820F4F9
:1027A00080203060FDF7E8FE054600BF30688003FA
:1027B0007FF583AEFDF7E0FE401B64284FF0030079
:1027C000F4D9DDE6306840F480203060306840F4B1
:1027D00080303060FDF7D0FE054600BF30688003D2
:1027E0003FF56BAEFDF7C8FE401B6428F6D9032009
:1027F00001B0F0BD20F080003060FDF7BDFE054661
:102800003068C0057FF5E2AEFDF7B6FE401B02283A
:102810004FF00300F4D9B3E6306820F080703060E8
:10282000FDF7AAFE022D05460CD100BF30688001DD
:1028300048D5FDF7A1FE401B02284FF00300F5D953
:102840009EE600BF306880017FF500AFFDF794FE83
:10285000401B02284FF00300F4D991E6306F20F0BE
:1028600001003067306F20F004003067FDF784FE10
:10287000054641F28837306F80077FF5B1AEFDF72E
:102880007BFE401BB8424FF00300F4D978E600BF4E
:10289000306F40F004003067306F40F00100306767
:1028A000FDF76AFE054641F2883700BF306F8007AA
:1028B0003FF596AEFDF760FE401BB8424FF00300B7
:1028C000F4D95DE604F12807B06A40F2F331884399
:1028D0008ECF0843591E40EA02104FF47E426FF338
:1028E0005F21B06202EB47204FF4FE0280B2E36B3F
:1028F0000844A16B02EB01414FF0FE4201F4FE01DE
:1029000002EB0362084402F0FE4108443063F06ABF
:102910004FF6F87120F00100F062706BA26C8843F2
:1029200040EAC2007063F06A216C20F00C0008439A
:10293000F062F06A616C20F002000843F062F06A15
:1029400040F48030F062F06A40F40030F062F06AE7
:1029500040F48020F062F06A40F00100F0623068DC
:1029600040F080703060FDF707FE0446306880015B
:102970003FF56CAEFDF700FE001B02284FF0030090
:10298000F4D9FDE5F06A20F00100F062FDF7F4FDF6
:102990000546FDF7F1FDA842FBD0706B4FF6F871CC
:1029A000A26C884340EAC2007063F06A40F0010004
:1029B000F062002001B0F0BD704700000000000090
:1029C000F0B581B00446007A012803D102252846DB
:1029D00001B0F0BD01202072607A012808D10220E8
:1029E000607220680E464068400605D400250FE05E
:1029F00001250420E06036E00820E060204600F079
:102A0000FBFD0546012803D10125284601B0F0BD94
:102A1000FDF7B2FD21684A68D20713D1074602E0EC
:102A20004868C0070ED1FDF7A7FDC01B2168032829
:102A3000F6D34868C007F3D1012565720220E06033
:102A400011E000BF886820614A68520602D43060F5
:102A500007E000BF0820E0604868012520F0010081
:102A600048600120607200202072284601B0F0BD4D
:102A7000B0B5D8B30446407A20B900202072204671
:102A800000F062F802206072D4E90001026822F0CE
:102A900004020260026822F02002114341F08041EA
:102AA000016040F6BC21C1F25971016147F2742105
:102AB0000161016821F080410160FDF75DFD216841
:102AC0000A68520014D4086840F00400086048689E
:102AD000400621D4FDF750FD2168496849071FD4FD
:102AE000012060720020E060B0BD00BF0120B0BDD9
:102AF000054602E008684000E5D5FDF73DFD401BB6
:102B000021680328F6D308684000F3D501206072DD
:102B10000221E160B0BD00BF042060720120B0BDA1
:102B2000054602E040684007DAD5FDF725FD401B69
:102B300003282068F6D341684907F3D50420607262
:102B40000220E0600120B0BD10B5B0B002A904467B
:102B500001F10800B021FDF7DCFB41F6000120681F
:102B6000C4F60201884201D030B010BD00200390AD
:102B70004FF40030029002A8FEF77EFD08B1FDF789
:102B8000EFFB44F2DC40C5F60200016841F0400171
:102B90000160006800F040000190019830B010BD65
:102BA000411E0020B0EB116F02D00120704700BF22
:102BB0004EF21002F023CEF2000251604EF6235185
:102BC000CEF200010B700721906011607047000089
:102BD000FEE700000000000081B044F2E040C5F6CE
:102BE0000200016841F010010160016801F010016C
:102BF00000910099016841F004010160016801F051
:102C0000040100910099016841F0800101600168B0
:102C100001F0800100910099016841F0020101601A
:102C2000016801F0020100910099016841F008017A
:102C30000160016801F0080100910099016841F00C
:102C400001010160006800F001000090009801B0EF
:102C5000704700000000000010B586B040F2180078
:102C600045F20002C2F200400021CDE90411CDE995
:102C70000211CDE90011C5F2002202600822C160F4
:102C8000C0E901211723036101240323C0E90541A1
:102C9000C0E9071143624FF08043C0E90A31C0E93F
:102CA0000C12C0E90E11FEF7C7F908B1FDF758FB89
:102CB0004FF00110039040F218006946C2F2004044
:102CC00041F2883200940294FDF76AFD08B1FDF7E5
:102CD00047FB06B010BD000080B540F2740041F61D
:102CE0000001C2F20040C4F602010160002141600F
:102CF000FFF7BEFE002808BF80BDBDE88040FDF79D
:102D00002FBB000000000000FEE7000000000000F4
:102D1000FEE70000000000002DE9F047036882682C
:102D20001F68002A27F040521A600DD00A68032A53
:102D300013D0022A1AD103F5C07E03F5C47203F53D
:102D4000C87C03F5D07419E01A684F6822F080023D
:102D50003A431A600A68032AEBD103F5A07E03F513
:102D6000A47203F5A87C03F5B07407E003F5807E38
:102D700003F5847203F5887C03F59074D1E912564B
:102D80003543CEF80050CD6A6DB18D6A2560DEF80E
:102D90000040CD6A24F47C144E6B2C430D6B3443FD
:102DA0002C43CEF8004014684D6C24F01F042C43D3
:102DB00014608A6B0AB10C6804B3CD68CC6925B382
:102DC000DEF80060D1E90487A4B3002AD1E9089AAB
:102DD00048D04CF2C000CFF2FF0030400E6C3043C0
:102DE000384340EA080040EA0A0040EA090010437C
:102DF00028432043CEF8000050E000BFCC6B013CDC
:102E00001C64CD68002DCC69DAD1002C4ED0DEF8E0
:102E10000060002AD1E908074ED04CF2C005CFF27D
:102E2000FF053F352E400D6C2E433743384310438A
:102E300046E000BF002A4BD04CF2C0000B6CCFF232
:102E4000FF0000F57C5030401843384340EA08004A
:102E500010432843CEF800008868CCF8000000201A
:102E6000BDE8F08743F63F7226EA02023A4342EA9F
:102E7000080242EA0A0242EA09022A432243CEF841
:102E80000020C06AB0F1805F08D14869082805D1E8
:102E9000DEF8000040F00060ACE700BF8868CCF8C6
:102EA0000000886998640020BDE8F087082141652A
:102EB0000120BDE8F08700BF26F47C523A4310435E
:102EC0002043CEF80000886998640020BDE8F087B0
:102ED00026F03F023A4342EA08022A43CEF8002095
:102EE000C06AB0F1805FB7D148690828B4D1DEF874
:102EF000000040F00060ADE7F0B597B040F2100080
:102F000003ACC2F200402821057804F11800FDF757
:102F100000FA0120039003200026CDE90066002D71
:102F2000049608BF01200896002D06904FF00B0074
:102F300007964FF4407708BFEB200A97002D0590C5
:102F40004FF400500B904FF440300E904FF0FF00C4
:102F50000D904FF008000C9641F2883210962146F1
:102F60000F9608BF0420139614904FF040701190F4
:102F700040F21800C2F20040CDE91566FDF7B4FF3B
:102F8000A8B90220002D08BF4FF48077039003A951
:102F900008BF322041F288320A97059040F21800AB
:102FA000C2F200400E961496FDF79EFF20B14FF03E
:102FB000FF3017B0F0BD00BF0020009040F21800B5
:102FC0006946C2F20040FEF7CBF8002818BF4FF068
:102FD000FF3017B0F0BD00002DE9F04F95B005208F
:102FE000FDF7C6F901AD44212846FDF792F940F2FC
:102FF000180B41F28832C2F2004B294658464FF076
:103000000309CDF810904FF06608CDF80C8000272A
:10301000CDE912771497FDF767FF01AD44212846EB
:10302000FDF777F941F2883258462946CDF81090DD
:103030004FF0990ACDF80CA0CDE912771497FDF75F
:1030400053FF01AD44212846FDF763F941F2883270
:10305000584629460126CDE90386CDE91277149713
:10306000FDF742FF01AD44212846FDF752F941F238
:103070008832584629461497CDE903A6CDE9127740
:10308000FDF732FF0520FDF773F940F2100801AD9E
:10309000C2F2004803243821284698F80060002E28
:1030A00008BF0124FDF735F94FF0407104949F20CB
:1030B000002E039041F2883208BF4FF080715846CD
:1030C000CDE90F192946CDE91177CDE91377FDF741
:1030D0000BFFD8B940F218000DF10101C2F2004017
:1030E00041F28832FEF728F980B99DF801009DF879
:1030F00002109DF80320090241EA00401044C8F87C
:10310000040008F1010000F097F828B14FF0FF30FB
:1031100015B0BDE8F08F00BF00F00AF8002818BF16
:103120004FF0FF3015B0BDE8F08F00000000000048
:10313000F0B597B040F21000C2F200400478012CC4
:1031400032D002AD032638212846002C08BF0126C4
:10315000FDF7DFF84FF040770596352004904FF4E7
:103160000050002C0A904FF0000008BF4FF080770D
:1031700012900121CDE91300159040F21800119131
:10318000C2F2004041F2883229461097FDF7ACFEAA
:1031900050B940F218000DF10701C2F2004041F2AF
:1031A0008832FEF7C9F818B14FF0FF3017B0F0BD04
:1031B0009DF8070080073BD4204600F061FB002803
:1031C000F2D19DF8070002AC382140F002008DF8E2
:1031D00007008DF85B002046FDF79BF83120049036
:1031E0004FF400500A9000201290CDE91300159082
:1031F00040F2180001211191C2F2004041F28832E0
:10320000214605961097FDF76FFE0028CCD140F2BD
:1032100018000DF15B01C2F2004041F28832FEF766
:1032200057F9C0B2002818BF4FF0FF3017B0F0BDFB
:10323000002017B0F0BD00002DE9F04194B040F23D
:1032400010086D46C2F2004803260446382198F85B
:1032500000702846002F08BF0126FDF75AF84FF0EE
:1032600040710396052002904FF40050002F089003
:103270004FF0000008BF4FF08071109041F288328B
:10328000CDE91100139040F218000E9101210F9129
:10329000C2F200402946FDF727FE002868D140F21F
:1032A000180041F28832C2F200402146FEF744F88D
:1032B00000285DD198F800606D4603273821284624
:1032C000002E08BF0127FDF724F84FF04071039747
:1032D000352002904FF40050002E08904FF000006F
:1032E00008BF4FF08071109041F28832CDE9110093
:1032F000139040F218000E9101210F91C2F200408C
:103300002946FDF7F1FD98BB40F21800611CC2F29E
:10331000004041F28832FEF70FF848BB98F8006091
:103320006D46032738212846002E08BF0127FCF7E9
:10333000F0FF4FF040710397152002904FF40050BA
:10334000002E08904FF0000008BF4FF080711090E1
:1033500041F28832CDE91100139040F218000E912D
:1033600001210F91C2F200402946FDF7BDFD28B1B1
:103370004FF0FF3014B0BDE8F08100BF40F21800FC
:10338000A11CC2F2004041F28832FDF7D5FFC0B265
:10339000002818BF4FF0FF3014B0BDE8F0810000E6
:1033A0007047000000000000F0B581B044F22C47E7
:1033B000C5F6020757F8042C02F00302032A03D1D2
:1033C000012001B0F0BD00BF054657F82C0C0C469B
:1033D00020F0806047F82C0CFDF7CEF8064600BFC1
:1033E00057F82C0C000105D5FDF7C6F8801B022804
:1033F000F6D964E057F8040CEE6895E80E0020F466
:103400007C30012C40EA0130A2F101016FF35F2111
:103410004FF47E4202EB432247F8040C92B24FF085
:10342000FE4302EB01004FF4FE012A6901EB064165
:1034300001F4FE0103EB0262084402F0FE4108447D
:10344000F8603868696920F0C00040EA010038601F
:103450003868A96920F0200040EA01003860386827
:103460004FF6F87120F0100038603869EA6920EAF8
:1034700001004FF4001140EAC2003861386808BF0B
:103480004FF4801140F01000002C386008BF4FF45A
:10349000002138680843386057F82C0C40F08060F1
:1034A00047F82C0CFDF768F8044600BF57F82C0CC1
:1034B000000107D4FDF760F8001B0328F6D30320B2
:1034C00001B0F0BD002001B0F0BD00000000000020
:1034D000F0B581B044F22C47C5F6020757F8042C2A
:1034E00002F00302032A03D1012001B0F0BD00BFA6
:1034F000054657F82C0C0C4620F0805047F82C0C51
:10350000FDF73AF8064600BF57F82C0C800005D5A9
:10351000FDF732F8801B0228F6D964E057F8040C56
:10352000EE6895E80E0020F07C70012C40EA015016
:10353000A2F101016FF35F214FF47E4202EB4322BF
:1035400047F8040C92B24FF0FE4302EB01004FF437
:10355000FE012A6901EB064101F4FE0103EB026260
:10356000084402F0FE41084478613868696920F433
:10357000406040EA010038603868A96920F40070B2
:1035800040EA0100386038684FF6F87120F4807026
:103590003860B869EA6920EA01004FF0807140EABA
:1035A000C200B861386808BF4FF4000140F4807071
:1035B000002C386008BF4FF4800138680843386039
:1035C00057F82C0C40F0805047F82C0CFCF7D4FF37
:1035D000044600BF57F82C0C800007D4FCF7CCFF42
:1035E000001B0328F6D3032001B0F0BD002001B07A
:1035F000F0BD00000000000010B582B00021019174
:1036000001684A6852070BD44A6822F040024A60B7
:10361000C168002421F00801C160204602B010BD3D
:103620000A6842F080420A600A6822F080420A601A
:1036300002220192019A013A0192019A002A45D090
:103640000A68520017D5019A013A0192019AEAB329
:103650000A6852000FD5019A013A0192019AAAB361
:103660000A68520007D5019A013A0192019A6AB399
:103670000A685200DED44A68520603D54A6822F02E
:1036800040024A6002220192019A013A0192019A93
:10369000E2B14A685207BBD5019A013A0192019AF8
:1036A000A2B14A685207B3D5019A013A0192019A30
:1036B00062B14A685207ABD5019A013A0192019A68
:1036C00022B14A685207DFD4A2E700BF0124447246
:1036D000C16841F00201C16000210172FFF76CF97D
:1036E000204602B010BD000070470000000000003E
:1036F000FCF74ABF00000000B0B59CB044F61804C7
:10370000022000251195CDE90F55CDE90D55CDE9E4
:103710000B550895C5F60204CDE90655CDE90455CB
:10372000CDE902550195FDF77FFF0095206820F453
:1037300040402060206800F44040009000982068DD
:10374000800409D4206880045CBF20685FEA804060
:1037500002D420688004F2D5212009904FF48030F3
:103760000A9001200F902C220221CDE915200C2077
:10377000199009A81491CDE91211CDE9171100246F
:10378000CDE91A44FEF78CFE20B1EFF3108072B63B
:10379000FEE700BF3F20019003204FF48061CDE998
:1037A0000204082004904020CDE90500CDE907106F
:1037B00001A80321FEF7B4FC20B1EFF3108072B62C
:1037C000FEE700BF1CB0B0BD4EF6885042F2000CC0
:1037D000CEF20000C5F2002C026842F470020260D2
:1037E000DCF8000000F00F00062806D8DCF8000026
:1037F000072262F30300CCF8000044F200404EF6CA
:103800007F51C5F60200CEF6F621026842F00102B1
:10381000026000220261036819400160DCF80010B8
:10382000090706D5DCF80010072363F30301CCF881
:10383000001040F200218261C261C0F202210262E6
:1038400081620021C0F2FF11C16240F28021C0F20A
:103850000111016342638163C263016442640168D0
:1038600021F480210160026644F20000C5F20020CC
:1038700043F2D20101607047FEE700000000000043
:10388000F0B599B005AD0446032700284FF0440178
:10389000284608BF0127FCF73CFD0620079040F2B0
:1038A000180041F28832C2F20040294608970026EB
:1038B000CDE916661896FDF717FB60BB052007904B
:1038C0004FF400500D904FF040700696CDE9116610
:1038D000CDE90F66CDE90266CDE90066CDE9046663
:1038E0000A96002CCDE90876CDE90B660E9605A95F
:1038F00008BF4FF0807041F2883215961390012076
:10390000149040F21800C2F200401896CDE91666F5
:10391000FDF7EAFA20B14FF0FF3019B0F0BD00BF5B
:1039200002206946CDE90000002002900A200490A0
:103930004FF48000039040F2180041F28832C2F246
:103940000040FDF73DFAC0B2002818BF4FF0FF302D
:1039500019B0F0BD0000000086B04EF660704FF662
:10396000B452CEF20000CFF6FF728158890312D410
:10397000BFF34F8FBFF36F8F002140F8101CBFF3D0
:103980004F8FBFF36F8F815841F400318150BFF3E7
:103990004F8FBFF36F8F8158C90361D44FF62461F5
:1039A0000022CFF6FF71012643F6E07B42504FF62E
:1039B0002061CFF6FF71BFF34F8F4158CB08C1F3A1
:1039C000C907C1F34E327D1E06EBD101A7F1020AF1
:1039D0009E0701F003044FEA857E4FEA8A71019148
:1039E000F91E009104E000BF002AA2F1010229D0D3
:1039F0000BEA42113B467CB1012C46EA010303600D
:103A00002B4609D0022C4EEA01030360534603D033
:103A1000019B0B430360009B032FE5D341EA8371B5
:103A2000013301F1404C81F0004801F1804900BFB1
:103A3000043B0160C0F800C0C0F80080C0F80090EE
:103A4000F6D1D1E74FF6B452CFF6FF72BFF34F8FE6
:103A5000815841F480318150BFF34F8FBFF36F8F96
:103A600001240294FCF72CFE0DF108081B208DF8B0
:103A7000100000208DF8130040464FF010450395CC
:103A800005944FF48074ADF81140FCF7E9FD40F265
:103A90000110ADF8080016208DF8100005208DF8F3
:103AA000130000200395C0F2011005904046ADF8C8
:103AB0001140FCF7D5FD40F20120ADF808004FF0B1
:103AC0001050039012208DF8100003208DF8130081
:103AD00040F20010ADF81140C0F2011005904046D0
:103AE000FCF7BEFD0420FCF7FBFDFCF75DFDFFF7D6
:103AF00003FEFFF771F8FFF7EFF8FFF7ADF8FFF7F8
:103B00006BFAFFF7F9F900F033F800F036F800F03F
:103B100039F8FCF731FD00F1C805FCF72DFD40F246
:103B2000740948F2B517C2F20049C1F64E374FF496
:103B3000167401E0AE420DD2FCF71EFD064600F001
:103B400026F80028F6D0AE42F6D306F1C80500F0FC
:103B500023F8F1E748464146FEF732FF0298A0FB02
:103B60000712910901FB1400851900F015F8E3E72D
:103B700040F2790CC9F2000C604740F2C10CC9F266
:103B8000000C604740F2010CC9F2000C604740F2A3
:103B9000590CC9F2000C604740F2291CC9F2000C14
:103BA000604702E008C8121F08C1002AFAD1704716
:103BB0007047002001E001C1121F002AFBD17047AD
:103BC00000000000010203040102030406070809C3
:103BD000F03B00080000002410000000A23B000899
:103BE000003C00081000002480040000B23B0008E4
:103BF00001000000100000000090D0030090D003EE
:0200000490006A
:1000000080B5012000F084F8322000F094F8002040
:1000100000F07EF84FF4FA7000F08DF8012000F047
:1000200077F8322000F087F8002000F071F84FF4E4
:10003000FA7000F080F8012000F06AF8322000F039
:100040007AF8002000F064F84FF47A70BDE8804040
:1000500000F071B80000000080B540F600004FF4D9
:100060000051C5F6020000F06BF80138B0FA80F0DC
:10007000400980BD0000000080B586B044F2E04138
:100080000020C5F60201CDE904000A6842F004022E
:100090000A60096801F00401009100994FF40051D1
:1000A000CDE901100220039040F6000001A9C5F639
:1000B000020000F04AF806B080BD00000000000019
:1000C00070B586B044F2E0400025C5F60200059503
:1000D00041F2000400220168C5F6020441F010015B
:1000E00001600068082100F0100000900098204690
:1000F000082600F02FF8012001A9CDE902052046CD
:100100000196049500F021F806B070BD00000000D3
:100110000246002841F200004FF00801C5F6020037
:1001200018BF012200F016B841F200000821C5F600
:10013000020000F014B840F2713CC0F6000C6047B9
:1001400040F2495CC0F6000C604740F2993CC0F6B2
:10015000000C604740F2695CC0F6000C604740F25A
:08016000595CC0F6000C604779
:04000005080002CD20
:00000001FF
